{
  "_format": "hh-sol-artifact-1",
  "contractName": "LendingPool",
  "sourceName": "contracts/LendingPool.sol",
  "abi": [
    {
      "inputs": [
        {
          "internalType": "address",
          "name": "_trustToken",
          "type": "address"
        },
        {
          "internalType": "address",
          "name": "_reputationNFT",
          "type": "address"
        }
      ],
      "stateMutability": "nonpayable",
      "type": "constructor"
    },
    {
      "inputs": [],
      "name": "EnforcedPause",
      "type": "error"
    },
    {
      "inputs": [],
      "name": "ExpectedPause",
      "type": "error"
    },
    {
      "inputs": [
        {
          "internalType": "address",
          "name": "owner",
          "type": "address"
        }
      ],
      "name": "OwnableInvalidOwner",
      "type": "error"
    },
    {
      "inputs": [
        {
          "internalType": "address",
          "name": "account",
          "type": "address"
        }
      ],
      "name": "OwnableUnauthorizedAccount",
      "type": "error"
    },
    {
      "inputs": [],
      "name": "ReentrancyGuardReentrantCall",
      "type": "error"
    },
    {
      "inputs": [
        {
          "internalType": "address",
          "name": "token",
          "type": "address"
        }
      ],
      "name": "SafeERC20FailedOperation",
      "type": "error"
    },
    {
      "anonymous": false,
      "inputs": [
        {
          "indexed": true,
          "internalType": "address",
          "name": "borrower",
          "type": "address"
        },
        {
          "indexed": false,
          "internalType": "uint256",
          "name": "amount",
          "type": "uint256"
        },
        {
          "indexed": false,
          "internalType": "uint256",
          "name": "outstandingDebt",
          "type": "uint256"
        }
      ],
      "name": "LoanDefaulted",
      "type": "event"
    },
    {
      "anonymous": false,
      "inputs": [
        {
          "indexed": true,
          "internalType": "address",
          "name": "borrower",
          "type": "address"
        },
        {
          "indexed": false,
          "internalType": "uint256",
          "name": "amount",
          "type": "uint256"
        },
        {
          "indexed": false,
          "internalType": "uint256",
          "name": "dueDate",
          "type": "uint256"
        },
        {
          "indexed": false,
          "internalType": "enum LendingPool.LoanPath",
          "name": "path",
          "type": "uint8"
        }
      ],
      "name": "LoanDisbursed",
      "type": "event"
    },
    {
      "anonymous": false,
      "inputs": [
        {
          "indexed": true,
          "internalType": "address",
          "name": "previousOwner",
          "type": "address"
        },
        {
          "indexed": true,
          "internalType": "address",
          "name": "newOwner",
          "type": "address"
        }
      ],
      "name": "OwnershipTransferred",
      "type": "event"
    },
    {
      "anonymous": false,
      "inputs": [
        {
          "indexed": false,
          "internalType": "address",
          "name": "account",
          "type": "address"
        }
      ],
      "name": "Paused",
      "type": "event"
    },
    {
      "anonymous": false,
      "inputs": [
        {
          "indexed": true,
          "internalType": "address",
          "name": "lender",
          "type": "address"
        },
        {
          "indexed": false,
          "internalType": "uint256",
          "name": "amount",
          "type": "uint256"
        },
        {
          "indexed": false,
          "internalType": "uint256",
          "name": "newTotal",
          "type": "uint256"
        }
      ],
      "name": "PoolDeposit",
      "type": "event"
    },
    {
      "anonymous": false,
      "inputs": [
        {
          "indexed": true,
          "internalType": "address",
          "name": "lender",
          "type": "address"
        },
        {
          "indexed": false,
          "internalType": "uint256",
          "name": "amount",
          "type": "uint256"
        },
        {
          "indexed": false,
          "internalType": "uint256",
          "name": "yieldEarned",
          "type": "uint256"
        }
      ],
      "name": "PoolWithdrawal",
      "type": "event"
    },
    {
      "anonymous": false,
      "inputs": [
        {
          "indexed": true,
          "internalType": "address",
          "name": "borrower",
          "type": "address"
        },
        {
          "indexed": false,
          "internalType": "uint256",
          "name": "amount",
          "type": "uint256"
        },
        {
          "indexed": false,
          "internalType": "uint256",
          "name": "remaining",
          "type": "uint256"
        },
        {
          "indexed": false,
          "internalType": "uint8",
          "name": "newTrustScore",
          "type": "uint8"
        }
      ],
      "name": "RepaymentMade",
      "type": "event"
    },
    {
      "anonymous": false,
      "inputs": [
        {
          "indexed": true,
          "internalType": "address",
          "name": "borrower",
          "type": "address"
        },
        {
          "indexed": false,
          "internalType": "uint8",
          "name": "oldScore",
          "type": "uint8"
        },
        {
          "indexed": false,
          "internalType": "uint8",
          "name": "newScore",
          "type": "uint8"
        }
      ],
      "name": "TrustScoreUpdated",
      "type": "event"
    },
    {
      "anonymous": false,
      "inputs": [
        {
          "indexed": false,
          "internalType": "address",
          "name": "account",
          "type": "address"
        }
      ],
      "name": "Unpaused",
      "type": "event"
    },
    {
      "inputs": [
        {
          "internalType": "uint256",
          "name": "amount",
          "type": "uint256"
        }
      ],
      "name": "depositToPool",
      "outputs": [],
      "stateMutability": "nonpayable",
      "type": "function"
    },
    {
      "inputs": [
        {
          "internalType": "address",
          "name": "borrower",
          "type": "address"
        }
      ],
      "name": "getBorrowLimit",
      "outputs": [
        {
          "internalType": "uint256",
          "name": "",
          "type": "uint256"
        }
      ],
      "stateMutability": "view",
      "type": "function"
    },
    {
      "inputs": [
        {
          "internalType": "address",
          "name": "lender",
          "type": "address"
        }
      ],
      "name": "getLenderBalance",
      "outputs": [
        {
          "internalType": "uint256",
          "name": "",
          "type": "uint256"
        }
      ],
      "stateMutability": "view",
      "type": "function"
    },
    {
      "inputs": [
        {
          "internalType": "address",
          "name": "borrower",
          "type": "address"
        }
      ],
      "name": "getLoan",
      "outputs": [
        {
          "components": [
            {
              "internalType": "address",
              "name": "borrower",
              "type": "address"
            },
            {
              "internalType": "uint256",
              "name": "amount",
              "type": "uint256"
            },
            {
              "internalType": "uint256",
              "name": "repaidAmount",
              "type": "uint256"
            },
            {
              "internalType": "uint256",
              "name": "interestRate",
              "type": "uint256"
            },
            {
              "internalType": "uint256",
              "name": "startTime",
              "type": "uint256"
            },
            {
              "internalType": "uint256",
              "name": "dueDate",
              "type": "uint256"
            },
            {
              "internalType": "uint8",
              "name": "installmentsPaid",
              "type": "uint8"
            },
            {
              "internalType": "uint8",
              "name": "totalInstallments",
              "type": "uint8"
            },
            {
              "internalType": "enum LendingPool.LoanStatus",
              "name": "status",
              "type": "uint8"
            },
            {
              "internalType": "enum LendingPool.LoanPath",
              "name": "path",
              "type": "uint8"
            }
          ],
          "internalType": "struct LendingPool.Loan",
          "name": "",
          "type": "tuple"
        }
      ],
      "stateMutability": "view",
      "type": "function"
    },
    {
      "inputs": [],
      "name": "getPoolBalance",
      "outputs": [
        {
          "internalType": "uint256",
          "name": "",
          "type": "uint256"
        }
      ],
      "stateMutability": "view",
      "type": "function"
    },
    {
      "inputs": [],
      "name": "getPoolStats",
      "outputs": [
        {
          "internalType": "uint256",
          "name": "liquidity",
          "type": "uint256"
        },
        {
          "internalType": "uint256",
          "name": "activeLoans",
          "type": "uint256"
        },
        {
          "internalType": "uint256",
          "name": "lenderCount",
          "type": "uint256"
        },
        {
          "internalType": "uint256",
          "name": "avgInterestRate",
          "type": "uint256"
        }
      ],
      "stateMutability": "view",
      "type": "function"
    },
    {
      "inputs": [
        {
          "internalType": "address",
          "name": "borrower",
          "type": "address"
        }
      ],
      "name": "getRemainingDebt",
      "outputs": [
        {
          "internalType": "uint256",
          "name": "",
          "type": "uint256"
        }
      ],
      "stateMutability": "view",
      "type": "function"
    },
    {
      "inputs": [
        {
          "internalType": "address",
          "name": "borrower",
          "type": "address"
        }
      ],
      "name": "getTotalOwed",
      "outputs": [
        {
          "internalType": "uint256",
          "name": "",
          "type": "uint256"
        }
      ],
      "stateMutability": "view",
      "type": "function"
    },
    {
      "inputs": [
        {
          "internalType": "address",
          "name": "borrower",
          "type": "address"
        }
      ],
      "name": "getTrustScore",
      "outputs": [
        {
          "internalType": "uint8",
          "name": "",
          "type": "uint8"
        }
      ],
      "stateMutability": "view",
      "type": "function"
    },
    {
      "inputs": [
        {
          "internalType": "address",
          "name": "",
          "type": "address"
        }
      ],
      "name": "lenderDeposits",
      "outputs": [
        {
          "internalType": "uint256",
          "name": "",
          "type": "uint256"
        }
      ],
      "stateMutability": "view",
      "type": "function"
    },
    {
      "inputs": [
        {
          "internalType": "uint256",
          "name": "amount",
          "type": "uint256"
        }
      ],
      "name": "makeRepayment",
      "outputs": [],
      "stateMutability": "nonpayable",
      "type": "function"
    },
    {
      "inputs": [
        {
          "internalType": "address",
          "name": "borrower",
          "type": "address"
        }
      ],
      "name": "markDefault",
      "outputs": [],
      "stateMutability": "nonpayable",
      "type": "function"
    },
    {
      "inputs": [
        {
          "internalType": "address",
          "name": "to",
          "type": "address"
        }
      ],
      "name": "mintReputationNFT",
      "outputs": [],
      "stateMutability": "nonpayable",
      "type": "function"
    },
    {
      "inputs": [],
      "name": "owner",
      "outputs": [
        {
          "internalType": "address",
          "name": "",
          "type": "address"
        }
      ],
      "stateMutability": "view",
      "type": "function"
    },
    {
      "inputs": [],
      "name": "pause",
      "outputs": [],
      "stateMutability": "nonpayable",
      "type": "function"
    },
    {
      "inputs": [],
      "name": "paused",
      "outputs": [
        {
          "internalType": "bool",
          "name": "",
          "type": "bool"
        }
      ],
      "stateMutability": "view",
      "type": "function"
    },
    {
      "inputs": [],
      "name": "renounceOwnership",
      "outputs": [],
      "stateMutability": "nonpayable",
      "type": "function"
    },
    {
      "inputs": [],
      "name": "reputationNFT",
      "outputs": [
        {
          "internalType": "address",
          "name": "",
          "type": "address"
        }
      ],
      "stateMutability": "view",
      "type": "function"
    },
    {
      "inputs": [
        {
          "internalType": "uint256",
          "name": "amount",
          "type": "uint256"
        },
        {
          "internalType": "uint256",
          "name": "durationDays",
          "type": "uint256"
        },
        {
          "internalType": "uint8",
          "name": "path",
          "type": "uint8"
        }
      ],
      "name": "requestLoan",
      "outputs": [],
      "stateMutability": "nonpayable",
      "type": "function"
    },
    {
      "inputs": [],
      "name": "totalActiveLoans",
      "outputs": [
        {
          "internalType": "uint256",
          "name": "",
          "type": "uint256"
        }
      ],
      "stateMutability": "view",
      "type": "function"
    },
    {
      "inputs": [],
      "name": "totalLenders",
      "outputs": [
        {
          "internalType": "uint256",
          "name": "",
          "type": "uint256"
        }
      ],
      "stateMutability": "view",
      "type": "function"
    },
    {
      "inputs": [],
      "name": "totalPoolLiquidity",
      "outputs": [
        {
          "internalType": "uint256",
          "name": "",
          "type": "uint256"
        }
      ],
      "stateMutability": "view",
      "type": "function"
    },
    {
      "inputs": [
        {
          "internalType": "address",
          "name": "newOwner",
          "type": "address"
        }
      ],
      "name": "transferOwnership",
      "outputs": [],
      "stateMutability": "nonpayable",
      "type": "function"
    },
    {
      "inputs": [
        {
          "internalType": "address",
          "name": "",
          "type": "address"
        }
      ],
      "name": "trustScores",
      "outputs": [
        {
          "internalType": "uint8",
          "name": "",
          "type": "uint8"
        }
      ],
      "stateMutability": "view",
      "type": "function"
    },
    {
      "inputs": [],
      "name": "trustToken",
      "outputs": [
        {
          "internalType": "contract IERC20",
          "name": "",
          "type": "address"
        }
      ],
      "stateMutability": "view",
      "type": "function"
    },
    {
      "inputs": [],
      "name": "unpause",
      "outputs": [],
      "stateMutability": "nonpayable",
      "type": "function"
    },
    {
      "inputs": [
        {
          "internalType": "address",
          "name": "borrower",
          "type": "address"
        },
        {
          "internalType": "uint8",
          "name": "newScore",
          "type": "uint8"
        }
      ],
      "name": "updateTrustScore",
      "outputs": [],
      "stateMutability": "nonpayable",
      "type": "function"
    },
    {
      "inputs": [
        {
          "internalType": "uint256",
          "name": "amount",
          "type": "uint256"
        }
      ],
      "name": "withdrawFromPool",
      "outputs": [],
      "stateMutability": "nonpayable",
      "type": "function"
    }
  ],
  "bytecode": "0x60a0346101b957611dda90601f38839003908101601f19168201906001600160401b038211838310176101bd57808391604095869485528339810103126101b957610055602061004e836101d1565b92016101d1565b9033156101a2575f549160018060a01b03908160018060a01b03199333858716175f55865195823391167f8be0079c531659141344cd1fd0a4f28419497f9722a3daafe3b4186f6b6457e05f80a360017f9b779b17422d0df92223018b32b4d1fa46e071723d6817e2486d003becc55f00551693841561016057501691821561011c57608052600154161760015551611bf490816101e68239608051818181610373015281816106fe01528181610a2c01528181610c0201528181610fec01526113f40152f35b835162461bcd60e51b815260206004820152601d60248201527f4c656e64696e67506f6f6c3a207a65726f204e465420616464726573730000006044820152606490fd5b62461bcd60e51b815260206004820152601f60248201527f4c656e64696e67506f6f6c3a207a65726f20746f6b656e2061646472657373006044820152606490fd5b8251631e4fbdf760e01b81525f6004820152602490fd5b5f80fd5b634e487b7160e01b5f52604160045260245ffd5b51906001600160a01b03821682036101b95756fe6080806040526004361015610012575f80fd5b5f905f3560e01c90816312df0fc41461179157508063146410801461166f57806323a0ac79146111fa57806330fc43ed14610f8d57806333481fc914610dfd5780633f4ba83a14610d8e57806359641e5e14610d715780635c975abb14610d4d5780635e09eea114610d1257806368b0e07014610bd0578063715018a614610b795780637385107514610b565780637c17d23714610b335780638456cb5914610ad35780638da5cb5b14610aac5780639939835814610979578063abd70aa214610a01578063bbb85188146109b1578063bd09085a14610979578063be81c4d41461072d578063d13deb2f146106e8578063d37415fe146102f8578063db15bcea146102cc578063dc63af41146102ae578063e8f0033114610290578063ea62781d1461020a578063f2fde38b1461017d5763fa48864914610152575f80fd5b3461017a578060031936011261017a576001546040516001600160a01b039091168152602090f35b80fd5b503461017a57602036600319011261017a576101976117c8565b61019f6119be565b6001600160a01b039081169081156101f1575f54826bffffffffffffffffffffffff60a01b8216175f55167f8be0079c531659141344cd1fd0a4f28419497f9722a3daafe3b4186f6b6457e05f80a380f35b604051631e4fbdf760e01b815260048101849052602490fd5b503461017a57602036600319011261017a57806102256117c8565b61022d6119be565b6001546001600160a01b039081169190823b1561028b576024849283604051958694859363ea62781d60e01b85521660048401525af18015610280576102705750f35b6102799061183c565b61017a5780f35b6040513d84823e3d90fd5b505050fd5b503461017a578060031936011261017a576020600554604051908152f35b503461017a578060031936011261017a576020600654604051908152f35b503461017a57602036600319011261017a5760206102f06102eb6117c8565b61196b565b604051908152f35b503461017a576020908160031936011261017a576004356103176119e9565b61031f611a18565b3382526002835260408220600681019360ff80865460101c1660048110156106d45761068f57831561064a5761035483611b49565b90600284019361036585548461187e565b8611610605576103978630337f0000000000000000000000000000000000000000000000000000000000000000611adf565b6103a28686546117fe565b855587549782891698838a146105f157600195969798998460ff19978892011691161781556103e96103e1856103dc60018601548c6117eb565b611899565b6005546117fe565b600555838754101561045b575b505061041292503387526004845260408720541693549061187e565b9060405193845283015260408201527f6996ca40a87935f677fee47b9d253150cd7560503eb580f1d72a905cf62e7e3b60603392a260015f80516020611b9f8339815191525580f35b610489916003916201000062ff00001982541617905561047c60065461195f565b600655015460085461187e565b60085533875260028452604087209260048552816040892054169060048501546005860154906104b9818361187e565b604b810290808204604b14901517156105dd578b93929160646104dd9204906117fe565b42116105c75750600c905b6064856104f58487611b6a565b1611156105b7576064965b33845260048952604084208054878a1693168317905560018054910154906001600160a01b0316803b156105b35784928360849260088a60405198899788966336eab1bd60e01b88523360048901526024880152604487015216101560648401525af161059b575b50506040805160ff92831681529490911660208501526104129333915f80516020611b7f83398151915291a25f806103f6565b6105a49061183c565b6105af57875f610568565b8780fd5b8480fd5b6105c18285611b6a565b96610500565b42116105d5576008906104e8565b6003906104e8565b634e487b7160e01b8c52601160045260248cfd5b634e487b7160e01b89526011600452602489fd5b60405162461bcd60e51b815260048101859052601860248201527f4c656e64696e67506f6f6c3a206f7665727061796d656e7400000000000000006044820152606490fd5b60405162461bcd60e51b815260048101839052601b60248201527f4c656e64696e67506f6f6c3a207a65726f2072657061796d656e7400000000006044820152606490fd5b60405162461bcd60e51b815260048101839052601b60248201527f4c656e64696e67506f6f6c3a206e6f20616374697665206c6f616e00000000006044820152606490fd5b634e487b7160e01b86526021600452602486fd5b503461017a578060031936011261017a576040517f00000000000000000000000000000000000000000000000000000000000000006001600160a01b03168152602090f35b50346109015760209081600319360112610901576107496117c8565b6107516119be565b60018060a01b0380911690815f526002845260405f209060068201805460ff8160101c166004811015610965576109205762ff000019166202000017905560065461079b9061195f565b6006556107ae600383015460085461187e565b6008555f83815260048652604090205460ff1690600f821061091957600e19820160ff811161090557925b845f526004875260405f209160ff8516928360ff198254161790556001541660018201928354823b156109015760845f928360405195869485936336eab1bd60e01b85528d6004860152602485015260448401528160648401525af16108ae575b5060408596975f80516020611b7f83398151915296936108898460026108807f1b849894a849eddede200f64b3e4aa5870adc9b6f442acb237bb07d8f100f01b97611b49565b9101549061187e565b9054918351928352820152a26040805160ff928316815292909116602083015290a280f35b8596507f1b849894a849eddede200f64b3e4aa5870adc9b6f442acb237bb07d8f100f01b91975f80516020611b7f83398151915296936108ef60409361183c565b6108895f99505093965097915061083a565b5f80fd5b634e487b7160e01b5f52601160045260245ffd5b5f926107d9565b60405162461bcd60e51b815260048101889052601760248201527f4c656e64696e67506f6f6c3a206e6f74206163746976650000000000000000006044820152606490fd5b634e487b7160e01b5f52602160045260245ffd5b34610901576020366003190112610901576001600160a01b0361099a6117c8565b165f526003602052602060405f2054604051908152f35b34610901575f3660031901126109015760806005546006546007548115155f146109fa576109e182600854611899565b915b604051938452602084015260408301526060820152f35b5f916109e3565b34610901575f366003190112610901576040516370a0823160e01b81523060048201526020816024817f00000000000000000000000000000000000000000000000000000000000000006001600160a01b03165afa8015610aa1575f90610a6e575b602090604051908152f35b506020813d602011610a99575b81610a8860209383611850565b810103126109015760209051610a63565b3d9150610a7b565b6040513d5f823e3d90fd5b34610901575f366003190112610901575f546040516001600160a01b039091168152602090f35b34610901575f36600319011261090157610aeb6119be565b610af3611a18565b5f805460ff60a01b1916600160a01b1790556040513381527f62e78cea01bee320cd4e420270b5ea74000d11b0c9f74754ebdbfc544b05a25890602090a1005b346109015760203660031901126109015760206102f0610b516117c8565b6118f6565b346109015760203660031901126109015760206102f0610b746117c8565b6118b7565b34610901575f36600319011261090157610b916119be565b5f80546001600160a01b0319811682556001600160a01b03167f8be0079c531659141344cd1fd0a4f28419497f9722a3daafe3b4186f6b6457e08280a3005b3461090157602036600319011261090157600435610bec6119e9565b610bf4611a18565b8015610ccd57610c268130337f0000000000000000000000000000000000000000000000000000000000000000611adf565b335f52600360205260405f20610c3d8282546117fe565b9055610c4b816005546117fe565b600555335f52600960205260405f20805460ff811615610cae575b8260055460405191825260208201527f7628d23baa7269cbe52d585c106809f6857f67de8489b61e6a5dc5a780748a3860403392a260015f80516020611b9f83398151915255005b60ff19166001179055600754610cc39061188b565b6007558180610c66565b60405162461bcd60e51b815260206004820152601960248201527f4c656e64696e67506f6f6c3a207a65726f206465706f736974000000000000006044820152606490fd5b34610901576020366003190112610901576001600160a01b03610d336117c8565b165f526004602052602060ff60405f205416604051908152f35b34610901575f36600319011261090157602060ff5f5460a01c166040519015158152f35b34610901575f366003190112610901576020600754604051908152f35b34610901575f36600319011261090157610da66119be565b5f5460ff8160a01c1615610deb5760ff60a01b19165f556040513381527f5db9ee0a495bf2e6ff9c91a7834c1ba4fdd244a5e8aa4e537bd38aeae4b073aa90602090a1005b604051638dfc202b60e01b8152600490fd5b3461090157602036600319011261090157610e166117c8565b5f610120604051610e268161180b565b8281528260208201528260408201528260608201528260808201528260a08201528260c08201528260e082015282610100820152015260018060a01b03165f52600260205260405f20600660405191610e7e8361180b565b60018060a01b03815416835260018101546020840152600281015460408401526003810154606084015260048101546080840152600581015460a0840152015460ff811660c083015260ff8160081c1660e0830152600460ff8260101c1610156109655760ff8181610f029360101c1661010085015260181c166101208301611872565b60405160018060a01b0382511681526020820151602082015260408201516040820152606082015160608201526080820151608082015260a082015160a082015260ff60c08301511660c082015260ff60e08301511660e082015261010082015191600483101561096557610120610f8b916101409461010085015201516101208301906117de565bf35b34610901576020806003193601126109015760043590610fab6119e9565b610fb3611a18565b81156111b657335f52600381528160405f205410611172576005549082821061111d576040516370a0823160e01b8152306004820152917f00000000000000000000000000000000000000000000000000000000000000009082846024816001600160a01b0386165afa938415610aa1575f946110ee575b50845f94828111806110e5575b6110bf575b50505061107d90335f526003835260405f2061105a86825461187e565b90556110688560055461187e565b60055561107584866117fe565b903390611a61565b6040519283528201527f89d2f6c70c648a3f7ed809acb91b7a84dbba676961241962173a83861e43c0cf60403392a260015f80516020611b9f83398151915255005b61107d93955082916110d76110dc946103dc9361187e565b6117eb565b9290848661103d565b50821515611038565b9093508281813d8311611116575b6111068183611850565b810103126109015751928561102b565b503d6110fc565b6084906040519062461bcd60e51b82526004820152602860248201527f4c656e64696e67506f6f6c3a20696e73756666696369656e742066726565206c604482015267697175696469747960c01b6064820152fd5b6064906040519062461bcd60e51b82526004820152601c60248201527f4c656e64696e67506f6f6c3a2065786365656473206465706f736974000000006044820152fd5b6064906040519062461bcd60e51b82526004820152601c60248201527f4c656e64696e67506f6f6c3a207a65726f207769746864726177616c000000006044820152fd5b346109015760603660031901126109015760043560249081359160449081359160ff83168093036109015761122d6119e9565b611235611a18565b831561162c57841594851580611620575b156115dd576002841161159a57335f526020916002835260ff600660405f20015460101c166004811015611587571561154557611282336118f6565b86116115045785600554106114b15750600384101561149e576112a484611a38565b956201518080830292830414171561148b576112c090426117fe565b91604051906112ce8261180b565b33825284838084019288845260ff600660408701965f8852606081018d81526080820142815260a08301918c835260c084019a5f8c5260e085019a60048c52600261010087019a5f8c5261132761012089019d8e611872565b335f525260405f209560018060a01b039051166bffffffffffffffffffffffff60a01b87541617865551600186015551600285015551600384015551600483015551600582015501955116908554945192519360048510156114775751906003821015611464575061142b999a949261ff006113ea97959363ff00000062ff00009460181b169563ffffffff1916179160081b16179160101b16171790556113d18760055461187e565b6005556113df60065461188b565b6006556008546117fe565b60085561141885337f0000000000000000000000000000000000000000000000000000000000000000611a61565b60405194855284015260408301906117de565b7f469f3b84f0a93aa13441e333540ba6cd5ccb2a9df1ccf61b5e6f372693b2331960603392a260015f80516020611b9f83398151915255005b634e487b7160e01b5f9081526021600452fd5b50634e487b7160e01b5f9081526021600452fd5b82634e487b7160e01b5f5260116004525ffd5b82634e487b7160e01b5f5260216004525ffd5b7f4c656e64696e67506f6f6c3a20696e73756666696369656e7420706f6f6c206c915060286084946040519462461bcd60e51b8652600486015284015282015267697175696469747960c01b6064820152fd5b837f4c656e64696e67506f6f6c3a2065786365656473207472757374206c696d6974606492856040519362461bcd60e51b8552816004860152840152820152fd5b7f4c656e64696e67506f6f6c3a20616374697665206c6f616e20657869737473009150601f6064946040519462461bcd60e51b86526004860152840152820152fd5b84634e487b7160e01b5f5260216004525ffd5b60405162461bcd60e51b8152602060048201526019818501527f4c656e64696e67506f6f6c3a20696e76616c696420706174680000000000000081840152606490fd5b60405162461bcd60e51b815260206004820152601d818501527f4c656e64696e67506f6f6c3a20696e76616c6964206475726174696f6e00000081840152606490fd5b5061016d811115611246565b907f4c656e64696e67506f6f6c3a207a65726f20616d6f756e74000000000000000060649260186040519362461bcd60e51b855260206004860152840152820152fd5b34610901576040366003190112610901576116886117c8565b6024359060ff821690818303610901576116a06119be565b6001600160a01b031691821561174c5760648211611707575f80516020611b7f8339815191529161170260ff92855f52600460205260405f2080549385198516179055604051938493168390929160ff60209181604085019616845216910152565b0390a2005b60405162461bcd60e51b815260206004820152601860248201527f4c656e64696e67506f6f6c3a2073636f7265203e2031303000000000000000006044820152606490fd5b60405162461bcd60e51b815260206004820152601960248201527f4c656e64696e67506f6f6c3a207a65726f2061646472657373000000000000006044820152606490fd5b34610901576020366003190112610901576020906001600160a01b036117b56117c8565b165f526004825260ff60405f2054168152f35b600435906001600160a01b038216820361090157565b9060038210156109655752565b8181029291811591840414171561090557565b9190820180921161090557565b610140810190811067ffffffffffffffff82111761182857604052565b634e487b7160e01b5f52604160045260245ffd5b67ffffffffffffffff811161182857604052565b90601f8019910116810190811067ffffffffffffffff82111761182857604052565b60038210156109655752565b9190820391821161090557565b5f1981146109055760010190565b81156118a3570490565b634e487b7160e01b5f52601260045260245ffd5b6001600160a01b03165f908152600260205260409020600681015460101c60ff166004811015610965576118f1576118ee90611b49565b90565b505f90565b6001600160a01b03165f9081526004602052604090205460ff16605081101561195157603c811015611943576028111561193657678ac7230489e8000090565b6802b5e3af16b188000090565b50680ad78ebc5ac620000090565b50681b1ae4d6e2ef50000090565b8015610905575f190190565b6001600160a01b03165f908152600260205260409020600681015460101c60ff166004811015610965576118f15760026119a482611b49565b910154808211156119b8576118ee9161187e565b50505f90565b5f546001600160a01b031633036119d157565b60405163118cdaa760e01b8152336004820152602490fd5b5f80516020611b9f8339815191526002815414611a065760029055565b604051633ee5aeb560e01b8152600490fd5b60ff5f5460a01c16611a2657565b60405163d93c066560e01b8152600490fd5b6003811015610965578015611a5a57600114611a54576102c690565b61011890565b506101a490565b60405163a9059cbb60e01b5f9081526001600160a01b039384166004526024949094529260209060448180855af160015f5114811615611ac0575b8360405215611aaa57505050565b635274afe760e01b835216600482015260249150fd5b6001811516611ad657813b15153d151616611a9c565b833d5f823e3d90fd5b6040516323b872dd60e01b5f9081526001600160a01b03938416600452938316602452604494909452909160209060648180855af160015f5114811615611b33575b836040525f60605215611aaa57505050565b6001811516611ad657813b15153d151616611b21565b6118ee90612710611b6360036001840154930154836117eb565b04906117fe565b9060ff8091169116019060ff82116109055756fed19906ee1ad48a098b7775e103ec4cb4ffaefc35799b1914b4a390f9cd27facc9b779b17422d0df92223018b32b4d1fa46e071723d6817e2486d003becc55f00a2646970667358221220318b58cfe180f8ee17ca4ba6dcb431a420a54347f8b573fd1e80084c52d0eb5b64736f6c63430008190033",
  "linkReferences": {},
  "deployedLinkReferences": {}
}