{
  "_format": "hh-sol-artifact-1",
  "contractName": "LendingPool",
  "sourceName": "contracts/LendingPool.sol",
  "abi": [
    {
      "inputs": [
        {
          "internalType": "address",
          "name": "_token",
          "type": "address"
        }
      ],
      "stateMutability": "nonpayable",
      "type": "constructor"
    },
    {
      "inputs": [
        {
          "internalType": "address",
          "name": "owner",
          "type": "address"
        }
      ],
      "name": "OwnableInvalidOwner",
      "type": "error"
    },
    {
      "inputs": [
        {
          "internalType": "address",
          "name": "account",
          "type": "address"
        }
      ],
      "name": "OwnableUnauthorizedAccount",
      "type": "error"
    },
    {
      "anonymous": false,
      "inputs": [
        {
          "indexed": true,
          "internalType": "address",
          "name": "lender",
          "type": "address"
        },
        {
          "indexed": false,
          "internalType": "uint256",
          "name": "amount",
          "type": "uint256"
        }
      ],
      "name": "LiquidityDeposited",
      "type": "event"
    },
    {
      "anonymous": false,
      "inputs": [
        {
          "indexed": true,
          "internalType": "uint256",
          "name": "loanId",
          "type": "uint256"
        },
        {
          "indexed": true,
          "internalType": "address",
          "name": "borrower",
          "type": "address"
        },
        {
          "indexed": false,
          "internalType": "uint256",
          "name": "amount",
          "type": "uint256"
        }
      ],
      "name": "LoanApproved",
      "type": "event"
    },
    {
      "anonymous": false,
      "inputs": [
        {
          "indexed": true,
          "internalType": "uint256",
          "name": "loanId",
          "type": "uint256"
        },
        {
          "indexed": true,
          "internalType": "address",
          "name": "borrower",
          "type": "address"
        },
        {
          "indexed": false,
          "internalType": "uint256",
          "name": "amount",
          "type": "uint256"
        }
      ],
      "name": "LoanCreated",
      "type": "event"
    },
    {
      "anonymous": false,
      "inputs": [
        {
          "indexed": true,
          "internalType": "uint256",
          "name": "loanId",
          "type": "uint256"
        },
        {
          "indexed": true,
          "internalType": "address",
          "name": "borrower",
          "type": "address"
        }
      ],
      "name": "LoanDefaulted",
      "type": "event"
    },
    {
      "anonymous": false,
      "inputs": [
        {
          "indexed": true,
          "internalType": "uint256",
          "name": "loanId",
          "type": "uint256"
        },
        {
          "indexed": true,
          "internalType": "address",
          "name": "borrower",
          "type": "address"
        },
        {
          "indexed": false,
          "internalType": "uint256",
          "name": "amount",
          "type": "uint256"
        }
      ],
      "name": "LoanRepaid",
      "type": "event"
    },
    {
      "anonymous": false,
      "inputs": [
        {
          "indexed": true,
          "internalType": "address",
          "name": "previousOwner",
          "type": "address"
        },
        {
          "indexed": true,
          "internalType": "address",
          "name": "newOwner",
          "type": "address"
        }
      ],
      "name": "OwnershipTransferred",
      "type": "event"
    },
    {
      "inputs": [
        {
          "internalType": "uint256",
          "name": "loanId",
          "type": "uint256"
        }
      ],
      "name": "approveLoan",
      "outputs": [],
      "stateMutability": "nonpayable",
      "type": "function"
    },
    {
      "inputs": [
        {
          "internalType": "address",
          "name": "",
          "type": "address"
        },
        {
          "internalType": "uint256",
          "name": "",
          "type": "uint256"
        }
      ],
      "name": "borrowerLoans",
      "outputs": [
        {
          "internalType": "uint256",
          "name": "",
          "type": "uint256"
        }
      ],
      "stateMutability": "view",
      "type": "function"
    },
    {
      "inputs": [
        {
          "internalType": "uint256",
          "name": "amount",
          "type": "uint256"
        }
      ],
      "name": "createLoan",
      "outputs": [
        {
          "internalType": "uint256",
          "name": "",
          "type": "uint256"
        }
      ],
      "stateMutability": "nonpayable",
      "type": "function"
    },
    {
      "inputs": [
        {
          "internalType": "uint256",
          "name": "amount",
          "type": "uint256"
        }
      ],
      "name": "depositLiquidity",
      "outputs": [],
      "stateMutability": "nonpayable",
      "type": "function"
    },
    {
      "inputs": [
        {
          "internalType": "address",
          "name": "borrower",
          "type": "address"
        }
      ],
      "name": "getBorrowerLoans",
      "outputs": [
        {
          "internalType": "uint256[]",
          "name": "",
          "type": "uint256[]"
        }
      ],
      "stateMutability": "view",
      "type": "function"
    },
    {
      "inputs": [
        {
          "internalType": "uint256",
          "name": "loanId",
          "type": "uint256"
        }
      ],
      "name": "getLoan",
      "outputs": [
        {
          "components": [
            {
              "internalType": "uint256",
              "name": "id",
              "type": "uint256"
            },
            {
              "internalType": "address",
              "name": "borrower",
              "type": "address"
            },
            {
              "internalType": "uint256",
              "name": "amount",
              "type": "uint256"
            },
            {
              "internalType": "enum LendingPool.LoanStatus",
              "name": "status",
              "type": "uint8"
            },
            {
              "internalType": "uint256",
              "name": "createdAt",
              "type": "uint256"
            }
          ],
          "internalType": "struct LendingPool.Loan",
          "name": "",
          "type": "tuple"
        }
      ],
      "stateMutability": "view",
      "type": "function"
    },
    {
      "inputs": [],
      "name": "getPoolBalance",
      "outputs": [
        {
          "internalType": "uint256",
          "name": "",
          "type": "uint256"
        }
      ],
      "stateMutability": "view",
      "type": "function"
    },
    {
      "inputs": [
        {
          "internalType": "address",
          "name": "",
          "type": "address"
        }
      ],
      "name": "lenderDeposits",
      "outputs": [
        {
          "internalType": "uint256",
          "name": "",
          "type": "uint256"
        }
      ],
      "stateMutability": "view",
      "type": "function"
    },
    {
      "inputs": [
        {
          "internalType": "uint256",
          "name": "",
          "type": "uint256"
        }
      ],
      "name": "loans",
      "outputs": [
        {
          "internalType": "uint256",
          "name": "id",
          "type": "uint256"
        },
        {
          "internalType": "address",
          "name": "borrower",
          "type": "address"
        },
        {
          "internalType": "uint256",
          "name": "amount",
          "type": "uint256"
        },
        {
          "internalType": "enum LendingPool.LoanStatus",
          "name": "status",
          "type": "uint8"
        },
        {
          "internalType": "uint256",
          "name": "createdAt",
          "type": "uint256"
        }
      ],
      "stateMutability": "view",
      "type": "function"
    },
    {
      "inputs": [
        {
          "internalType": "uint256",
          "name": "loanId",
          "type": "uint256"
        }
      ],
      "name": "markDefault",
      "outputs": [],
      "stateMutability": "nonpayable",
      "type": "function"
    },
    {
      "inputs": [],
      "name": "nextLoanId",
      "outputs": [
        {
          "internalType": "uint256",
          "name": "",
          "type": "uint256"
        }
      ],
      "stateMutability": "view",
      "type": "function"
    },
    {
      "inputs": [],
      "name": "owner",
      "outputs": [
        {
          "internalType": "address",
          "name": "",
          "type": "address"
        }
      ],
      "stateMutability": "view",
      "type": "function"
    },
    {
      "inputs": [],
      "name": "renounceOwnership",
      "outputs": [],
      "stateMutability": "nonpayable",
      "type": "function"
    },
    {
      "inputs": [
        {
          "internalType": "uint256",
          "name": "loanId",
          "type": "uint256"
        }
      ],
      "name": "repayLoan",
      "outputs": [],
      "stateMutability": "nonpayable",
      "type": "function"
    },
    {
      "inputs": [],
      "name": "token",
      "outputs": [
        {
          "internalType": "contract IERC20",
          "name": "",
          "type": "address"
        }
      ],
      "stateMutability": "view",
      "type": "function"
    },
    {
      "inputs": [],
      "name": "totalLiquidity",
      "outputs": [
        {
          "internalType": "uint256",
          "name": "",
          "type": "uint256"
        }
      ],
      "stateMutability": "view",
      "type": "function"
    },
    {
      "inputs": [
        {
          "internalType": "address",
          "name": "newOwner",
          "type": "address"
        }
      ],
      "name": "transferOwnership",
      "outputs": [],
      "stateMutability": "nonpayable",
      "type": "function"
    }
  ],
  "bytecode": "0x608060405234801561001057600080fd5b506040516110b93803806110b983398101604081905261002f9161012b565b338061005657604051631e4fbdf760e01b8152600060048201526024015b60405180910390fd5b61005f816100db565b506001600160a01b0381166100b65760405162461bcd60e51b815260206004820152601560248201527f496e76616c696420746f6b656e20616464726573730000000000000000000000604482015260640161004d565b600180546001600160a01b0319166001600160a01b039290921691909117905561015b565b600080546001600160a01b038381166001600160a01b0319831681178455604051919092169283917f8be0079c531659141344cd1fd0a4f28419497f9722a3daafe3b4186f6b6457e09190a35050565b60006020828403121561013d57600080fd5b81516001600160a01b038116811461015457600080fd5b9392505050565b610f4f8061016a6000396000f3fe608060405234801561001057600080fd5b506004361061010b5760003560e01c8063aadc1ac1116100a2578063e1ec3c6811610071578063e1ec3c681461020b578063e3ed19021461026a578063eee8b7ff1461027d578063f2fde38b1461029d578063fc0c546a146102b057600080fd5b8063aadc1ac1146101ca578063ab7b1c89146101dd578063abd70aa2146101f0578063e1d927c8146101f857600080fd5b806387c51459116100de57806387c51459146101695780638da5cb5b1461017257806399398358146101975780639a4e8ecf146101b757600080fd5b806315770f9214610110578063504006ca1461012c578063715018a61461014c57806376d58e1a14610156575b600080fd5b61011960025481565b6040519081526020015b60405180910390f35b61013f61013a366004610d05565b6102c3565b6040516101239190610d56565b61015461036e565b005b610154610164366004610d05565b610382565b61011960035481565b6000546001600160a01b03165b6040516001600160a01b039091168152602001610123565b6101196101a5366004610db9565b60066020526000908152604090205481565b6101196101c5366004610d05565b610503565b6101546101d8366004610d05565b61067e565b6101546101eb366004610d05565b610887565b610119610a78565b610154610206366004610d05565b610aea565b610259610219366004610d05565b60046020819052600091825260409091208054600182015460028301546003840154939094015491936001600160a01b0390911692909160ff9091169085565b604051610123959493929190610ddb565b610119610278366004610e15565b610bad565b61029061028b366004610db9565b610bde565b6040516101239190610e3f565b6101546102ab366004610db9565b610c4a565b60015461017f906001600160a01b031681565b6040805160a08082018352600080835260208084018290528385018290526060808501839052608085018390528683526004825291859020855193840186528054845260018101546001600160a01b031691840191909152600281015494830194909452600380850154939492939184019160ff169081111561034857610348610d1e565b600381111561035957610359610d1e565b81526020016004820154815250509050919050565b610376610c88565b6103806000610cb5565b565b600081116103d75760405162461bcd60e51b815260206004820152601d60248201527f416d6f756e74206d7573742062652067726561746572207468616e203000000060448201526064015b60405180910390fd5b6001546040516323b872dd60e01b8152336004820152306024820152604481018390526001600160a01b03909116906323b872dd906064016020604051808303816000875af115801561042e573d6000803e3d6000fd5b505050506040513d601f19601f820116820180604052508101906104529190610e83565b6104905760405162461bcd60e51b815260206004820152600f60248201526e151c985b9cd9995c8819985a5b1959608a1b60448201526064016103ce565b80600260008282546104a29190610ebb565b909155505033600090815260066020526040812080548392906104c6908490610ebb565b909155505060405181815233907f7ff07ce9a287649537e4b012e45cf012d90228b12e2b56bb03515a6b5436fcdf9060200160405180910390a250565b600080821161055f5760405162461bcd60e51b815260206004820152602260248201527f4c6f616e20616d6f756e74206d7573742062652067726561746572207468616e604482015261020360f41b60648201526084016103ce565b60038054908190600061057183610ed4565b90915550506040805160a0810182528281523360208201529081018490526060810160008152426020918201526000838152600482526040908190208351815591830151600180840180546001600160a01b0319166001600160a01b03909316929092179091559083015160028301556060830151600380840180549293909260ff191691849081111561060757610607610d1e565b021790555060809190910151600490910155336000818152600560209081526040808320805460018101825590845291909220018390555182907f8910ba13a55695f056e224bbbc6b65d866b12a8c2fbdf387fb853a1cca298cd7906106709087815260200190565b60405180910390a392915050565b610686610c88565b60008181526004602052604081209060038083015460ff16908111156106ae576106ae610d1e565b146106f15760405162461bcd60e51b81526020600482015260136024820152724c6f616e206973206e6f742070656e64696e6760681b60448201526064016103ce565b806002015460025410156107475760405162461bcd60e51b815260206004820152601e60248201527f496e73756666696369656e74206c697175696469747920696e20706f6f6c000060448201526064016103ce565b60038101805460ff19166001179055600280820154815490919060009061076f908490610eed565b90915550506001805490820154600283015460405163a9059cbb60e01b81526001600160a01b039283166004820152602481019190915291169063a9059cbb906044016020604051808303816000875af11580156107d1573d6000803e3d6000fd5b505050506040513d601f19601f820116820180604052508101906107f59190610e83565b6108375760405162461bcd60e51b8152602060048201526013602482015272111a5cd89d5c9cd95b595b9d0819985a5b1959606a1b60448201526064016103ce565b600181015460028201546040519081526001600160a01b039091169083907f2b993938baa27c88e77a207903d275c96fa30ae5949a3ea5cd56e466e4f5c891906020015b60405180910390a35050565b6000818152600460205260409020600160038083015460ff16908111156108b0576108b0610d1e565b146108f25760405162461bcd60e51b81526020600482015260126024820152714c6f616e206973206e6f742061637469766560701b60448201526064016103ce565b60018101546001600160a01b031633146109415760405162461bcd60e51b815260206004820152601060248201526f2737ba103a3432903137b93937bbb2b960811b60448201526064016103ce565b60015460028201546040516323b872dd60e01b815233600482015230602482015260448101919091526001600160a01b03909116906323b872dd906064016020604051808303816000875af115801561099e573d6000803e3d6000fd5b505050506040513d601f19601f820116820180604052508101906109c29190610e83565b610a0e5760405162461bcd60e51b815260206004820152601960248201527f52657061796d656e74207472616e73666572206661696c65640000000000000060448201526064016103ce565b6003810180546002919060ff19166001830217905550806002015460026000828254610a3a9190610ebb565b90915550506002810154604051908152339083907f512d3e65b3e58c2187bb1872aa435dba5bd09c1c03823ba56ab70aac411e4a219060200161087b565b6001546040516370a0823160e01b81523060048201526000916001600160a01b0316906370a0823190602401602060405180830381865afa158015610ac1573d6000803e3d6000fd5b505050506040513d601f19601f82011682018060405250810190610ae59190610f00565b905090565b610af2610c88565b6000818152600460205260409020600160038083015460ff1690811115610b1b57610b1b610d1e565b14610b5d5760405162461bcd60e51b81526020600482015260126024820152714c6f616e206973206e6f742061637469766560701b60448201526064016103ce565b6003818101805460ff1916909117905560018101546040516001600160a01b039091169083907f13b88e6866f0156d706fecfa22b678de5fc2b749c1d2307f6f47eb541385f1ec90600090a35050565b60056020528160005260406000208181548110610bc957600080fd5b90600052602060002001600091509150505481565b6001600160a01b038116600090815260056020908152604091829020805483518184028101840190945280845260609392830182828015610c3e57602002820191906000526020600020905b815481526020019060010190808311610c2a575b50505050509050919050565b610c52610c88565b6001600160a01b038116610c7c57604051631e4fbdf760e01b8152600060048201526024016103ce565b610c8581610cb5565b50565b6000546001600160a01b031633146103805760405163118cdaa760e01b81523360048201526024016103ce565b600080546001600160a01b038381166001600160a01b0319831681178455604051919092169283917f8be0079c531659141344cd1fd0a4f28419497f9722a3daafe3b4186f6b6457e09190a35050565b600060208284031215610d1757600080fd5b5035919050565b634e487b7160e01b600052602160045260246000fd5b60048110610d5257634e487b7160e01b600052602160045260246000fd5b9052565b815181526020808301516001600160a01b0316908201526040808301519082015260608083015160a0830191610d8e90840182610d34565b50608092830151919092015290565b80356001600160a01b0381168114610db457600080fd5b919050565b600060208284031215610dcb57600080fd5b610dd482610d9d565b9392505050565b8581526001600160a01b03851660208201526040810184905260a08101610e056060830185610d34565b8260808301529695505050505050565b60008060408385031215610e2857600080fd5b610e3183610d9d565b946020939093013593505050565b6020808252825182820181905260009190848201906040850190845b81811015610e7757835183529284019291840191600101610e5b565b50909695505050505050565b600060208284031215610e9557600080fd5b81518015158114610dd457600080fd5b634e487b7160e01b600052601160045260246000fd5b80820180821115610ece57610ece610ea5565b92915050565b600060018201610ee657610ee6610ea5565b5060010190565b81810381811115610ece57610ece610ea5565b600060208284031215610f1257600080fd5b505191905056fea26469706673582212209c251bba6451b291b73ec18ea9ea56ac6f69a69933067fa391a3c855c52ddbca64736f6c63430008140033",
  "linkReferences": {},
  "deployedLinkReferences": {}
}