{
  "_format": "hh-sol-artifact-1",
  "contractName": "VouchSystem",
  "sourceName": "contracts/VouchSystem.sol",
  "abi": [
    {
      "inputs": [
        {
          "internalType": "address",
          "name": "_token",
          "type": "address"
        },
        {
          "internalType": "address",
          "name": "_treasury",
          "type": "address"
        }
      ],
      "stateMutability": "nonpayable",
      "type": "constructor"
    },
    {
      "inputs": [
        {
          "internalType": "address",
          "name": "owner",
          "type": "address"
        }
      ],
      "name": "OwnableInvalidOwner",
      "type": "error"
    },
    {
      "inputs": [
        {
          "internalType": "address",
          "name": "account",
          "type": "address"
        }
      ],
      "name": "OwnableUnauthorizedAccount",
      "type": "error"
    },
    {
      "anonymous": false,
      "inputs": [
        {
          "indexed": true,
          "internalType": "address",
          "name": "previousOwner",
          "type": "address"
        },
        {
          "indexed": true,
          "internalType": "address",
          "name": "newOwner",
          "type": "address"
        }
      ],
      "name": "OwnershipTransferred",
      "type": "event"
    },
    {
      "anonymous": false,
      "inputs": [
        {
          "indexed": true,
          "internalType": "uint256",
          "name": "vouchId",
          "type": "uint256"
        },
        {
          "indexed": true,
          "internalType": "address",
          "name": "voucher",
          "type": "address"
        },
        {
          "indexed": false,
          "internalType": "uint256",
          "name": "amount",
          "type": "uint256"
        }
      ],
      "name": "VouchReleased",
      "type": "event"
    },
    {
      "anonymous": false,
      "inputs": [
        {
          "indexed": true,
          "internalType": "uint256",
          "name": "vouchId",
          "type": "uint256"
        },
        {
          "indexed": true,
          "internalType": "address",
          "name": "voucher",
          "type": "address"
        },
        {
          "indexed": false,
          "internalType": "uint256",
          "name": "amount",
          "type": "uint256"
        }
      ],
      "name": "VouchSlashed",
      "type": "event"
    },
    {
      "anonymous": false,
      "inputs": [
        {
          "indexed": true,
          "internalType": "uint256",
          "name": "vouchId",
          "type": "uint256"
        },
        {
          "indexed": true,
          "internalType": "address",
          "name": "voucher",
          "type": "address"
        },
        {
          "indexed": true,
          "internalType": "address",
          "name": "borrower",
          "type": "address"
        },
        {
          "indexed": false,
          "internalType": "uint256",
          "name": "amount",
          "type": "uint256"
        }
      ],
      "name": "VouchStaked",
      "type": "event"
    },
    {
      "inputs": [
        {
          "internalType": "address",
          "name": "",
          "type": "address"
        },
        {
          "internalType": "uint256",
          "name": "",
          "type": "uint256"
        }
      ],
      "name": "borrowerVouches",
      "outputs": [
        {
          "internalType": "uint256",
          "name": "",
          "type": "uint256"
        }
      ],
      "stateMutability": "view",
      "type": "function"
    },
    {
      "inputs": [
        {
          "internalType": "address",
          "name": "borrower",
          "type": "address"
        }
      ],
      "name": "getBorrowerVouches",
      "outputs": [
        {
          "internalType": "uint256[]",
          "name": "",
          "type": "uint256[]"
        }
      ],
      "stateMutability": "view",
      "type": "function"
    },
    {
      "inputs": [
        {
          "internalType": "address",
          "name": "borrower",
          "type": "address"
        }
      ],
      "name": "getTotalActiveStake",
      "outputs": [
        {
          "internalType": "uint256",
          "name": "total",
          "type": "uint256"
        }
      ],
      "stateMutability": "view",
      "type": "function"
    },
    {
      "inputs": [
        {
          "internalType": "uint256",
          "name": "vouchId",
          "type": "uint256"
        }
      ],
      "name": "getVouch",
      "outputs": [
        {
          "components": [
            {
              "internalType": "uint256",
              "name": "id",
              "type": "uint256"
            },
            {
              "internalType": "address",
              "name": "voucher",
              "type": "address"
            },
            {
              "internalType": "address",
              "name": "borrower",
              "type": "address"
            },
            {
              "internalType": "uint256",
              "name": "amount",
              "type": "uint256"
            },
            {
              "internalType": "bool",
              "name": "released",
              "type": "bool"
            },
            {
              "internalType": "bool",
              "name": "slashed",
              "type": "bool"
            }
          ],
          "internalType": "struct VouchSystem.Vouch",
          "name": "",
          "type": "tuple"
        }
      ],
      "stateMutability": "view",
      "type": "function"
    },
    {
      "inputs": [],
      "name": "nextVouchId",
      "outputs": [
        {
          "internalType": "uint256",
          "name": "",
          "type": "uint256"
        }
      ],
      "stateMutability": "view",
      "type": "function"
    },
    {
      "inputs": [],
      "name": "owner",
      "outputs": [
        {
          "internalType": "address",
          "name": "",
          "type": "address"
        }
      ],
      "stateMutability": "view",
      "type": "function"
    },
    {
      "inputs": [
        {
          "internalType": "uint256",
          "name": "vouchId",
          "type": "uint256"
        }
      ],
      "name": "releaseStake",
      "outputs": [],
      "stateMutability": "nonpayable",
      "type": "function"
    },
    {
      "inputs": [],
      "name": "renounceOwnership",
      "outputs": [],
      "stateMutability": "nonpayable",
      "type": "function"
    },
    {
      "inputs": [
        {
          "internalType": "address",
          "name": "_treasury",
          "type": "address"
        }
      ],
      "name": "setTreasury",
      "outputs": [],
      "stateMutability": "nonpayable",
      "type": "function"
    },
    {
      "inputs": [
        {
          "internalType": "uint256",
          "name": "vouchId",
          "type": "uint256"
        }
      ],
      "name": "slashStake",
      "outputs": [],
      "stateMutability": "nonpayable",
      "type": "function"
    },
    {
      "inputs": [
        {
          "internalType": "address",
          "name": "borrower",
          "type": "address"
        },
        {
          "internalType": "uint256",
          "name": "amount",
          "type": "uint256"
        }
      ],
      "name": "stakeForBorrower",
      "outputs": [
        {
          "internalType": "uint256",
          "name": "",
          "type": "uint256"
        }
      ],
      "stateMutability": "nonpayable",
      "type": "function"
    },
    {
      "inputs": [],
      "name": "token",
      "outputs": [
        {
          "internalType": "contract IERC20",
          "name": "",
          "type": "address"
        }
      ],
      "stateMutability": "view",
      "type": "function"
    },
    {
      "inputs": [
        {
          "internalType": "address",
          "name": "",
          "type": "address"
        }
      ],
      "name": "totalStakedBy",
      "outputs": [
        {
          "internalType": "uint256",
          "name": "",
          "type": "uint256"
        }
      ],
      "stateMutability": "view",
      "type": "function"
    },
    {
      "inputs": [
        {
          "internalType": "address",
          "name": "newOwner",
          "type": "address"
        }
      ],
      "name": "transferOwnership",
      "outputs": [],
      "stateMutability": "nonpayable",
      "type": "function"
    },
    {
      "inputs": [],
      "name": "treasury",
      "outputs": [
        {
          "internalType": "address",
          "name": "",
          "type": "address"
        }
      ],
      "stateMutability": "view",
      "type": "function"
    },
    {
      "inputs": [
        {
          "internalType": "uint256",
          "name": "",
          "type": "uint256"
        }
      ],
      "name": "vouches",
      "outputs": [
        {
          "internalType": "uint256",
          "name": "id",
          "type": "uint256"
        },
        {
          "internalType": "address",
          "name": "voucher",
          "type": "address"
        },
        {
          "internalType": "address",
          "name": "borrower",
          "type": "address"
        },
        {
          "internalType": "uint256",
          "name": "amount",
          "type": "uint256"
        },
        {
          "internalType": "bool",
          "name": "released",
          "type": "bool"
        },
        {
          "internalType": "bool",
          "name": "slashed",
          "type": "bool"
        }
      ],
      "stateMutability": "view",
      "type": "function"
    }
  ],
  "bytecode": "0x60806040523480156200001157600080fd5b50604051620010f1380380620010f18339810160408190526200003491620001b7565b33806200005c57604051631e4fbdf760e01b8152600060048201526024015b60405180910390fd5b62000067816200014a565b506001600160a01b038216620000c05760405162461bcd60e51b815260206004820152601560248201527f496e76616c696420746f6b656e20616464726573730000000000000000000000604482015260640162000053565b6001600160a01b038116620001185760405162461bcd60e51b815260206004820152601860248201527f496e76616c696420747265617375727920616464726573730000000000000000604482015260640162000053565b600180546001600160a01b039384166001600160a01b03199182161790915560028054929093169116179055620001ef565b600080546001600160a01b038381166001600160a01b0319831681178455604051919092169283917f8be0079c531659141344cd1fd0a4f28419497f9722a3daafe3b4186f6b6457e09190a35050565b80516001600160a01b0381168114620001b257600080fd5b919050565b60008060408385031215620001cb57600080fd5b620001d6836200019a565b9150620001e6602084016200019a565b90509250929050565b610ef280620001ff6000396000f3fe608060405234801561001057600080fd5b50600436106101005760003560e01c80637dc6368a11610097578063ef06141011610066578063ef06141014610380578063f0f44260146103a0578063f2fde38b146103b3578063fc0c546a146103c657600080fd5b80637dc6368a146102aa578063878c6dad146102bd5780638da5cb5b146102dd578063a817c68a146102ee57600080fd5b806358ecb030116100d357806358ecb030146102515780635be0a6631461026457806361d027b314610277578063715018a6146102a257600080fd5b80633bb3c6fb146101055780633fdd5da8146102125780633feff9d21461023357806345f544851461023c575b600080fd5b6101b4610113366004610d6a565b6040805160c081018252600080825260208201819052918101829052606081018290526080810182905260a081019190915250600090815260046020818152604092839020835160c0810185528154815260018201546001600160a01b03908116938201939093526002820154909216938201939093526003830154606082015291015460ff8082161515608084015261010090910416151560a082015290565b60408051825181526020808401516001600160a01b03908116918301919091528383015116918101919091526060808301519082015260808083015115159082015260a09182015115159181019190915260c0015b60405180910390f35b610225610220366004610d9f565b6103d9565b604051908152602001610209565b61022560035481565b61024f61024a366004610d6a565b61040a565b005b61024f61025f366004610d6a565b6105ee565b610225610272366004610d9f565b6107bb565b60025461028a906001600160a01b031681565b6040516001600160a01b039091168152602001610209565b61024f610ac3565b6102256102b8366004610dc9565b610ad7565b6102256102cb366004610dc9565b60066020526000908152604090205481565b6000546001600160a01b031661028a565b6103436102fc366004610d6a565b60046020819052600091825260409091208054600182015460028301546003840154939094015491936001600160a01b039182169391169160ff8082169161010090041686565b604080519687526001600160a01b0395861660208801529390941692850192909252606084015215156080830152151560a082015260c001610209565b61039361038e366004610dc9565b610bd1565b6040516102099190610deb565b61024f6103ae366004610dc9565b610c3d565b61024f6103c1366004610dc9565b610caf565b60015461028a906001600160a01b031681565b600560205281600052604060002081815481106103f557600080fd5b90600052602060002001600091509150505481565b610412610ced565b60008181526004602081905260409091209081015460ff1615801561044157506004810154610100900460ff16155b61048a5760405162461bcd60e51b8152602060048201526015602482015274159bdd58da08185b1c9958591e481cd95d1d1b1959605a1b60448201526064015b60405180910390fd5b60048101805460ff191660019081179091556003820154908201546001600160a01b0316600090815260066020526040812080549091906104cc908490610e45565b90915550506001805490820154600383015460405163a9059cbb60e01b81526001600160a01b039283166004820152602481019190915291169063a9059cbb906044016020604051808303816000875af115801561052e573d6000803e3d6000fd5b505050506040513d601f19601f820116820180604052508101906105529190610e58565b61059e5760405162461bcd60e51b815260206004820152601760248201527f52656c65617365207472616e73666572206661696c65640000000000000000006044820152606401610481565b600181015460038201546040519081526001600160a01b039091169083907f5bea96a5fcae49ff813800783adf5c0ab61326ab3f8f08369f7bf9857e10435e906020015b60405180910390a35050565b6105f6610ced565b60008181526004602081905260409091209081015460ff1615801561062557506004810154610100900460ff16155b6106695760405162461bcd60e51b8152602060048201526015602482015274159bdd58da08185b1c9958591e481cd95d1d1b1959605a1b6044820152606401610481565b60048101805461ff001916610100179055600381015460018201546001600160a01b0316600090815260066020526040812080549091906106ab908490610e45565b9091555050600154600254600383015460405163a9059cbb60e01b81526001600160a01b039283166004820152602481019190915291169063a9059cbb906044016020604051808303816000875af115801561070b573d6000803e3d6000fd5b505050506040513d601f19601f8201168201806040525081019061072f9190610e58565b6107735760405162461bcd60e51b815260206004820152601560248201527414db185cda081d1c985b9cd9995c8819985a5b1959605a1b6044820152606401610481565b600181015460038201546040519081526001600160a01b039091169083907fcb08b03c72d7cfe2bc8179ebb4ceeba9310ad4989f971f762a047056d26cfe9a906020016105e2565b600080821161080c5760405162461bcd60e51b815260206004820152601c60248201527f5374616b65206d7573742062652067726561746572207468616e2030000000006044820152606401610481565b336001600160a01b038416036108645760405162461bcd60e51b815260206004820152601960248201527f43616e6e6f7420766f75636820666f7220796f757273656c66000000000000006044820152606401610481565b6001600160a01b0383166108ba5760405162461bcd60e51b815260206004820152601860248201527f496e76616c696420626f72726f776572206164647265737300000000000000006044820152606401610481565b6001546040516323b872dd60e01b8152336004820152306024820152604481018490526001600160a01b03909116906323b872dd906064016020604051808303816000875af1158015610911573d6000803e3d6000fd5b505050506040513d601f19601f820116820180604052508101906109359190610e58565b6109795760405162461bcd60e51b8152602060048201526015602482015274151bdad95b881d1c985b9cd9995c8819985a5b1959605a1b6044820152606401610481565b60038054908190600061098b83610e7a565b90915550506040805160c0810182528281523360208083018281526001600160a01b03898116858701818152606087018b815260006080890181815260a08a018281528c83526004808a528c84209b518c55975160018c81018054928a166001600160a01b0319938416179055955160028d01805491909916911617909655915160038a01559051979094018054935115156101000261ff00199815159890981661ffff199094169390931796909617909155815260058252848120805494850181558152818120909301859055908252600690529081208054859290610a73908490610e93565b90915550506040518381526001600160a01b03851690339083907f2cd35794516e5a0f98ad83e98845ae3baaf635e482fdb64ea13d4636159d78429060200160405180910390a490505b92915050565b610acb610ced565b610ad56000610d1a565b565b6001600160a01b038116600090815260056020908152604080832080548251818502810185019093528083528493830182828015610b3457602002820191906000526020600020905b815481526020019060010190808311610b20575b5050505050905060005b8151811015610bca57600060046000848481518110610b5f57610b5f610ea6565b6020026020010151815260200190815260200160002090508060040160009054906101000a900460ff16158015610ba057506004810154610100900460ff16155b15610bb7576003810154610bb49085610e93565b93505b5080610bc281610e7a565b915050610b3e565b5050919050565b6001600160a01b038116600090815260056020908152604091829020805483518184028101840190945280845260609392830182828015610c3157602002820191906000526020600020905b815481526020019060010190808311610c1d575b50505050509050919050565b610c45610ced565b6001600160a01b038116610c8d5760405162461bcd60e51b815260206004820152600f60248201526e496e76616c6964206164647265737360881b6044820152606401610481565b600280546001600160a01b0319166001600160a01b0392909216919091179055565b610cb7610ced565b6001600160a01b038116610ce157604051631e4fbdf760e01b815260006004820152602401610481565b610cea81610d1a565b50565b6000546001600160a01b03163314610ad55760405163118cdaa760e01b8152336004820152602401610481565b600080546001600160a01b038381166001600160a01b0319831681178455604051919092169283917f8be0079c531659141344cd1fd0a4f28419497f9722a3daafe3b4186f6b6457e09190a35050565b600060208284031215610d7c57600080fd5b5035919050565b80356001600160a01b0381168114610d9a57600080fd5b919050565b60008060408385031215610db257600080fd5b610dbb83610d83565b946020939093013593505050565b600060208284031215610ddb57600080fd5b610de482610d83565b9392505050565b6020808252825182820181905260009190848201906040850190845b81811015610e2357835183529284019291840191600101610e07565b50909695505050505050565b634e487b7160e01b600052601160045260246000fd5b81810381811115610abd57610abd610e2f565b600060208284031215610e6a57600080fd5b81518015158114610de457600080fd5b600060018201610e8c57610e8c610e2f565b5060010190565b80820180821115610abd57610abd610e2f565b634e487b7160e01b600052603260045260246000fdfea26469706673582212203ebfe3ea331f0db249492ad4262538777470eb1a764231a35e60dbc5610c1cdc64736f6c63430008140033",
  "linkReferences": {},
  "deployedLinkReferences": {}
}