{
  "_format": "hh-sol-artifact-1",
  "contractName": "VouchSystem",
  "sourceName": "contracts/VouchSystem.sol",
  "abi": [
    {
      "inputs": [
        {
          "internalType": "address",
          "name": "_token",
          "type": "address"
        },
        {
          "internalType": "address",
          "name": "_treasury",
          "type": "address"
        }
      ],
      "stateMutability": "nonpayable",
      "type": "constructor"
    },
    {
      "inputs": [
        {
          "internalType": "address",
          "name": "owner",
          "type": "address"
        }
      ],
      "name": "OwnableInvalidOwner",
      "type": "error"
    },
    {
      "inputs": [
        {
          "internalType": "address",
          "name": "account",
          "type": "address"
        }
      ],
      "name": "OwnableUnauthorizedAccount",
      "type": "error"
    },
    {
      "anonymous": false,
      "inputs": [
        {
          "indexed": true,
          "internalType": "address",
          "name": "previousOwner",
          "type": "address"
        },
        {
          "indexed": true,
          "internalType": "address",
          "name": "newOwner",
          "type": "address"
        }
      ],
      "name": "OwnershipTransferred",
      "type": "event"
    },
    {
      "anonymous": false,
      "inputs": [
        {
          "indexed": true,
          "internalType": "address",
          "name": "voucher",
          "type": "address"
        },
        {
          "indexed": true,
          "internalType": "address",
          "name": "borrower",
          "type": "address"
        },
        {
          "indexed": false,
          "internalType": "uint256",
          "name": "requestId",
          "type": "uint256"
        },
        {
          "indexed": false,
          "internalType": "uint256",
          "name": "stakeAmount",
          "type": "uint256"
        },
        {
          "indexed": false,
          "internalType": "uint256",
          "name": "totalStaked",
          "type": "uint256"
        }
      ],
      "name": "StakeCommitted",
      "type": "event"
    },
    {
      "anonymous": false,
      "inputs": [
        {
          "indexed": true,
          "internalType": "address",
          "name": "borrower",
          "type": "address"
        },
        {
          "indexed": true,
          "internalType": "address",
          "name": "voucher",
          "type": "address"
        }
      ],
      "name": "VouchAccepted",
      "type": "event"
    },
    {
      "anonymous": false,
      "inputs": [
        {
          "indexed": true,
          "internalType": "address",
          "name": "borrower",
          "type": "address"
        },
        {
          "indexed": true,
          "internalType": "address",
          "name": "voucher",
          "type": "address"
        }
      ],
      "name": "VouchRejected",
      "type": "event"
    },
    {
      "anonymous": false,
      "inputs": [
        {
          "indexed": true,
          "internalType": "uint256",
          "name": "vouchId",
          "type": "uint256"
        },
        {
          "indexed": true,
          "internalType": "address",
          "name": "voucher",
          "type": "address"
        },
        {
          "indexed": false,
          "internalType": "uint256",
          "name": "amount",
          "type": "uint256"
        }
      ],
      "name": "VouchReleased",
      "type": "event"
    },
    {
      "anonymous": false,
      "inputs": [
        {
          "indexed": true,
          "internalType": "address",
          "name": "from",
          "type": "address"
        },
        {
          "indexed": true,
          "internalType": "address",
          "name": "to",
          "type": "address"
        },
        {
          "indexed": false,
          "internalType": "uint256",
          "name": "timestamp",
          "type": "uint256"
        }
      ],
      "name": "VouchRequested",
      "type": "event"
    },
    {
      "anonymous": false,
      "inputs": [
        {
          "indexed": true,
          "internalType": "uint256",
          "name": "vouchId",
          "type": "uint256"
        },
        {
          "indexed": true,
          "internalType": "address",
          "name": "voucher",
          "type": "address"
        },
        {
          "indexed": false,
          "internalType": "uint256",
          "name": "amount",
          "type": "uint256"
        }
      ],
      "name": "VouchSlashed",
      "type": "event"
    },
    {
      "anonymous": false,
      "inputs": [
        {
          "indexed": true,
          "internalType": "uint256",
          "name": "vouchId",
          "type": "uint256"
        },
        {
          "indexed": true,
          "internalType": "address",
          "name": "voucher",
          "type": "address"
        },
        {
          "indexed": true,
          "internalType": "address",
          "name": "borrower",
          "type": "address"
        },
        {
          "indexed": false,
          "internalType": "uint256",
          "name": "amount",
          "type": "uint256"
        }
      ],
      "name": "VouchStaked",
      "type": "event"
    },
    {
      "inputs": [
        {
          "internalType": "address",
          "name": "borrower",
          "type": "address"
        }
      ],
      "name": "acceptVouch",
      "outputs": [],
      "stateMutability": "nonpayable",
      "type": "function"
    },
    {
      "inputs": [
        {
          "internalType": "address",
          "name": "",
          "type": "address"
        },
        {
          "internalType": "uint256",
          "name": "",
          "type": "uint256"
        }
      ],
      "name": "borrowerVouches",
      "outputs": [
        {
          "internalType": "uint256",
          "name": "",
          "type": "uint256"
        }
      ],
      "stateMutability": "view",
      "type": "function"
    },
    {
      "inputs": [
        {
          "internalType": "address",
          "name": "",
          "type": "address"
        },
        {
          "internalType": "address",
          "name": "",
          "type": "address"
        }
      ],
      "name": "establishedVouches",
      "outputs": [
        {
          "internalType": "bool",
          "name": "",
          "type": "bool"
        }
      ],
      "stateMutability": "view",
      "type": "function"
    },
    {
      "inputs": [
        {
          "internalType": "address",
          "name": "b",
          "type": "address"
        }
      ],
      "name": "getBorrowerVouches",
      "outputs": [
        {
          "internalType": "uint256[]",
          "name": "",
          "type": "uint256[]"
        }
      ],
      "stateMutability": "view",
      "type": "function"
    },
    {
      "inputs": [
        {
          "internalType": "address",
          "name": "b",
          "type": "address"
        }
      ],
      "name": "getTotalActiveStake",
      "outputs": [
        {
          "internalType": "uint256",
          "name": "total",
          "type": "uint256"
        }
      ],
      "stateMutability": "view",
      "type": "function"
    },
    {
      "inputs": [
        {
          "internalType": "uint256",
          "name": "id",
          "type": "uint256"
        }
      ],
      "name": "getVouch",
      "outputs": [
        {
          "components": [
            {
              "internalType": "uint256",
              "name": "id",
              "type": "uint256"
            },
            {
              "internalType": "address",
              "name": "voucher",
              "type": "address"
            },
            {
              "internalType": "address",
              "name": "borrower",
              "type": "address"
            },
            {
              "internalType": "uint256",
              "name": "amount",
              "type": "uint256"
            },
            {
              "internalType": "bool",
              "name": "released",
              "type": "bool"
            },
            {
              "internalType": "bool",
              "name": "slashed",
              "type": "bool"
            }
          ],
          "internalType": "struct VouchSystem.Vouch",
          "name": "",
          "type": "tuple"
        }
      ],
      "stateMutability": "view",
      "type": "function"
    },
    {
      "inputs": [
        {
          "internalType": "uint256",
          "name": "",
          "type": "uint256"
        },
        {
          "internalType": "address",
          "name": "",
          "type": "address"
        }
      ],
      "name": "individualLoanStake",
      "outputs": [
        {
          "internalType": "uint256",
          "name": "",
          "type": "uint256"
        }
      ],
      "stateMutability": "view",
      "type": "function"
    },
    {
      "inputs": [
        {
          "internalType": "uint256",
          "name": "",
          "type": "uint256"
        }
      ],
      "name": "loanStake",
      "outputs": [
        {
          "internalType": "uint256",
          "name": "",
          "type": "uint256"
        }
      ],
      "stateMutability": "view",
      "type": "function"
    },
    {
      "inputs": [],
      "name": "nextVouchId",
      "outputs": [
        {
          "internalType": "uint256",
          "name": "",
          "type": "uint256"
        }
      ],
      "stateMutability": "view",
      "type": "function"
    },
    {
      "inputs": [],
      "name": "owner",
      "outputs": [
        {
          "internalType": "address",
          "name": "",
          "type": "address"
        }
      ],
      "stateMutability": "view",
      "type": "function"
    },
    {
      "inputs": [
        {
          "internalType": "address",
          "name": "borrower",
          "type": "address"
        }
      ],
      "name": "rejectVouch",
      "outputs": [],
      "stateMutability": "nonpayable",
      "type": "function"
    },
    {
      "inputs": [
        {
          "internalType": "uint256",
          "name": "vouchId",
          "type": "uint256"
        }
      ],
      "name": "releaseStake",
      "outputs": [],
      "stateMutability": "nonpayable",
      "type": "function"
    },
    {
      "inputs": [],
      "name": "renounceOwnership",
      "outputs": [],
      "stateMutability": "nonpayable",
      "type": "function"
    },
    {
      "inputs": [
        {
          "internalType": "address",
          "name": "to",
          "type": "address"
        }
      ],
      "name": "requestVouch",
      "outputs": [],
      "stateMutability": "nonpayable",
      "type": "function"
    },
    {
      "inputs": [
        {
          "internalType": "address",
          "name": "_t",
          "type": "address"
        }
      ],
      "name": "setTreasury",
      "outputs": [],
      "stateMutability": "nonpayable",
      "type": "function"
    },
    {
      "inputs": [
        {
          "internalType": "uint256",
          "name": "vouchId",
          "type": "uint256"
        }
      ],
      "name": "slashStake",
      "outputs": [],
      "stateMutability": "nonpayable",
      "type": "function"
    },
    {
      "inputs": [
        {
          "internalType": "address",
          "name": "borrower",
          "type": "address"
        },
        {
          "internalType": "uint256",
          "name": "amount",
          "type": "uint256"
        }
      ],
      "name": "stakeForBorrower",
      "outputs": [
        {
          "internalType": "uint256",
          "name": "",
          "type": "uint256"
        }
      ],
      "stateMutability": "nonpayable",
      "type": "function"
    },
    {
      "inputs": [
        {
          "internalType": "address",
          "name": "borrower",
          "type": "address"
        },
        {
          "internalType": "uint256",
          "name": "requestId",
          "type": "uint256"
        },
        {
          "internalType": "uint256",
          "name": "stakeAmount",
          "type": "uint256"
        }
      ],
      "name": "stakeForLoan",
      "outputs": [],
      "stateMutability": "nonpayable",
      "type": "function"
    },
    {
      "inputs": [],
      "name": "token",
      "outputs": [
        {
          "internalType": "contract IERC20",
          "name": "",
          "type": "address"
        }
      ],
      "stateMutability": "view",
      "type": "function"
    },
    {
      "inputs": [
        {
          "internalType": "address",
          "name": "",
          "type": "address"
        }
      ],
      "name": "totalStakedBy",
      "outputs": [
        {
          "internalType": "uint256",
          "name": "",
          "type": "uint256"
        }
      ],
      "stateMutability": "view",
      "type": "function"
    },
    {
      "inputs": [
        {
          "internalType": "address",
          "name": "newOwner",
          "type": "address"
        }
      ],
      "name": "transferOwnership",
      "outputs": [],
      "stateMutability": "nonpayable",
      "type": "function"
    },
    {
      "inputs": [],
      "name": "treasury",
      "outputs": [
        {
          "internalType": "address",
          "name": "",
          "type": "address"
        }
      ],
      "stateMutability": "view",
      "type": "function"
    },
    {
      "inputs": [
        {
          "internalType": "address",
          "name": "",
          "type": "address"
        }
      ],
      "name": "vouchGiven",
      "outputs": [
        {
          "internalType": "uint8",
          "name": "",
          "type": "uint8"
        }
      ],
      "stateMutability": "view",
      "type": "function"
    },
    {
      "inputs": [
        {
          "internalType": "address",
          "name": "",
          "type": "address"
        }
      ],
      "name": "vouchReceived",
      "outputs": [
        {
          "internalType": "uint8",
          "name": "",
          "type": "uint8"
        }
      ],
      "stateMutability": "view",
      "type": "function"
    },
    {
      "inputs": [
        {
          "internalType": "address",
          "name": "",
          "type": "address"
        },
        {
          "internalType": "address",
          "name": "",
          "type": "address"
        }
      ],
      "name": "vouchRequests",
      "outputs": [
        {
          "internalType": "uint8",
          "name": "",
          "type": "uint8"
        }
      ],
      "stateMutability": "view",
      "type": "function"
    },
    {
      "inputs": [
        {
          "internalType": "uint256",
          "name": "",
          "type": "uint256"
        }
      ],
      "name": "vouches",
      "outputs": [
        {
          "internalType": "uint256",
          "name": "id",
          "type": "uint256"
        },
        {
          "internalType": "address",
          "name": "voucher",
          "type": "address"
        },
        {
          "internalType": "address",
          "name": "borrower",
          "type": "address"
        },
        {
          "internalType": "uint256",
          "name": "amount",
          "type": "uint256"
        },
        {
          "internalType": "bool",
          "name": "released",
          "type": "bool"
        },
        {
          "internalType": "bool",
          "name": "slashed",
          "type": "bool"
        }
      ],
      "stateMutability": "view",
      "type": "function"
    }
  ],
  "bytecode": "0x6080346101525761159890601f38839003908101601f19168201906001600160401b03821183831017610156578083916040958694855283398101031261015257610055602061004e8361016a565b920161016a565b90331561013b575f549160018060a01b03908160018060a01b03199333858716175f55865195823391167f8be0079c531659141344cd1fd0a4f28419497f9722a3daafe3b4186f6b6457e05f80a3169384156101095750169182156100d257816001541617600155600254161760025551611419908161017f8239f35b835162461bcd60e51b815260206004820152601060248201526f496e76616c696420747265617375727960801b6044820152606490fd5b62461bcd60e51b815260206004820152600d60248201526c24b73b30b634b2103a37b5b2b760991b6044820152606490fd5b8251631e4fbdf760e01b81525f6004820152602490fd5b5f80fd5b634e487b7160e01b5f52604160045260245ffd5b51906001600160a01b03821682036101525756fe6080604081815260049182361015610015575f80fd5b5f3560e01c9081631eab3d78146111de575080633284f61a1461119f5780633bb3c6fb146110ca5780633fdd5da8146110735780633feff9d21461105557806345f5448514610f4957806351f4ba9d14610ebf57806358ecb03014610d925780635be0a66314610b3e57806361d027b314610b165780636f0f066814610ac8578063715018a614610a715780637dc6368a1461098d578063878c6dad146109565780638da5cb5b1461092f578063a817c68a146108c0578063bf28a50a14610886578063bfe33f5614610713578063c129fc9014610544578063d1d5141a146104f8578063ef0614101461044e578063f0dca8bd1461025f578063f0f442601461021c578063f2fde38b1461018f578063fc0c546a146101675763fe9ce2fc1461013d575f80fd5b3461016357602036600319011261016357602091355f52600b8252805f20549051908152f35b5f80fd5b5034610163575f3660031901126101635760015490516001600160a01b039091168152602090f35b509034610163576020366003190112610163576101aa611216565b906101b36113b8565b6001600160a01b039182169283156102065750505f54826bffffffffffffffffffffffff60a01b8216175f55167f8be0079c531659141344cd1fd0a4f28419497f9722a3daafe3b4186f6b6457e05f80a3005b905f6024925191631e4fbdf760e01b8352820152fd5b3461016357602036600319011261016357610235611216565b61023d6113b8565b600280546001600160a01b0319166001600160a01b0392909216919091179055005b50346101635760209081600319360112610163576001600160a01b03610283611216565b169233841461040d57335f5260088352600360ff835f20541610156103d357835f5260078352600360ff835f205416101561039b57335f5260098352815f20845f52835260ff825f20541661036957335f52600a8352815f20845f52835260ff825f20541661033657507f20fdd67e4eed1943e5886a148d9dad90b197bcdc63702e92ecdbf0d0aeab944790335f5260098352805f20845f528352805f20600160ff1982541617905551914283523392a3005b82606492519162461bcd60e51b8352820152600f60248201526e105b1c9958591e481d9bdd58da1959608a1b6044820152fd5b82606492519162461bcd60e51b8352820152600e60248201526d526571756573742065786973747360901b6044820152fd5b82606492519162461bcd60e51b8352820152601460248201527315185c99d95d081b1a5b5a5d081c995858da195960621b6044820152fd5b82606492519162461bcd60e51b8352820152601660248201527513585e080cc81d9bdd58da195c9cc81c995858da195960521b6044820152fd5b82606492519162461bcd60e51b8352820152601960248201527f43616e6e6f7420766f75636820666f7220796f757273656c66000000000000006044820152fd5b50346101635760208060031936011261016357906001600160a01b03610472611216565b165f5260058252805f208151928381835491828152019081935f52825f20905f5b8181106104e457505050846104a991038561129b565b825181815293518185018190528493840192915f5b8281106104cd57505050500390f35b8351855286955093810193928101926001016104be565b825484529284019260019283019201610493565b5034610163578060031936011261016357602090610514611216565b61051c61122c565b9060018060a01b038091165f5260098452825f2091165f52825260ff815f2054169051908152f35b50346101635760603660031901126101635761055e611216565b6024359160443560018060a01b0380931694855f52602093600a8552835f20335f52855260ff845f205416156106e257678ac7230489e8000083106106b05760015484516323b872dd60e01b815233938101938452306020850152604084018590529286928492169082905f90829060600103925af19081156106a657906105ed915f91610679575b50611365565b835f52600b8352815f2061060282825461139a565b9055835f52600c8352815f20335f528352815f2061062182825461139a565b9055335f5260068352815f2061063882825461139a565b9055835f52600b8352815f20549282519485528401528201527fabc952f70e3826097713f731695bbee5a8b575078a35f50f32beb29e3cb66d9260603392a3005b6106999150853d871161069f575b610691818361129b565b810190611314565b5f6105e7565b503d610687565b83513d5f823e3d90fd5b835162461bcd60e51b8152808301869052600c60248201526b04d696e207374616b652031360a41b6044820152606490fd5b835162461bcd60e51b8152808301869052600b60248201526a2737ba103b37bab1b432b960a91b6044820152606490fd5b5090346101635760209081600319360112610163576001600160a01b03610738611216565b1692835f5260098352805f20335f52835260ff9161075d600184845f2054161461132c565b335f5260078452600383835f205416101561085657845f5260088452600383835f20541610156108215750835f5260098352805f20335f5283526008815f209360ff1994858154169055855f52600a8152825f20335f528152825f2060018682541617905560078152825f20805486866107d88184166113a7565b169116179055855f52525f20918254916107f38184166113a7565b16911617905533907fef210165c27edde83d697546575de6a6989c48d9847a67a4d15e74b83a6694865f80a3005b83606492519162461bcd60e51b83528201526011602482015270109bdc9c9bddd95c88185d081b1a5b5a5d607a1b6044820152fd5b83606492519162461bcd60e51b8352820152600c60248201526b165bdd48185d081b1a5b5a5d60a21b6044820152fd5b5034610163576020366003190112610163576020906001600160a01b036108ab611216565b165f526007825260ff815f2054169051908152f35b5090346101635760203660031901126101635760ff60c09282355f5282602052805f2080549360018060a01b03928360018401541693600284015416916003840154930154938151968752602087015285015260608401528181161515608084015260081c16151560a0820152f35b5034610163575f366003190112610163575f5490516001600160a01b039091168152602090f35b5034610163576020366003190112610163576020906001600160a01b0361097b611216565b165f5260068252805f20549051908152f35b50346101635760209182600319360112610163576109a9611216565b6001600160a01b03165f9081526005808552838220845181548082529184528684209295929091829081890190865b8a828210610a5b575050506109ef9250038261129b565b5f5b8151811015610a52578681871b830101515f52848752825f208581015460ff808216159182610a44575b5050610a2b575b506001016109f1565b600191946003610a3d9201549061139a565b9390610a22565b60081c161590505f80610a1b565b86848451908152f35b85548452600195860195879550930192016109d8565b34610163575f36600319011261016357610a896113b8565b5f80546001600160a01b0319811682556001600160a01b03167f8be0079c531659141344cd1fd0a4f28419497f9722a3daafe3b4186f6b6457e08280a3005b5034610163578060031936011261016357602090610ae4611216565b610aec61122c565b9060018060a01b038091165f52600a8452825f2091165f52825260ff815f20541690519015158152f35b5034610163575f3660031901126101635760025490516001600160a01b039091168152602090f35b509034610163578160031936011261016357610b58611216565b916024359283151580610d7f575b15610d4c5760015482516323b872dd60e01b815233858201908152306020808301919091526040820188905296926001600160a01b039291889183918290036060019082905f9087165af1908115610d425790610bc9915f91610d2b5750611365565b600354945f1991828714610d18578682899260018301600355885190610bee8261126b565b83825284820198338a52818b84019116998a825260608401928a84528560808601985f8a5260a08701985f8a525f52528c5f20945185558060018601925116916bffffffffffffffffffffffff60a01b9283825416179055600285019251169082541617905551600382015501915115159060ff61ff0084549251151560081b1692169061ffff191617179055835f5260058752845f2080549168010000000000000000831015610d05575090610caa91600182018155611242565b819291549060031b9187831b921b1916179055335f5260068552825f20610cd282825461139a565b90558251908152837f2cd35794516e5a0f98ad83e98845ae3baaf635e482fdb64ea13d4636159d7842863393a451908152f35b604190634e487b7160e01b5f525260245ffd5b601182634e487b7160e01b5f525260245ffd5b6106999150883d8a1161069f57610691818361129b565b85513d5f823e3d90fd5b815162461bcd60e51b8152602081850152600d60248201526c496e76616c6964207374616b6560981b6044820152606490fd5b506001600160a01b038116331415610b66565b509034610163576020918260031936011261016357610e5292823591610db66113b8565b825f52838252805f20848101610100815460ff81161580610eb0575b610ddb906112bd565b61ff0019161790556003810194836001875493019160018060a01b0393848454165f5260068352610e10865f209182546112f3565b90556001546002548954875163a9059cbb60e01b81529187166001600160a01b03169382019384526020840152998a929186169183915f918391604090910190565b03925af19687156106a6577fcb08b03c72d7cfe2bc8179ebb4ceeba9310ad4989f971f762a047056d26cfe9a959697610e93575b50541694549051908152a3005b610ea990853d871161069f57610691818361129b565b505f610e86565b50600881901c60ff1615610dd2565b5034610163576020366003190112610163576001600160a01b03610ee1611216565b1690815f526009602052805f20335f52602052610f06600160ff835f2054161461132c565b815f526009602052805f20335f526020525f2060ff19815416905533907f85e85612dd1bd5f6766fba01749bb69c6b75809d86d0966e218631d80e0c7ed05f80a3005b50903461016357602091826003193601126101635761100692823591610f6d6113b8565b825f52838252805f208481016001815460ff81161580611046575b610f91906112bd565b60ff19161790556003810194836001875493019160018060a01b0393848454165f5260068352610fc5865f209182546112f3565b905560015483548954875163a9059cbb60e01b81529187166001600160a01b03169382019384526020840152998a929186169183915f918391604090910190565b03925af19687156106a6577f5bea96a5fcae49ff813800783adf5c0ab61326ab3f8f08369f7bf9857e10435e959697610e935750541694549051908152a3005b50600881901c60ff1615610f88565b5034610163575f366003190112610163576020906003549051908152f35b503461016357806003193601126101635761108c611216565b6001600160a01b03165f90815260056020528190208054602435929190831015610163576020926110bc91611242565b91905490519160031b1c8152f35b50346101635760203660031901126101635760c0915f60a083516110ed8161126b565b8281528260208201528285820152826060820152826080820152015280355f5280602052815f208251906111208261126b565b80549384835260018060a01b038060018401541694602085019586528180600286015416918487019283526003860154956060880196875201549660ff60a06080890198828b1615158a52019860081c1615158852845198895251166020880152511690850152516060840152511515608083015251151560a0820152f35b50346101635780600319360112610163576020916111bb61122c565b90355f52600c8352815f209060018060a01b03165f528252805f20549051908152f35b9050346101635760203660031901126101635760209160ff906001600160a01b03611207611216565b165f52600884525f2054168152f35b600435906001600160a01b038216820361016357565b602435906001600160a01b038216820361016357565b8054821015611257575f5260205f2001905f90565b634e487b7160e01b5f52603260045260245ffd5b60c0810190811067ffffffffffffffff82111761128757604052565b634e487b7160e01b5f52604160045260245ffd5b90601f8019910116810190811067ffffffffffffffff82111761128757604052565b156112c457565b60405162461bcd60e51b815260206004820152600760248201526614d95d1d1b195960ca1b6044820152606490fd5b9190820391821161130057565b634e487b7160e01b5f52601160045260245ffd5b90816020910312610163575180151581036101635790565b1561133357565b60405162461bcd60e51b815260206004820152600a602482015269139bc81c995c5d595cdd60b21b6044820152606490fd5b1561136c57565b60405162461bcd60e51b815260206004820152600660248201526511985a5b195960d21b6044820152606490fd5b9190820180921161130057565b60ff1660ff81146113005760010190565b5f546001600160a01b031633036113cb57565b60405163118cdaa760e01b8152336004820152602490fdfea2646970667358221220050bf2c913e77b5503e8df26194b51a0c6744d97d550c8a2ae4db3e53bf87a1564736f6c63430008190033",
  "linkReferences": {},
  "deployedLinkReferences": {}
}