{
  "_format": "hh-sol-artifact-1",
  "contractName": "VouchSystem",
  "sourceName": "contracts/VouchSystem.sol",
  "abi": [
    {
      "inputs": [
        {
          "internalType": "address",
          "name": "_token",
          "type": "address"
        },
        {
          "internalType": "address",
          "name": "_treasury",
          "type": "address"
        }
      ],
      "stateMutability": "nonpayable",
      "type": "constructor"
    },
    {
      "inputs": [
        {
          "internalType": "address",
          "name": "owner",
          "type": "address"
        }
      ],
      "name": "OwnableInvalidOwner",
      "type": "error"
    },
    {
      "inputs": [
        {
          "internalType": "address",
          "name": "account",
          "type": "address"
        }
      ],
      "name": "OwnableUnauthorizedAccount",
      "type": "error"
    },
    {
      "anonymous": false,
      "inputs": [
        {
          "indexed": true,
          "internalType": "address",
          "name": "previousOwner",
          "type": "address"
        },
        {
          "indexed": true,
          "internalType": "address",
          "name": "newOwner",
          "type": "address"
        }
      ],
      "name": "OwnershipTransferred",
      "type": "event"
    },
    {
      "anonymous": false,
      "inputs": [
        {
          "indexed": true,
          "internalType": "uint256",
          "name": "vouchId",
          "type": "uint256"
        },
        {
          "indexed": true,
          "internalType": "address",
          "name": "voucher",
          "type": "address"
        },
        {
          "indexed": false,
          "internalType": "uint256",
          "name": "amount",
          "type": "uint256"
        }
      ],
      "name": "VouchReleased",
      "type": "event"
    },
    {
      "anonymous": false,
      "inputs": [
        {
          "indexed": true,
          "internalType": "uint256",
          "name": "vouchId",
          "type": "uint256"
        },
        {
          "indexed": true,
          "internalType": "address",
          "name": "voucher",
          "type": "address"
        },
        {
          "indexed": false,
          "internalType": "uint256",
          "name": "amount",
          "type": "uint256"
        }
      ],
      "name": "VouchSlashed",
      "type": "event"
    },
    {
      "anonymous": false,
      "inputs": [
        {
          "indexed": true,
          "internalType": "uint256",
          "name": "vouchId",
          "type": "uint256"
        },
        {
          "indexed": true,
          "internalType": "address",
          "name": "voucher",
          "type": "address"
        },
        {
          "indexed": true,
          "internalType": "address",
          "name": "borrower",
          "type": "address"
        },
        {
          "indexed": false,
          "internalType": "uint256",
          "name": "amount",
          "type": "uint256"
        }
      ],
      "name": "VouchStaked",
      "type": "event"
    },
    {
      "inputs": [
        {
          "internalType": "address",
          "name": "",
          "type": "address"
        },
        {
          "internalType": "uint256",
          "name": "",
          "type": "uint256"
        }
      ],
      "name": "borrowerVouches",
      "outputs": [
        {
          "internalType": "uint256",
          "name": "",
          "type": "uint256"
        }
      ],
      "stateMutability": "view",
      "type": "function"
    },
    {
      "inputs": [
        {
          "internalType": "address",
          "name": "borrower",
          "type": "address"
        }
      ],
      "name": "getBorrowerVouches",
      "outputs": [
        {
          "internalType": "uint256[]",
          "name": "",
          "type": "uint256[]"
        }
      ],
      "stateMutability": "view",
      "type": "function"
    },
    {
      "inputs": [
        {
          "internalType": "address",
          "name": "borrower",
          "type": "address"
        }
      ],
      "name": "getTotalActiveStake",
      "outputs": [
        {
          "internalType": "uint256",
          "name": "total",
          "type": "uint256"
        }
      ],
      "stateMutability": "view",
      "type": "function"
    },
    {
      "inputs": [
        {
          "internalType": "uint256",
          "name": "vouchId",
          "type": "uint256"
        }
      ],
      "name": "getVouch",
      "outputs": [
        {
          "components": [
            {
              "internalType": "uint256",
              "name": "id",
              "type": "uint256"
            },
            {
              "internalType": "address",
              "name": "voucher",
              "type": "address"
            },
            {
              "internalType": "address",
              "name": "borrower",
              "type": "address"
            },
            {
              "internalType": "uint256",
              "name": "amount",
              "type": "uint256"
            },
            {
              "internalType": "bool",
              "name": "released",
              "type": "bool"
            },
            {
              "internalType": "bool",
              "name": "slashed",
              "type": "bool"
            }
          ],
          "internalType": "struct VouchSystem.Vouch",
          "name": "",
          "type": "tuple"
        }
      ],
      "stateMutability": "view",
      "type": "function"
    },
    {
      "inputs": [],
      "name": "nextVouchId",
      "outputs": [
        {
          "internalType": "uint256",
          "name": "",
          "type": "uint256"
        }
      ],
      "stateMutability": "view",
      "type": "function"
    },
    {
      "inputs": [],
      "name": "owner",
      "outputs": [
        {
          "internalType": "address",
          "name": "",
          "type": "address"
        }
      ],
      "stateMutability": "view",
      "type": "function"
    },
    {
      "inputs": [
        {
          "internalType": "uint256",
          "name": "vouchId",
          "type": "uint256"
        }
      ],
      "name": "releaseStake",
      "outputs": [],
      "stateMutability": "nonpayable",
      "type": "function"
    },
    {
      "inputs": [],
      "name": "renounceOwnership",
      "outputs": [],
      "stateMutability": "nonpayable",
      "type": "function"
    },
    {
      "inputs": [
        {
          "internalType": "address",
          "name": "_treasury",
          "type": "address"
        }
      ],
      "name": "setTreasury",
      "outputs": [],
      "stateMutability": "nonpayable",
      "type": "function"
    },
    {
      "inputs": [
        {
          "internalType": "uint256",
          "name": "vouchId",
          "type": "uint256"
        }
      ],
      "name": "slashStake",
      "outputs": [],
      "stateMutability": "nonpayable",
      "type": "function"
    },
    {
      "inputs": [
        {
          "internalType": "address",
          "name": "borrower",
          "type": "address"
        },
        {
          "internalType": "uint256",
          "name": "amount",
          "type": "uint256"
        }
      ],
      "name": "stakeForBorrower",
      "outputs": [
        {
          "internalType": "uint256",
          "name": "",
          "type": "uint256"
        }
      ],
      "stateMutability": "nonpayable",
      "type": "function"
    },
    {
      "inputs": [],
      "name": "token",
      "outputs": [
        {
          "internalType": "contract IERC20",
          "name": "",
          "type": "address"
        }
      ],
      "stateMutability": "view",
      "type": "function"
    },
    {
      "inputs": [
        {
          "internalType": "address",
          "name": "",
          "type": "address"
        }
      ],
      "name": "totalStakedBy",
      "outputs": [
        {
          "internalType": "uint256",
          "name": "",
          "type": "uint256"
        }
      ],
      "stateMutability": "view",
      "type": "function"
    },
    {
      "inputs": [
        {
          "internalType": "address",
          "name": "newOwner",
          "type": "address"
        }
      ],
      "name": "transferOwnership",
      "outputs": [],
      "stateMutability": "nonpayable",
      "type": "function"
    },
    {
      "inputs": [],
      "name": "treasury",
      "outputs": [
        {
          "internalType": "address",
          "name": "",
          "type": "address"
        }
      ],
      "stateMutability": "view",
      "type": "function"
    },
    {
      "inputs": [
        {
          "internalType": "uint256",
          "name": "",
          "type": "uint256"
        }
      ],
      "name": "vouches",
      "outputs": [
        {
          "internalType": "uint256",
          "name": "id",
          "type": "uint256"
        },
        {
          "internalType": "address",
          "name": "voucher",
          "type": "address"
        },
        {
          "internalType": "address",
          "name": "borrower",
          "type": "address"
        },
        {
          "internalType": "uint256",
          "name": "amount",
          "type": "uint256"
        },
        {
          "internalType": "bool",
          "name": "released",
          "type": "bool"
        },
        {
          "internalType": "bool",
          "name": "slashed",
          "type": "bool"
        }
      ],
      "stateMutability": "view",
      "type": "function"
    }
  ],
  "bytecode": "0x60803461016f57610f3890601f38839003908101601f19168201906001600160401b03821183831017610173578083916040958694855283398101031261016f57610055602061004e83610187565b9201610187565b903315610158575f549160018060a01b03908160018060a01b03199333858716175f55865195823391167f8be0079c531659141344cd1fd0a4f28419497f9722a3daafe3b4186f6b6457e05f80a3169384156101165750169182156100d257816001541617600155600254161760025551610d9c908161019c8239f35b835162461bcd60e51b815260206004820152601860248201527f496e76616c6964207472656173757279206164647265737300000000000000006044820152606490fd5b62461bcd60e51b815260206004820152601560248201527f496e76616c696420746f6b656e206164647265737300000000000000000000006044820152606490fd5b8251631e4fbdf760e01b81525f6004820152602490fd5b5f80fd5b634e487b7160e01b5f52604160045260245ffd5b51906001600160a01b038216820361016f5756fe6080604090808252600480361015610015575f80fd5b5f3560e01c9182633bb3c6fb14610b4c575081633fdd5da814610af55781633feff9d214610ad757816345f544851461096857816358ecb030146107f45781635be0a663146104de57816361d027b3146104b6578163715018a61461045f5781637dc6368a1461037b578163878c6dad146103445781638da5cb5b1461031d578163a817c68a146102ae578163ef06141014610204578163f0f4426014610188578163f2fde38b146100fb575063fc0c546a146100d0575f80fd5b346100f7575f3660031901126100f75760015490516001600160a01b039091168152602090f35b5f80fd5b9050346100f75760203660031901126100f757610116610c20565b9061011f610d3b565b6001600160a01b039182169283156101725750505f54826bffffffffffffffffffffffff60a01b8216175f55167f8be0079c531659141344cd1fd0a4f28419497f9722a3daafe3b4186f6b6457e05f80a3005b905f6024925191631e4fbdf760e01b8352820152fd5b9050346100f75760203660031901126100f7576101a3610c20565b6101ab610d3b565b6001600160a01b03169182156101cf57600280546001600160a01b03191684179055005b906020606492519162461bcd60e51b8352820152600f60248201526e496e76616c6964206164647265737360881b6044820152fd5b82346100f7576020806003193601126100f757906001600160a01b03610228610c20565b165f5260058252805f208151928381835491828152019081935f52825f20905f5b81811061029a575050508461025f910385610c8f565b825181815293518185018190528493840192915f5b82811061028357505050500390f35b835185528695509381019392810192600101610274565b825484529284019260019283019201610249565b9050346100f75760203660031901126100f75760ff60c09282355f5282602052805f2080549360018060a01b03928360018401541693600284015416916003840154930154938151968752602087015285015260608401528181161515608084015260081c16151560a0820152f35b82346100f7575f3660031901126100f7575f5490516001600160a01b039091168152602090f35b82346100f75760203660031901126100f7576020906001600160a01b03610369610c20565b165f5260068252805f20549051908152f35b82346100f757602091826003193601126100f757610397610c20565b6001600160a01b03165f9081526005808552838220845181548082529184528684209295929091829081890190865b8a828210610449575050506103dd92500382610c8f565b5f5b8151811015610440578681871b830101515f52848752825f208581015460ff808216159182610432575b5050610419575b506001016103df565b60019194600361042b92015490610d2e565b9390610410565b60081c161590508980610409565b86848451908152f35b85548452600195860195879550930192016103c6565b346100f7575f3660031901126100f757610477610d3b565b5f80546001600160a01b0319811682556001600160a01b03167f8be0079c531659141344cd1fd0a4f28419497f9722a3daafe3b4186f6b6457e08280a3005b82346100f7575f3660031901126100f75760025490516001600160a01b039091168152602090f35b82346100f757806003193601126100f7576104f7610c20565b90602491823580156107b2576001600160a01b039182169133831461077057821561072e575f9581600154168551906323b872dd60e01b8252338383015230888301528460448301528160648160209b8c945af1908115610724575f916106f7575b50156106bd57600354955f19928388146106aa5787838a926001830160035589519061058482610c5f565b8382528482013381528b8301908b825260608401928b84528560808601985f8a5260a08701985f8a525f52528d5f20945185558060018601925116916bffffffffffffffffffffffff60a01b9283825416179055600285019251169082541617905551600382015501915115159060ff61ff0084549251151560081b1692169061ffff191617179055845f5260058852855f2090815492680100000000000000008410156106995750509061063e91600182018155610c36565b819291549060031b9187831b921b1916179055335f5260068552825f20610666828254610d2e565b90558251908152837f2cd35794516e5a0f98ad83e98845ae3baaf635e482fdb64ea13d4636159d7842863393a451908152f35b604190634e487b7160e01b5f52525ffd5b50634e487b7160e01b5f90815260118352fd5b845162461bcd60e51b815290810187905260158187015274151bdad95b881d1c985b9cd9995c8819985a5b1959605a1b6044820152606490fd5b6107179150883d8a1161071d575b61070f8183610c8f565b810190610d16565b88610559565b503d610705565b86513d5f823e3d90fd5b835162461bcd60e51b81526020818801526018818701527f496e76616c696420626f72726f776572206164647265737300000000000000006044820152606490fd5b835162461bcd60e51b81526020818801526019818701527f43616e6e6f7420766f75636820666f7220796f757273656c66000000000000006044820152606490fd5b825162461bcd60e51b8152602081870152601c818601527f5374616b65206d7573742062652067726561746572207468616e2030000000006044820152606490fd5b82346100f7576020806003193601126100f757823591610812610d3b565b825f52838252805f20848101610100815460ff81161580610959575b61083790610cb1565b61ff00191617905560038101946001865492019060018060a01b0392838354165f526006865261086b855f20918254610cf5565b90556001546002548854865163a9059cbb60e01b81529186166001600160a01b0316848301908152602081019190915290918791839187169082905f90829060400103925af190811561094f575f91610932575b50156108f75750907fcb08b03c72d7cfe2bc8179ebb4ceeba9310ad4989f971f762a047056d26cfe9a939291541694549051908152a3005b835162461bcd60e51b8152908101859052601560248201527414db185cda081d1c985b9cd9995c8819985a5b1959605a1b6044820152606490fd5b6109499150863d881161071d5761070f8183610c8f565b886108bf565b85513d5f823e3d90fd5b50600881901c60ff161561082e565b82346100f7576020806003193601126100f757823591610986610d3b565b825f52838252805f208481016001815460ff81161580610ac8575b6109aa90610cb1565b60ff191617905560038101946001865492019060018060a01b0392838354165f52600686526109dd855f20918254610cf5565b905560015482548854865163a9059cbb60e01b81529186166001600160a01b0316848301908152602081019190915290918791839187169082905f90829060400103925af190811561094f575f91610aab575b5015610a685750907f5bea96a5fcae49ff813800783adf5c0ab61326ab3f8f08369f7bf9857e10435e939291541694549051908152a3005b835162461bcd60e51b8152908101859052601760248201527f52656c65617365207472616e73666572206661696c65640000000000000000006044820152606490fd5b610ac29150863d881161071d5761070f8183610c8f565b88610a30565b50600881901c60ff16156109a1565b82346100f7575f3660031901126100f7576020906003549051908152f35b82346100f757806003193601126100f757610b0e610c20565b6001600160a01b03165f908152600560205281902080546024359291908310156100f757602092610b3e91610c36565b91905490519160031b1c8152f35b8382346100f75760203660031901126100f7575f60a084610b6e60c096610c5f565b8281528260208201528285820152826060820152826080820152015280355f5280602052815f20825190610ba182610c5f565b80549384835260018060a01b038060018401541694602085019586528180600286015416918487019283526003860154956060880196875201549660ff60a06080890198828b1615158a52019860081c1615158852845198895251166020880152511690850152516060840152511515608083015251151560a0820152f35b600435906001600160a01b03821682036100f757565b8054821015610c4b575f5260205f2001905f90565b634e487b7160e01b5f52603260045260245ffd5b60c0810190811067ffffffffffffffff821117610c7b57604052565b634e487b7160e01b5f52604160045260245ffd5b90601f8019910116810190811067ffffffffffffffff821117610c7b57604052565b15610cb857565b60405162461bcd60e51b8152602060048201526015602482015274159bdd58da08185b1c9958591e481cd95d1d1b1959605a1b6044820152606490fd5b91908203918211610d0257565b634e487b7160e01b5f52601160045260245ffd5b908160209103126100f7575180151581036100f75790565b91908201809211610d0257565b5f546001600160a01b03163303610d4e57565b60405163118cdaa760e01b8152336004820152602490fdfea26469706673582212201f2fa2f2aad73e20eb67558bf27a88743508c72ddd3af3c6f9d55070d848eb8a64736f6c63430008190033",
  "linkReferences": {},
  "deployedLinkReferences": {}
}