{"contracts/LendingPool.sol":{"LendingPool":{"abi":[{"inputs":[{"internalType":"address","name":"_trustToken","type":"address"},{"internalType":"address","name":"_reputationNFT","type":"address"}],"stateMutability":"nonpayable","type":"constructor"},{"inputs":[],"name":"EnforcedPause","type":"error"},{"inputs":[],"name":"ExpectedPause","type":"error"},{"inputs":[{"internalType":"address","name":"owner","type":"address"}],"name":"OwnableInvalidOwner","type":"error"},{"inputs":[{"internalType":"address","name":"account","type":"address"}],"name":"OwnableUnauthorizedAccount","type":"error"},{"inputs":[],"name":"ReentrancyGuardReentrantCall","type":"error"},{"inputs":[{"internalType":"address","name":"token","type":"address"}],"name":"SafeERC20FailedOperation","type":"error"},{"anonymous":false,"inputs":[{"indexed":true,"internalType":"address","name":"borrower","type":"address"},{"indexed":false,"internalType":"uint256","name":"amount","type":"uint256"},{"indexed":false,"internalType":"uint256","name":"outstandingDebt","type":"uint256"}],"name":"LoanDefaulted","type":"event"},{"anonymous":false,"inputs":[{"indexed":true,"internalType":"address","name":"borrower","type":"address"},{"indexed":false,"internalType":"uint256","name":"amount","type":"uint256"},{"indexed":false,"internalType":"uint256","name":"dueDate","type":"uint256"},{"indexed":false,"internalType":"enum LendingPool.LoanPath","name":"path","type":"uint8"}],"name":"LoanDisbursed","type":"event"},{"anonymous":false,"inputs":[{"indexed":true,"internalType":"address","name":"previousOwner","type":"address"},{"indexed":true,"internalType":"address","name":"newOwner","type":"address"}],"name":"OwnershipTransferred","type":"event"},{"anonymous":false,"inputs":[{"indexed":false,"internalType":"address","name":"account","type":"address"}],"name":"Paused","type":"event"},{"anonymous":false,"inputs":[{"indexed":true,"internalType":"address","name":"lender","type":"address"},{"indexed":false,"internalType":"uint256","name":"amount","type":"uint256"},{"indexed":false,"internalType":"uint256","name":"newTotal","type":"uint256"}],"name":"PoolDeposit","type":"event"},{"anonymous":false,"inputs":[{"indexed":true,"internalType":"address","name":"lender","type":"address"},{"indexed":false,"internalType":"uint256","name":"amount","type":"uint256"},{"indexed":false,"internalType":"uint256","name":"yieldEarned","type":"uint256"}],"name":"PoolWithdrawal","type":"event"},{"anonymous":false,"inputs":[{"indexed":true,"internalType":"address","name":"borrower","type":"address"},{"indexed":false,"internalType":"uint256","name":"amount","type":"uint256"},{"indexed":false,"internalType":"uint256","name":"remaining","type":"uint256"},{"indexed":false,"internalType":"uint8","name":"newTrustScore","type":"uint8"}],"name":"RepaymentMade","type":"event"},{"anonymous":false,"inputs":[{"indexed":true,"internalType":"address","name":"borrower","type":"address"},{"indexed":false,"internalType":"uint8","name":"oldScore","type":"uint8"},{"indexed":false,"internalType":"uint8","name":"newScore","type":"uint8"}],"name":"TrustScoreUpdated","type":"event"},{"anonymous":false,"inputs":[{"indexed":false,"internalType":"address","name":"account","type":"address"}],"name":"Unpaused","type":"event"},{"inputs":[{"internalType":"uint256","name":"amount","type":"uint256"}],"name":"depositToPool","outputs":[],"stateMutability":"nonpayable","type":"function"},{"inputs":[{"internalType":"address","name":"borrower","type":"address"}],"name":"getBorrowLimit","outputs":[{"internalType":"uint256","name":"","type":"uint256"}],"stateMutability":"view","type":"function"},{"inputs":[{"internalType":"address","name":"lender","type":"address"}],"name":"getLenderBalance","outputs":[{"internalType":"uint256","name":"","type":"uint256"}],"stateMutability":"view","type":"function"},{"inputs":[{"internalType":"address","name":"borrower","type":"address"}],"name":"getLoan","outputs":[{"components":[{"internalType":"address","name":"borrower","type":"address"},{"internalType":"uint256","name":"amount","type":"uint256"},{"internalType":"uint256","name":"repaidAmount","type":"uint256"},{"internalType":"uint256","name":"interestRate","type":"uint256"},{"internalType":"uint256","name":"startTime","type":"uint256"},{"internalType":"uint256","name":"dueDate","type":"uint256"},{"internalType":"uint8","name":"installmentsPaid","type":"uint8"},{"internalType":"uint8","name":"totalInstallments","type":"uint8"},{"internalType":"enum LendingPool.LoanStatus","name":"status","type":"uint8"},{"internalType":"enum LendingPool.LoanPath","name":"path","type":"uint8"}],"internalType":"struct LendingPool.Loan","name":"","type":"tuple"}],"stateMutability":"view","type":"function"},{"inputs":[],"name":"getPoolBalance","outputs":[{"internalType":"uint256","name":"","type":"uint256"}],"stateMutability":"view","type":"function"},{"inputs":[],"name":"getPoolStats","outputs":[{"internalType":"uint256","name":"liquidity","type":"uint256"},{"internalType":"uint256","name":"activeLoans","type":"uint256"},{"internalType":"uint256","name":"lenderCount","type":"uint256"},{"internalType":"uint256","name":"avgInterestRate","type":"uint256"}],"stateMutability":"view","type":"function"},{"inputs":[{"internalType":"address","name":"borrower","type":"address"}],"name":"getRemainingDebt","outputs":[{"internalType":"uint256","name":"","type":"uint256"}],"stateMutability":"view","type":"function"},{"inputs":[{"internalType":"address","name":"borrower","type":"address"}],"name":"getTotalOwed","outputs":[{"internalType":"uint256","name":"","type":"uint256"}],"stateMutability":"view","type":"function"},{"inputs":[{"internalType":"address","name":"borrower","type":"address"}],"name":"getTrustScore","outputs":[{"internalType":"uint8","name":"","type":"uint8"}],"stateMutability":"view","type":"function"},{"inputs":[{"internalType":"address","name":"","type":"address"}],"name":"lenderDeposits","outputs":[{"internalType":"uint256","name":"","type":"uint256"}],"stateMutability":"view","type":"function"},{"inputs":[{"internalType":"uint256","name":"amount","type":"uint256"}],"name":"makeRepayment","outputs":[],"stateMutability":"nonpayable","type":"function"},{"inputs":[{"internalType":"address","name":"borrower","type":"address"}],"name":"markDefault","outputs":[],"stateMutability":"nonpayable","type":"function"},{"inputs":[{"internalType":"address","name":"to","type":"address"}],"name":"mintReputationNFT","outputs":[],"stateMutability":"nonpayable","type":"function"},{"inputs":[],"name":"owner","outputs":[{"internalType":"address","name":"","type":"address"}],"stateMutability":"view","type":"function"},{"inputs":[],"name":"pause","outputs":[],"stateMutability":"nonpayable","type":"function"},{"inputs":[],"name":"paused","outputs":[{"internalType":"bool","name":"","type":"bool"}],"stateMutability":"view","type":"function"},{"inputs":[],"name":"renounceOwnership","outputs":[],"stateMutability":"nonpayable","type":"function"},{"inputs":[],"name":"reputationNFT","outputs":[{"internalType":"address","name":"","type":"address"}],"stateMutability":"view","type":"function"},{"inputs":[{"internalType":"uint256","name":"amount","type":"uint256"},{"internalType":"uint256","name":"durationDays","type":"uint256"},{"internalType":"uint8","name":"path","type":"uint8"}],"name":"requestLoan","outputs":[],"stateMutability":"nonpayable","type":"function"},{"inputs":[],"name":"totalActiveLoans","outputs":[{"internalType":"uint256","name":"","type":"uint256"}],"stateMutability":"view","type":"function"},{"inputs":[],"name":"totalLenders","outputs":[{"internalType":"uint256","name":"","type":"uint256"}],"stateMutability":"view","type":"function"},{"inputs":[],"name":"totalPoolLiquidity","outputs":[{"internalType":"uint256","name":"","type":"uint256"}],"stateMutability":"view","type":"function"},{"inputs":[{"internalType":"address","name":"newOwner","type":"address"}],"name":"transferOwnership","outputs":[],"stateMutability":"nonpayable","type":"function"},{"inputs":[{"internalType":"address","name":"","type":"address"}],"name":"trustScores","outputs":[{"internalType":"uint8","name":"","type":"uint8"}],"stateMutability":"view","type":"function"},{"inputs":[],"name":"trustToken","outputs":[{"internalType":"contract IERC20","name":"","type":"address"}],"stateMutability":"view","type":"function"},{"inputs":[],"name":"unpause","outputs":[],"stateMutability":"nonpayable","type":"function"},{"inputs":[{"internalType":"address","name":"borrower","type":"address"},{"internalType":"uint8","name":"newScore","type":"uint8"}],"name":"updateTrustScore","outputs":[],"stateMutability":"nonpayable","type":"function"},{"inputs":[{"internalType":"uint256","name":"amount","type":"uint256"}],"name":"withdrawFromPool","outputs":[],"stateMutability":"nonpayable","type":"function"}],"evm":{"bytecode":{"linkReferences":{},"object":"60a0346101b957611dda90601f38839003908101601f19168201906001600160401b038211838310176101bd57808391604095869485528339810103126101b957610055602061004e836101d1565b92016101d1565b9033156101a2575f549160018060a01b03908160018060a01b03199333858716175f55865195823391167f8be0079c531659141344cd1fd0a4f28419497f9722a3daafe3b4186f6b6457e05f80a360017f9b779b17422d0df92223018b32b4d1fa46e071723d6817e2486d003becc55f00551693841561016057501691821561011c57608052600154161760015551611bf490816101e68239608051818181610373015281816106fe01528181610a2c01528181610c0201528181610fec01526113f40152f35b835162461bcd60e51b815260206004820152601d60248201527f4c656e64696e67506f6f6c3a207a65726f204e465420616464726573730000006044820152606490fd5b62461bcd60e51b815260206004820152601f60248201527f4c656e64696e67506f6f6c3a207a65726f20746f6b656e2061646472657373006044820152606490fd5b8251631e4fbdf760e01b81525f6004820152602490fd5b5f80fd5b634e487b7160e01b5f52604160045260245ffd5b51906001600160a01b03821682036101b95756fe6080806040526004361015610012575f80fd5b5f905f3560e01c90816312df0fc41461179157508063146410801461166f57806323a0ac79146111fa57806330fc43ed14610f8d57806333481fc914610dfd5780633f4ba83a14610d8e57806359641e5e14610d715780635c975abb14610d4d5780635e09eea114610d1257806368b0e07014610bd0578063715018a614610b795780637385107514610b565780637c17d23714610b335780638456cb5914610ad35780638da5cb5b14610aac5780639939835814610979578063abd70aa214610a01578063bbb85188146109b1578063bd09085a14610979578063be81c4d41461072d578063d13deb2f146106e8578063d37415fe146102f8578063db15bcea146102cc578063dc63af41146102ae578063e8f0033114610290578063ea62781d1461020a578063f2fde38b1461017d5763fa48864914610152575f80fd5b3461017a578060031936011261017a576001546040516001600160a01b039091168152602090f35b80fd5b503461017a57602036600319011261017a576101976117c8565b61019f6119be565b6001600160a01b039081169081156101f1575f54826bffffffffffffffffffffffff60a01b8216175f55167f8be0079c531659141344cd1fd0a4f28419497f9722a3daafe3b4186f6b6457e05f80a380f35b604051631e4fbdf760e01b815260048101849052602490fd5b503461017a57602036600319011261017a57806102256117c8565b61022d6119be565b6001546001600160a01b039081169190823b1561028b576024849283604051958694859363ea62781d60e01b85521660048401525af18015610280576102705750f35b6102799061183c565b61017a5780f35b6040513d84823e3d90fd5b505050fd5b503461017a578060031936011261017a576020600554604051908152f35b503461017a578060031936011261017a576020600654604051908152f35b503461017a57602036600319011261017a5760206102f06102eb6117c8565b61196b565b604051908152f35b503461017a576020908160031936011261017a576004356103176119e9565b61031f611a18565b3382526002835260408220600681019360ff80865460101c1660048110156106d45761068f57831561064a5761035483611b49565b90600284019361036585548461187e565b8611610605576103978630337f0000000000000000000000000000000000000000000000000000000000000000611adf565b6103a28686546117fe565b855587549782891698838a146105f157600195969798998460ff19978892011691161781556103e96103e1856103dc60018601548c6117eb565b611899565b6005546117fe565b600555838754101561045b575b505061041292503387526004845260408720541693549061187e565b9060405193845283015260408201527f6996ca40a87935f677fee47b9d253150cd7560503eb580f1d72a905cf62e7e3b60603392a260015f80516020611b9f8339815191525580f35b610489916003916201000062ff00001982541617905561047c60065461195f565b600655015460085461187e565b60085533875260028452604087209260048552816040892054169060048501546005860154906104b9818361187e565b604b810290808204604b14901517156105dd578b93929160646104dd9204906117fe565b42116105c75750600c905b6064856104f58487611b6a565b1611156105b7576064965b33845260048952604084208054878a1693168317905560018054910154906001600160a01b0316803b156105b35784928360849260088a60405198899788966336eab1bd60e01b88523360048901526024880152604487015216101560648401525af161059b575b50506040805160ff92831681529490911660208501526104129333915f80516020611b7f83398151915291a25f806103f6565b6105a49061183c565b6105af57875f610568565b8780fd5b8480fd5b6105c18285611b6a565b96610500565b42116105d5576008906104e8565b6003906104e8565b634e487b7160e01b8c52601160045260248cfd5b634e487b7160e01b89526011600452602489fd5b60405162461bcd60e51b815260048101859052601860248201527f4c656e64696e67506f6f6c3a206f7665727061796d656e7400000000000000006044820152606490fd5b60405162461bcd60e51b815260048101839052601b60248201527f4c656e64696e67506f6f6c3a207a65726f2072657061796d656e7400000000006044820152606490fd5b60405162461bcd60e51b815260048101839052601b60248201527f4c656e64696e67506f6f6c3a206e6f20616374697665206c6f616e00000000006044820152606490fd5b634e487b7160e01b86526021600452602486fd5b503461017a578060031936011261017a576040517f00000000000000000000000000000000000000000000000000000000000000006001600160a01b03168152602090f35b50346109015760209081600319360112610901576107496117c8565b6107516119be565b60018060a01b0380911690815f526002845260405f209060068201805460ff8160101c166004811015610965576109205762ff000019166202000017905560065461079b9061195f565b6006556107ae600383015460085461187e565b6008555f83815260048652604090205460ff1690600f821061091957600e19820160ff811161090557925b845f526004875260405f209160ff8516928360ff198254161790556001541660018201928354823b156109015760845f928360405195869485936336eab1bd60e01b85528d6004860152602485015260448401528160648401525af16108ae575b5060408596975f80516020611b7f83398151915296936108898460026108807f1b849894a849eddede200f64b3e4aa5870adc9b6f442acb237bb07d8f100f01b97611b49565b9101549061187e565b9054918351928352820152a26040805160ff928316815292909116602083015290a280f35b8596507f1b849894a849eddede200f64b3e4aa5870adc9b6f442acb237bb07d8f100f01b91975f80516020611b7f83398151915296936108ef60409361183c565b6108895f99505093965097915061083a565b5f80fd5b634e487b7160e01b5f52601160045260245ffd5b5f926107d9565b60405162461bcd60e51b815260048101889052601760248201527f4c656e64696e67506f6f6c3a206e6f74206163746976650000000000000000006044820152606490fd5b634e487b7160e01b5f52602160045260245ffd5b34610901576020366003190112610901576001600160a01b0361099a6117c8565b165f526003602052602060405f2054604051908152f35b34610901575f3660031901126109015760806005546006546007548115155f146109fa576109e182600854611899565b915b604051938452602084015260408301526060820152f35b5f916109e3565b34610901575f366003190112610901576040516370a0823160e01b81523060048201526020816024817f00000000000000000000000000000000000000000000000000000000000000006001600160a01b03165afa8015610aa1575f90610a6e575b602090604051908152f35b506020813d602011610a99575b81610a8860209383611850565b810103126109015760209051610a63565b3d9150610a7b565b6040513d5f823e3d90fd5b34610901575f366003190112610901575f546040516001600160a01b039091168152602090f35b34610901575f36600319011261090157610aeb6119be565b610af3611a18565b5f805460ff60a01b1916600160a01b1790556040513381527f62e78cea01bee320cd4e420270b5ea74000d11b0c9f74754ebdbfc544b05a25890602090a1005b346109015760203660031901126109015760206102f0610b516117c8565b6118f6565b346109015760203660031901126109015760206102f0610b746117c8565b6118b7565b34610901575f36600319011261090157610b916119be565b5f80546001600160a01b0319811682556001600160a01b03167f8be0079c531659141344cd1fd0a4f28419497f9722a3daafe3b4186f6b6457e08280a3005b3461090157602036600319011261090157600435610bec6119e9565b610bf4611a18565b8015610ccd57610c268130337f0000000000000000000000000000000000000000000000000000000000000000611adf565b335f52600360205260405f20610c3d8282546117fe565b9055610c4b816005546117fe565b600555335f52600960205260405f20805460ff811615610cae575b8260055460405191825260208201527f7628d23baa7269cbe52d585c106809f6857f67de8489b61e6a5dc5a780748a3860403392a260015f80516020611b9f83398151915255005b60ff19166001179055600754610cc39061188b565b6007558180610c66565b60405162461bcd60e51b815260206004820152601960248201527f4c656e64696e67506f6f6c3a207a65726f206465706f736974000000000000006044820152606490fd5b34610901576020366003190112610901576001600160a01b03610d336117c8565b165f526004602052602060ff60405f205416604051908152f35b34610901575f36600319011261090157602060ff5f5460a01c166040519015158152f35b34610901575f366003190112610901576020600754604051908152f35b34610901575f36600319011261090157610da66119be565b5f5460ff8160a01c1615610deb5760ff60a01b19165f556040513381527f5db9ee0a495bf2e6ff9c91a7834c1ba4fdd244a5e8aa4e537bd38aeae4b073aa90602090a1005b604051638dfc202b60e01b8152600490fd5b3461090157602036600319011261090157610e166117c8565b5f610120604051610e268161180b565b8281528260208201528260408201528260608201528260808201528260a08201528260c08201528260e082015282610100820152015260018060a01b03165f52600260205260405f20600660405191610e7e8361180b565b60018060a01b03815416835260018101546020840152600281015460408401526003810154606084015260048101546080840152600581015460a0840152015460ff811660c083015260ff8160081c1660e0830152600460ff8260101c1610156109655760ff8181610f029360101c1661010085015260181c166101208301611872565b60405160018060a01b0382511681526020820151602082015260408201516040820152606082015160608201526080820151608082015260a082015160a082015260ff60c08301511660c082015260ff60e08301511660e082015261010082015191600483101561096557610120610f8b916101409461010085015201516101208301906117de565bf35b34610901576020806003193601126109015760043590610fab6119e9565b610fb3611a18565b81156111b657335f52600381528160405f205410611172576005549082821061111d576040516370a0823160e01b8152306004820152917f00000000000000000000000000000000000000000000000000000000000000009082846024816001600160a01b0386165afa938415610aa1575f946110ee575b50845f94828111806110e5575b6110bf575b50505061107d90335f526003835260405f2061105a86825461187e565b90556110688560055461187e565b60055561107584866117fe565b903390611a61565b6040519283528201527f89d2f6c70c648a3f7ed809acb91b7a84dbba676961241962173a83861e43c0cf60403392a260015f80516020611b9f83398151915255005b61107d93955082916110d76110dc946103dc9361187e565b6117eb565b9290848661103d565b50821515611038565b9093508281813d8311611116575b6111068183611850565b810103126109015751928561102b565b503d6110fc565b6084906040519062461bcd60e51b82526004820152602860248201527f4c656e64696e67506f6f6c3a20696e73756666696369656e742066726565206c604482015267697175696469747960c01b6064820152fd5b6064906040519062461bcd60e51b82526004820152601c60248201527f4c656e64696e67506f6f6c3a2065786365656473206465706f736974000000006044820152fd5b6064906040519062461bcd60e51b82526004820152601c60248201527f4c656e64696e67506f6f6c3a207a65726f207769746864726177616c000000006044820152fd5b346109015760603660031901126109015760043560249081359160449081359160ff83168093036109015761122d6119e9565b611235611a18565b831561162c57841594851580611620575b156115dd576002841161159a57335f526020916002835260ff600660405f20015460101c166004811015611587571561154557611282336118f6565b86116115045785600554106114b15750600384101561149e576112a484611a38565b956201518080830292830414171561148b576112c090426117fe565b91604051906112ce8261180b565b33825284838084019288845260ff600660408701965f8852606081018d81526080820142815260a08301918c835260c084019a5f8c5260e085019a60048c52600261010087019a5f8c5261132761012089019d8e611872565b335f525260405f209560018060a01b039051166bffffffffffffffffffffffff60a01b87541617865551600186015551600285015551600384015551600483015551600582015501955116908554945192519360048510156114775751906003821015611464575061142b999a949261ff006113ea97959363ff00000062ff00009460181b169563ffffffff1916179160081b16179160101b16171790556113d18760055461187e565b6005556113df60065461188b565b6006556008546117fe565b60085561141885337f0000000000000000000000000000000000000000000000000000000000000000611a61565b60405194855284015260408301906117de565b7f469f3b84f0a93aa13441e333540ba6cd5ccb2a9df1ccf61b5e6f372693b2331960603392a260015f80516020611b9f83398151915255005b634e487b7160e01b5f9081526021600452fd5b50634e487b7160e01b5f9081526021600452fd5b82634e487b7160e01b5f5260116004525ffd5b82634e487b7160e01b5f5260216004525ffd5b7f4c656e64696e67506f6f6c3a20696e73756666696369656e7420706f6f6c206c915060286084946040519462461bcd60e51b8652600486015284015282015267697175696469747960c01b6064820152fd5b837f4c656e64696e67506f6f6c3a2065786365656473207472757374206c696d6974606492856040519362461bcd60e51b8552816004860152840152820152fd5b7f4c656e64696e67506f6f6c3a20616374697665206c6f616e20657869737473009150601f6064946040519462461bcd60e51b86526004860152840152820152fd5b84634e487b7160e01b5f5260216004525ffd5b60405162461bcd60e51b8152602060048201526019818501527f4c656e64696e67506f6f6c3a20696e76616c696420706174680000000000000081840152606490fd5b60405162461bcd60e51b815260206004820152601d818501527f4c656e64696e67506f6f6c3a20696e76616c6964206475726174696f6e00000081840152606490fd5b5061016d811115611246565b907f4c656e64696e67506f6f6c3a207a65726f20616d6f756e74000000000000000060649260186040519362461bcd60e51b855260206004860152840152820152fd5b34610901576040366003190112610901576116886117c8565b6024359060ff821690818303610901576116a06119be565b6001600160a01b031691821561174c5760648211611707575f80516020611b7f8339815191529161170260ff92855f52600460205260405f2080549385198516179055604051938493168390929160ff60209181604085019616845216910152565b0390a2005b60405162461bcd60e51b815260206004820152601860248201527f4c656e64696e67506f6f6c3a2073636f7265203e2031303000000000000000006044820152606490fd5b60405162461bcd60e51b815260206004820152601960248201527f4c656e64696e67506f6f6c3a207a65726f2061646472657373000000000000006044820152606490fd5b34610901576020366003190112610901576020906001600160a01b036117b56117c8565b165f526004825260ff60405f2054168152f35b600435906001600160a01b038216820361090157565b9060038210156109655752565b8181029291811591840414171561090557565b9190820180921161090557565b610140810190811067ffffffffffffffff82111761182857604052565b634e487b7160e01b5f52604160045260245ffd5b67ffffffffffffffff811161182857604052565b90601f8019910116810190811067ffffffffffffffff82111761182857604052565b60038210156109655752565b9190820391821161090557565b5f1981146109055760010190565b81156118a3570490565b634e487b7160e01b5f52601260045260245ffd5b6001600160a01b03165f908152600260205260409020600681015460101c60ff166004811015610965576118f1576118ee90611b49565b90565b505f90565b6001600160a01b03165f9081526004602052604090205460ff16605081101561195157603c811015611943576028111561193657678ac7230489e8000090565b6802b5e3af16b188000090565b50680ad78ebc5ac620000090565b50681b1ae4d6e2ef50000090565b8015610905575f190190565b6001600160a01b03165f908152600260205260409020600681015460101c60ff166004811015610965576118f15760026119a482611b49565b910154808211156119b8576118ee9161187e565b50505f90565b5f546001600160a01b031633036119d157565b60405163118cdaa760e01b8152336004820152602490fd5b5f80516020611b9f8339815191526002815414611a065760029055565b604051633ee5aeb560e01b8152600490fd5b60ff5f5460a01c16611a2657565b60405163d93c066560e01b8152600490fd5b6003811015610965578015611a5a57600114611a54576102c690565b61011890565b506101a490565b60405163a9059cbb60e01b5f9081526001600160a01b039384166004526024949094529260209060448180855af160015f5114811615611ac0575b8360405215611aaa57505050565b635274afe760e01b835216600482015260249150fd5b6001811516611ad657813b15153d151616611a9c565b833d5f823e3d90fd5b6040516323b872dd60e01b5f9081526001600160a01b03938416600452938316602452604494909452909160209060648180855af160015f5114811615611b33575b836040525f60605215611aaa57505050565b6001811516611ad657813b15153d151616611b21565b6118ee90612710611b6360036001840154930154836117eb565b04906117fe565b9060ff8091169116019060ff82116109055756fed19906ee1ad48a098b7775e103ec4cb4ffaefc35799b1914b4a390f9cd27facc9b779b17422d0df92223018b32b4d1fa46e071723d6817e2486d003becc55f00a264697066735822122022ef91652cb9db213226c539390352844626ddc1b4625f5a5deddb716e5d4b5664736f6c63430008190033","opcodes":"PUSH1 0xA0 CALLVALUE PUSH2 0x1B9 JUMPI PUSH2 0x1DDA SWAP1 PUSH1 0x1F CODESIZE DUP4 SWAP1 SUB SWAP1 DUP2 ADD PUSH1 0x1F NOT AND DUP3 ADD SWAP1 PUSH1 0x1 PUSH1 0x1 PUSH1 0x40 SHL SUB DUP3 GT DUP4 DUP4 LT OR PUSH2 0x1BD JUMPI DUP1 DUP4 SWAP2 PUSH1 0x40 SWAP6 DUP7 SWAP5 DUP6 MSTORE DUP4 CODECOPY DUP2 ADD SUB SLT PUSH2 0x1B9 JUMPI PUSH2 0x55 PUSH1 0x20 PUSH2 0x4E DUP4 PUSH2 0x1D1 JUMP JUMPDEST SWAP3 ADD PUSH2 0x1D1 JUMP JUMPDEST SWAP1 CALLER ISZERO PUSH2 0x1A2 JUMPI PUSH0 SLOAD SWAP2 PUSH1 0x1 DUP1 PUSH1 0xA0 SHL SUB SWAP1 DUP2 PUSH1 0x1 DUP1 PUSH1 0xA0 SHL SUB NOT SWAP4 CALLER DUP6 DUP8 AND OR PUSH0 SSTORE DUP7 MLOAD SWAP6 DUP3 CALLER SWAP2 AND PUSH32 0x8BE0079C531659141344CD1FD0A4F28419497F9722A3DAAFE3B4186F6B6457E0 PUSH0 DUP1 LOG3 PUSH1 0x1 PUSH32 0x9B779B17422D0DF92223018B32B4D1FA46E071723D6817E2486D003BECC55F00 SSTORE AND SWAP4 DUP5 ISZERO PUSH2 0x160 JUMPI POP AND SWAP2 DUP3 ISZERO PUSH2 0x11C JUMPI PUSH1 0x80 MSTORE PUSH1 0x1 SLOAD AND OR PUSH1 0x1 SSTORE MLOAD PUSH2 0x1BF4 SWAP1 DUP2 PUSH2 0x1E6 DUP3 CODECOPY PUSH1 0x80 MLOAD DUP2 DUP2 DUP2 PUSH2 0x373 ADD MSTORE DUP2 DUP2 PUSH2 0x6FE ADD MSTORE DUP2 DUP2 PUSH2 0xA2C ADD MSTORE DUP2 DUP2 PUSH2 0xC02 ADD MSTORE DUP2 DUP2 PUSH2 0xFEC ADD MSTORE PUSH2 0x13F4 ADD MSTORE RETURN JUMPDEST DUP4 MLOAD PUSH3 0x461BCD PUSH1 0xE5 SHL DUP2 MSTORE PUSH1 0x20 PUSH1 0x4 DUP3 ADD MSTORE PUSH1 0x1D PUSH1 0x24 DUP3 ADD MSTORE PUSH32 0x4C656E64696E67506F6F6C3A207A65726F204E46542061646472657373000000 PUSH1 0x44 DUP3 ADD MSTORE PUSH1 0x64 SWAP1 REVERT JUMPDEST PUSH3 0x461BCD PUSH1 0xE5 SHL DUP2 MSTORE PUSH1 0x20 PUSH1 0x4 DUP3 ADD MSTORE PUSH1 0x1F PUSH1 0x24 DUP3 ADD MSTORE PUSH32 0x4C656E64696E67506F6F6C3A207A65726F20746F6B656E206164647265737300 PUSH1 0x44 DUP3 ADD MSTORE PUSH1 0x64 SWAP1 REVERT JUMPDEST DUP3 MLOAD PUSH4 0x1E4FBDF7 PUSH1 0xE0 SHL DUP2 MSTORE PUSH0 PUSH1 0x4 DUP3 ADD MSTORE PUSH1 0x24 SWAP1 REVERT JUMPDEST PUSH0 DUP1 REVERT JUMPDEST PUSH4 0x4E487B71 PUSH1 0xE0 SHL PUSH0 MSTORE PUSH1 0x41 PUSH1 0x4 MSTORE PUSH1 0x24 PUSH0 REVERT JUMPDEST MLOAD SWAP1 PUSH1 0x1 PUSH1 0x1 PUSH1 0xA0 SHL SUB DUP3 AND DUP3 SUB PUSH2 0x1B9 JUMPI JUMP INVALID PUSH1 0x80 DUP1 PUSH1 0x40 MSTORE PUSH1 0x4 CALLDATASIZE LT ISZERO PUSH2 0x12 JUMPI PUSH0 DUP1 REVERT JUMPDEST PUSH0 SWAP1 PUSH0 CALLDATALOAD PUSH1 0xE0 SHR SWAP1 DUP2 PUSH4 0x12DF0FC4 EQ PUSH2 0x1791 JUMPI POP DUP1 PUSH4 0x14641080 EQ PUSH2 0x166F JUMPI DUP1 PUSH4 0x23A0AC79 EQ PUSH2 0x11FA JUMPI DUP1 PUSH4 0x30FC43ED EQ PUSH2 0xF8D JUMPI DUP1 PUSH4 0x33481FC9 EQ PUSH2 0xDFD JUMPI DUP1 PUSH4 0x3F4BA83A EQ PUSH2 0xD8E JUMPI DUP1 PUSH4 0x59641E5E EQ PUSH2 0xD71 JUMPI DUP1 PUSH4 0x5C975ABB EQ PUSH2 0xD4D JUMPI DUP1 PUSH4 0x5E09EEA1 EQ PUSH2 0xD12 JUMPI DUP1 PUSH4 0x68B0E070 EQ PUSH2 0xBD0 JUMPI DUP1 PUSH4 0x715018A6 EQ PUSH2 0xB79 JUMPI DUP1 PUSH4 0x73851075 EQ PUSH2 0xB56 JUMPI DUP1 PUSH4 0x7C17D237 EQ PUSH2 0xB33 JUMPI DUP1 PUSH4 0x8456CB59 EQ PUSH2 0xAD3 JUMPI DUP1 PUSH4 0x8DA5CB5B EQ PUSH2 0xAAC JUMPI DUP1 PUSH4 0x99398358 EQ PUSH2 0x979 JUMPI DUP1 PUSH4 0xABD70AA2 EQ PUSH2 0xA01 JUMPI DUP1 PUSH4 0xBBB85188 EQ PUSH2 0x9B1 JUMPI DUP1 PUSH4 0xBD09085A EQ PUSH2 0x979 JUMPI DUP1 PUSH4 0xBE81C4D4 EQ PUSH2 0x72D JUMPI DUP1 PUSH4 0xD13DEB2F EQ PUSH2 0x6E8 JUMPI DUP1 PUSH4 0xD37415FE EQ PUSH2 0x2F8 JUMPI DUP1 PUSH4 0xDB15BCEA EQ PUSH2 0x2CC JUMPI DUP1 PUSH4 0xDC63AF41 EQ PUSH2 0x2AE JUMPI DUP1 PUSH4 0xE8F00331 EQ PUSH2 0x290 JUMPI DUP1 PUSH4 0xEA62781D EQ PUSH2 0x20A JUMPI DUP1 PUSH4 0xF2FDE38B EQ PUSH2 0x17D JUMPI PUSH4 0xFA488649 EQ PUSH2 0x152 JUMPI PUSH0 DUP1 REVERT JUMPDEST CALLVALUE PUSH2 0x17A JUMPI DUP1 PUSH1 0x3 NOT CALLDATASIZE ADD SLT PUSH2 0x17A JUMPI PUSH1 0x1 SLOAD PUSH1 0x40 MLOAD PUSH1 0x1 PUSH1 0x1 PUSH1 0xA0 SHL SUB SWAP1 SWAP2 AND DUP2 MSTORE PUSH1 0x20 SWAP1 RETURN JUMPDEST DUP1 REVERT JUMPDEST POP CALLVALUE PUSH2 0x17A JUMPI PUSH1 0x20 CALLDATASIZE PUSH1 0x3 NOT ADD SLT PUSH2 0x17A JUMPI PUSH2 0x197 PUSH2 0x17C8 JUMP JUMPDEST PUSH2 0x19F PUSH2 0x19BE JUMP JUMPDEST PUSH1 0x1 PUSH1 0x1 PUSH1 0xA0 SHL SUB SWAP1 DUP2 AND SWAP1 DUP2 ISZERO PUSH2 0x1F1 JUMPI PUSH0 SLOAD DUP3 PUSH12 0xFFFFFFFFFFFFFFFFFFFFFFFF PUSH1 0xA0 SHL DUP3 AND OR PUSH0 SSTORE AND PUSH32 0x8BE0079C531659141344CD1FD0A4F28419497F9722A3DAAFE3B4186F6B6457E0 PUSH0 DUP1 LOG3 DUP1 RETURN JUMPDEST PUSH1 0x40 MLOAD PUSH4 0x1E4FBDF7 PUSH1 0xE0 SHL DUP2 MSTORE PUSH1 0x4 DUP2 ADD DUP5 SWAP1 MSTORE PUSH1 0x24 SWAP1 REVERT JUMPDEST POP CALLVALUE PUSH2 0x17A JUMPI PUSH1 0x20 CALLDATASIZE PUSH1 0x3 NOT ADD SLT PUSH2 0x17A JUMPI DUP1 PUSH2 0x225 PUSH2 0x17C8 JUMP JUMPDEST PUSH2 0x22D PUSH2 0x19BE JUMP JUMPDEST PUSH1 0x1 SLOAD PUSH1 0x1 PUSH1 0x1 PUSH1 0xA0 SHL SUB SWAP1 DUP2 AND SWAP2 SWAP1 DUP3 EXTCODESIZE ISZERO PUSH2 0x28B JUMPI PUSH1 0x24 DUP5 SWAP3 DUP4 PUSH1 0x40 MLOAD SWAP6 DUP7 SWAP5 DUP6 SWAP4 PUSH4 0xEA62781D PUSH1 0xE0 SHL DUP6 MSTORE AND PUSH1 0x4 DUP5 ADD MSTORE GAS CALL DUP1 ISZERO PUSH2 0x280 JUMPI PUSH2 0x270 JUMPI POP RETURN JUMPDEST PUSH2 0x279 SWAP1 PUSH2 0x183C JUMP JUMPDEST PUSH2 0x17A JUMPI DUP1 RETURN JUMPDEST PUSH1 0x40 MLOAD RETURNDATASIZE DUP5 DUP3 RETURNDATACOPY RETURNDATASIZE SWAP1 REVERT JUMPDEST POP POP POP REVERT JUMPDEST POP CALLVALUE PUSH2 0x17A JUMPI DUP1 PUSH1 0x3 NOT CALLDATASIZE ADD SLT PUSH2 0x17A JUMPI PUSH1 0x20 PUSH1 0x5 SLOAD PUSH1 0x40 MLOAD SWAP1 DUP2 MSTORE RETURN JUMPDEST POP CALLVALUE PUSH2 0x17A JUMPI DUP1 PUSH1 0x3 NOT CALLDATASIZE ADD SLT PUSH2 0x17A JUMPI PUSH1 0x20 PUSH1 0x6 SLOAD PUSH1 0x40 MLOAD SWAP1 DUP2 MSTORE RETURN JUMPDEST POP CALLVALUE PUSH2 0x17A JUMPI PUSH1 0x20 CALLDATASIZE PUSH1 0x3 NOT ADD SLT PUSH2 0x17A JUMPI PUSH1 0x20 PUSH2 0x2F0 PUSH2 0x2EB PUSH2 0x17C8 JUMP JUMPDEST PUSH2 0x196B JUMP JUMPDEST PUSH1 0x40 MLOAD SWAP1 DUP2 MSTORE RETURN JUMPDEST POP CALLVALUE PUSH2 0x17A JUMPI PUSH1 0x20 SWAP1 DUP2 PUSH1 0x3 NOT CALLDATASIZE ADD SLT PUSH2 0x17A JUMPI PUSH1 0x4 CALLDATALOAD PUSH2 0x317 PUSH2 0x19E9 JUMP JUMPDEST PUSH2 0x31F PUSH2 0x1A18 JUMP JUMPDEST CALLER DUP3 MSTORE PUSH1 0x2 DUP4 MSTORE PUSH1 0x40 DUP3 KECCAK256 PUSH1 0x6 DUP2 ADD SWAP4 PUSH1 0xFF DUP1 DUP7 SLOAD PUSH1 0x10 SHR AND PUSH1 0x4 DUP2 LT ISZERO PUSH2 0x6D4 JUMPI PUSH2 0x68F JUMPI DUP4 ISZERO PUSH2 0x64A JUMPI PUSH2 0x354 DUP4 PUSH2 0x1B49 JUMP JUMPDEST SWAP1 PUSH1 0x2 DUP5 ADD SWAP4 PUSH2 0x365 DUP6 SLOAD DUP5 PUSH2 0x187E JUMP JUMPDEST DUP7 GT PUSH2 0x605 JUMPI PUSH2 0x397 DUP7 ADDRESS CALLER PUSH32 0x0 PUSH2 0x1ADF JUMP JUMPDEST PUSH2 0x3A2 DUP7 DUP7 SLOAD PUSH2 0x17FE JUMP JUMPDEST DUP6 SSTORE DUP8 SLOAD SWAP8 DUP3 DUP10 AND SWAP9 DUP4 DUP11 EQ PUSH2 0x5F1 JUMPI PUSH1 0x1 SWAP6 SWAP7 SWAP8 SWAP9 SWAP10 DUP5 PUSH1 0xFF NOT SWAP8 DUP9 SWAP3 ADD AND SWAP2 AND OR DUP2 SSTORE PUSH2 0x3E9 PUSH2 0x3E1 DUP6 PUSH2 0x3DC PUSH1 0x1 DUP7 ADD SLOAD DUP13 PUSH2 0x17EB JUMP JUMPDEST PUSH2 0x1899 JUMP JUMPDEST PUSH1 0x5 SLOAD PUSH2 0x17FE JUMP JUMPDEST PUSH1 0x5 SSTORE DUP4 DUP8 SLOAD LT ISZERO PUSH2 0x45B JUMPI JUMPDEST POP POP PUSH2 0x412 SWAP3 POP CALLER DUP8 MSTORE PUSH1 0x4 DUP5 MSTORE PUSH1 0x40 DUP8 KECCAK256 SLOAD AND SWAP4 SLOAD SWAP1 PUSH2 0x187E JUMP JUMPDEST SWAP1 PUSH1 0x40 MLOAD SWAP4 DUP5 MSTORE DUP4 ADD MSTORE PUSH1 0x40 DUP3 ADD MSTORE PUSH32 0x6996CA40A87935F677FEE47B9D253150CD7560503EB580F1D72A905CF62E7E3B PUSH1 0x60 CALLER SWAP3 LOG2 PUSH1 0x1 PUSH0 DUP1 MLOAD PUSH1 0x20 PUSH2 0x1B9F DUP4 CODECOPY DUP2 MLOAD SWAP2 MSTORE SSTORE DUP1 RETURN JUMPDEST PUSH2 0x489 SWAP2 PUSH1 0x3 SWAP2 PUSH3 0x10000 PUSH3 0xFF0000 NOT DUP3 SLOAD AND OR SWAP1 SSTORE PUSH2 0x47C PUSH1 0x6 SLOAD PUSH2 0x195F JUMP JUMPDEST PUSH1 0x6 SSTORE ADD SLOAD PUSH1 0x8 SLOAD PUSH2 0x187E JUMP JUMPDEST PUSH1 0x8 SSTORE CALLER DUP8 MSTORE PUSH1 0x2 DUP5 MSTORE PUSH1 0x40 DUP8 KECCAK256 SWAP3 PUSH1 0x4 DUP6 MSTORE DUP2 PUSH1 0x40 DUP10 KECCAK256 SLOAD AND SWAP1 PUSH1 0x4 DUP6 ADD SLOAD PUSH1 0x5 DUP7 ADD SLOAD SWAP1 PUSH2 0x4B9 DUP2 DUP4 PUSH2 0x187E JUMP JUMPDEST PUSH1 0x4B DUP2 MUL SWAP1 DUP1 DUP3 DIV PUSH1 0x4B EQ SWAP1 ISZERO OR ISZERO PUSH2 0x5DD JUMPI DUP12 SWAP4 SWAP3 SWAP2 PUSH1 0x64 PUSH2 0x4DD SWAP3 DIV SWAP1 PUSH2 0x17FE JUMP JUMPDEST TIMESTAMP GT PUSH2 0x5C7 JUMPI POP PUSH1 0xC SWAP1 JUMPDEST PUSH1 0x64 DUP6 PUSH2 0x4F5 DUP5 DUP8 PUSH2 0x1B6A JUMP JUMPDEST AND GT ISZERO PUSH2 0x5B7 JUMPI PUSH1 0x64 SWAP7 JUMPDEST CALLER DUP5 MSTORE PUSH1 0x4 DUP10 MSTORE PUSH1 0x40 DUP5 KECCAK256 DUP1 SLOAD DUP8 DUP11 AND SWAP4 AND DUP4 OR SWAP1 SSTORE PUSH1 0x1 DUP1 SLOAD SWAP2 ADD SLOAD SWAP1 PUSH1 0x1 PUSH1 0x1 PUSH1 0xA0 SHL SUB AND DUP1 EXTCODESIZE ISZERO PUSH2 0x5B3 JUMPI DUP5 SWAP3 DUP4 PUSH1 0x84 SWAP3 PUSH1 0x8 DUP11 PUSH1 0x40 MLOAD SWAP9 DUP10 SWAP8 DUP9 SWAP7 PUSH4 0x36EAB1BD PUSH1 0xE0 SHL DUP9 MSTORE CALLER PUSH1 0x4 DUP10 ADD MSTORE PUSH1 0x24 DUP9 ADD MSTORE PUSH1 0x44 DUP8 ADD MSTORE AND LT ISZERO PUSH1 0x64 DUP5 ADD MSTORE GAS CALL PUSH2 0x59B JUMPI JUMPDEST POP POP PUSH1 0x40 DUP1 MLOAD PUSH1 0xFF SWAP3 DUP4 AND DUP2 MSTORE SWAP5 SWAP1 SWAP2 AND PUSH1 0x20 DUP6 ADD MSTORE PUSH2 0x412 SWAP4 CALLER SWAP2 PUSH0 DUP1 MLOAD PUSH1 0x20 PUSH2 0x1B7F DUP4 CODECOPY DUP2 MLOAD SWAP2 MSTORE SWAP2 LOG2 PUSH0 DUP1 PUSH2 0x3F6 JUMP JUMPDEST PUSH2 0x5A4 SWAP1 PUSH2 0x183C JUMP JUMPDEST PUSH2 0x5AF JUMPI DUP8 PUSH0 PUSH2 0x568 JUMP JUMPDEST DUP8 DUP1 REVERT JUMPDEST DUP5 DUP1 REVERT JUMPDEST PUSH2 0x5C1 DUP3 DUP6 PUSH2 0x1B6A JUMP JUMPDEST SWAP7 PUSH2 0x500 JUMP JUMPDEST TIMESTAMP GT PUSH2 0x5D5 JUMPI PUSH1 0x8 SWAP1 PUSH2 0x4E8 JUMP JUMPDEST PUSH1 0x3 SWAP1 PUSH2 0x4E8 JUMP JUMPDEST PUSH4 0x4E487B71 PUSH1 0xE0 SHL DUP13 MSTORE PUSH1 0x11 PUSH1 0x4 MSTORE PUSH1 0x24 DUP13 REVERT JUMPDEST PUSH4 0x4E487B71 PUSH1 0xE0 SHL DUP10 MSTORE PUSH1 0x11 PUSH1 0x4 MSTORE PUSH1 0x24 DUP10 REVERT JUMPDEST PUSH1 0x40 MLOAD PUSH3 0x461BCD PUSH1 0xE5 SHL DUP2 MSTORE PUSH1 0x4 DUP2 ADD DUP6 SWAP1 MSTORE PUSH1 0x18 PUSH1 0x24 DUP3 ADD MSTORE PUSH32 0x4C656E64696E67506F6F6C3A206F7665727061796D656E740000000000000000 PUSH1 0x44 DUP3 ADD MSTORE PUSH1 0x64 SWAP1 REVERT JUMPDEST PUSH1 0x40 MLOAD PUSH3 0x461BCD PUSH1 0xE5 SHL DUP2 MSTORE PUSH1 0x4 DUP2 ADD DUP4 SWAP1 MSTORE PUSH1 0x1B PUSH1 0x24 DUP3 ADD MSTORE PUSH32 0x4C656E64696E67506F6F6C3A207A65726F2072657061796D656E740000000000 PUSH1 0x44 DUP3 ADD MSTORE PUSH1 0x64 SWAP1 REVERT JUMPDEST PUSH1 0x40 MLOAD PUSH3 0x461BCD PUSH1 0xE5 SHL DUP2 MSTORE PUSH1 0x4 DUP2 ADD DUP4 SWAP1 MSTORE PUSH1 0x1B PUSH1 0x24 DUP3 ADD MSTORE PUSH32 0x4C656E64696E67506F6F6C3A206E6F20616374697665206C6F616E0000000000 PUSH1 0x44 DUP3 ADD MSTORE PUSH1 0x64 SWAP1 REVERT JUMPDEST PUSH4 0x4E487B71 PUSH1 0xE0 SHL DUP7 MSTORE PUSH1 0x21 PUSH1 0x4 MSTORE PUSH1 0x24 DUP7 REVERT JUMPDEST POP CALLVALUE PUSH2 0x17A JUMPI DUP1 PUSH1 0x3 NOT CALLDATASIZE ADD SLT PUSH2 0x17A JUMPI PUSH1 0x40 MLOAD PUSH32 0x0 PUSH1 0x1 PUSH1 0x1 PUSH1 0xA0 SHL SUB AND DUP2 MSTORE PUSH1 0x20 SWAP1 RETURN JUMPDEST POP CALLVALUE PUSH2 0x901 JUMPI PUSH1 0x20 SWAP1 DUP2 PUSH1 0x3 NOT CALLDATASIZE ADD SLT PUSH2 0x901 JUMPI PUSH2 0x749 PUSH2 0x17C8 JUMP JUMPDEST PUSH2 0x751 PUSH2 0x19BE JUMP JUMPDEST PUSH1 0x1 DUP1 PUSH1 0xA0 SHL SUB DUP1 SWAP2 AND SWAP1 DUP2 PUSH0 MSTORE PUSH1 0x2 DUP5 MSTORE PUSH1 0x40 PUSH0 KECCAK256 SWAP1 PUSH1 0x6 DUP3 ADD DUP1 SLOAD PUSH1 0xFF DUP2 PUSH1 0x10 SHR AND PUSH1 0x4 DUP2 LT ISZERO PUSH2 0x965 JUMPI PUSH2 0x920 JUMPI PUSH3 0xFF0000 NOT AND PUSH3 0x20000 OR SWAP1 SSTORE PUSH1 0x6 SLOAD PUSH2 0x79B SWAP1 PUSH2 0x195F JUMP JUMPDEST PUSH1 0x6 SSTORE PUSH2 0x7AE PUSH1 0x3 DUP4 ADD SLOAD PUSH1 0x8 SLOAD PUSH2 0x187E JUMP JUMPDEST PUSH1 0x8 SSTORE PUSH0 DUP4 DUP2 MSTORE PUSH1 0x4 DUP7 MSTORE PUSH1 0x40 SWAP1 KECCAK256 SLOAD PUSH1 0xFF AND SWAP1 PUSH1 0xF DUP3 LT PUSH2 0x919 JUMPI PUSH1 0xE NOT DUP3 ADD PUSH1 0xFF DUP2 GT PUSH2 0x905 JUMPI SWAP3 JUMPDEST DUP5 PUSH0 MSTORE PUSH1 0x4 DUP8 MSTORE PUSH1 0x40 PUSH0 KECCAK256 SWAP2 PUSH1 0xFF DUP6 AND SWAP3 DUP4 PUSH1 0xFF NOT DUP3 SLOAD AND OR SWAP1 SSTORE PUSH1 0x1 SLOAD AND PUSH1 0x1 DUP3 ADD SWAP3 DUP4 SLOAD DUP3 EXTCODESIZE ISZERO PUSH2 0x901 JUMPI PUSH1 0x84 PUSH0 SWAP3 DUP4 PUSH1 0x40 MLOAD SWAP6 DUP7 SWAP5 DUP6 SWAP4 PUSH4 0x36EAB1BD PUSH1 0xE0 SHL DUP6 MSTORE DUP14 PUSH1 0x4 DUP7 ADD MSTORE PUSH1 0x24 DUP6 ADD MSTORE PUSH1 0x44 DUP5 ADD MSTORE DUP2 PUSH1 0x64 DUP5 ADD MSTORE GAS CALL PUSH2 0x8AE JUMPI JUMPDEST POP PUSH1 0x40 DUP6 SWAP7 SWAP8 PUSH0 DUP1 MLOAD PUSH1 0x20 PUSH2 0x1B7F DUP4 CODECOPY DUP2 MLOAD SWAP2 MSTORE SWAP7 SWAP4 PUSH2 0x889 DUP5 PUSH1 0x2 PUSH2 0x880 PUSH32 0x1B849894A849EDDEDE200F64B3E4AA5870ADC9B6F442ACB237BB07D8F100F01B SWAP8 PUSH2 0x1B49 JUMP JUMPDEST SWAP2 ADD SLOAD SWAP1 PUSH2 0x187E JUMP JUMPDEST SWAP1 SLOAD SWAP2 DUP4 MLOAD SWAP3 DUP4 MSTORE DUP3 ADD MSTORE LOG2 PUSH1 0x40 DUP1 MLOAD PUSH1 0xFF SWAP3 DUP4 AND DUP2 MSTORE SWAP3 SWAP1 SWAP2 AND PUSH1 0x20 DUP4 ADD MSTORE SWAP1 LOG2 DUP1 RETURN JUMPDEST DUP6 SWAP7 POP PUSH32 0x1B849894A849EDDEDE200F64B3E4AA5870ADC9B6F442ACB237BB07D8F100F01B SWAP2 SWAP8 PUSH0 DUP1 MLOAD PUSH1 0x20 PUSH2 0x1B7F DUP4 CODECOPY DUP2 MLOAD SWAP2 MSTORE SWAP7 SWAP4 PUSH2 0x8EF PUSH1 0x40 SWAP4 PUSH2 0x183C JUMP JUMPDEST PUSH2 0x889 PUSH0 SWAP10 POP POP SWAP4 SWAP7 POP SWAP8 SWAP2 POP PUSH2 0x83A JUMP JUMPDEST PUSH0 DUP1 REVERT JUMPDEST PUSH4 0x4E487B71 PUSH1 0xE0 SHL PUSH0 MSTORE PUSH1 0x11 PUSH1 0x4 MSTORE PUSH1 0x24 PUSH0 REVERT JUMPDEST PUSH0 SWAP3 PUSH2 0x7D9 JUMP JUMPDEST PUSH1 0x40 MLOAD PUSH3 0x461BCD PUSH1 0xE5 SHL DUP2 MSTORE PUSH1 0x4 DUP2 ADD DUP9 SWAP1 MSTORE PUSH1 0x17 PUSH1 0x24 DUP3 ADD MSTORE PUSH32 0x4C656E64696E67506F6F6C3A206E6F7420616374697665000000000000000000 PUSH1 0x44 DUP3 ADD MSTORE PUSH1 0x64 SWAP1 REVERT JUMPDEST PUSH4 0x4E487B71 PUSH1 0xE0 SHL PUSH0 MSTORE PUSH1 0x21 PUSH1 0x4 MSTORE PUSH1 0x24 PUSH0 REVERT JUMPDEST CALLVALUE PUSH2 0x901 JUMPI PUSH1 0x20 CALLDATASIZE PUSH1 0x3 NOT ADD SLT PUSH2 0x901 JUMPI PUSH1 0x1 PUSH1 0x1 PUSH1 0xA0 SHL SUB PUSH2 0x99A PUSH2 0x17C8 JUMP JUMPDEST AND PUSH0 MSTORE PUSH1 0x3 PUSH1 0x20 MSTORE PUSH1 0x20 PUSH1 0x40 PUSH0 KECCAK256 SLOAD PUSH1 0x40 MLOAD SWAP1 DUP2 MSTORE RETURN JUMPDEST CALLVALUE PUSH2 0x901 JUMPI PUSH0 CALLDATASIZE PUSH1 0x3 NOT ADD SLT PUSH2 0x901 JUMPI PUSH1 0x80 PUSH1 0x5 SLOAD PUSH1 0x6 SLOAD PUSH1 0x7 SLOAD DUP2 ISZERO ISZERO PUSH0 EQ PUSH2 0x9FA JUMPI PUSH2 0x9E1 DUP3 PUSH1 0x8 SLOAD PUSH2 0x1899 JUMP JUMPDEST SWAP2 JUMPDEST PUSH1 0x40 MLOAD SWAP4 DUP5 MSTORE PUSH1 0x20 DUP5 ADD MSTORE PUSH1 0x40 DUP4 ADD MSTORE PUSH1 0x60 DUP3 ADD MSTORE RETURN JUMPDEST PUSH0 SWAP2 PUSH2 0x9E3 JUMP JUMPDEST CALLVALUE PUSH2 0x901 JUMPI PUSH0 CALLDATASIZE PUSH1 0x3 NOT ADD SLT PUSH2 0x901 JUMPI PUSH1 0x40 MLOAD PUSH4 0x70A08231 PUSH1 0xE0 SHL DUP2 MSTORE ADDRESS PUSH1 0x4 DUP3 ADD MSTORE PUSH1 0x20 DUP2 PUSH1 0x24 DUP2 PUSH32 0x0 PUSH1 0x1 PUSH1 0x1 PUSH1 0xA0 SHL SUB AND GAS STATICCALL DUP1 ISZERO PUSH2 0xAA1 JUMPI PUSH0 SWAP1 PUSH2 0xA6E JUMPI JUMPDEST PUSH1 0x20 SWAP1 PUSH1 0x40 MLOAD SWAP1 DUP2 MSTORE RETURN JUMPDEST POP PUSH1 0x20 DUP2 RETURNDATASIZE PUSH1 0x20 GT PUSH2 0xA99 JUMPI JUMPDEST DUP2 PUSH2 0xA88 PUSH1 0x20 SWAP4 DUP4 PUSH2 0x1850 JUMP JUMPDEST DUP2 ADD SUB SLT PUSH2 0x901 JUMPI PUSH1 0x20 SWAP1 MLOAD PUSH2 0xA63 JUMP JUMPDEST RETURNDATASIZE SWAP2 POP PUSH2 0xA7B JUMP JUMPDEST PUSH1 0x40 MLOAD RETURNDATASIZE PUSH0 DUP3 RETURNDATACOPY RETURNDATASIZE SWAP1 REVERT JUMPDEST CALLVALUE PUSH2 0x901 JUMPI PUSH0 CALLDATASIZE PUSH1 0x3 NOT ADD SLT PUSH2 0x901 JUMPI PUSH0 SLOAD PUSH1 0x40 MLOAD PUSH1 0x1 PUSH1 0x1 PUSH1 0xA0 SHL SUB SWAP1 SWAP2 AND DUP2 MSTORE PUSH1 0x20 SWAP1 RETURN JUMPDEST CALLVALUE PUSH2 0x901 JUMPI PUSH0 CALLDATASIZE PUSH1 0x3 NOT ADD SLT PUSH2 0x901 JUMPI PUSH2 0xAEB PUSH2 0x19BE JUMP JUMPDEST PUSH2 0xAF3 PUSH2 0x1A18 JUMP JUMPDEST PUSH0 DUP1 SLOAD PUSH1 0xFF PUSH1 0xA0 SHL NOT AND PUSH1 0x1 PUSH1 0xA0 SHL OR SWAP1 SSTORE PUSH1 0x40 MLOAD CALLER DUP2 MSTORE PUSH32 0x62E78CEA01BEE320CD4E420270B5EA74000D11B0C9F74754EBDBFC544B05A258 SWAP1 PUSH1 0x20 SWAP1 LOG1 STOP JUMPDEST CALLVALUE PUSH2 0x901 JUMPI PUSH1 0x20 CALLDATASIZE PUSH1 0x3 NOT ADD SLT PUSH2 0x901 JUMPI PUSH1 0x20 PUSH2 0x2F0 PUSH2 0xB51 PUSH2 0x17C8 JUMP JUMPDEST PUSH2 0x18F6 JUMP JUMPDEST CALLVALUE PUSH2 0x901 JUMPI PUSH1 0x20 CALLDATASIZE PUSH1 0x3 NOT ADD SLT PUSH2 0x901 JUMPI PUSH1 0x20 PUSH2 0x2F0 PUSH2 0xB74 PUSH2 0x17C8 JUMP JUMPDEST PUSH2 0x18B7 JUMP JUMPDEST CALLVALUE PUSH2 0x901 JUMPI PUSH0 CALLDATASIZE PUSH1 0x3 NOT ADD SLT PUSH2 0x901 JUMPI PUSH2 0xB91 PUSH2 0x19BE JUMP JUMPDEST PUSH0 DUP1 SLOAD PUSH1 0x1 PUSH1 0x1 PUSH1 0xA0 SHL SUB NOT DUP2 AND DUP3 SSTORE PUSH1 0x1 PUSH1 0x1 PUSH1 0xA0 SHL SUB AND PUSH32 0x8BE0079C531659141344CD1FD0A4F28419497F9722A3DAAFE3B4186F6B6457E0 DUP3 DUP1 LOG3 STOP JUMPDEST CALLVALUE PUSH2 0x901 JUMPI PUSH1 0x20 CALLDATASIZE PUSH1 0x3 NOT ADD SLT PUSH2 0x901 JUMPI PUSH1 0x4 CALLDATALOAD PUSH2 0xBEC PUSH2 0x19E9 JUMP JUMPDEST PUSH2 0xBF4 PUSH2 0x1A18 JUMP JUMPDEST DUP1 ISZERO PUSH2 0xCCD JUMPI PUSH2 0xC26 DUP2 ADDRESS CALLER PUSH32 0x0 PUSH2 0x1ADF JUMP JUMPDEST CALLER PUSH0 MSTORE PUSH1 0x3 PUSH1 0x20 MSTORE PUSH1 0x40 PUSH0 KECCAK256 PUSH2 0xC3D DUP3 DUP3 SLOAD PUSH2 0x17FE JUMP JUMPDEST SWAP1 SSTORE PUSH2 0xC4B DUP2 PUSH1 0x5 SLOAD PUSH2 0x17FE JUMP JUMPDEST PUSH1 0x5 SSTORE CALLER PUSH0 MSTORE PUSH1 0x9 PUSH1 0x20 MSTORE PUSH1 0x40 PUSH0 KECCAK256 DUP1 SLOAD PUSH1 0xFF DUP2 AND ISZERO PUSH2 0xCAE JUMPI JUMPDEST DUP3 PUSH1 0x5 SLOAD PUSH1 0x40 MLOAD SWAP2 DUP3 MSTORE PUSH1 0x20 DUP3 ADD MSTORE PUSH32 0x7628D23BAA7269CBE52D585C106809F6857F67DE8489B61E6A5DC5A780748A38 PUSH1 0x40 CALLER SWAP3 LOG2 PUSH1 0x1 PUSH0 DUP1 MLOAD PUSH1 0x20 PUSH2 0x1B9F DUP4 CODECOPY DUP2 MLOAD SWAP2 MSTORE SSTORE STOP JUMPDEST PUSH1 0xFF NOT AND PUSH1 0x1 OR SWAP1 SSTORE PUSH1 0x7 SLOAD PUSH2 0xCC3 SWAP1 PUSH2 0x188B JUMP JUMPDEST PUSH1 0x7 SSTORE DUP2 DUP1 PUSH2 0xC66 JUMP JUMPDEST PUSH1 0x40 MLOAD PUSH3 0x461BCD PUSH1 0xE5 SHL DUP2 MSTORE PUSH1 0x20 PUSH1 0x4 DUP3 ADD MSTORE PUSH1 0x19 PUSH1 0x24 DUP3 ADD MSTORE PUSH32 0x4C656E64696E67506F6F6C3A207A65726F206465706F73697400000000000000 PUSH1 0x44 DUP3 ADD MSTORE PUSH1 0x64 SWAP1 REVERT JUMPDEST CALLVALUE PUSH2 0x901 JUMPI PUSH1 0x20 CALLDATASIZE PUSH1 0x3 NOT ADD SLT PUSH2 0x901 JUMPI PUSH1 0x1 PUSH1 0x1 PUSH1 0xA0 SHL SUB PUSH2 0xD33 PUSH2 0x17C8 JUMP JUMPDEST AND PUSH0 MSTORE PUSH1 0x4 PUSH1 0x20 MSTORE PUSH1 0x20 PUSH1 0xFF PUSH1 0x40 PUSH0 KECCAK256 SLOAD AND PUSH1 0x40 MLOAD SWAP1 DUP2 MSTORE RETURN JUMPDEST CALLVALUE PUSH2 0x901 JUMPI PUSH0 CALLDATASIZE PUSH1 0x3 NOT ADD SLT PUSH2 0x901 JUMPI PUSH1 0x20 PUSH1 0xFF PUSH0 SLOAD PUSH1 0xA0 SHR AND PUSH1 0x40 MLOAD SWAP1 ISZERO ISZERO DUP2 MSTORE RETURN JUMPDEST CALLVALUE PUSH2 0x901 JUMPI PUSH0 CALLDATASIZE PUSH1 0x3 NOT ADD SLT PUSH2 0x901 JUMPI PUSH1 0x20 PUSH1 0x7 SLOAD PUSH1 0x40 MLOAD SWAP1 DUP2 MSTORE RETURN JUMPDEST CALLVALUE PUSH2 0x901 JUMPI PUSH0 CALLDATASIZE PUSH1 0x3 NOT ADD SLT PUSH2 0x901 JUMPI PUSH2 0xDA6 PUSH2 0x19BE JUMP JUMPDEST PUSH0 SLOAD PUSH1 0xFF DUP2 PUSH1 0xA0 SHR AND ISZERO PUSH2 0xDEB JUMPI PUSH1 0xFF PUSH1 0xA0 SHL NOT AND PUSH0 SSTORE PUSH1 0x40 MLOAD CALLER DUP2 MSTORE PUSH32 0x5DB9EE0A495BF2E6FF9C91A7834C1BA4FDD244A5E8AA4E537BD38AEAE4B073AA SWAP1 PUSH1 0x20 SWAP1 LOG1 STOP JUMPDEST PUSH1 0x40 MLOAD PUSH4 0x8DFC202B PUSH1 0xE0 SHL DUP2 MSTORE PUSH1 0x4 SWAP1 REVERT JUMPDEST CALLVALUE PUSH2 0x901 JUMPI PUSH1 0x20 CALLDATASIZE PUSH1 0x3 NOT ADD SLT PUSH2 0x901 JUMPI PUSH2 0xE16 PUSH2 0x17C8 JUMP JUMPDEST PUSH0 PUSH2 0x120 PUSH1 0x40 MLOAD PUSH2 0xE26 DUP2 PUSH2 0x180B JUMP JUMPDEST DUP3 DUP2 MSTORE DUP3 PUSH1 0x20 DUP3 ADD MSTORE DUP3 PUSH1 0x40 DUP3 ADD MSTORE DUP3 PUSH1 0x60 DUP3 ADD MSTORE DUP3 PUSH1 0x80 DUP3 ADD MSTORE DUP3 PUSH1 0xA0 DUP3 ADD MSTORE DUP3 PUSH1 0xC0 DUP3 ADD MSTORE DUP3 PUSH1 0xE0 DUP3 ADD MSTORE DUP3 PUSH2 0x100 DUP3 ADD MSTORE ADD MSTORE PUSH1 0x1 DUP1 PUSH1 0xA0 SHL SUB AND PUSH0 MSTORE PUSH1 0x2 PUSH1 0x20 MSTORE PUSH1 0x40 PUSH0 KECCAK256 PUSH1 0x6 PUSH1 0x40 MLOAD SWAP2 PUSH2 0xE7E DUP4 PUSH2 0x180B JUMP JUMPDEST PUSH1 0x1 DUP1 PUSH1 0xA0 SHL SUB DUP2 SLOAD AND DUP4 MSTORE PUSH1 0x1 DUP2 ADD SLOAD PUSH1 0x20 DUP5 ADD MSTORE PUSH1 0x2 DUP2 ADD SLOAD PUSH1 0x40 DUP5 ADD MSTORE PUSH1 0x3 DUP2 ADD SLOAD PUSH1 0x60 DUP5 ADD MSTORE PUSH1 0x4 DUP2 ADD SLOAD PUSH1 0x80 DUP5 ADD MSTORE PUSH1 0x5 DUP2 ADD SLOAD PUSH1 0xA0 DUP5 ADD MSTORE ADD SLOAD PUSH1 0xFF DUP2 AND PUSH1 0xC0 DUP4 ADD MSTORE PUSH1 0xFF DUP2 PUSH1 0x8 SHR AND PUSH1 0xE0 DUP4 ADD MSTORE PUSH1 0x4 PUSH1 0xFF DUP3 PUSH1 0x10 SHR AND LT ISZERO PUSH2 0x965 JUMPI PUSH1 0xFF DUP2 DUP2 PUSH2 0xF02 SWAP4 PUSH1 0x10 SHR AND PUSH2 0x100 DUP6 ADD MSTORE PUSH1 0x18 SHR AND PUSH2 0x120 DUP4 ADD PUSH2 0x1872 JUMP JUMPDEST PUSH1 0x40 MLOAD PUSH1 0x1 DUP1 PUSH1 0xA0 SHL SUB DUP3 MLOAD AND DUP2 MSTORE PUSH1 0x20 DUP3 ADD MLOAD PUSH1 0x20 DUP3 ADD MSTORE PUSH1 0x40 DUP3 ADD MLOAD PUSH1 0x40 DUP3 ADD MSTORE PUSH1 0x60 DUP3 ADD MLOAD PUSH1 0x60 DUP3 ADD MSTORE PUSH1 0x80 DUP3 ADD MLOAD PUSH1 0x80 DUP3 ADD MSTORE PUSH1 0xA0 DUP3 ADD MLOAD PUSH1 0xA0 DUP3 ADD MSTORE PUSH1 0xFF PUSH1 0xC0 DUP4 ADD MLOAD AND PUSH1 0xC0 DUP3 ADD MSTORE PUSH1 0xFF PUSH1 0xE0 DUP4 ADD MLOAD AND PUSH1 0xE0 DUP3 ADD MSTORE PUSH2 0x100 DUP3 ADD MLOAD SWAP2 PUSH1 0x4 DUP4 LT ISZERO PUSH2 0x965 JUMPI PUSH2 0x120 PUSH2 0xF8B SWAP2 PUSH2 0x140 SWAP5 PUSH2 0x100 DUP6 ADD MSTORE ADD MLOAD PUSH2 0x120 DUP4 ADD SWAP1 PUSH2 0x17DE JUMP JUMPDEST RETURN JUMPDEST CALLVALUE PUSH2 0x901 JUMPI PUSH1 0x20 DUP1 PUSH1 0x3 NOT CALLDATASIZE ADD SLT PUSH2 0x901 JUMPI PUSH1 0x4 CALLDATALOAD SWAP1 PUSH2 0xFAB PUSH2 0x19E9 JUMP JUMPDEST PUSH2 0xFB3 PUSH2 0x1A18 JUMP JUMPDEST DUP2 ISZERO PUSH2 0x11B6 JUMPI CALLER PUSH0 MSTORE PUSH1 0x3 DUP2 MSTORE DUP2 PUSH1 0x40 PUSH0 KECCAK256 SLOAD LT PUSH2 0x1172 JUMPI PUSH1 0x5 SLOAD SWAP1 DUP3 DUP3 LT PUSH2 0x111D JUMPI PUSH1 0x40 MLOAD PUSH4 0x70A08231 PUSH1 0xE0 SHL DUP2 MSTORE ADDRESS PUSH1 0x4 DUP3 ADD MSTORE SWAP2 PUSH32 0x0 SWAP1 DUP3 DUP5 PUSH1 0x24 DUP2 PUSH1 0x1 PUSH1 0x1 PUSH1 0xA0 SHL SUB DUP7 AND GAS STATICCALL SWAP4 DUP5 ISZERO PUSH2 0xAA1 JUMPI PUSH0 SWAP5 PUSH2 0x10EE JUMPI JUMPDEST POP DUP5 PUSH0 SWAP5 DUP3 DUP2 GT DUP1 PUSH2 0x10E5 JUMPI JUMPDEST PUSH2 0x10BF JUMPI JUMPDEST POP POP POP PUSH2 0x107D SWAP1 CALLER PUSH0 MSTORE PUSH1 0x3 DUP4 MSTORE PUSH1 0x40 PUSH0 KECCAK256 PUSH2 0x105A DUP7 DUP3 SLOAD PUSH2 0x187E JUMP JUMPDEST SWAP1 SSTORE PUSH2 0x1068 DUP6 PUSH1 0x5 SLOAD PUSH2 0x187E JUMP JUMPDEST PUSH1 0x5 SSTORE PUSH2 0x1075 DUP5 DUP7 PUSH2 0x17FE JUMP JUMPDEST SWAP1 CALLER SWAP1 PUSH2 0x1A61 JUMP JUMPDEST PUSH1 0x40 MLOAD SWAP3 DUP4 MSTORE DUP3 ADD MSTORE PUSH32 0x89D2F6C70C648A3F7ED809ACB91B7A84DBBA676961241962173A83861E43C0CF PUSH1 0x40 CALLER SWAP3 LOG2 PUSH1 0x1 PUSH0 DUP1 MLOAD PUSH1 0x20 PUSH2 0x1B9F DUP4 CODECOPY DUP2 MLOAD SWAP2 MSTORE SSTORE STOP JUMPDEST PUSH2 0x107D SWAP4 SWAP6 POP DUP3 SWAP2 PUSH2 0x10D7 PUSH2 0x10DC SWAP5 PUSH2 0x3DC SWAP4 PUSH2 0x187E JUMP JUMPDEST PUSH2 0x17EB JUMP JUMPDEST SWAP3 SWAP1 DUP5 DUP7 PUSH2 0x103D JUMP JUMPDEST POP DUP3 ISZERO ISZERO PUSH2 0x1038 JUMP JUMPDEST SWAP1 SWAP4 POP DUP3 DUP2 DUP2 RETURNDATASIZE DUP4 GT PUSH2 0x1116 JUMPI JUMPDEST PUSH2 0x1106 DUP2 DUP4 PUSH2 0x1850 JUMP JUMPDEST DUP2 ADD SUB SLT PUSH2 0x901 JUMPI MLOAD SWAP3 DUP6 PUSH2 0x102B JUMP JUMPDEST POP RETURNDATASIZE PUSH2 0x10FC JUMP JUMPDEST PUSH1 0x84 SWAP1 PUSH1 0x40 MLOAD SWAP1 PUSH3 0x461BCD PUSH1 0xE5 SHL DUP3 MSTORE PUSH1 0x4 DUP3 ADD MSTORE PUSH1 0x28 PUSH1 0x24 DUP3 ADD MSTORE PUSH32 0x4C656E64696E67506F6F6C3A20696E73756666696369656E742066726565206C PUSH1 0x44 DUP3 ADD MSTORE PUSH8 0x6971756964697479 PUSH1 0xC0 SHL PUSH1 0x64 DUP3 ADD MSTORE REVERT JUMPDEST PUSH1 0x64 SWAP1 PUSH1 0x40 MLOAD SWAP1 PUSH3 0x461BCD PUSH1 0xE5 SHL DUP3 MSTORE PUSH1 0x4 DUP3 ADD MSTORE PUSH1 0x1C PUSH1 0x24 DUP3 ADD MSTORE PUSH32 0x4C656E64696E67506F6F6C3A2065786365656473206465706F73697400000000 PUSH1 0x44 DUP3 ADD MSTORE REVERT JUMPDEST PUSH1 0x64 SWAP1 PUSH1 0x40 MLOAD SWAP1 PUSH3 0x461BCD PUSH1 0xE5 SHL DUP3 MSTORE PUSH1 0x4 DUP3 ADD MSTORE PUSH1 0x1C PUSH1 0x24 DUP3 ADD MSTORE PUSH32 0x4C656E64696E67506F6F6C3A207A65726F207769746864726177616C00000000 PUSH1 0x44 DUP3 ADD MSTORE REVERT JUMPDEST CALLVALUE PUSH2 0x901 JUMPI PUSH1 0x60 CALLDATASIZE PUSH1 0x3 NOT ADD SLT PUSH2 0x901 JUMPI PUSH1 0x4 CALLDATALOAD PUSH1 0x24 SWAP1 DUP2 CALLDATALOAD SWAP2 PUSH1 0x44 SWAP1 DUP2 CALLDATALOAD SWAP2 PUSH1 0xFF DUP4 AND DUP1 SWAP4 SUB PUSH2 0x901 JUMPI PUSH2 0x122D PUSH2 0x19E9 JUMP JUMPDEST PUSH2 0x1235 PUSH2 0x1A18 JUMP JUMPDEST DUP4 ISZERO PUSH2 0x162C JUMPI DUP5 ISZERO SWAP5 DUP6 ISZERO DUP1 PUSH2 0x1620 JUMPI JUMPDEST ISZERO PUSH2 0x15DD JUMPI PUSH1 0x2 DUP5 GT PUSH2 0x159A JUMPI CALLER PUSH0 MSTORE PUSH1 0x20 SWAP2 PUSH1 0x2 DUP4 MSTORE PUSH1 0xFF PUSH1 0x6 PUSH1 0x40 PUSH0 KECCAK256 ADD SLOAD PUSH1 0x10 SHR AND PUSH1 0x4 DUP2 LT ISZERO PUSH2 0x1587 JUMPI ISZERO PUSH2 0x1545 JUMPI PUSH2 0x1282 CALLER PUSH2 0x18F6 JUMP JUMPDEST DUP7 GT PUSH2 0x1504 JUMPI DUP6 PUSH1 0x5 SLOAD LT PUSH2 0x14B1 JUMPI POP PUSH1 0x3 DUP5 LT ISZERO PUSH2 0x149E JUMPI PUSH2 0x12A4 DUP5 PUSH2 0x1A38 JUMP JUMPDEST SWAP6 PUSH3 0x15180 DUP1 DUP4 MUL SWAP3 DUP4 DIV EQ OR ISZERO PUSH2 0x148B JUMPI PUSH2 0x12C0 SWAP1 TIMESTAMP PUSH2 0x17FE JUMP JUMPDEST SWAP2 PUSH1 0x40 MLOAD SWAP1 PUSH2 0x12CE DUP3 PUSH2 0x180B JUMP JUMPDEST CALLER DUP3 MSTORE DUP5 DUP4 DUP1 DUP5 ADD SWAP3 DUP9 DUP5 MSTORE PUSH1 0xFF PUSH1 0x6 PUSH1 0x40 DUP8 ADD SWAP7 PUSH0 DUP9 MSTORE PUSH1 0x60 DUP2 ADD DUP14 DUP2 MSTORE PUSH1 0x80 DUP3 ADD TIMESTAMP DUP2 MSTORE PUSH1 0xA0 DUP4 ADD SWAP2 DUP13 DUP4 MSTORE PUSH1 0xC0 DUP5 ADD SWAP11 PUSH0 DUP13 MSTORE PUSH1 0xE0 DUP6 ADD SWAP11 PUSH1 0x4 DUP13 MSTORE PUSH1 0x2 PUSH2 0x100 DUP8 ADD SWAP11 PUSH0 DUP13 MSTORE PUSH2 0x1327 PUSH2 0x120 DUP10 ADD SWAP14 DUP15 PUSH2 0x1872 JUMP JUMPDEST CALLER PUSH0 MSTORE MSTORE PUSH1 0x40 PUSH0 KECCAK256 SWAP6 PUSH1 0x1 DUP1 PUSH1 0xA0 SHL SUB SWAP1 MLOAD AND PUSH12 0xFFFFFFFFFFFFFFFFFFFFFFFF PUSH1 0xA0 SHL DUP8 SLOAD AND OR DUP7 SSTORE MLOAD PUSH1 0x1 DUP7 ADD SSTORE MLOAD PUSH1 0x2 DUP6 ADD SSTORE MLOAD PUSH1 0x3 DUP5 ADD SSTORE MLOAD PUSH1 0x4 DUP4 ADD SSTORE MLOAD PUSH1 0x5 DUP3 ADD SSTORE ADD SWAP6 MLOAD AND SWAP1 DUP6 SLOAD SWAP5 MLOAD SWAP3 MLOAD SWAP4 PUSH1 0x4 DUP6 LT ISZERO PUSH2 0x1477 JUMPI MLOAD SWAP1 PUSH1 0x3 DUP3 LT ISZERO PUSH2 0x1464 JUMPI POP PUSH2 0x142B SWAP10 SWAP11 SWAP5 SWAP3 PUSH2 0xFF00 PUSH2 0x13EA SWAP8 SWAP6 SWAP4 PUSH4 0xFF000000 PUSH3 0xFF0000 SWAP5 PUSH1 0x18 SHL AND SWAP6 PUSH4 0xFFFFFFFF NOT AND OR SWAP2 PUSH1 0x8 SHL AND OR SWAP2 PUSH1 0x10 SHL AND OR OR SWAP1 SSTORE PUSH2 0x13D1 DUP8 PUSH1 0x5 SLOAD PUSH2 0x187E JUMP JUMPDEST PUSH1 0x5 SSTORE PUSH2 0x13DF PUSH1 0x6 SLOAD PUSH2 0x188B JUMP JUMPDEST PUSH1 0x6 SSTORE PUSH1 0x8 SLOAD PUSH2 0x17FE JUMP JUMPDEST PUSH1 0x8 SSTORE PUSH2 0x1418 DUP6 CALLER PUSH32 0x0 PUSH2 0x1A61 JUMP JUMPDEST PUSH1 0x40 MLOAD SWAP5 DUP6 MSTORE DUP5 ADD MSTORE PUSH1 0x40 DUP4 ADD SWAP1 PUSH2 0x17DE JUMP JUMPDEST PUSH32 0x469F3B84F0A93AA13441E333540BA6CD5CCB2A9DF1CCF61B5E6F372693B23319 PUSH1 0x60 CALLER SWAP3 LOG2 PUSH1 0x1 PUSH0 DUP1 MLOAD PUSH1 0x20 PUSH2 0x1B9F DUP4 CODECOPY DUP2 MLOAD SWAP2 MSTORE SSTORE STOP JUMPDEST PUSH4 0x4E487B71 PUSH1 0xE0 SHL PUSH0 SWAP1 DUP2 MSTORE PUSH1 0x21 PUSH1 0x4 MSTORE REVERT JUMPDEST POP PUSH4 0x4E487B71 PUSH1 0xE0 SHL PUSH0 SWAP1 DUP2 MSTORE PUSH1 0x21 PUSH1 0x4 MSTORE REVERT JUMPDEST DUP3 PUSH4 0x4E487B71 PUSH1 0xE0 SHL PUSH0 MSTORE PUSH1 0x11 PUSH1 0x4 MSTORE PUSH0 REVERT JUMPDEST DUP3 PUSH4 0x4E487B71 PUSH1 0xE0 SHL PUSH0 MSTORE PUSH1 0x21 PUSH1 0x4 MSTORE PUSH0 REVERT JUMPDEST PUSH32 0x4C656E64696E67506F6F6C3A20696E73756666696369656E7420706F6F6C206C SWAP2 POP PUSH1 0x28 PUSH1 0x84 SWAP5 PUSH1 0x40 MLOAD SWAP5 PUSH3 0x461BCD PUSH1 0xE5 SHL DUP7 MSTORE PUSH1 0x4 DUP7 ADD MSTORE DUP5 ADD MSTORE DUP3 ADD MSTORE PUSH8 0x6971756964697479 PUSH1 0xC0 SHL PUSH1 0x64 DUP3 ADD MSTORE REVERT JUMPDEST DUP4 PUSH32 0x4C656E64696E67506F6F6C3A2065786365656473207472757374206C696D6974 PUSH1 0x64 SWAP3 DUP6 PUSH1 0x40 MLOAD SWAP4 PUSH3 0x461BCD PUSH1 0xE5 SHL DUP6 MSTORE DUP2 PUSH1 0x4 DUP7 ADD MSTORE DUP5 ADD MSTORE DUP3 ADD MSTORE REVERT JUMPDEST PUSH32 0x4C656E64696E67506F6F6C3A20616374697665206C6F616E2065786973747300 SWAP2 POP PUSH1 0x1F PUSH1 0x64 SWAP5 PUSH1 0x40 MLOAD SWAP5 PUSH3 0x461BCD PUSH1 0xE5 SHL DUP7 MSTORE PUSH1 0x4 DUP7 ADD MSTORE DUP5 ADD MSTORE DUP3 ADD MSTORE REVERT JUMPDEST DUP5 PUSH4 0x4E487B71 PUSH1 0xE0 SHL PUSH0 MSTORE PUSH1 0x21 PUSH1 0x4 MSTORE PUSH0 REVERT JUMPDEST PUSH1 0x40 MLOAD PUSH3 0x461BCD PUSH1 0xE5 SHL DUP2 MSTORE PUSH1 0x20 PUSH1 0x4 DUP3 ADD MSTORE PUSH1 0x19 DUP2 DUP6 ADD MSTORE PUSH32 0x4C656E64696E67506F6F6C3A20696E76616C6964207061746800000000000000 DUP2 DUP5 ADD MSTORE PUSH1 0x64 SWAP1 REVERT JUMPDEST PUSH1 0x40 MLOAD PUSH3 0x461BCD PUSH1 0xE5 SHL DUP2 MSTORE PUSH1 0x20 PUSH1 0x4 DUP3 ADD MSTORE PUSH1 0x1D DUP2 DUP6 ADD MSTORE PUSH32 0x4C656E64696E67506F6F6C3A20696E76616C6964206475726174696F6E000000 DUP2 DUP5 ADD MSTORE PUSH1 0x64 SWAP1 REVERT JUMPDEST POP PUSH2 0x16D DUP2 GT ISZERO PUSH2 0x1246 JUMP JUMPDEST SWAP1 PUSH32 0x4C656E64696E67506F6F6C3A207A65726F20616D6F756E740000000000000000 PUSH1 0x64 SWAP3 PUSH1 0x18 PUSH1 0x40 MLOAD SWAP4 PUSH3 0x461BCD PUSH1 0xE5 SHL DUP6 MSTORE PUSH1 0x20 PUSH1 0x4 DUP7 ADD MSTORE DUP5 ADD MSTORE DUP3 ADD MSTORE REVERT JUMPDEST CALLVALUE PUSH2 0x901 JUMPI PUSH1 0x40 CALLDATASIZE PUSH1 0x3 NOT ADD SLT PUSH2 0x901 JUMPI PUSH2 0x1688 PUSH2 0x17C8 JUMP JUMPDEST PUSH1 0x24 CALLDATALOAD SWAP1 PUSH1 0xFF DUP3 AND SWAP1 DUP2 DUP4 SUB PUSH2 0x901 JUMPI PUSH2 0x16A0 PUSH2 0x19BE JUMP JUMPDEST PUSH1 0x1 PUSH1 0x1 PUSH1 0xA0 SHL SUB AND SWAP2 DUP3 ISZERO PUSH2 0x174C JUMPI PUSH1 0x64 DUP3 GT PUSH2 0x1707 JUMPI PUSH0 DUP1 MLOAD PUSH1 0x20 PUSH2 0x1B7F DUP4 CODECOPY DUP2 MLOAD SWAP2 MSTORE SWAP2 PUSH2 0x1702 PUSH1 0xFF SWAP3 DUP6 PUSH0 MSTORE PUSH1 0x4 PUSH1 0x20 MSTORE PUSH1 0x40 PUSH0 KECCAK256 DUP1 SLOAD SWAP4 DUP6 NOT DUP6 AND OR SWAP1 SSTORE PUSH1 0x40 MLOAD SWAP4 DUP5 SWAP4 AND DUP4 SWAP1 SWAP3 SWAP2 PUSH1 0xFF PUSH1 0x20 SWAP2 DUP2 PUSH1 0x40 DUP6 ADD SWAP7 AND DUP5 MSTORE AND SWAP2 ADD MSTORE JUMP JUMPDEST SUB SWAP1 LOG2 STOP JUMPDEST PUSH1 0x40 MLOAD PUSH3 0x461BCD PUSH1 0xE5 SHL DUP2 MSTORE PUSH1 0x20 PUSH1 0x4 DUP3 ADD MSTORE PUSH1 0x18 PUSH1 0x24 DUP3 ADD MSTORE PUSH32 0x4C656E64696E67506F6F6C3A2073636F7265203E203130300000000000000000 PUSH1 0x44 DUP3 ADD MSTORE PUSH1 0x64 SWAP1 REVERT JUMPDEST PUSH1 0x40 MLOAD PUSH3 0x461BCD PUSH1 0xE5 SHL DUP2 MSTORE PUSH1 0x20 PUSH1 0x4 DUP3 ADD MSTORE PUSH1 0x19 PUSH1 0x24 DUP3 ADD MSTORE PUSH32 0x4C656E64696E67506F6F6C3A207A65726F206164647265737300000000000000 PUSH1 0x44 DUP3 ADD MSTORE PUSH1 0x64 SWAP1 REVERT JUMPDEST CALLVALUE PUSH2 0x901 JUMPI PUSH1 0x20 CALLDATASIZE PUSH1 0x3 NOT ADD SLT PUSH2 0x901 JUMPI PUSH1 0x20 SWAP1 PUSH1 0x1 PUSH1 0x1 PUSH1 0xA0 SHL SUB PUSH2 0x17B5 PUSH2 0x17C8 JUMP JUMPDEST AND PUSH0 MSTORE PUSH1 0x4 DUP3 MSTORE PUSH1 0xFF PUSH1 0x40 PUSH0 KECCAK256 SLOAD AND DUP2 MSTORE RETURN JUMPDEST PUSH1 0x4 CALLDATALOAD SWAP1 PUSH1 0x1 PUSH1 0x1 PUSH1 0xA0 SHL SUB DUP3 AND DUP3 SUB PUSH2 0x901 JUMPI JUMP JUMPDEST SWAP1 PUSH1 0x3 DUP3 LT ISZERO PUSH2 0x965 JUMPI MSTORE JUMP JUMPDEST DUP2 DUP2 MUL SWAP3 SWAP2 DUP2 ISZERO SWAP2 DUP5 DIV EQ OR ISZERO PUSH2 0x905 JUMPI JUMP JUMPDEST SWAP2 SWAP1 DUP3 ADD DUP1 SWAP3 GT PUSH2 0x905 JUMPI JUMP JUMPDEST PUSH2 0x140 DUP2 ADD SWAP1 DUP2 LT PUSH8 0xFFFFFFFFFFFFFFFF DUP3 GT OR PUSH2 0x1828 JUMPI PUSH1 0x40 MSTORE JUMP JUMPDEST PUSH4 0x4E487B71 PUSH1 0xE0 SHL PUSH0 MSTORE PUSH1 0x41 PUSH1 0x4 MSTORE PUSH1 0x24 PUSH0 REVERT JUMPDEST PUSH8 0xFFFFFFFFFFFFFFFF DUP2 GT PUSH2 0x1828 JUMPI PUSH1 0x40 MSTORE JUMP JUMPDEST SWAP1 PUSH1 0x1F DUP1 NOT SWAP2 ADD AND DUP2 ADD SWAP1 DUP2 LT PUSH8 0xFFFFFFFFFFFFFFFF DUP3 GT OR PUSH2 0x1828 JUMPI PUSH1 0x40 MSTORE JUMP JUMPDEST PUSH1 0x3 DUP3 LT ISZERO PUSH2 0x965 JUMPI MSTORE JUMP JUMPDEST SWAP2 SWAP1 DUP3 SUB SWAP2 DUP3 GT PUSH2 0x905 JUMPI JUMP JUMPDEST PUSH0 NOT DUP2 EQ PUSH2 0x905 JUMPI PUSH1 0x1 ADD SWAP1 JUMP JUMPDEST DUP2 ISZERO PUSH2 0x18A3 JUMPI DIV SWAP1 JUMP JUMPDEST PUSH4 0x4E487B71 PUSH1 0xE0 SHL PUSH0 MSTORE PUSH1 0x12 PUSH1 0x4 MSTORE PUSH1 0x24 PUSH0 REVERT JUMPDEST PUSH1 0x1 PUSH1 0x1 PUSH1 0xA0 SHL SUB AND PUSH0 SWAP1 DUP2 MSTORE PUSH1 0x2 PUSH1 0x20 MSTORE PUSH1 0x40 SWAP1 KECCAK256 PUSH1 0x6 DUP2 ADD SLOAD PUSH1 0x10 SHR PUSH1 0xFF AND PUSH1 0x4 DUP2 LT ISZERO PUSH2 0x965 JUMPI PUSH2 0x18F1 JUMPI PUSH2 0x18EE SWAP1 PUSH2 0x1B49 JUMP JUMPDEST SWAP1 JUMP JUMPDEST POP PUSH0 SWAP1 JUMP JUMPDEST PUSH1 0x1 PUSH1 0x1 PUSH1 0xA0 SHL SUB AND PUSH0 SWAP1 DUP2 MSTORE PUSH1 0x4 PUSH1 0x20 MSTORE PUSH1 0x40 SWAP1 KECCAK256 SLOAD PUSH1 0xFF AND PUSH1 0x50 DUP2 LT ISZERO PUSH2 0x1951 JUMPI PUSH1 0x3C DUP2 LT ISZERO PUSH2 0x1943 JUMPI PUSH1 0x28 GT ISZERO PUSH2 0x1936 JUMPI PUSH8 0x8AC7230489E80000 SWAP1 JUMP JUMPDEST PUSH9 0x2B5E3AF16B1880000 SWAP1 JUMP JUMPDEST POP PUSH9 0xAD78EBC5AC6200000 SWAP1 JUMP JUMPDEST POP PUSH9 0x1B1AE4D6E2EF500000 SWAP1 JUMP JUMPDEST DUP1 ISZERO PUSH2 0x905 JUMPI PUSH0 NOT ADD SWAP1 JUMP JUMPDEST PUSH1 0x1 PUSH1 0x1 PUSH1 0xA0 SHL SUB AND PUSH0 SWAP1 DUP2 MSTORE PUSH1 0x2 PUSH1 0x20 MSTORE PUSH1 0x40 SWAP1 KECCAK256 PUSH1 0x6 DUP2 ADD SLOAD PUSH1 0x10 SHR PUSH1 0xFF AND PUSH1 0x4 DUP2 LT ISZERO PUSH2 0x965 JUMPI PUSH2 0x18F1 JUMPI PUSH1 0x2 PUSH2 0x19A4 DUP3 PUSH2 0x1B49 JUMP JUMPDEST SWAP2 ADD SLOAD DUP1 DUP3 GT ISZERO PUSH2 0x19B8 JUMPI PUSH2 0x18EE SWAP2 PUSH2 0x187E JUMP JUMPDEST POP POP PUSH0 SWAP1 JUMP JUMPDEST PUSH0 SLOAD PUSH1 0x1 PUSH1 0x1 PUSH1 0xA0 SHL SUB AND CALLER SUB PUSH2 0x19D1 JUMPI JUMP JUMPDEST PUSH1 0x40 MLOAD PUSH4 0x118CDAA7 PUSH1 0xE0 SHL DUP2 MSTORE CALLER PUSH1 0x4 DUP3 ADD MSTORE PUSH1 0x24 SWAP1 REVERT JUMPDEST PUSH0 DUP1 MLOAD PUSH1 0x20 PUSH2 0x1B9F DUP4 CODECOPY DUP2 MLOAD SWAP2 MSTORE PUSH1 0x2 DUP2 SLOAD EQ PUSH2 0x1A06 JUMPI PUSH1 0x2 SWAP1 SSTORE JUMP JUMPDEST PUSH1 0x40 MLOAD PUSH4 0x3EE5AEB5 PUSH1 0xE0 SHL DUP2 MSTORE PUSH1 0x4 SWAP1 REVERT JUMPDEST PUSH1 0xFF PUSH0 SLOAD PUSH1 0xA0 SHR AND PUSH2 0x1A26 JUMPI JUMP JUMPDEST PUSH1 0x40 MLOAD PUSH4 0xD93C0665 PUSH1 0xE0 SHL DUP2 MSTORE PUSH1 0x4 SWAP1 REVERT JUMPDEST PUSH1 0x3 DUP2 LT ISZERO PUSH2 0x965 JUMPI DUP1 ISZERO PUSH2 0x1A5A JUMPI PUSH1 0x1 EQ PUSH2 0x1A54 JUMPI PUSH2 0x2C6 SWAP1 JUMP JUMPDEST PUSH2 0x118 SWAP1 JUMP JUMPDEST POP PUSH2 0x1A4 SWAP1 JUMP JUMPDEST PUSH1 0x40 MLOAD PUSH4 0xA9059CBB PUSH1 0xE0 SHL PUSH0 SWAP1 DUP2 MSTORE PUSH1 0x1 PUSH1 0x1 PUSH1 0xA0 SHL SUB SWAP4 DUP5 AND PUSH1 0x4 MSTORE PUSH1 0x24 SWAP5 SWAP1 SWAP5 MSTORE SWAP3 PUSH1 0x20 SWAP1 PUSH1 0x44 DUP2 DUP1 DUP6 GAS CALL PUSH1 0x1 PUSH0 MLOAD EQ DUP2 AND ISZERO PUSH2 0x1AC0 JUMPI JUMPDEST DUP4 PUSH1 0x40 MSTORE ISZERO PUSH2 0x1AAA JUMPI POP POP POP JUMP JUMPDEST PUSH4 0x5274AFE7 PUSH1 0xE0 SHL DUP4 MSTORE AND PUSH1 0x4 DUP3 ADD MSTORE PUSH1 0x24 SWAP2 POP REVERT JUMPDEST PUSH1 0x1 DUP2 ISZERO AND PUSH2 0x1AD6 JUMPI DUP2 EXTCODESIZE ISZERO ISZERO RETURNDATASIZE ISZERO AND AND PUSH2 0x1A9C JUMP JUMPDEST DUP4 RETURNDATASIZE PUSH0 DUP3 RETURNDATACOPY RETURNDATASIZE SWAP1 REVERT JUMPDEST PUSH1 0x40 MLOAD PUSH4 0x23B872DD PUSH1 0xE0 SHL PUSH0 SWAP1 DUP2 MSTORE PUSH1 0x1 PUSH1 0x1 PUSH1 0xA0 SHL SUB SWAP4 DUP5 AND PUSH1 0x4 MSTORE SWAP4 DUP4 AND PUSH1 0x24 MSTORE PUSH1 0x44 SWAP5 SWAP1 SWAP5 MSTORE SWAP1 SWAP2 PUSH1 0x20 SWAP1 PUSH1 0x64 DUP2 DUP1 DUP6 GAS CALL PUSH1 0x1 PUSH0 MLOAD EQ DUP2 AND ISZERO PUSH2 0x1B33 JUMPI JUMPDEST DUP4 PUSH1 0x40 MSTORE PUSH0 PUSH1 0x60 MSTORE ISZERO PUSH2 0x1AAA JUMPI POP POP POP JUMP JUMPDEST PUSH1 0x1 DUP2 ISZERO AND PUSH2 0x1AD6 JUMPI DUP2 EXTCODESIZE ISZERO ISZERO RETURNDATASIZE ISZERO AND AND PUSH2 0x1B21 JUMP JUMPDEST PUSH2 0x18EE SWAP1 PUSH2 0x2710 PUSH2 0x1B63 PUSH1 0x3 PUSH1 0x1 DUP5 ADD SLOAD SWAP4 ADD SLOAD DUP4 PUSH2 0x17EB JUMP JUMPDEST DIV SWAP1 PUSH2 0x17FE JUMP JUMPDEST SWAP1 PUSH1 0xFF DUP1 SWAP2 AND SWAP2 AND ADD SWAP1 PUSH1 0xFF DUP3 GT PUSH2 0x905 JUMPI JUMP INVALID 0xD1 SWAP10 MOD 0xEE BYTE 0xD4 DUP11 MULMOD DUP12 PUSH24 0x75E103EC4CB4FFAEFC35799B1914B4A390F9CD27FACC9B77 SWAP12 OR TIMESTAMP 0x2D 0xD 0xF9 0x22 0x23 ADD DUP12 ORIGIN 0xB4 0xD1 STATICCALL CHAINID 0xE0 PUSH18 0x723D6817E2486D003BECC55F00A264697066 PUSH20 0x5822122022EF91652CB9DB213226C53939035284 CHAINID 0x26 0xDD 0xC1 0xB4 PUSH3 0x5F5A5D 0xED 0xDB PUSH18 0x6E5D4B5664736F6C63430008190033000000 "},"methodIdentifiers":{"depositToPool(uint256)":"68b0e070","getBorrowLimit(address)":"7c17d237","getLenderBalance(address)":"bd09085a","getLoan(address)":"33481fc9","getPoolBalance()":"abd70aa2","getPoolStats()":"bbb85188","getRemainingDebt(address)":"db15bcea","getTotalOwed(address)":"73851075","getTrustScore(address)":"5e09eea1","lenderDeposits(address)":"99398358","makeRepayment(uint256)":"d37415fe","markDefault(address)":"be81c4d4","mintReputationNFT(address)":"ea62781d","owner()":"8da5cb5b","pause()":"8456cb59","paused()":"5c975abb","renounceOwnership()":"715018a6","reputationNFT()":"fa488649","requestLoan(uint256,uint256,uint8)":"23a0ac79","totalActiveLoans()":"dc63af41","totalLenders()":"59641e5e","totalPoolLiquidity()":"e8f00331","transferOwnership(address)":"f2fde38b","trustScores(address)":"12df0fc4","trustToken()":"d13deb2f","unpause()":"3f4ba83a","updateTrustScore(address,uint8)":"14641080","withdrawFromPool(uint256)":"30fc43ed"}}}}}