{"contracts/VouchSystem.sol":{"VouchSystem":{"abi":[{"inputs":[{"internalType":"address","name":"_token","type":"address"},{"internalType":"address","name":"_treasury","type":"address"}],"stateMutability":"nonpayable","type":"constructor"},{"inputs":[{"internalType":"address","name":"owner","type":"address"}],"name":"OwnableInvalidOwner","type":"error"},{"inputs":[{"internalType":"address","name":"account","type":"address"}],"name":"OwnableUnauthorizedAccount","type":"error"},{"anonymous":false,"inputs":[{"indexed":true,"internalType":"address","name":"previousOwner","type":"address"},{"indexed":true,"internalType":"address","name":"newOwner","type":"address"}],"name":"OwnershipTransferred","type":"event"},{"anonymous":false,"inputs":[{"indexed":true,"internalType":"uint256","name":"vouchId","type":"uint256"},{"indexed":true,"internalType":"address","name":"voucher","type":"address"},{"indexed":false,"internalType":"uint256","name":"amount","type":"uint256"}],"name":"VouchReleased","type":"event"},{"anonymous":false,"inputs":[{"indexed":true,"internalType":"uint256","name":"vouchId","type":"uint256"},{"indexed":true,"internalType":"address","name":"voucher","type":"address"},{"indexed":false,"internalType":"uint256","name":"amount","type":"uint256"}],"name":"VouchSlashed","type":"event"},{"anonymous":false,"inputs":[{"indexed":true,"internalType":"uint256","name":"vouchId","type":"uint256"},{"indexed":true,"internalType":"address","name":"voucher","type":"address"},{"indexed":true,"internalType":"address","name":"borrower","type":"address"},{"indexed":false,"internalType":"uint256","name":"amount","type":"uint256"}],"name":"VouchStaked","type":"event"},{"inputs":[{"internalType":"address","name":"","type":"address"},{"internalType":"uint256","name":"","type":"uint256"}],"name":"borrowerVouches","outputs":[{"internalType":"uint256","name":"","type":"uint256"}],"stateMutability":"view","type":"function"},{"inputs":[{"internalType":"address","name":"borrower","type":"address"}],"name":"getBorrowerVouches","outputs":[{"internalType":"uint256[]","name":"","type":"uint256[]"}],"stateMutability":"view","type":"function"},{"inputs":[{"internalType":"address","name":"borrower","type":"address"}],"name":"getTotalActiveStake","outputs":[{"internalType":"uint256","name":"total","type":"uint256"}],"stateMutability":"view","type":"function"},{"inputs":[{"internalType":"uint256","name":"vouchId","type":"uint256"}],"name":"getVouch","outputs":[{"components":[{"internalType":"uint256","name":"id","type":"uint256"},{"internalType":"address","name":"voucher","type":"address"},{"internalType":"address","name":"borrower","type":"address"},{"internalType":"uint256","name":"amount","type":"uint256"},{"internalType":"bool","name":"released","type":"bool"},{"internalType":"bool","name":"slashed","type":"bool"}],"internalType":"struct VouchSystem.Vouch","name":"","type":"tuple"}],"stateMutability":"view","type":"function"},{"inputs":[],"name":"nextVouchId","outputs":[{"internalType":"uint256","name":"","type":"uint256"}],"stateMutability":"view","type":"function"},{"inputs":[],"name":"owner","outputs":[{"internalType":"address","name":"","type":"address"}],"stateMutability":"view","type":"function"},{"inputs":[{"internalType":"uint256","name":"vouchId","type":"uint256"}],"name":"releaseStake","outputs":[],"stateMutability":"nonpayable","type":"function"},{"inputs":[],"name":"renounceOwnership","outputs":[],"stateMutability":"nonpayable","type":"function"},{"inputs":[{"internalType":"address","name":"_treasury","type":"address"}],"name":"setTreasury","outputs":[],"stateMutability":"nonpayable","type":"function"},{"inputs":[{"internalType":"uint256","name":"vouchId","type":"uint256"}],"name":"slashStake","outputs":[],"stateMutability":"nonpayable","type":"function"},{"inputs":[{"internalType":"address","name":"borrower","type":"address"},{"internalType":"uint256","name":"amount","type":"uint256"}],"name":"stakeForBorrower","outputs":[{"internalType":"uint256","name":"","type":"uint256"}],"stateMutability":"nonpayable","type":"function"},{"inputs":[],"name":"token","outputs":[{"internalType":"contract IERC20","name":"","type":"address"}],"stateMutability":"view","type":"function"},{"inputs":[{"internalType":"address","name":"","type":"address"}],"name":"totalStakedBy","outputs":[{"internalType":"uint256","name":"","type":"uint256"}],"stateMutability":"view","type":"function"},{"inputs":[{"internalType":"address","name":"newOwner","type":"address"}],"name":"transferOwnership","outputs":[],"stateMutability":"nonpayable","type":"function"},{"inputs":[],"name":"treasury","outputs":[{"internalType":"address","name":"","type":"address"}],"stateMutability":"view","type":"function"},{"inputs":[{"internalType":"uint256","name":"","type":"uint256"}],"name":"vouches","outputs":[{"internalType":"uint256","name":"id","type":"uint256"},{"internalType":"address","name":"voucher","type":"address"},{"internalType":"address","name":"borrower","type":"address"},{"internalType":"uint256","name":"amount","type":"uint256"},{"internalType":"bool","name":"released","type":"bool"},{"internalType":"bool","name":"slashed","type":"bool"}],"stateMutability":"view","type":"function"}],"evm":{"bytecode":{"linkReferences":{},"object":"60803461016f57610f3890601f38839003908101601f19168201906001600160401b03821183831017610173578083916040958694855283398101031261016f57610055602061004e83610187565b9201610187565b903315610158575f549160018060a01b03908160018060a01b03199333858716175f55865195823391167f8be0079c531659141344cd1fd0a4f28419497f9722a3daafe3b4186f6b6457e05f80a3169384156101165750169182156100d257816001541617600155600254161760025551610d9c908161019c8239f35b835162461bcd60e51b815260206004820152601860248201527f496e76616c6964207472656173757279206164647265737300000000000000006044820152606490fd5b62461bcd60e51b815260206004820152601560248201527f496e76616c696420746f6b656e206164647265737300000000000000000000006044820152606490fd5b8251631e4fbdf760e01b81525f6004820152602490fd5b5f80fd5b634e487b7160e01b5f52604160045260245ffd5b51906001600160a01b038216820361016f5756fe6080604090808252600480361015610015575f80fd5b5f3560e01c9182633bb3c6fb14610b4c575081633fdd5da814610af55781633feff9d214610ad757816345f544851461096857816358ecb030146107f45781635be0a663146104de57816361d027b3146104b6578163715018a61461045f5781637dc6368a1461037b578163878c6dad146103445781638da5cb5b1461031d578163a817c68a146102ae578163ef06141014610204578163f0f4426014610188578163f2fde38b146100fb575063fc0c546a146100d0575f80fd5b346100f7575f3660031901126100f75760015490516001600160a01b039091168152602090f35b5f80fd5b9050346100f75760203660031901126100f757610116610c20565b9061011f610d3b565b6001600160a01b039182169283156101725750505f54826bffffffffffffffffffffffff60a01b8216175f55167f8be0079c531659141344cd1fd0a4f28419497f9722a3daafe3b4186f6b6457e05f80a3005b905f6024925191631e4fbdf760e01b8352820152fd5b9050346100f75760203660031901126100f7576101a3610c20565b6101ab610d3b565b6001600160a01b03169182156101cf57600280546001600160a01b03191684179055005b906020606492519162461bcd60e51b8352820152600f60248201526e496e76616c6964206164647265737360881b6044820152fd5b82346100f7576020806003193601126100f757906001600160a01b03610228610c20565b165f5260058252805f208151928381835491828152019081935f52825f20905f5b81811061029a575050508461025f910385610c8f565b825181815293518185018190528493840192915f5b82811061028357505050500390f35b835185528695509381019392810192600101610274565b825484529284019260019283019201610249565b9050346100f75760203660031901126100f75760ff60c09282355f5282602052805f2080549360018060a01b03928360018401541693600284015416916003840154930154938151968752602087015285015260608401528181161515608084015260081c16151560a0820152f35b82346100f7575f3660031901126100f7575f5490516001600160a01b039091168152602090f35b82346100f75760203660031901126100f7576020906001600160a01b03610369610c20565b165f5260068252805f20549051908152f35b82346100f757602091826003193601126100f757610397610c20565b6001600160a01b03165f9081526005808552838220845181548082529184528684209295929091829081890190865b8a828210610449575050506103dd92500382610c8f565b5f5b8151811015610440578681871b830101515f52848752825f208581015460ff808216159182610432575b5050610419575b506001016103df565b60019194600361042b92015490610d2e565b9390610410565b60081c161590508980610409565b86848451908152f35b85548452600195860195879550930192016103c6565b346100f7575f3660031901126100f757610477610d3b565b5f80546001600160a01b0319811682556001600160a01b03167f8be0079c531659141344cd1fd0a4f28419497f9722a3daafe3b4186f6b6457e08280a3005b82346100f7575f3660031901126100f75760025490516001600160a01b039091168152602090f35b82346100f757806003193601126100f7576104f7610c20565b90602491823580156107b2576001600160a01b039182169133831461077057821561072e575f9581600154168551906323b872dd60e01b8252338383015230888301528460448301528160648160209b8c945af1908115610724575f916106f7575b50156106bd57600354955f19928388146106aa5787838a926001830160035589519061058482610c5f565b8382528482013381528b8301908b825260608401928b84528560808601985f8a5260a08701985f8a525f52528d5f20945185558060018601925116916bffffffffffffffffffffffff60a01b9283825416179055600285019251169082541617905551600382015501915115159060ff61ff0084549251151560081b1692169061ffff191617179055845f5260058852855f2090815492680100000000000000008410156106995750509061063e91600182018155610c36565b819291549060031b9187831b921b1916179055335f5260068552825f20610666828254610d2e565b90558251908152837f2cd35794516e5a0f98ad83e98845ae3baaf635e482fdb64ea13d4636159d7842863393a451908152f35b604190634e487b7160e01b5f52525ffd5b50634e487b7160e01b5f90815260118352fd5b845162461bcd60e51b815290810187905260158187015274151bdad95b881d1c985b9cd9995c8819985a5b1959605a1b6044820152606490fd5b6107179150883d8a1161071d575b61070f8183610c8f565b810190610d16565b88610559565b503d610705565b86513d5f823e3d90fd5b835162461bcd60e51b81526020818801526018818701527f496e76616c696420626f72726f776572206164647265737300000000000000006044820152606490fd5b835162461bcd60e51b81526020818801526019818701527f43616e6e6f7420766f75636820666f7220796f757273656c66000000000000006044820152606490fd5b825162461bcd60e51b8152602081870152601c818601527f5374616b65206d7573742062652067726561746572207468616e2030000000006044820152606490fd5b82346100f7576020806003193601126100f757823591610812610d3b565b825f52838252805f20848101610100815460ff81161580610959575b61083790610cb1565b61ff00191617905560038101946001865492019060018060a01b0392838354165f526006865261086b855f20918254610cf5565b90556001546002548854865163a9059cbb60e01b81529186166001600160a01b0316848301908152602081019190915290918791839187169082905f90829060400103925af190811561094f575f91610932575b50156108f75750907fcb08b03c72d7cfe2bc8179ebb4ceeba9310ad4989f971f762a047056d26cfe9a939291541694549051908152a3005b835162461bcd60e51b8152908101859052601560248201527414db185cda081d1c985b9cd9995c8819985a5b1959605a1b6044820152606490fd5b6109499150863d881161071d5761070f8183610c8f565b886108bf565b85513d5f823e3d90fd5b50600881901c60ff161561082e565b82346100f7576020806003193601126100f757823591610986610d3b565b825f52838252805f208481016001815460ff81161580610ac8575b6109aa90610cb1565b60ff191617905560038101946001865492019060018060a01b0392838354165f52600686526109dd855f20918254610cf5565b905560015482548854865163a9059cbb60e01b81529186166001600160a01b0316848301908152602081019190915290918791839187169082905f90829060400103925af190811561094f575f91610aab575b5015610a685750907f5bea96a5fcae49ff813800783adf5c0ab61326ab3f8f08369f7bf9857e10435e939291541694549051908152a3005b835162461bcd60e51b8152908101859052601760248201527f52656c65617365207472616e73666572206661696c65640000000000000000006044820152606490fd5b610ac29150863d881161071d5761070f8183610c8f565b88610a30565b50600881901c60ff16156109a1565b82346100f7575f3660031901126100f7576020906003549051908152f35b82346100f757806003193601126100f757610b0e610c20565b6001600160a01b03165f908152600560205281902080546024359291908310156100f757602092610b3e91610c36565b91905490519160031b1c8152f35b8382346100f75760203660031901126100f7575f60a084610b6e60c096610c5f565b8281528260208201528285820152826060820152826080820152015280355f5280602052815f20825190610ba182610c5f565b80549384835260018060a01b038060018401541694602085019586528180600286015416918487019283526003860154956060880196875201549660ff60a06080890198828b1615158a52019860081c1615158852845198895251166020880152511690850152516060840152511515608083015251151560a0820152f35b600435906001600160a01b03821682036100f757565b8054821015610c4b575f5260205f2001905f90565b634e487b7160e01b5f52603260045260245ffd5b60c0810190811067ffffffffffffffff821117610c7b57604052565b634e487b7160e01b5f52604160045260245ffd5b90601f8019910116810190811067ffffffffffffffff821117610c7b57604052565b15610cb857565b60405162461bcd60e51b8152602060048201526015602482015274159bdd58da08185b1c9958591e481cd95d1d1b1959605a1b6044820152606490fd5b91908203918211610d0257565b634e487b7160e01b5f52601160045260245ffd5b908160209103126100f7575180151581036100f75790565b91908201809211610d0257565b5f546001600160a01b03163303610d4e57565b60405163118cdaa760e01b8152336004820152602490fdfea2646970667358221220adaa1c293e83262048a74247943303f9ba19bb30ed981bc83226db532783de6b64736f6c63430008190033","opcodes":"PUSH1 0x80 CALLVALUE PUSH2 0x16F JUMPI PUSH2 0xF38 SWAP1 PUSH1 0x1F CODESIZE DUP4 SWAP1 SUB SWAP1 DUP2 ADD PUSH1 0x1F NOT AND DUP3 ADD SWAP1 PUSH1 0x1 PUSH1 0x1 PUSH1 0x40 SHL SUB DUP3 GT DUP4 DUP4 LT OR PUSH2 0x173 JUMPI DUP1 DUP4 SWAP2 PUSH1 0x40 SWAP6 DUP7 SWAP5 DUP6 MSTORE DUP4 CODECOPY DUP2 ADD SUB SLT PUSH2 0x16F JUMPI PUSH2 0x55 PUSH1 0x20 PUSH2 0x4E DUP4 PUSH2 0x187 JUMP JUMPDEST SWAP3 ADD PUSH2 0x187 JUMP JUMPDEST SWAP1 CALLER ISZERO PUSH2 0x158 JUMPI PUSH0 SLOAD SWAP2 PUSH1 0x1 DUP1 PUSH1 0xA0 SHL SUB SWAP1 DUP2 PUSH1 0x1 DUP1 PUSH1 0xA0 SHL SUB NOT SWAP4 CALLER DUP6 DUP8 AND OR PUSH0 SSTORE DUP7 MLOAD SWAP6 DUP3 CALLER SWAP2 AND PUSH32 0x8BE0079C531659141344CD1FD0A4F28419497F9722A3DAAFE3B4186F6B6457E0 PUSH0 DUP1 LOG3 AND SWAP4 DUP5 ISZERO PUSH2 0x116 JUMPI POP AND SWAP2 DUP3 ISZERO PUSH2 0xD2 JUMPI DUP2 PUSH1 0x1 SLOAD AND OR PUSH1 0x1 SSTORE PUSH1 0x2 SLOAD AND OR PUSH1 0x2 SSTORE MLOAD PUSH2 0xD9C SWAP1 DUP2 PUSH2 0x19C DUP3 CODECOPY RETURN JUMPDEST DUP4 MLOAD PUSH3 0x461BCD PUSH1 0xE5 SHL DUP2 MSTORE PUSH1 0x20 PUSH1 0x4 DUP3 ADD MSTORE PUSH1 0x18 PUSH1 0x24 DUP3 ADD MSTORE PUSH32 0x496E76616C696420747265617375727920616464726573730000000000000000 PUSH1 0x44 DUP3 ADD MSTORE PUSH1 0x64 SWAP1 REVERT JUMPDEST PUSH3 0x461BCD PUSH1 0xE5 SHL DUP2 MSTORE PUSH1 0x20 PUSH1 0x4 DUP3 ADD MSTORE PUSH1 0x15 PUSH1 0x24 DUP3 ADD MSTORE PUSH32 0x496E76616C696420746F6B656E20616464726573730000000000000000000000 PUSH1 0x44 DUP3 ADD MSTORE PUSH1 0x64 SWAP1 REVERT JUMPDEST DUP3 MLOAD PUSH4 0x1E4FBDF7 PUSH1 0xE0 SHL DUP2 MSTORE PUSH0 PUSH1 0x4 DUP3 ADD MSTORE PUSH1 0x24 SWAP1 REVERT JUMPDEST PUSH0 DUP1 REVERT JUMPDEST PUSH4 0x4E487B71 PUSH1 0xE0 SHL PUSH0 MSTORE PUSH1 0x41 PUSH1 0x4 MSTORE PUSH1 0x24 PUSH0 REVERT JUMPDEST MLOAD SWAP1 PUSH1 0x1 PUSH1 0x1 PUSH1 0xA0 SHL SUB DUP3 AND DUP3 SUB PUSH2 0x16F JUMPI JUMP INVALID PUSH1 0x80 PUSH1 0x40 SWAP1 DUP1 DUP3 MSTORE PUSH1 0x4 DUP1 CALLDATASIZE LT ISZERO PUSH2 0x15 JUMPI PUSH0 DUP1 REVERT JUMPDEST PUSH0 CALLDATALOAD PUSH1 0xE0 SHR SWAP2 DUP3 PUSH4 0x3BB3C6FB EQ PUSH2 0xB4C JUMPI POP DUP2 PUSH4 0x3FDD5DA8 EQ PUSH2 0xAF5 JUMPI DUP2 PUSH4 0x3FEFF9D2 EQ PUSH2 0xAD7 JUMPI DUP2 PUSH4 0x45F54485 EQ PUSH2 0x968 JUMPI DUP2 PUSH4 0x58ECB030 EQ PUSH2 0x7F4 JUMPI DUP2 PUSH4 0x5BE0A663 EQ PUSH2 0x4DE JUMPI DUP2 PUSH4 0x61D027B3 EQ PUSH2 0x4B6 JUMPI DUP2 PUSH4 0x715018A6 EQ PUSH2 0x45F JUMPI DUP2 PUSH4 0x7DC6368A EQ PUSH2 0x37B JUMPI DUP2 PUSH4 0x878C6DAD EQ PUSH2 0x344 JUMPI DUP2 PUSH4 0x8DA5CB5B EQ PUSH2 0x31D JUMPI DUP2 PUSH4 0xA817C68A EQ PUSH2 0x2AE JUMPI DUP2 PUSH4 0xEF061410 EQ PUSH2 0x204 JUMPI DUP2 PUSH4 0xF0F44260 EQ PUSH2 0x188 JUMPI DUP2 PUSH4 0xF2FDE38B EQ PUSH2 0xFB JUMPI POP PUSH4 0xFC0C546A EQ PUSH2 0xD0 JUMPI PUSH0 DUP1 REVERT JUMPDEST CALLVALUE PUSH2 0xF7 JUMPI PUSH0 CALLDATASIZE PUSH1 0x3 NOT ADD SLT PUSH2 0xF7 JUMPI PUSH1 0x1 SLOAD SWAP1 MLOAD PUSH1 0x1 PUSH1 0x1 PUSH1 0xA0 SHL SUB SWAP1 SWAP2 AND DUP2 MSTORE PUSH1 0x20 SWAP1 RETURN JUMPDEST PUSH0 DUP1 REVERT JUMPDEST SWAP1 POP CALLVALUE PUSH2 0xF7 JUMPI PUSH1 0x20 CALLDATASIZE PUSH1 0x3 NOT ADD SLT PUSH2 0xF7 JUMPI PUSH2 0x116 PUSH2 0xC20 JUMP JUMPDEST SWAP1 PUSH2 0x11F PUSH2 0xD3B JUMP JUMPDEST PUSH1 0x1 PUSH1 0x1 PUSH1 0xA0 SHL SUB SWAP2 DUP3 AND SWAP3 DUP4 ISZERO PUSH2 0x172 JUMPI POP POP PUSH0 SLOAD DUP3 PUSH12 0xFFFFFFFFFFFFFFFFFFFFFFFF PUSH1 0xA0 SHL DUP3 AND OR PUSH0 SSTORE AND PUSH32 0x8BE0079C531659141344CD1FD0A4F28419497F9722A3DAAFE3B4186F6B6457E0 PUSH0 DUP1 LOG3 STOP JUMPDEST SWAP1 PUSH0 PUSH1 0x24 SWAP3 MLOAD SWAP2 PUSH4 0x1E4FBDF7 PUSH1 0xE0 SHL DUP4 MSTORE DUP3 ADD MSTORE REVERT JUMPDEST SWAP1 POP CALLVALUE PUSH2 0xF7 JUMPI PUSH1 0x20 CALLDATASIZE PUSH1 0x3 NOT ADD SLT PUSH2 0xF7 JUMPI PUSH2 0x1A3 PUSH2 0xC20 JUMP JUMPDEST PUSH2 0x1AB PUSH2 0xD3B JUMP JUMPDEST PUSH1 0x1 PUSH1 0x1 PUSH1 0xA0 SHL SUB AND SWAP2 DUP3 ISZERO PUSH2 0x1CF JUMPI PUSH1 0x2 DUP1 SLOAD PUSH1 0x1 PUSH1 0x1 PUSH1 0xA0 SHL SUB NOT AND DUP5 OR SWAP1 SSTORE STOP JUMPDEST SWAP1 PUSH1 0x20 PUSH1 0x64 SWAP3 MLOAD SWAP2 PUSH3 0x461BCD PUSH1 0xE5 SHL DUP4 MSTORE DUP3 ADD MSTORE PUSH1 0xF PUSH1 0x24 DUP3 ADD MSTORE PUSH15 0x496E76616C69642061646472657373 PUSH1 0x88 SHL PUSH1 0x44 DUP3 ADD MSTORE REVERT JUMPDEST DUP3 CALLVALUE PUSH2 0xF7 JUMPI PUSH1 0x20 DUP1 PUSH1 0x3 NOT CALLDATASIZE ADD SLT PUSH2 0xF7 JUMPI SWAP1 PUSH1 0x1 PUSH1 0x1 PUSH1 0xA0 SHL SUB PUSH2 0x228 PUSH2 0xC20 JUMP JUMPDEST AND PUSH0 MSTORE PUSH1 0x5 DUP3 MSTORE DUP1 PUSH0 KECCAK256 DUP2 MLOAD SWAP3 DUP4 DUP2 DUP4 SLOAD SWAP2 DUP3 DUP2 MSTORE ADD SWAP1 DUP2 SWAP4 PUSH0 MSTORE DUP3 PUSH0 KECCAK256 SWAP1 PUSH0 JUMPDEST DUP2 DUP2 LT PUSH2 0x29A JUMPI POP POP POP DUP5 PUSH2 0x25F SWAP2 SUB DUP6 PUSH2 0xC8F JUMP JUMPDEST DUP3 MLOAD DUP2 DUP2 MSTORE SWAP4 MLOAD DUP2 DUP6 ADD DUP2 SWAP1 MSTORE DUP5 SWAP4 DUP5 ADD SWAP3 SWAP2 PUSH0 JUMPDEST DUP3 DUP2 LT PUSH2 0x283 JUMPI POP POP POP POP SUB SWAP1 RETURN JUMPDEST DUP4 MLOAD DUP6 MSTORE DUP7 SWAP6 POP SWAP4 DUP2 ADD SWAP4 SWAP3 DUP2 ADD SWAP3 PUSH1 0x1 ADD PUSH2 0x274 JUMP JUMPDEST DUP3 SLOAD DUP5 MSTORE SWAP3 DUP5 ADD SWAP3 PUSH1 0x1 SWAP3 DUP4 ADD SWAP3 ADD PUSH2 0x249 JUMP JUMPDEST SWAP1 POP CALLVALUE PUSH2 0xF7 JUMPI PUSH1 0x20 CALLDATASIZE PUSH1 0x3 NOT ADD SLT PUSH2 0xF7 JUMPI PUSH1 0xFF PUSH1 0xC0 SWAP3 DUP3 CALLDATALOAD PUSH0 MSTORE DUP3 PUSH1 0x20 MSTORE DUP1 PUSH0 KECCAK256 DUP1 SLOAD SWAP4 PUSH1 0x1 DUP1 PUSH1 0xA0 SHL SUB SWAP3 DUP4 PUSH1 0x1 DUP5 ADD SLOAD AND SWAP4 PUSH1 0x2 DUP5 ADD SLOAD AND SWAP2 PUSH1 0x3 DUP5 ADD SLOAD SWAP4 ADD SLOAD SWAP4 DUP2 MLOAD SWAP7 DUP8 MSTORE PUSH1 0x20 DUP8 ADD MSTORE DUP6 ADD MSTORE PUSH1 0x60 DUP5 ADD MSTORE DUP2 DUP2 AND ISZERO ISZERO PUSH1 0x80 DUP5 ADD MSTORE PUSH1 0x8 SHR AND ISZERO ISZERO PUSH1 0xA0 DUP3 ADD MSTORE RETURN JUMPDEST DUP3 CALLVALUE PUSH2 0xF7 JUMPI PUSH0 CALLDATASIZE PUSH1 0x3 NOT ADD SLT PUSH2 0xF7 JUMPI PUSH0 SLOAD SWAP1 MLOAD PUSH1 0x1 PUSH1 0x1 PUSH1 0xA0 SHL SUB SWAP1 SWAP2 AND DUP2 MSTORE PUSH1 0x20 SWAP1 RETURN JUMPDEST DUP3 CALLVALUE PUSH2 0xF7 JUMPI PUSH1 0x20 CALLDATASIZE PUSH1 0x3 NOT ADD SLT PUSH2 0xF7 JUMPI PUSH1 0x20 SWAP1 PUSH1 0x1 PUSH1 0x1 PUSH1 0xA0 SHL SUB PUSH2 0x369 PUSH2 0xC20 JUMP JUMPDEST AND PUSH0 MSTORE PUSH1 0x6 DUP3 MSTORE DUP1 PUSH0 KECCAK256 SLOAD SWAP1 MLOAD SWAP1 DUP2 MSTORE RETURN JUMPDEST DUP3 CALLVALUE PUSH2 0xF7 JUMPI PUSH1 0x20 SWAP2 DUP3 PUSH1 0x3 NOT CALLDATASIZE ADD SLT PUSH2 0xF7 JUMPI PUSH2 0x397 PUSH2 0xC20 JUMP JUMPDEST PUSH1 0x1 PUSH1 0x1 PUSH1 0xA0 SHL SUB AND PUSH0 SWAP1 DUP2 MSTORE PUSH1 0x5 DUP1 DUP6 MSTORE DUP4 DUP3 KECCAK256 DUP5 MLOAD DUP2 SLOAD DUP1 DUP3 MSTORE SWAP2 DUP5 MSTORE DUP7 DUP5 KECCAK256 SWAP3 SWAP6 SWAP3 SWAP1 SWAP2 DUP3 SWAP1 DUP2 DUP10 ADD SWAP1 DUP7 JUMPDEST DUP11 DUP3 DUP3 LT PUSH2 0x449 JUMPI POP POP POP PUSH2 0x3DD SWAP3 POP SUB DUP3 PUSH2 0xC8F JUMP JUMPDEST PUSH0 JUMPDEST DUP2 MLOAD DUP2 LT ISZERO PUSH2 0x440 JUMPI DUP7 DUP2 DUP8 SHL DUP4 ADD ADD MLOAD PUSH0 MSTORE DUP5 DUP8 MSTORE DUP3 PUSH0 KECCAK256 DUP6 DUP2 ADD SLOAD PUSH1 0xFF DUP1 DUP3 AND ISZERO SWAP2 DUP3 PUSH2 0x432 JUMPI JUMPDEST POP POP PUSH2 0x419 JUMPI JUMPDEST POP PUSH1 0x1 ADD PUSH2 0x3DF JUMP JUMPDEST PUSH1 0x1 SWAP2 SWAP5 PUSH1 0x3 PUSH2 0x42B SWAP3 ADD SLOAD SWAP1 PUSH2 0xD2E JUMP JUMPDEST SWAP4 SWAP1 PUSH2 0x410 JUMP JUMPDEST PUSH1 0x8 SHR AND ISZERO SWAP1 POP DUP10 DUP1 PUSH2 0x409 JUMP JUMPDEST DUP7 DUP5 DUP5 MLOAD SWAP1 DUP2 MSTORE RETURN JUMPDEST DUP6 SLOAD DUP5 MSTORE PUSH1 0x1 SWAP6 DUP7 ADD SWAP6 DUP8 SWAP6 POP SWAP4 ADD SWAP3 ADD PUSH2 0x3C6 JUMP JUMPDEST CALLVALUE PUSH2 0xF7 JUMPI PUSH0 CALLDATASIZE PUSH1 0x3 NOT ADD SLT PUSH2 0xF7 JUMPI PUSH2 0x477 PUSH2 0xD3B JUMP JUMPDEST PUSH0 DUP1 SLOAD PUSH1 0x1 PUSH1 0x1 PUSH1 0xA0 SHL SUB NOT DUP2 AND DUP3 SSTORE PUSH1 0x1 PUSH1 0x1 PUSH1 0xA0 SHL SUB AND PUSH32 0x8BE0079C531659141344CD1FD0A4F28419497F9722A3DAAFE3B4186F6B6457E0 DUP3 DUP1 LOG3 STOP JUMPDEST DUP3 CALLVALUE PUSH2 0xF7 JUMPI PUSH0 CALLDATASIZE PUSH1 0x3 NOT ADD SLT PUSH2 0xF7 JUMPI PUSH1 0x2 SLOAD SWAP1 MLOAD PUSH1 0x1 PUSH1 0x1 PUSH1 0xA0 SHL SUB SWAP1 SWAP2 AND DUP2 MSTORE PUSH1 0x20 SWAP1 RETURN JUMPDEST DUP3 CALLVALUE PUSH2 0xF7 JUMPI DUP1 PUSH1 0x3 NOT CALLDATASIZE ADD SLT PUSH2 0xF7 JUMPI PUSH2 0x4F7 PUSH2 0xC20 JUMP JUMPDEST SWAP1 PUSH1 0x24 SWAP2 DUP3 CALLDATALOAD DUP1 ISZERO PUSH2 0x7B2 JUMPI PUSH1 0x1 PUSH1 0x1 PUSH1 0xA0 SHL SUB SWAP2 DUP3 AND SWAP2 CALLER DUP4 EQ PUSH2 0x770 JUMPI DUP3 ISZERO PUSH2 0x72E JUMPI PUSH0 SWAP6 DUP2 PUSH1 0x1 SLOAD AND DUP6 MLOAD SWAP1 PUSH4 0x23B872DD PUSH1 0xE0 SHL DUP3 MSTORE CALLER DUP4 DUP4 ADD MSTORE ADDRESS DUP9 DUP4 ADD MSTORE DUP5 PUSH1 0x44 DUP4 ADD MSTORE DUP2 PUSH1 0x64 DUP2 PUSH1 0x20 SWAP12 DUP13 SWAP5 GAS CALL SWAP1 DUP2 ISZERO PUSH2 0x724 JUMPI PUSH0 SWAP2 PUSH2 0x6F7 JUMPI JUMPDEST POP ISZERO PUSH2 0x6BD JUMPI PUSH1 0x3 SLOAD SWAP6 PUSH0 NOT SWAP3 DUP4 DUP9 EQ PUSH2 0x6AA JUMPI DUP8 DUP4 DUP11 SWAP3 PUSH1 0x1 DUP4 ADD PUSH1 0x3 SSTORE DUP10 MLOAD SWAP1 PUSH2 0x584 DUP3 PUSH2 0xC5F JUMP JUMPDEST DUP4 DUP3 MSTORE DUP5 DUP3 ADD CALLER DUP2 MSTORE DUP12 DUP4 ADD SWAP1 DUP12 DUP3 MSTORE PUSH1 0x60 DUP5 ADD SWAP3 DUP12 DUP5 MSTORE DUP6 PUSH1 0x80 DUP7 ADD SWAP9 PUSH0 DUP11 MSTORE PUSH1 0xA0 DUP8 ADD SWAP9 PUSH0 DUP11 MSTORE PUSH0 MSTORE MSTORE DUP14 PUSH0 KECCAK256 SWAP5 MLOAD DUP6 SSTORE DUP1 PUSH1 0x1 DUP7 ADD SWAP3 MLOAD AND SWAP2 PUSH12 0xFFFFFFFFFFFFFFFFFFFFFFFF PUSH1 0xA0 SHL SWAP3 DUP4 DUP3 SLOAD AND OR SWAP1 SSTORE PUSH1 0x2 DUP6 ADD SWAP3 MLOAD AND SWAP1 DUP3 SLOAD AND OR SWAP1 SSTORE MLOAD PUSH1 0x3 DUP3 ADD SSTORE ADD SWAP2 MLOAD ISZERO ISZERO SWAP1 PUSH1 0xFF PUSH2 0xFF00 DUP5 SLOAD SWAP3 MLOAD ISZERO ISZERO PUSH1 0x8 SHL AND SWAP3 AND SWAP1 PUSH2 0xFFFF NOT AND OR OR SWAP1 SSTORE DUP5 PUSH0 MSTORE PUSH1 0x5 DUP9 MSTORE DUP6 PUSH0 KECCAK256 SWAP1 DUP2 SLOAD SWAP3 PUSH9 0x10000000000000000 DUP5 LT ISZERO PUSH2 0x699 JUMPI POP POP SWAP1 PUSH2 0x63E SWAP2 PUSH1 0x1 DUP3 ADD DUP2 SSTORE PUSH2 0xC36 JUMP JUMPDEST DUP2 SWAP3 SWAP2 SLOAD SWAP1 PUSH1 0x3 SHL SWAP2 DUP8 DUP4 SHL SWAP3 SHL NOT AND OR SWAP1 SSTORE CALLER PUSH0 MSTORE PUSH1 0x6 DUP6 MSTORE DUP3 PUSH0 KECCAK256 PUSH2 0x666 DUP3 DUP3 SLOAD PUSH2 0xD2E JUMP JUMPDEST SWAP1 SSTORE DUP3 MLOAD SWAP1 DUP2 MSTORE DUP4 PUSH32 0x2CD35794516E5A0F98AD83E98845AE3BAAF635E482FDB64EA13D4636159D7842 DUP7 CALLER SWAP4 LOG4 MLOAD SWAP1 DUP2 MSTORE RETURN JUMPDEST PUSH1 0x41 SWAP1 PUSH4 0x4E487B71 PUSH1 0xE0 SHL PUSH0 MSTORE MSTORE PUSH0 REVERT JUMPDEST POP PUSH4 0x4E487B71 PUSH1 0xE0 SHL PUSH0 SWAP1 DUP2 MSTORE PUSH1 0x11 DUP4 MSTORE REVERT JUMPDEST DUP5 MLOAD PUSH3 0x461BCD PUSH1 0xE5 SHL DUP2 MSTORE SWAP1 DUP2 ADD DUP8 SWAP1 MSTORE PUSH1 0x15 DUP2 DUP8 ADD MSTORE PUSH21 0x151BDAD95B881D1C985B9CD9995C8819985A5B1959 PUSH1 0x5A SHL PUSH1 0x44 DUP3 ADD MSTORE PUSH1 0x64 SWAP1 REVERT JUMPDEST PUSH2 0x717 SWAP2 POP DUP9 RETURNDATASIZE DUP11 GT PUSH2 0x71D JUMPI JUMPDEST PUSH2 0x70F DUP2 DUP4 PUSH2 0xC8F JUMP JUMPDEST DUP2 ADD SWAP1 PUSH2 0xD16 JUMP JUMPDEST DUP9 PUSH2 0x559 JUMP JUMPDEST POP RETURNDATASIZE PUSH2 0x705 JUMP JUMPDEST DUP7 MLOAD RETURNDATASIZE PUSH0 DUP3 RETURNDATACOPY RETURNDATASIZE SWAP1 REVERT JUMPDEST DUP4 MLOAD PUSH3 0x461BCD PUSH1 0xE5 SHL DUP2 MSTORE PUSH1 0x20 DUP2 DUP9 ADD MSTORE PUSH1 0x18 DUP2 DUP8 ADD MSTORE PUSH32 0x496E76616C696420626F72726F77657220616464726573730000000000000000 PUSH1 0x44 DUP3 ADD MSTORE PUSH1 0x64 SWAP1 REVERT JUMPDEST DUP4 MLOAD PUSH3 0x461BCD PUSH1 0xE5 SHL DUP2 MSTORE PUSH1 0x20 DUP2 DUP9 ADD MSTORE PUSH1 0x19 DUP2 DUP8 ADD MSTORE PUSH32 0x43616E6E6F7420766F75636820666F7220796F757273656C6600000000000000 PUSH1 0x44 DUP3 ADD MSTORE PUSH1 0x64 SWAP1 REVERT JUMPDEST DUP3 MLOAD PUSH3 0x461BCD PUSH1 0xE5 SHL DUP2 MSTORE PUSH1 0x20 DUP2 DUP8 ADD MSTORE PUSH1 0x1C DUP2 DUP7 ADD MSTORE PUSH32 0x5374616B65206D7573742062652067726561746572207468616E203000000000 PUSH1 0x44 DUP3 ADD MSTORE PUSH1 0x64 SWAP1 REVERT JUMPDEST DUP3 CALLVALUE PUSH2 0xF7 JUMPI PUSH1 0x20 DUP1 PUSH1 0x3 NOT CALLDATASIZE ADD SLT PUSH2 0xF7 JUMPI DUP3 CALLDATALOAD SWAP2 PUSH2 0x812 PUSH2 0xD3B JUMP JUMPDEST DUP3 PUSH0 MSTORE DUP4 DUP3 MSTORE DUP1 PUSH0 KECCAK256 DUP5 DUP2 ADD PUSH2 0x100 DUP2 SLOAD PUSH1 0xFF DUP2 AND ISZERO DUP1 PUSH2 0x959 JUMPI JUMPDEST PUSH2 0x837 SWAP1 PUSH2 0xCB1 JUMP JUMPDEST PUSH2 0xFF00 NOT AND OR SWAP1 SSTORE PUSH1 0x3 DUP2 ADD SWAP5 PUSH1 0x1 DUP7 SLOAD SWAP3 ADD SWAP1 PUSH1 0x1 DUP1 PUSH1 0xA0 SHL SUB SWAP3 DUP4 DUP4 SLOAD AND PUSH0 MSTORE PUSH1 0x6 DUP7 MSTORE PUSH2 0x86B DUP6 PUSH0 KECCAK256 SWAP2 DUP3 SLOAD PUSH2 0xCF5 JUMP JUMPDEST SWAP1 SSTORE PUSH1 0x1 SLOAD PUSH1 0x2 SLOAD DUP9 SLOAD DUP7 MLOAD PUSH4 0xA9059CBB PUSH1 0xE0 SHL DUP2 MSTORE SWAP2 DUP7 AND PUSH1 0x1 PUSH1 0x1 PUSH1 0xA0 SHL SUB AND DUP5 DUP4 ADD SWAP1 DUP2 MSTORE PUSH1 0x20 DUP2 ADD SWAP2 SWAP1 SWAP2 MSTORE SWAP1 SWAP2 DUP8 SWAP2 DUP4 SWAP2 DUP8 AND SWAP1 DUP3 SWAP1 PUSH0 SWAP1 DUP3 SWAP1 PUSH1 0x40 ADD SUB SWAP3 GAS CALL SWAP1 DUP2 ISZERO PUSH2 0x94F JUMPI PUSH0 SWAP2 PUSH2 0x932 JUMPI JUMPDEST POP ISZERO PUSH2 0x8F7 JUMPI POP SWAP1 PUSH32 0xCB08B03C72D7CFE2BC8179EBB4CEEBA9310AD4989F971F762A047056D26CFE9A SWAP4 SWAP3 SWAP2 SLOAD AND SWAP5 SLOAD SWAP1 MLOAD SWAP1 DUP2 MSTORE LOG3 STOP JUMPDEST DUP4 MLOAD PUSH3 0x461BCD PUSH1 0xE5 SHL DUP2 MSTORE SWAP1 DUP2 ADD DUP6 SWAP1 MSTORE PUSH1 0x15 PUSH1 0x24 DUP3 ADD MSTORE PUSH21 0x14DB185CDA081D1C985B9CD9995C8819985A5B1959 PUSH1 0x5A SHL PUSH1 0x44 DUP3 ADD MSTORE PUSH1 0x64 SWAP1 REVERT JUMPDEST PUSH2 0x949 SWAP2 POP DUP7 RETURNDATASIZE DUP9 GT PUSH2 0x71D JUMPI PUSH2 0x70F DUP2 DUP4 PUSH2 0xC8F JUMP JUMPDEST DUP9 PUSH2 0x8BF JUMP JUMPDEST DUP6 MLOAD RETURNDATASIZE PUSH0 DUP3 RETURNDATACOPY RETURNDATASIZE SWAP1 REVERT JUMPDEST POP PUSH1 0x8 DUP2 SWAP1 SHR PUSH1 0xFF AND ISZERO PUSH2 0x82E JUMP JUMPDEST DUP3 CALLVALUE PUSH2 0xF7 JUMPI PUSH1 0x20 DUP1 PUSH1 0x3 NOT CALLDATASIZE ADD SLT PUSH2 0xF7 JUMPI DUP3 CALLDATALOAD SWAP2 PUSH2 0x986 PUSH2 0xD3B JUMP JUMPDEST DUP3 PUSH0 MSTORE DUP4 DUP3 MSTORE DUP1 PUSH0 KECCAK256 DUP5 DUP2 ADD PUSH1 0x1 DUP2 SLOAD PUSH1 0xFF DUP2 AND ISZERO DUP1 PUSH2 0xAC8 JUMPI JUMPDEST PUSH2 0x9AA SWAP1 PUSH2 0xCB1 JUMP JUMPDEST PUSH1 0xFF NOT AND OR SWAP1 SSTORE PUSH1 0x3 DUP2 ADD SWAP5 PUSH1 0x1 DUP7 SLOAD SWAP3 ADD SWAP1 PUSH1 0x1 DUP1 PUSH1 0xA0 SHL SUB SWAP3 DUP4 DUP4 SLOAD AND PUSH0 MSTORE PUSH1 0x6 DUP7 MSTORE PUSH2 0x9DD DUP6 PUSH0 KECCAK256 SWAP2 DUP3 SLOAD PUSH2 0xCF5 JUMP JUMPDEST SWAP1 SSTORE PUSH1 0x1 SLOAD DUP3 SLOAD DUP9 SLOAD DUP7 MLOAD PUSH4 0xA9059CBB PUSH1 0xE0 SHL DUP2 MSTORE SWAP2 DUP7 AND PUSH1 0x1 PUSH1 0x1 PUSH1 0xA0 SHL SUB AND DUP5 DUP4 ADD SWAP1 DUP2 MSTORE PUSH1 0x20 DUP2 ADD SWAP2 SWAP1 SWAP2 MSTORE SWAP1 SWAP2 DUP8 SWAP2 DUP4 SWAP2 DUP8 AND SWAP1 DUP3 SWAP1 PUSH0 SWAP1 DUP3 SWAP1 PUSH1 0x40 ADD SUB SWAP3 GAS CALL SWAP1 DUP2 ISZERO PUSH2 0x94F JUMPI PUSH0 SWAP2 PUSH2 0xAAB JUMPI JUMPDEST POP ISZERO PUSH2 0xA68 JUMPI POP SWAP1 PUSH32 0x5BEA96A5FCAE49FF813800783ADF5C0AB61326AB3F8F08369F7BF9857E10435E SWAP4 SWAP3 SWAP2 SLOAD AND SWAP5 SLOAD SWAP1 MLOAD SWAP1 DUP2 MSTORE LOG3 STOP JUMPDEST DUP4 MLOAD PUSH3 0x461BCD PUSH1 0xE5 SHL DUP2 MSTORE SWAP1 DUP2 ADD DUP6 SWAP1 MSTORE PUSH1 0x17 PUSH1 0x24 DUP3 ADD MSTORE PUSH32 0x52656C65617365207472616E73666572206661696C6564000000000000000000 PUSH1 0x44 DUP3 ADD MSTORE PUSH1 0x64 SWAP1 REVERT JUMPDEST PUSH2 0xAC2 SWAP2 POP DUP7 RETURNDATASIZE DUP9 GT PUSH2 0x71D JUMPI PUSH2 0x70F DUP2 DUP4 PUSH2 0xC8F JUMP JUMPDEST DUP9 PUSH2 0xA30 JUMP JUMPDEST POP PUSH1 0x8 DUP2 SWAP1 SHR PUSH1 0xFF AND ISZERO PUSH2 0x9A1 JUMP JUMPDEST DUP3 CALLVALUE PUSH2 0xF7 JUMPI PUSH0 CALLDATASIZE PUSH1 0x3 NOT ADD SLT PUSH2 0xF7 JUMPI PUSH1 0x20 SWAP1 PUSH1 0x3 SLOAD SWAP1 MLOAD SWAP1 DUP2 MSTORE RETURN JUMPDEST DUP3 CALLVALUE PUSH2 0xF7 JUMPI DUP1 PUSH1 0x3 NOT CALLDATASIZE ADD SLT PUSH2 0xF7 JUMPI PUSH2 0xB0E PUSH2 0xC20 JUMP JUMPDEST PUSH1 0x1 PUSH1 0x1 PUSH1 0xA0 SHL SUB AND PUSH0 SWAP1 DUP2 MSTORE PUSH1 0x5 PUSH1 0x20 MSTORE DUP2 SWAP1 KECCAK256 DUP1 SLOAD PUSH1 0x24 CALLDATALOAD SWAP3 SWAP2 SWAP1 DUP4 LT ISZERO PUSH2 0xF7 JUMPI PUSH1 0x20 SWAP3 PUSH2 0xB3E SWAP2 PUSH2 0xC36 JUMP JUMPDEST SWAP2 SWAP1 SLOAD SWAP1 MLOAD SWAP2 PUSH1 0x3 SHL SHR DUP2 MSTORE RETURN JUMPDEST DUP4 DUP3 CALLVALUE PUSH2 0xF7 JUMPI PUSH1 0x20 CALLDATASIZE PUSH1 0x3 NOT ADD SLT PUSH2 0xF7 JUMPI PUSH0 PUSH1 0xA0 DUP5 PUSH2 0xB6E PUSH1 0xC0 SWAP7 PUSH2 0xC5F JUMP JUMPDEST DUP3 DUP2 MSTORE DUP3 PUSH1 0x20 DUP3 ADD MSTORE DUP3 DUP6 DUP3 ADD MSTORE DUP3 PUSH1 0x60 DUP3 ADD MSTORE DUP3 PUSH1 0x80 DUP3 ADD MSTORE ADD MSTORE DUP1 CALLDATALOAD PUSH0 MSTORE DUP1 PUSH1 0x20 MSTORE DUP2 PUSH0 KECCAK256 DUP3 MLOAD SWAP1 PUSH2 0xBA1 DUP3 PUSH2 0xC5F JUMP JUMPDEST DUP1 SLOAD SWAP4 DUP5 DUP4 MSTORE PUSH1 0x1 DUP1 PUSH1 0xA0 SHL SUB DUP1 PUSH1 0x1 DUP5 ADD SLOAD AND SWAP5 PUSH1 0x20 DUP6 ADD SWAP6 DUP7 MSTORE DUP2 DUP1 PUSH1 0x2 DUP7 ADD SLOAD AND SWAP2 DUP5 DUP8 ADD SWAP3 DUP4 MSTORE PUSH1 0x3 DUP7 ADD SLOAD SWAP6 PUSH1 0x60 DUP9 ADD SWAP7 DUP8 MSTORE ADD SLOAD SWAP7 PUSH1 0xFF PUSH1 0xA0 PUSH1 0x80 DUP10 ADD SWAP9 DUP3 DUP12 AND ISZERO ISZERO DUP11 MSTORE ADD SWAP9 PUSH1 0x8 SHR AND ISZERO ISZERO DUP9 MSTORE DUP5 MLOAD SWAP9 DUP10 MSTORE MLOAD AND PUSH1 0x20 DUP9 ADD MSTORE MLOAD AND SWAP1 DUP6 ADD MSTORE MLOAD PUSH1 0x60 DUP5 ADD MSTORE MLOAD ISZERO ISZERO PUSH1 0x80 DUP4 ADD MSTORE MLOAD ISZERO ISZERO PUSH1 0xA0 DUP3 ADD MSTORE RETURN JUMPDEST PUSH1 0x4 CALLDATALOAD SWAP1 PUSH1 0x1 PUSH1 0x1 PUSH1 0xA0 SHL SUB DUP3 AND DUP3 SUB PUSH2 0xF7 JUMPI JUMP JUMPDEST DUP1 SLOAD DUP3 LT ISZERO PUSH2 0xC4B JUMPI PUSH0 MSTORE PUSH1 0x20 PUSH0 KECCAK256 ADD SWAP1 PUSH0 SWAP1 JUMP JUMPDEST PUSH4 0x4E487B71 PUSH1 0xE0 SHL PUSH0 MSTORE PUSH1 0x32 PUSH1 0x4 MSTORE PUSH1 0x24 PUSH0 REVERT JUMPDEST PUSH1 0xC0 DUP2 ADD SWAP1 DUP2 LT PUSH8 0xFFFFFFFFFFFFFFFF DUP3 GT OR PUSH2 0xC7B JUMPI PUSH1 0x40 MSTORE JUMP JUMPDEST PUSH4 0x4E487B71 PUSH1 0xE0 SHL PUSH0 MSTORE PUSH1 0x41 PUSH1 0x4 MSTORE PUSH1 0x24 PUSH0 REVERT JUMPDEST SWAP1 PUSH1 0x1F DUP1 NOT SWAP2 ADD AND DUP2 ADD SWAP1 DUP2 LT PUSH8 0xFFFFFFFFFFFFFFFF DUP3 GT OR PUSH2 0xC7B JUMPI PUSH1 0x40 MSTORE JUMP JUMPDEST ISZERO PUSH2 0xCB8 JUMPI JUMP JUMPDEST PUSH1 0x40 MLOAD PUSH3 0x461BCD PUSH1 0xE5 SHL DUP2 MSTORE PUSH1 0x20 PUSH1 0x4 DUP3 ADD MSTORE PUSH1 0x15 PUSH1 0x24 DUP3 ADD MSTORE PUSH21 0x159BDD58DA08185B1C9958591E481CD95D1D1B1959 PUSH1 0x5A SHL PUSH1 0x44 DUP3 ADD MSTORE PUSH1 0x64 SWAP1 REVERT JUMPDEST SWAP2 SWAP1 DUP3 SUB SWAP2 DUP3 GT PUSH2 0xD02 JUMPI JUMP JUMPDEST PUSH4 0x4E487B71 PUSH1 0xE0 SHL PUSH0 MSTORE PUSH1 0x11 PUSH1 0x4 MSTORE PUSH1 0x24 PUSH0 REVERT JUMPDEST SWAP1 DUP2 PUSH1 0x20 SWAP2 SUB SLT PUSH2 0xF7 JUMPI MLOAD DUP1 ISZERO ISZERO DUP2 SUB PUSH2 0xF7 JUMPI SWAP1 JUMP JUMPDEST SWAP2 SWAP1 DUP3 ADD DUP1 SWAP3 GT PUSH2 0xD02 JUMPI JUMP JUMPDEST PUSH0 SLOAD PUSH1 0x1 PUSH1 0x1 PUSH1 0xA0 SHL SUB AND CALLER SUB PUSH2 0xD4E JUMPI JUMP JUMPDEST PUSH1 0x40 MLOAD PUSH4 0x118CDAA7 PUSH1 0xE0 SHL DUP2 MSTORE CALLER PUSH1 0x4 DUP3 ADD MSTORE PUSH1 0x24 SWAP1 REVERT INVALID LOG2 PUSH5 0x6970667358 0x22 SLT KECCAK256 0xAD 0xAA SHR 0x29 RETURNDATACOPY DUP4 0x26 KECCAK256 BASEFEE 0xA7 TIMESTAMP SELFBALANCE SWAP5 CALLER SUB 0xF9 0xBA NOT 0xBB ADDRESS 0xED SWAP9 SHL 0xC8 ORIGIN 0x26 0xDB MSTORE8 0x27 DUP4 0xDE PUSH12 0x64736F6C6343000819003300 "},"methodIdentifiers":{"borrowerVouches(address,uint256)":"3fdd5da8","getBorrowerVouches(address)":"ef061410","getTotalActiveStake(address)":"7dc6368a","getVouch(uint256)":"3bb3c6fb","nextVouchId()":"3feff9d2","owner()":"8da5cb5b","releaseStake(uint256)":"45f54485","renounceOwnership()":"715018a6","setTreasury(address)":"f0f44260","slashStake(uint256)":"58ecb030","stakeForBorrower(address,uint256)":"5be0a663","token()":"fc0c546a","totalStakedBy(address)":"878c6dad","transferOwnership(address)":"f2fde38b","treasury()":"61d027b3","vouches(uint256)":"a817c68a"}}}}}