{"contracts/ReputationNFT.sol":{"ReputationNFT":{"abi":[{"inputs":[{"internalType":"address","name":"_lendingPool","type":"address"}],"stateMutability":"nonpayable","type":"constructor"},{"inputs":[{"internalType":"address","name":"sender","type":"address"},{"internalType":"uint256","name":"tokenId","type":"uint256"},{"internalType":"address","name":"owner","type":"address"}],"name":"ERC721IncorrectOwner","type":"error"},{"inputs":[{"internalType":"address","name":"operator","type":"address"},{"internalType":"uint256","name":"tokenId","type":"uint256"}],"name":"ERC721InsufficientApproval","type":"error"},{"inputs":[{"internalType":"address","name":"approver","type":"address"}],"name":"ERC721InvalidApprover","type":"error"},{"inputs":[{"internalType":"address","name":"operator","type":"address"}],"name":"ERC721InvalidOperator","type":"error"},{"inputs":[{"internalType":"address","name":"owner","type":"address"}],"name":"ERC721InvalidOwner","type":"error"},{"inputs":[{"internalType":"address","name":"receiver","type":"address"}],"name":"ERC721InvalidReceiver","type":"error"},{"inputs":[{"internalType":"address","name":"sender","type":"address"}],"name":"ERC721InvalidSender","type":"error"},{"inputs":[{"internalType":"uint256","name":"tokenId","type":"uint256"}],"name":"ERC721NonexistentToken","type":"error"},{"inputs":[{"internalType":"address","name":"owner","type":"address"}],"name":"OwnableInvalidOwner","type":"error"},{"inputs":[{"internalType":"address","name":"account","type":"address"}],"name":"OwnableUnauthorizedAccount","type":"error"},{"anonymous":false,"inputs":[{"indexed":true,"internalType":"address","name":"owner","type":"address"},{"indexed":true,"internalType":"address","name":"approved","type":"address"},{"indexed":true,"internalType":"uint256","name":"tokenId","type":"uint256"}],"name":"Approval","type":"event"},{"anonymous":false,"inputs":[{"indexed":true,"internalType":"address","name":"owner","type":"address"},{"indexed":true,"internalType":"address","name":"operator","type":"address"},{"indexed":false,"internalType":"bool","name":"approved","type":"bool"}],"name":"ApprovalForAll","type":"event"},{"anonymous":false,"inputs":[{"indexed":true,"internalType":"address","name":"oldPool","type":"address"},{"indexed":true,"internalType":"address","name":"newPool","type":"address"}],"name":"LendingPoolUpdated","type":"event"},{"anonymous":false,"inputs":[{"indexed":true,"internalType":"address","name":"previousOwner","type":"address"},{"indexed":true,"internalType":"address","name":"newOwner","type":"address"}],"name":"OwnershipTransferred","type":"event"},{"anonymous":false,"inputs":[{"indexed":true,"internalType":"address","name":"wallet","type":"address"},{"indexed":true,"internalType":"uint256","name":"tokenId","type":"uint256"},{"indexed":false,"internalType":"uint256","name":"timestamp","type":"uint256"}],"name":"ReputationNFTMinted","type":"event"},{"anonymous":false,"inputs":[{"indexed":true,"internalType":"address","name":"wallet","type":"address"},{"indexed":false,"internalType":"uint8","name":"oldScore","type":"uint8"},{"indexed":false,"internalType":"uint8","name":"newScore","type":"uint8"},{"indexed":false,"internalType":"string","name":"newTier","type":"string"},{"indexed":false,"internalType":"uint8","name":"newStreak","type":"uint8"}],"name":"ReputationUpdated","type":"event"},{"anonymous":false,"inputs":[{"indexed":true,"internalType":"address","name":"from","type":"address"},{"indexed":true,"internalType":"address","name":"to","type":"address"},{"indexed":true,"internalType":"uint256","name":"tokenId","type":"uint256"}],"name":"Transfer","type":"event"},{"inputs":[{"internalType":"address","name":"","type":"address"},{"internalType":"uint256","name":"","type":"uint256"}],"name":"approve","outputs":[],"stateMutability":"pure","type":"function"},{"inputs":[{"internalType":"address","name":"owner","type":"address"}],"name":"balanceOf","outputs":[{"internalType":"uint256","name":"","type":"uint256"}],"stateMutability":"view","type":"function"},{"inputs":[{"internalType":"uint256","name":"tokenId","type":"uint256"}],"name":"getApproved","outputs":[{"internalType":"address","name":"","type":"address"}],"stateMutability":"view","type":"function"},{"inputs":[{"internalType":"address","name":"wallet","type":"address"}],"name":"getReputation","outputs":[{"components":[{"internalType":"uint8","name":"trustScore","type":"uint8"},{"internalType":"string","name":"tier","type":"string"},{"internalType":"uint256","name":"loansRepaid","type":"uint256"},{"internalType":"uint256","name":"totalBorrowed","type":"uint256"},{"internalType":"uint256","name":"totalRepaid","type":"uint256"},{"internalType":"uint256","name":"memberSince","type":"uint256"},{"internalType":"uint8","name":"repaymentStreak","type":"uint8"},{"internalType":"string","name":"earningArchetype","type":"string"}],"internalType":"struct ReputationNFT.ReputationData","name":"","type":"tuple"}],"stateMutability":"view","type":"function"},{"inputs":[{"internalType":"address","name":"wallet","type":"address"}],"name":"getTier","outputs":[{"internalType":"string","name":"","type":"string"}],"stateMutability":"view","type":"function"},{"inputs":[{"internalType":"address","name":"wallet","type":"address"}],"name":"hasNFT","outputs":[{"internalType":"bool","name":"","type":"bool"}],"stateMutability":"view","type":"function"},{"inputs":[{"internalType":"address","name":"owner","type":"address"},{"internalType":"address","name":"operator","type":"address"}],"name":"isApprovedForAll","outputs":[{"internalType":"bool","name":"","type":"bool"}],"stateMutability":"view","type":"function"},{"inputs":[],"name":"lendingPoolAddress","outputs":[{"internalType":"address","name":"","type":"address"}],"stateMutability":"view","type":"function"},{"inputs":[{"internalType":"address","name":"to","type":"address"}],"name":"mintReputationNFT","outputs":[],"stateMutability":"nonpayable","type":"function"},{"inputs":[],"name":"name","outputs":[{"internalType":"string","name":"","type":"string"}],"stateMutability":"view","type":"function"},{"inputs":[],"name":"owner","outputs":[{"internalType":"address","name":"","type":"address"}],"stateMutability":"view","type":"function"},{"inputs":[{"internalType":"uint256","name":"tokenId","type":"uint256"}],"name":"ownerOf","outputs":[{"internalType":"address","name":"","type":"address"}],"stateMutability":"view","type":"function"},{"inputs":[],"name":"renounceOwnership","outputs":[],"stateMutability":"nonpayable","type":"function"},{"inputs":[{"internalType":"address","name":"from","type":"address"},{"internalType":"address","name":"to","type":"address"},{"internalType":"uint256","name":"tokenId","type":"uint256"}],"name":"safeTransferFrom","outputs":[],"stateMutability":"nonpayable","type":"function"},{"inputs":[{"internalType":"address","name":"","type":"address"},{"internalType":"address","name":"","type":"address"},{"internalType":"uint256","name":"","type":"uint256"},{"internalType":"bytes","name":"","type":"bytes"}],"name":"safeTransferFrom","outputs":[],"stateMutability":"pure","type":"function"},{"inputs":[{"internalType":"address","name":"","type":"address"},{"internalType":"bool","name":"","type":"bool"}],"name":"setApprovalForAll","outputs":[],"stateMutability":"pure","type":"function"},{"inputs":[{"internalType":"address","name":"newPool","type":"address"}],"name":"setLendingPool","outputs":[],"stateMutability":"nonpayable","type":"function"},{"inputs":[{"internalType":"bytes4","name":"interfaceId","type":"bytes4"}],"name":"supportsInterface","outputs":[{"internalType":"bool","name":"","type":"bool"}],"stateMutability":"view","type":"function"},{"inputs":[],"name":"symbol","outputs":[{"internalType":"string","name":"","type":"string"}],"stateMutability":"view","type":"function"},{"inputs":[{"internalType":"address","name":"wallet","type":"address"}],"name":"tokenIdOf","outputs":[{"internalType":"uint256","name":"","type":"uint256"}],"stateMutability":"view","type":"function"},{"inputs":[{"internalType":"uint256","name":"tokenId","type":"uint256"}],"name":"tokenURI","outputs":[{"internalType":"string","name":"","type":"string"}],"stateMutability":"view","type":"function"},{"inputs":[{"internalType":"address","name":"","type":"address"},{"internalType":"address","name":"","type":"address"},{"internalType":"uint256","name":"","type":"uint256"}],"name":"transferFrom","outputs":[],"stateMutability":"pure","type":"function"},{"inputs":[{"internalType":"address","name":"newOwner","type":"address"}],"name":"transferOwnership","outputs":[],"stateMutability":"nonpayable","type":"function"},{"inputs":[{"internalType":"address","name":"wallet","type":"address"},{"internalType":"uint8","name":"newScore","type":"uint8"},{"internalType":"uint256","name":"loanAmount","type":"uint256"},{"internalType":"bool","name":"repaidOnTime","type":"bool"}],"name":"updateReputation","outputs":[],"stateMutability":"nonpayable","type":"function"}],"evm":{"bytecode":{"linkReferences":{},"object":"60803461039a57601f906001600160401b03601f196135d138819003858101831685018481118682101761039e5785928291604052833960209485918101031261039a57516001600160a01b0394858216939184900361039a576100616103b2565b94601486527f54727573744c656e642052657075746174696f6e000000000000000000000000818701526100936103b2565b90600494858352630545245560e41b828401528751858111610387575f54986001998a81811c9116801561037d575b8582101461036a5790818784931161031c575b5084908783116001146102c1575f926102b6575b50505f19600383901b1c191690891b175f555b82519485116102a35787548881811c91168015610299575b8382101461028657908185879695949311610232575b50819385116001146101d35750505f926101c8575b50505f19600383901b1c191690841b1783555b33156101b1575060068054336001600160a01b03198083168217909355604051959091167f8be0079c531659141344cd1fd0a4f28419497f9722a3daafe3b4186f6b6457e05f80a360075416176007556008556131ff90816103d28239f35b6024905f60405191631e4fbdf760e01b8352820152fd5b015190505f8061013f565b88959392919316855f52835f20935f905b8282106102195750508411610201575b505050811b018355610152565b01515f1960f88460031b161c191690555f80806101f4565b8484015186558a979095019493840193908101906101e4565b909192939450885f52825f208580880160051c82019285891061027d575b9188978c9297969594930160051c01915b82811061026f57505061012a565b5f81558897508b9101610261565b92508192610250565b602287634e487b7160e01b5f525260245ffd5b90607f1690610114565b604186634e487b7160e01b5f525260245ffd5b015190505f806100e9565b90848c9416915f8052865f20925f5b8882821061030657505084116102ee575b505050811b015f556100fc565b01515f1960f88460031b161c191690555f80806102e1565b8385015186558f979095019493840193016102d0565b9091505f8052845f208780850160051c820192878610610361575b918d91869594930160051c01915b8281106103535750506100d5565b5f81558594508d9101610345565b92508192610337565b602289634e487b7160e01b5f525260245ffd5b90607f16906100c2565b604187634e487b7160e01b5f525260245ffd5b5f80fd5b634e487b7160e01b5f52604160045260245ffd5b60408051919082016001600160401b0381118382101761039e5760405256fe6080806040526004361015610012575f80fd5b5f3560e01c90816301ffc9a7146128b85750806306fdde0314612811578063081812fc146127d5578063095ea7b3146127b6578063113aa8b11461274257806323b872dd1461272c57806336eab1bd146122b757806342842e0e146122935780636352211e1461226357806370a082311461220d578063715018a6146121b2578063773c02d41461217a578063785f8ee3146121405780638da5cb5b1461211857806395d89b411461203a5780639c89a0e214611ee4578063a22cb46514611ebb578063b45aae5214611e55578063b88d4fde14611dd4578063c87b56dd14610918578063d3ae26b3146108f0578063e985e9c51461089e578063ea62781d146101af5763f2fde38b14610124575f80fd5b346101ab5760203660031901126101ab5761013d612947565b610145612c92565b6001600160a01b0390811690811561019357600654826001600160601b0360a01b821617600655167f8be0079c531659141344cd1fd0a4f28419497f9722a3daafe3b4186f6b6457e05f80a3005b604051631e4fbdf760e01b81525f6004820152602490fd5b5f80fd5b346101ab5760203660031901126101ab576101c8612947565b6007546001600160a01b0391906101e29083163314612b61565b818116159182159261084d578082165f52600960205260405f20546107fa57600854925f1984146107e6576001840160085560405190610221826129e1565b5f8252845f5260026020528260405f2054161515806107df575b61078457845f5260026020528260405f205416908115159081610753575b610739575b855f52600260205260405f208486166001600160601b0360a01b8254161790558560405192858716907fddf252ad1be2c89b69c2b068fc378daa952ba7f163c4a11628f55a4df523b3ef5f80a46107245750823b6105fe575b508082165f5260096020528260405f20556040516102d4816129a8565b601e81526102e0612c37565b602082019081525f60408301525f60608301525f60808301524260a08301525f60c083015261030d612c09565b60e0830152845f52600a60205260405f209060ff83511660ff198354161782555180519067ffffffffffffffff821161052a5761034d6001840154612a3b565b601f81116105ba575b50602090601f831160011461054957918060e094926007945f9261053e575b50508160011b915f199060031b1c19161760018201555b60408401516002820155606084015160038201556080840151600482015560a084015160058201556006810160ff60c08601511660ff198254161790550191015180519067ffffffffffffffff821161052a576103e98354612a3b565b601f81116104e5575b50602090601f831160011461045c579180602094927ff58aa36ab68485f12c69fbe7d41735a10bf107ec77d8e1b5ccaf244e9a08086896945f92610451575b50508160011b915f199060031b1c19161790555b604051934285521692a3005b015190508880610431565b90601f19831691845f5260205f20925f5b8181106104cd57509260019285927ff58aa36ab68485f12c69fbe7d41735a10bf107ec77d8e1b5ccaf244e9a080868989660209896106104b5575b505050811b019055610445565b01515f1960f88460031b161c191690558880806104a8565b9293602060018192878601518155019501930161046d565b835f5260205f20601f840160051c81019160208510610520575b601f0160051c01905b81811061051557506103f2565b5f8155600101610508565b90915081906104ff565b634e487b7160e01b5f52604160045260245ffd5b015190508980610375565b90600184015f5260205f20915f5b601f19851681106105a257509260e0949260019260079583601f1981161061058a575b505050811b01600182015561038c565b01515f1960f88460031b161c1916905589808061057a565b91926020600181928685015181550194019201610557565b600184015f5260205f20601f840160051c8101602085106105f7575b601f830160051c820181106105ec575050610356565b5f81556001016105d6565b50806105d6565b6040939193516020818061063a630a85bd0160e11b958683523360048401525f6024840152876044840152608060648401526084830190612923565b03815f8989165af15f91816106df575b506106ad575050503d5f146106a5573d9161066483612a1f565b9261067260405194856129fd565b83523d5f602085013e5b8251928361069e57604051633250574960e11b81528284166004820152602490fd5b6020849101fd5b60609161067c565b9193916001600160e01b031916036106c557836102b7565b604051633250574960e11b81529116600482015260249150fd5b9091506020813d60201161071c575b816106fb602093836129fd565b810103126101ab57516001600160e01b0319811681036101ab57908661064a565b3d91506106ee565b6339e3563760e11b81525f6004820152602490fd5b8385165f52600360205260405f206001815401905561025e565b600460205260405f206001600160601b0360a01b8154169055825f52600360205260405f205f198154019055610259565b60405162461bcd60e51b815260206004820152602d60248201527f52657075746174696f6e4e46543a20536f756c626f756e6420e28094206e6f6e60448201526c2d7472616e7366657261626c6560981b6064820152608490fd5b508061023b565b634e487b7160e01b5f52601160045260245ffd5b60405162461bcd60e51b815260206004820152602560248201527f52657075746174696f6e4e46543a2077616c6c657420616c72656164792068616044820152641cc813919560da1b6064820152608490fd5b60405162461bcd60e51b815260206004820152602360248201527f52657075746174696f6e4e46543a206d696e7420746f207a65726f206164647260448201526265737360e81b6064820152608490fd5b346101ab5760403660031901126101ab576108b7612947565b6108bf61295d565b9060018060a01b038091165f52600560205260405f2091165f52602052602060ff60405f2054166040519015158152f35b346101ab575f3660031901126101ab576007546040516001600160a01b039091168152602090f35b346101ab5760203660031901126101ab57610934600435612c58565b506004355f52600a60205260405f2060405190610950826129a8565b805460ff16825261096360018201612a73565b6020830152600281015460408301526003810154606083015260048101546080830152600581015460a0830152600681015460ff1660c08301526007016109a990612a73565b60e0820152805160ff166109bc90612d97565b60c082015160ff166109cd90612d97565b9060208301516109dc90612efe565b60208401516109ea90612fd2565b9260408501516109f990612d97565b9060e0860151610a0890612fd2565b604080517f3c73766720786d6c6e733d22687474703a2f2f7777772e77332e6f72672f32306020808301919091527f30302f737667222076696577426f783d22302030203430302035363022207769928201929092527f6474683d2234303022206865696768743d22353630223e0000000000000000006060820152651e3232b3399f60d11b60778201527f3c72616469616c4772616469656e742069643d226267222063783d2235302522607d820152711031bc9e911a18129110391e911b9812911f60711b609d8201527f3c73746f70206f66667365743d223025222073746f702d636f6c6f723d22233160af820152673098b0993291179f60c11b60cf8201527f3c73746f70206f66667365743d2231303025222073746f702d636f6c6f723d2260d7820152691198309830989911179f60b11b60f7820152701e17b930b234b0b623b930b234b2b73a1f60791b6101018201527f3c72616469616c4772616469656e742069643d22676c6f77222063783d2235306101128201527312911031bc9e911a98129110391e911a9812911f60611b6101328201527f3c73746f70206f66667365743d223025222073746f702d636f6c6f723d2200006101468201528551909788979395939092909190819088016101648a015e808801610164017f222073746f702d6f7061636974793d22302e3335222f3e000000000000000000905280880161017b017f3c73746f70206f66667365743d2231303025222073746f702d636f6c6f723d22905261019b908751908160208a0184838d01015e73111039ba37b816b7b830b1b4ba3c9e911811179f60611b908a019190910191820152701e17b930b234b0b623b930b234b2b73a1f60791b6101af820152711e3334b63a32b91034b21e9131363ab9111f60711b6101c08201527f3c6665476175737369616e426c757220737464446576696174696f6e3d2231386101d28201526211179f60e91b6101f28201819052681e17b334b63a32b91f60b91b6101f58301527f3c6c696e6561724772616469656e742069643d2272696e6747726164222078316101fe8301527f3d223025222079313d223025222078323d2231303025222079323d223130302561021e83015261111f60f11b61023e8301527f3c73746f70206f66667365743d223025222073746f702d636f6c6f723d220000610240830152875161025e928160208b018583015e01918201527f3c73746f70206f66667365743d2231303025222073746f702d636f6c6f723d226102618201527f23666666666666222073746f702d6f7061636974793d22302e34222f3e000000610281820152701e17b634b732b0b923b930b234b2b73a1f60791b61029e820152661e17b232b3399f60c91b6102af8201527f3c726563742077696474683d2234303022206865696768743d223536302220726102b68201527f783d223234222066696c6c3d2275726c2823626729222f3e00000000000000006102d68201527f3c636972636c652063783d22323030222063793d223231302220723d223133306102ee8201527f222066696c6c3d2275726c2823676c6f7729222066696c7465723d2275726c2861030e8201526811b1363ab91491179f60b91b61032e8201527f3c636972636c652063783d22323030222063793d223231302220723d223131306103378201527f222066696c6c3d226e6f6e6522207374726f6b653d2275726c282372696e67476103578201527f7261642922207374726f6b652d77696474683d223322206f7061636974793d226103778201526518171b11179f60d11b6103978201527f3c636972636c652063783d22323030222063793d223231302220723d2239352261039d8201527f202066696c6c3d222330663066316122207374726f6b653d22000000000000006103bd82015286516103d6918160208a018483015e7f22207374726f6b652d77696474683d22312e3522206f7061636974793d22302e910191820152631991179f60e11b6103f6820152741e3a32bc3a103c1e9119181811103c9e9119199c1160591b6103fa8201527f2020666f6e742d66616d696c793d2227417269616c20426c61636b272c20736161040f82015268373996b9b2b934b31160b91b61042f8201527f2020666f6e742d73697a653d2238302220666f6e742d7765696768743d223930610438820190815261181160f11b6104588301526710103334b6361e9160c11b61045a830152875191829060208a0190610462015e601160f91b828201602a8101919091527510103a32bc3a16b0b731b437b91e9136b4b23236329160511b602b8201527f2020646f6d696e616e742d626173656c696e653d226d6964646c65223e00000060418201528351938491602090910190605e015e661e17ba32bc3a1f60c91b605e9190920190920191820152741e3a32bc3a103c1e9119181811103c9e91191b9c1160591b606582015261111690607a01612d64565b7f2020666f6e742d73697a653d223134222066696c6c3d2200000000000000000081528551908160208801601783015e6f111037b830b1b4ba3c9e9118171a9a9160811b601792909101918201527f2020746578742d616e63686f723d226d6964646c65223e2f203130303c2f74656027820152623c3a1f60e91b60478201527f3c7265637420783d223133302220793d22333335222077696474683d22313430604a8201527411103432b4b3b43a1e91199c1110393c1e91189c9160591b606a8201527510103334b6361e913737b732911039ba3937b5b29e9160511b607f8201528551908160208801609583015e7f22207374726f6b652d77696474683d22312e3522206f7061636974793d22302e60959290910191820152631b91179f60e11b60b5820152741e3a32bc3a103c1e9119181811103c9e91199a9c9160591b60b98201526112689060ce01612d64565b7f2020666f6e742d73697a653d2231382220666f6e742d7765696768743d223730815261181160f11b60208201526710103334b6361e9160c11b60228201528551908160208801602a83015e601160f91b602a92909101918201527510103a32bc3a16b0b731b437b91e9136b4b23236329160511b602b8201527410103632ba3a32b916b9b830b1b4b7339e9119911f60591b60418201528151918290602001605683015e0160568101661e17ba32bc3a1f60c91b9052741e3a32bc3a103c1e9119181811103c9e911a189a9160591b605d82015260720161134990612d64565b7f2020666f6e742d73697a653d223132222066696c6c3d222338383822207465788152713a16b0b731b437b91e9136b4b2323632911f60711b60208201527f4c4f414e53205245504149442026616d703b2053545245414b000000000000006032820152661e17ba32bc3a1f60c91b604b820152741e3a32bc3a103c1e9118999811103c9e911a1a181160591b60528201526113e790606701612d64565b7f2020666f6e742d73697a653d2232322220666f6e742d7765696768743d223730815261181160f11b60208201526022017f202066696c6c3d22236666666666662220746578742d616e63686f723d226d6981526532323632911f60d11b602082015281516020819301602683015e0160268101661e17ba32bc3a1f60c91b9052741e3a32bc3a103c1e91191b9811103c9e911a1a181160591b602d82015260420161149290612d64565b7f2020666f6e742d73697a653d2232322220666f6e742d7765696768743d223730815261181160f11b60208201526022016710103334b6361e9160c11b81528351908160208601600883015e01600881017f2220746578742d616e63686f723d226d6964646c65223e000000000000000000905281516020819301601f83015e600f60fb1b601f9290910191820152661e17ba32bc3a1f60c91b60208201527f3c7465787420783d223133302220793d223435382220666f6e742d66616d696c60278201527f793d22417269616c2c73616e732d73657269662220666f6e742d73697a653d22604782018190527f3130222066696c6c3d22233535352220746578742d616e63686f723d226d69646067830181905270323632911f3637b0b7399e17ba32bc3a1f60791b60878401527f3c7465787420783d223237302220793d223435382220666f6e742d66616d696c609884015260b883019190915260d882015271323632911f39ba3932b0b59e17ba32bc3a1f60711b60f8820152741e3a32bc3a103c1e9119181811103c9e911a1c9c1160591b61010a82015261163b9061011f01612d64565b7f2020666f6e742d73697a653d223131222066696c6c3d222336363622207465788152602081017f742d616e63686f723d226d6964646c6522206c65747465722d73706163696e679052641e9119111f60d91b604082015281516020819301604583015e661022a0a92722a960c91b60459290910191820152661e17ba32bc3a1f60c91b604c820152741e3a32bc3a103c1e9119181811103c9e911a999a9160591b60538201527f2020666f6e742d66616d696c793d2227417269616c20426c61636b272c207361606882015268373996b9b2b934b31160b91b60888201526091017f2020666f6e742d73697a653d223133222066696c6c3d2200000000000000000081528151908160208401601783015e601160f91b601792909101918201527f20206f7061636974793d22302e352220746578742d616e63686f723d226d696460188201527f646c6522206c65747465722d73706163696e673d2234223e000000000000000060388201526815149554d51311539160ba1b6050820152661e17ba32bc3a1f60c91b60598201527f3c636972636c652063783d22333022202063793d223330222020723d223422206060820152653334b6361e9160d11b6080820181905282519092918160208401608683015e019071111037b830b1b4ba3c9e911817191a91179f60711b91826086820152609881017f3c636972636c652063783d22333730222063793d223330222020723d2234222090528360b8820152815190816020840160be83015e018260be82015260d081017f3c636972636c652063783d22333022202063793d223533302220723d2234222090528360f0820152815190816020840160f683015e01928260f685015261010884017f3c636972636c652063783d22333730222063793d223533302220723d22342220905261012884015261012e92815160208193018583015e01918201526101408101651e17b9bb339f60d11b905203610126810182526101460161191b90826129fd565b6119249061308a565b906040518092602082017f646174613a696d6167652f7376672b786d6c3b6261736536342c000000000000905280516020819201603a84015e8101603a81015f905203601a81018352603a0161197a90836129fd565b611985600435612d97565b90805160ff1661199490612d97565b602082015160408301516119a790612d97565b9260608101516119b690612d97565b9160808201516119c590612d97565b9460a08301516119d490612d97565b9060c084015160ff166119e690612d97565b9360e0015195604051998a9960208b017f7b226e616d65223a2254727573744c656e642052657075746174696f6e202300905280516020819201603f8d015e61088b60f21b908b01603f81018290527f226465736372697074696f6e223a22536f756c626f756e64206f6e2d6368616960418201527f6e20637265646974206964656e7469747920666f72207468652054727573744c60618201526e195b99081c1c9bdd1bd8dbdb0b888b608a1b6081820152681134b6b0b3b2911d1160b91b6090820152825191928290602001609983015e019060998201526d2261747472696275746573223a5b60901b609b82015260a981017f7b2274726169745f74797065223a2254727573742053636f7265222c2276616c9052633ab2911d60e11b60c98201528151602081930160cd83015e01611f4b60f21b978880978196848360cd8197015260cf81017f7b2274726169745f74797065223a2254696572222c2276616c7565223a22000090528151602081930160ed83015e019a8b9562089f4b60ea1b60ed88015260f087017f7b2274726169745f74797065223a224c6f616e7320526570616964222c227661905264363ab2911d60d91b610110819801526101159c818e92519260208492019083015e019b8c01527f7b2274726169745f74797065223a22546f74616c20426f72726f776564222c226101178c0152663b30b63ab2911d60c91b6101378c0152805161013e9b909182906020018d83015e01998a015261014089017f7b2274726169745f74797065223a22546f74616c20526570616964222c2276619052826101608a015261016598815160208193018b83015e019788015261016787017f7b2274726169745f74797065223a224d656d6265722053696e6365222c227661905261018787015261018c95815160208193018883015e01948501527f7b2274726169745f74797065223a2252657061796d656e742053747265616b2261018e8501526816113b30b63ab2911d60b91b6101ae85015280516101b794909182906020018683015e01928301527f7b2274726169745f74797065223a224561726e696e67204172636865747970656101b98301526a1116113b30b63ab2911d1160a91b6101d983015280516101e492909182906020018483015e019061227d60f01b908201526101e68101615d7d60f01b9052036101c8810182526101e801611d5c90826129fd565b611d659061308a565b6040518091602082017f646174613a6170706c69636174696f6e2f6a736f6e3b6261736536342c000000905280516020819201603d84015e8101603d81015f905203601d81018252603d01611dba90826129fd565b60405180916020825260208201611dd091612923565b0390f35b346101ab5760803660031901126101ab57611ded612947565b50611df661295d565b5060643567ffffffffffffffff81116101ab57366023820112156101ab57806004013590611e2382612a1f565b91611e3160405193846129fd565b80835236602482840101116101ab575f928160246020940184830137010152610784565b346101ab5760203660031901126101ab576001600160a01b03611e76612947565b165f52600960205260405f2054611e8e811515612bbe565b5f52600a602052611dd0611ea7600160405f2001612a73565b604051918291602083526020830190612923565b346101ab5760403660031901126101ab57611ed4612947565b5060243580151514610784575f80fd5b346101ab576020806003193601126101ab5760ff90611f01612947565b606060e0604051611f11816129a8565b5f815282858201525f60408201525f838201525f60808201525f60a08201525f60c0820152015260018060a01b03165f526009815260405f2054611f56811515612bbe565b5f52600a8152611dd060405f2060405192611f70846129a8565b848254168452611f8260018301612a73565b9080850191825285600284015493604087019485526003810154936060880194855260048201546080890190815260058301549160a08a01928352611fd76007866006870154169560c08d0196875201612a73565b9560e08b019687526040519b8c9b828d525116908b01525195612008610100978860408d01526101208c0190612923565b975160608b01525160808a01525160a08901525160c0880152511660e08601525190601f198584030190850152612923565b346101ab575f3660031901126101ab576040515f6001826001549261205e84612a3b565b92838352602094856001821691825f146120f857505060011461209d575b50612089925003836129fd565b611dd0604051928284938452830190612923565b84915060015f527fb10e2d527612073b26eecdfd717e6a320cf44b4afac2b0732d9fcbe2b7fa0cf6905f915b8583106120e057505061208993508201018561207c565b805483890185015287945086939092019181016120c9565b60ff19168582015261208995151560051b850101925087915061207c9050565b346101ab575f3660031901126101ab576006546040516001600160a01b039091168152602090f35b346101ab5760203660031901126101ab576001600160a01b03612161612947565b165f526009602052602060405f20541515604051908152f35b346101ab5760203660031901126101ab576001600160a01b0361219b612947565b165f526009602052602060405f2054604051908152f35b346101ab575f3660031901126101ab576121ca612c92565b600680546001600160a01b031981169091555f906001600160a01b03167f8be0079c531659141344cd1fd0a4f28419497f9722a3daafe3b4186f6b6457e08280a3005b346101ab5760203660031901126101ab576001600160a01b0361222e612947565b16801561224b575f526003602052602060405f2054604051908152f35b6040516322718ad960e21b81525f6004820152602490fd5b346101ab5760203660031901126101ab576020612281600435612c58565b6040516001600160a01b039091168152f35b346101ab576122a136612973565b5050505f6040516122b1816129e1565b52610784565b346101ab5760803660031901126101ab576122d0612947565b60243560ff811681036101ab576064359182151583036101ab576007546001600160a01b0391906123049083163314612b61565b6123118282161515612b15565b606460ff8416116126e8578181165f52600960205260405f2054612336811515612bbe565b5f52600a60205260405f209384549361234e81612d22565b91156126e15760ff60068701541660ff81105f146126d95760010160ff81116107e6575b955b601e60ff88161061269b5760405161238b816129c5565b600881526714d9585cdbdb985b60c21b6020820152905b60ff19871660ff8416178155835167ffffffffffffffff811161052a576123cc6001830154612a3b565b601f8111612657575b50806020601f82116001146125ee575f916125e3575b508160011b915f199060031b1c19161760018201555b60028101908154600181018091116107e65760079255600381016124286044358254612c2a565b90556004810161243b6044358254612c2a565b905560068101805460ff191660ff8b16179055825191019167ffffffffffffffff821161052a5761246c8354612a3b565b601f811161259e575b50602090601f831160011461250b577fdf16ada4a6cc57bab5263110a29297549043f745603c193b60864a15e4e2b06d98969460ff98969294846124f2958b9788955f92612500575b50508160011b915f199060031b1c19161790555b604051988998168852166020870152608060408701526080860190612923565b9616606084015216930390a2005b015190508e806124be565b90601f19831691845f5260205f20925f5b81811061258657509460018560ff9b99958c98957fdf16ada4a6cc57bab5263110a29297549043f745603c193b60864a15e4e2b06d9e9c9a956124f2998b981061256e575b505050811b0190556124d2565b01515f1960f88460031b161c191690558e8080612561565b9293602060018192878601518155019501930161251c565b835f5260205f20601f840160051c810191602085106125d9575b601f0160051c01905b8181106125ce5750612475565b5f81556001016125c1565b90915081906125b8565b90508501518a6123eb565b9150600183015f5260205f205f925b601f198316841061263f576001935082601f19811610612627575b5050811b016001820155612401565b8701515f1960f88460031b161c191690558a80612618565b878101518255602093840193600190920191016125fd565b600183015f5260205f20601f830160051c810160208410612694575b601f830160051c820181106126895750506123d5565b5f8155600101612673565b5080612673565b600760ff8816106126cb576040516126b2816129c5565b60068152655765656b6c7960d01b6020820152906123a2565b6126d3612c09565b906123a2565b5060ff612372565b5f95612374565b606460405162461bcd60e51b815260206004820152602060248201527f52657075746174696f6e4e46543a2073636f72652065786365656473203130306044820152fd5b346101ab5761273a36612973565b505050610784565b346101ab5760203660031901126101ab5761275b612947565b612763612c92565b6001600160a01b039081169061277a821515612b15565b600754826001600160601b0360a01b821617600755167fb8852e851bdabda04c25661cfbfa7b09b3019206382f067a349af593e883214a5f80a3005b346101ab5760403660031901126101ab576127cf612947565b50610784565b346101ab5760203660031901126101ab576004356127f281612c58565b505f526004602052602060018060a01b0360405f205416604051908152f35b346101ab575f3660031901126101ab576040515f8054908261283283612a3b565b91828252602093600190856001821691825f146120f857505060011461285f5750612089925003836129fd565b5f808052859250907f290decd9548b62a8d60345a988386fc84ba6bc95484008f6362f93160ef3e5635b8583106128a057505061208993508201018561207c565b80548389018501528794508693909201918101612889565b346101ab5760203660031901126101ab576004359063ffffffff60e01b82168092036101ab576020916380ac58cd60e01b8114908115612912575b8115612901575b5015158152f35b6301ffc9a760e01b149050836128fa565b635b5e139f60e01b811491506128f3565b805180835260209291819084018484015e5f828201840152601f01601f1916010190565b600435906001600160a01b03821682036101ab57565b602435906001600160a01b03821682036101ab57565b60609060031901126101ab576001600160a01b039060043582811681036101ab579160243590811681036101ab579060443590565b610100810190811067ffffffffffffffff82111761052a57604052565b6040810190811067ffffffffffffffff82111761052a57604052565b6020810190811067ffffffffffffffff82111761052a57604052565b90601f8019910116810190811067ffffffffffffffff82111761052a57604052565b67ffffffffffffffff811161052a57601f01601f191660200190565b90600182811c92168015612a69575b6020831014612a5557565b634e487b7160e01b5f52602260045260245ffd5b91607f1691612a4a565b9060405191825f8254612a8581612a3b565b908184526020946001916001811690815f14612af35750600114612ab5575b505050612ab3925003836129fd565b565b5f90815285812095935091905b818310612adb575050612ab393508201015f8080612aa4565b85548884018501529485019487945091830191612ac2565b92505050612ab394925060ff191682840152151560051b8201015f8080612aa4565b15612b1c57565b60405162461bcd60e51b815260206004820152601b60248201527f52657075746174696f6e4e46543a207a65726f206164647265737300000000006044820152606490fd5b15612b6857565b60405162461bcd60e51b815260206004820152602860248201527f52657075746174696f6e4e46543a2063616c6c6572206973206e6f74204c656e604482015267191a5b99d41bdbdb60c21b6064820152608490fd5b15612bc557565b606460405162461bcd60e51b815260206004820152602060248201527f52657075746174696f6e4e46543a2077616c6c657420686173206e6f204e46546044820152fd5b60405190612c16826129c5565b60058252644461696c7960d81b6020830152565b919082018092116107e657565b60405190612c44826129c5565b6005825264456e74727960d81b6020830152565b5f818152600260205260409020546001600160a01b0316908115612c7a575090565b60249060405190637e27328960e01b82526004820152fd5b6006546001600160a01b03163303612ca657565b60405163118cdaa760e01b8152336004820152602490fd5b60405190612ccb826129c5565b600482526311dbdb1960e21b6020830152565b60405190612ceb826129c5565b600682526529b4b63b32b960d11b6020830152565b60405190612d0d826129c5565b600682526542726f6e7a6560d01b6020830152565b60ff166050811015612d5b57603c811015612d525760281115612d4a57612d47612c37565b90565b612d47612d00565b50612d47612cde565b50612d47612cbe565b7f2020666f6e742d66616d696c793d22417269616c2c2073616e732d73657269668152601160f91b602082015260210190565b805f917a184f03e93ff9f4daa797ed6e38ed64bf6a1f01000000000000000080821015612ef0575b506d04ee2d6d415b85acef810000000080831015612ee1575b50662386f26fc1000080831015612ed2575b506305f5e10080831015612ec3575b5061271080831015612eb4575b506064821015612ea4575b600a80921015612e9a575b6001908160216001860195612e3087612a1f565b96612e3e60405198896129fd565b808852612e4d601f1991612a1f565b01366020890137860101905b612e65575b5050505090565b5f19019083906f181899199a1a9b1b9c1cb0b131b232b360811b8282061a835304918215612e9557919082612e59565b612e5e565b9160010191612e1c565b9190606460029104910191612e11565b6004919392049101915f612e06565b6008919392049101915f612df9565b6010919392049101915f612dea565b6020919392049101915f612dd8565b60409350810491505f612dbf565b8051602080920120612f0e612cbe565b8281519101208114612f9457612f22612cde565b8281519101208114612f7b57612f36612d00565b82815191012014612f6357660467084708c82760cb1b60405191612f59836129c5565b6007835282015290565b6611a1a21ba3199960c91b60405191612f59836129c5565b50660234330433043360cc1b60405191612f59836129c5565b50660234646443730360cc1b60405191612f59836129c5565b908151811015612fbe570160200190565b634e487b7160e01b5f52603260045260245ffd5b908151612ff7612fe182612a1f565b91612fef60405193846129fd565b808352612a1f565b601f19939084013660208401375f5b8151811015613083576130198183612fad565b51908560f89280841c90606182101580613078575b156130615750019160ff83116107e657600192901b6001600160f81b0319165b5f1a61305a8286612fad565b5301613006565b600194506001600160f81b031916915061304e9050565b50607a82111561302e565b5090925050565b8051156131b65780519160028084018094116107e657600393849004600281901b91906001600160fe1b038116036107e65793604051937f4142434445464748494a4b4c4d4e4f505152535455565758595a616263646566601f52603f917f6768696a6b6c6d6e6f707172737475767778797a303132333435363738392b2f603f5260208601928291835184019160208301998a51945f8c525b84811061317a5750505050509060039160209596975251068060011461316557600214613158575b50808452830101604052565b603d905f1901535f61314c565b50603d90815f1982015360011901535f61314c565b836004919c95989c019b838d51818160121c165183538181600c1c16516001840153818160061c1651858401531651858201530196939a613124565b506040516131c3816129e1565b5f81529056fea26469706673582212206070ca55d44a5618955f2e476d671e916642cfcb6f7099be10bf7ccb395d2c2764736f6c63430008190033","opcodes":"PUSH1 0x80 CALLVALUE PUSH2 0x39A JUMPI PUSH1 0x1F SWAP1 PUSH1 0x1 PUSH1 0x1 PUSH1 0x40 SHL SUB PUSH1 0x1F NOT PUSH2 0x35D1 CODESIZE DUP2 SWAP1 SUB DUP6 DUP2 ADD DUP4 AND DUP6 ADD DUP5 DUP2 GT DUP7 DUP3 LT OR PUSH2 0x39E JUMPI DUP6 SWAP3 DUP3 SWAP2 PUSH1 0x40 MSTORE DUP4 CODECOPY PUSH1 0x20 SWAP5 DUP6 SWAP2 DUP2 ADD SUB SLT PUSH2 0x39A JUMPI MLOAD PUSH1 0x1 PUSH1 0x1 PUSH1 0xA0 SHL SUB SWAP5 DUP6 DUP3 AND SWAP4 SWAP2 DUP5 SWAP1 SUB PUSH2 0x39A JUMPI PUSH2 0x61 PUSH2 0x3B2 JUMP JUMPDEST SWAP5 PUSH1 0x14 DUP7 MSTORE PUSH32 0x54727573744C656E642052657075746174696F6E000000000000000000000000 DUP2 DUP8 ADD MSTORE PUSH2 0x93 PUSH2 0x3B2 JUMP JUMPDEST SWAP1 PUSH1 0x4 SWAP5 DUP6 DUP4 MSTORE PUSH4 0x5452455 PUSH1 0xE4 SHL DUP3 DUP5 ADD MSTORE DUP8 MLOAD DUP6 DUP2 GT PUSH2 0x387 JUMPI PUSH0 SLOAD SWAP9 PUSH1 0x1 SWAP10 DUP11 DUP2 DUP2 SHR SWAP2 AND DUP1 ISZERO PUSH2 0x37D JUMPI JUMPDEST DUP6 DUP3 LT EQ PUSH2 0x36A JUMPI SWAP1 DUP2 DUP8 DUP5 SWAP4 GT PUSH2 0x31C JUMPI JUMPDEST POP DUP5 SWAP1 DUP8 DUP4 GT PUSH1 0x1 EQ PUSH2 0x2C1 JUMPI PUSH0 SWAP3 PUSH2 0x2B6 JUMPI JUMPDEST POP POP PUSH0 NOT PUSH1 0x3 DUP4 SWAP1 SHL SHR NOT AND SWAP1 DUP10 SHL OR PUSH0 SSTORE JUMPDEST DUP3 MLOAD SWAP5 DUP6 GT PUSH2 0x2A3 JUMPI DUP8 SLOAD DUP9 DUP2 DUP2 SHR SWAP2 AND DUP1 ISZERO PUSH2 0x299 JUMPI JUMPDEST DUP4 DUP3 LT EQ PUSH2 0x286 JUMPI SWAP1 DUP2 DUP6 DUP8 SWAP7 SWAP6 SWAP5 SWAP4 GT PUSH2 0x232 JUMPI JUMPDEST POP DUP2 SWAP4 DUP6 GT PUSH1 0x1 EQ PUSH2 0x1D3 JUMPI POP POP PUSH0 SWAP3 PUSH2 0x1C8 JUMPI JUMPDEST POP POP PUSH0 NOT PUSH1 0x3 DUP4 SWAP1 SHL SHR NOT AND SWAP1 DUP5 SHL OR DUP4 SSTORE JUMPDEST CALLER ISZERO PUSH2 0x1B1 JUMPI POP PUSH1 0x6 DUP1 SLOAD CALLER PUSH1 0x1 PUSH1 0x1 PUSH1 0xA0 SHL SUB NOT DUP1 DUP4 AND DUP3 OR SWAP1 SWAP4 SSTORE PUSH1 0x40 MLOAD SWAP6 SWAP1 SWAP2 AND PUSH32 0x8BE0079C531659141344CD1FD0A4F28419497F9722A3DAAFE3B4186F6B6457E0 PUSH0 DUP1 LOG3 PUSH1 0x7 SLOAD AND OR PUSH1 0x7 SSTORE PUSH1 0x8 SSTORE PUSH2 0x31FF SWAP1 DUP2 PUSH2 0x3D2 DUP3 CODECOPY RETURN JUMPDEST PUSH1 0x24 SWAP1 PUSH0 PUSH1 0x40 MLOAD SWAP2 PUSH4 0x1E4FBDF7 PUSH1 0xE0 SHL DUP4 MSTORE DUP3 ADD MSTORE REVERT JUMPDEST ADD MLOAD SWAP1 POP PUSH0 DUP1 PUSH2 0x13F JUMP JUMPDEST DUP9 SWAP6 SWAP4 SWAP3 SWAP2 SWAP4 AND DUP6 PUSH0 MSTORE DUP4 PUSH0 KECCAK256 SWAP4 PUSH0 SWAP1 JUMPDEST DUP3 DUP3 LT PUSH2 0x219 JUMPI POP POP DUP5 GT PUSH2 0x201 JUMPI JUMPDEST POP POP POP DUP2 SHL ADD DUP4 SSTORE PUSH2 0x152 JUMP JUMPDEST ADD MLOAD PUSH0 NOT PUSH1 0xF8 DUP5 PUSH1 0x3 SHL AND SHR NOT AND SWAP1 SSTORE PUSH0 DUP1 DUP1 PUSH2 0x1F4 JUMP JUMPDEST DUP5 DUP5 ADD MLOAD DUP7 SSTORE DUP11 SWAP8 SWAP1 SWAP6 ADD SWAP5 SWAP4 DUP5 ADD SWAP4 SWAP1 DUP2 ADD SWAP1 PUSH2 0x1E4 JUMP JUMPDEST SWAP1 SWAP2 SWAP3 SWAP4 SWAP5 POP DUP9 PUSH0 MSTORE DUP3 PUSH0 KECCAK256 DUP6 DUP1 DUP9 ADD PUSH1 0x5 SHR DUP3 ADD SWAP3 DUP6 DUP10 LT PUSH2 0x27D JUMPI JUMPDEST SWAP2 DUP9 SWAP8 DUP13 SWAP3 SWAP8 SWAP7 SWAP6 SWAP5 SWAP4 ADD PUSH1 0x5 SHR ADD SWAP2 JUMPDEST DUP3 DUP2 LT PUSH2 0x26F JUMPI POP POP PUSH2 0x12A JUMP JUMPDEST PUSH0 DUP2 SSTORE DUP9 SWAP8 POP DUP12 SWAP2 ADD PUSH2 0x261 JUMP JUMPDEST SWAP3 POP DUP2 SWAP3 PUSH2 0x250 JUMP JUMPDEST PUSH1 0x22 DUP8 PUSH4 0x4E487B71 PUSH1 0xE0 SHL PUSH0 MSTORE MSTORE PUSH1 0x24 PUSH0 REVERT JUMPDEST SWAP1 PUSH1 0x7F AND SWAP1 PUSH2 0x114 JUMP JUMPDEST PUSH1 0x41 DUP7 PUSH4 0x4E487B71 PUSH1 0xE0 SHL PUSH0 MSTORE MSTORE PUSH1 0x24 PUSH0 REVERT JUMPDEST ADD MLOAD SWAP1 POP PUSH0 DUP1 PUSH2 0xE9 JUMP JUMPDEST SWAP1 DUP5 DUP13 SWAP5 AND SWAP2 PUSH0 DUP1 MSTORE DUP7 PUSH0 KECCAK256 SWAP3 PUSH0 JUMPDEST DUP9 DUP3 DUP3 LT PUSH2 0x306 JUMPI POP POP DUP5 GT PUSH2 0x2EE JUMPI JUMPDEST POP POP POP DUP2 SHL ADD PUSH0 SSTORE PUSH2 0xFC JUMP JUMPDEST ADD MLOAD PUSH0 NOT PUSH1 0xF8 DUP5 PUSH1 0x3 SHL AND SHR NOT AND SWAP1 SSTORE PUSH0 DUP1 DUP1 PUSH2 0x2E1 JUMP JUMPDEST DUP4 DUP6 ADD MLOAD DUP7 SSTORE DUP16 SWAP8 SWAP1 SWAP6 ADD SWAP5 SWAP4 DUP5 ADD SWAP4 ADD PUSH2 0x2D0 JUMP JUMPDEST SWAP1 SWAP2 POP PUSH0 DUP1 MSTORE DUP5 PUSH0 KECCAK256 DUP8 DUP1 DUP6 ADD PUSH1 0x5 SHR DUP3 ADD SWAP3 DUP8 DUP7 LT PUSH2 0x361 JUMPI JUMPDEST SWAP2 DUP14 SWAP2 DUP7 SWAP6 SWAP5 SWAP4 ADD PUSH1 0x5 SHR ADD SWAP2 JUMPDEST DUP3 DUP2 LT PUSH2 0x353 JUMPI POP POP PUSH2 0xD5 JUMP JUMPDEST PUSH0 DUP2 SSTORE DUP6 SWAP5 POP DUP14 SWAP2 ADD PUSH2 0x345 JUMP JUMPDEST SWAP3 POP DUP2 SWAP3 PUSH2 0x337 JUMP JUMPDEST PUSH1 0x22 DUP10 PUSH4 0x4E487B71 PUSH1 0xE0 SHL PUSH0 MSTORE MSTORE PUSH1 0x24 PUSH0 REVERT JUMPDEST SWAP1 PUSH1 0x7F AND SWAP1 PUSH2 0xC2 JUMP JUMPDEST PUSH1 0x41 DUP8 PUSH4 0x4E487B71 PUSH1 0xE0 SHL PUSH0 MSTORE MSTORE PUSH1 0x24 PUSH0 REVERT JUMPDEST PUSH0 DUP1 REVERT JUMPDEST PUSH4 0x4E487B71 PUSH1 0xE0 SHL PUSH0 MSTORE PUSH1 0x41 PUSH1 0x4 MSTORE PUSH1 0x24 PUSH0 REVERT JUMPDEST PUSH1 0x40 DUP1 MLOAD SWAP2 SWAP1 DUP3 ADD PUSH1 0x1 PUSH1 0x1 PUSH1 0x40 SHL SUB DUP2 GT DUP4 DUP3 LT OR PUSH2 0x39E JUMPI PUSH1 0x40 MSTORE JUMP INVALID PUSH1 0x80 DUP1 PUSH1 0x40 MSTORE PUSH1 0x4 CALLDATASIZE LT ISZERO PUSH2 0x12 JUMPI PUSH0 DUP1 REVERT JUMPDEST PUSH0 CALLDATALOAD PUSH1 0xE0 SHR SWAP1 DUP2 PUSH4 0x1FFC9A7 EQ PUSH2 0x28B8 JUMPI POP DUP1 PUSH4 0x6FDDE03 EQ PUSH2 0x2811 JUMPI DUP1 PUSH4 0x81812FC EQ PUSH2 0x27D5 JUMPI DUP1 PUSH4 0x95EA7B3 EQ PUSH2 0x27B6 JUMPI DUP1 PUSH4 0x113AA8B1 EQ PUSH2 0x2742 JUMPI DUP1 PUSH4 0x23B872DD EQ PUSH2 0x272C JUMPI DUP1 PUSH4 0x36EAB1BD EQ PUSH2 0x22B7 JUMPI DUP1 PUSH4 0x42842E0E EQ PUSH2 0x2293 JUMPI DUP1 PUSH4 0x6352211E EQ PUSH2 0x2263 JUMPI DUP1 PUSH4 0x70A08231 EQ PUSH2 0x220D JUMPI DUP1 PUSH4 0x715018A6 EQ PUSH2 0x21B2 JUMPI DUP1 PUSH4 0x773C02D4 EQ PUSH2 0x217A JUMPI DUP1 PUSH4 0x785F8EE3 EQ PUSH2 0x2140 JUMPI DUP1 PUSH4 0x8DA5CB5B EQ PUSH2 0x2118 JUMPI DUP1 PUSH4 0x95D89B41 EQ PUSH2 0x203A JUMPI DUP1 PUSH4 0x9C89A0E2 EQ PUSH2 0x1EE4 JUMPI DUP1 PUSH4 0xA22CB465 EQ PUSH2 0x1EBB JUMPI DUP1 PUSH4 0xB45AAE52 EQ PUSH2 0x1E55 JUMPI DUP1 PUSH4 0xB88D4FDE EQ PUSH2 0x1DD4 JUMPI DUP1 PUSH4 0xC87B56DD EQ PUSH2 0x918 JUMPI DUP1 PUSH4 0xD3AE26B3 EQ PUSH2 0x8F0 JUMPI DUP1 PUSH4 0xE985E9C5 EQ PUSH2 0x89E JUMPI DUP1 PUSH4 0xEA62781D EQ PUSH2 0x1AF JUMPI PUSH4 0xF2FDE38B EQ PUSH2 0x124 JUMPI PUSH0 DUP1 REVERT JUMPDEST CALLVALUE PUSH2 0x1AB JUMPI PUSH1 0x20 CALLDATASIZE PUSH1 0x3 NOT ADD SLT PUSH2 0x1AB JUMPI PUSH2 0x13D PUSH2 0x2947 JUMP JUMPDEST PUSH2 0x145 PUSH2 0x2C92 JUMP JUMPDEST PUSH1 0x1 PUSH1 0x1 PUSH1 0xA0 SHL SUB SWAP1 DUP2 AND SWAP1 DUP2 ISZERO PUSH2 0x193 JUMPI PUSH1 0x6 SLOAD DUP3 PUSH1 0x1 PUSH1 0x1 PUSH1 0x60 SHL SUB PUSH1 0xA0 SHL DUP3 AND OR PUSH1 0x6 SSTORE AND PUSH32 0x8BE0079C531659141344CD1FD0A4F28419497F9722A3DAAFE3B4186F6B6457E0 PUSH0 DUP1 LOG3 STOP JUMPDEST PUSH1 0x40 MLOAD PUSH4 0x1E4FBDF7 PUSH1 0xE0 SHL DUP2 MSTORE PUSH0 PUSH1 0x4 DUP3 ADD MSTORE PUSH1 0x24 SWAP1 REVERT JUMPDEST PUSH0 DUP1 REVERT JUMPDEST CALLVALUE PUSH2 0x1AB JUMPI PUSH1 0x20 CALLDATASIZE PUSH1 0x3 NOT ADD SLT PUSH2 0x1AB JUMPI PUSH2 0x1C8 PUSH2 0x2947 JUMP JUMPDEST PUSH1 0x7 SLOAD PUSH1 0x1 PUSH1 0x1 PUSH1 0xA0 SHL SUB SWAP2 SWAP1 PUSH2 0x1E2 SWAP1 DUP4 AND CALLER EQ PUSH2 0x2B61 JUMP JUMPDEST DUP2 DUP2 AND ISZERO SWAP2 DUP3 ISZERO SWAP3 PUSH2 0x84D JUMPI DUP1 DUP3 AND PUSH0 MSTORE PUSH1 0x9 PUSH1 0x20 MSTORE PUSH1 0x40 PUSH0 KECCAK256 SLOAD PUSH2 0x7FA JUMPI PUSH1 0x8 SLOAD SWAP3 PUSH0 NOT DUP5 EQ PUSH2 0x7E6 JUMPI PUSH1 0x1 DUP5 ADD PUSH1 0x8 SSTORE PUSH1 0x40 MLOAD SWAP1 PUSH2 0x221 DUP3 PUSH2 0x29E1 JUMP JUMPDEST PUSH0 DUP3 MSTORE DUP5 PUSH0 MSTORE PUSH1 0x2 PUSH1 0x20 MSTORE DUP3 PUSH1 0x40 PUSH0 KECCAK256 SLOAD AND ISZERO ISZERO DUP1 PUSH2 0x7DF JUMPI JUMPDEST PUSH2 0x784 JUMPI DUP5 PUSH0 MSTORE PUSH1 0x2 PUSH1 0x20 MSTORE DUP3 PUSH1 0x40 PUSH0 KECCAK256 SLOAD AND SWAP1 DUP2 ISZERO ISZERO SWAP1 DUP2 PUSH2 0x753 JUMPI JUMPDEST PUSH2 0x739 JUMPI JUMPDEST DUP6 PUSH0 MSTORE PUSH1 0x2 PUSH1 0x20 MSTORE PUSH1 0x40 PUSH0 KECCAK256 DUP5 DUP7 AND PUSH1 0x1 PUSH1 0x1 PUSH1 0x60 SHL SUB PUSH1 0xA0 SHL DUP3 SLOAD AND OR SWAP1 SSTORE DUP6 PUSH1 0x40 MLOAD SWAP3 DUP6 DUP8 AND SWAP1 PUSH32 0xDDF252AD1BE2C89B69C2B068FC378DAA952BA7F163C4A11628F55A4DF523B3EF PUSH0 DUP1 LOG4 PUSH2 0x724 JUMPI POP DUP3 EXTCODESIZE PUSH2 0x5FE JUMPI JUMPDEST POP DUP1 DUP3 AND PUSH0 MSTORE PUSH1 0x9 PUSH1 0x20 MSTORE DUP3 PUSH1 0x40 PUSH0 KECCAK256 SSTORE PUSH1 0x40 MLOAD PUSH2 0x2D4 DUP2 PUSH2 0x29A8 JUMP JUMPDEST PUSH1 0x1E DUP2 MSTORE PUSH2 0x2E0 PUSH2 0x2C37 JUMP JUMPDEST PUSH1 0x20 DUP3 ADD SWAP1 DUP2 MSTORE PUSH0 PUSH1 0x40 DUP4 ADD MSTORE PUSH0 PUSH1 0x60 DUP4 ADD MSTORE PUSH0 PUSH1 0x80 DUP4 ADD MSTORE TIMESTAMP PUSH1 0xA0 DUP4 ADD MSTORE PUSH0 PUSH1 0xC0 DUP4 ADD MSTORE PUSH2 0x30D PUSH2 0x2C09 JUMP JUMPDEST PUSH1 0xE0 DUP4 ADD MSTORE DUP5 PUSH0 MSTORE PUSH1 0xA PUSH1 0x20 MSTORE PUSH1 0x40 PUSH0 KECCAK256 SWAP1 PUSH1 0xFF DUP4 MLOAD AND PUSH1 0xFF NOT DUP4 SLOAD AND OR DUP3 SSTORE MLOAD DUP1 MLOAD SWAP1 PUSH8 0xFFFFFFFFFFFFFFFF DUP3 GT PUSH2 0x52A JUMPI PUSH2 0x34D PUSH1 0x1 DUP5 ADD SLOAD PUSH2 0x2A3B JUMP JUMPDEST PUSH1 0x1F DUP2 GT PUSH2 0x5BA JUMPI JUMPDEST POP PUSH1 0x20 SWAP1 PUSH1 0x1F DUP4 GT PUSH1 0x1 EQ PUSH2 0x549 JUMPI SWAP2 DUP1 PUSH1 0xE0 SWAP5 SWAP3 PUSH1 0x7 SWAP5 PUSH0 SWAP3 PUSH2 0x53E JUMPI JUMPDEST POP POP DUP2 PUSH1 0x1 SHL SWAP2 PUSH0 NOT SWAP1 PUSH1 0x3 SHL SHR NOT AND OR PUSH1 0x1 DUP3 ADD SSTORE JUMPDEST PUSH1 0x40 DUP5 ADD MLOAD PUSH1 0x2 DUP3 ADD SSTORE PUSH1 0x60 DUP5 ADD MLOAD PUSH1 0x3 DUP3 ADD SSTORE PUSH1 0x80 DUP5 ADD MLOAD PUSH1 0x4 DUP3 ADD SSTORE PUSH1 0xA0 DUP5 ADD MLOAD PUSH1 0x5 DUP3 ADD SSTORE PUSH1 0x6 DUP2 ADD PUSH1 0xFF PUSH1 0xC0 DUP7 ADD MLOAD AND PUSH1 0xFF NOT DUP3 SLOAD AND OR SWAP1 SSTORE ADD SWAP2 ADD MLOAD DUP1 MLOAD SWAP1 PUSH8 0xFFFFFFFFFFFFFFFF DUP3 GT PUSH2 0x52A JUMPI PUSH2 0x3E9 DUP4 SLOAD PUSH2 0x2A3B JUMP JUMPDEST PUSH1 0x1F DUP2 GT PUSH2 0x4E5 JUMPI JUMPDEST POP PUSH1 0x20 SWAP1 PUSH1 0x1F DUP4 GT PUSH1 0x1 EQ PUSH2 0x45C JUMPI SWAP2 DUP1 PUSH1 0x20 SWAP5 SWAP3 PUSH32 0xF58AA36AB68485F12C69FBE7D41735A10BF107EC77D8E1B5CCAF244E9A080868 SWAP7 SWAP5 PUSH0 SWAP3 PUSH2 0x451 JUMPI JUMPDEST POP POP DUP2 PUSH1 0x1 SHL SWAP2 PUSH0 NOT SWAP1 PUSH1 0x3 SHL SHR NOT AND OR SWAP1 SSTORE JUMPDEST PUSH1 0x40 MLOAD SWAP4 TIMESTAMP DUP6 MSTORE AND SWAP3 LOG3 STOP JUMPDEST ADD MLOAD SWAP1 POP DUP9 DUP1 PUSH2 0x431 JUMP JUMPDEST SWAP1 PUSH1 0x1F NOT DUP4 AND SWAP2 DUP5 PUSH0 MSTORE PUSH1 0x20 PUSH0 KECCAK256 SWAP3 PUSH0 JUMPDEST DUP2 DUP2 LT PUSH2 0x4CD JUMPI POP SWAP3 PUSH1 0x1 SWAP3 DUP6 SWAP3 PUSH32 0xF58AA36AB68485F12C69FBE7D41735A10BF107EC77D8E1B5CCAF244E9A080868 SWAP9 SWAP7 PUSH1 0x20 SWAP9 SWAP7 LT PUSH2 0x4B5 JUMPI JUMPDEST POP POP POP DUP2 SHL ADD SWAP1 SSTORE PUSH2 0x445 JUMP JUMPDEST ADD MLOAD PUSH0 NOT PUSH1 0xF8 DUP5 PUSH1 0x3 SHL AND SHR NOT AND SWAP1 SSTORE DUP9 DUP1 DUP1 PUSH2 0x4A8 JUMP JUMPDEST SWAP3 SWAP4 PUSH1 0x20 PUSH1 0x1 DUP2 SWAP3 DUP8 DUP7 ADD MLOAD DUP2 SSTORE ADD SWAP6 ADD SWAP4 ADD PUSH2 0x46D JUMP JUMPDEST DUP4 PUSH0 MSTORE PUSH1 0x20 PUSH0 KECCAK256 PUSH1 0x1F DUP5 ADD PUSH1 0x5 SHR DUP2 ADD SWAP2 PUSH1 0x20 DUP6 LT PUSH2 0x520 JUMPI JUMPDEST PUSH1 0x1F ADD PUSH1 0x5 SHR ADD SWAP1 JUMPDEST DUP2 DUP2 LT PUSH2 0x515 JUMPI POP PUSH2 0x3F2 JUMP JUMPDEST PUSH0 DUP2 SSTORE PUSH1 0x1 ADD PUSH2 0x508 JUMP JUMPDEST SWAP1 SWAP2 POP DUP2 SWAP1 PUSH2 0x4FF JUMP JUMPDEST PUSH4 0x4E487B71 PUSH1 0xE0 SHL PUSH0 MSTORE PUSH1 0x41 PUSH1 0x4 MSTORE PUSH1 0x24 PUSH0 REVERT JUMPDEST ADD MLOAD SWAP1 POP DUP10 DUP1 PUSH2 0x375 JUMP JUMPDEST SWAP1 PUSH1 0x1 DUP5 ADD PUSH0 MSTORE PUSH1 0x20 PUSH0 KECCAK256 SWAP2 PUSH0 JUMPDEST PUSH1 0x1F NOT DUP6 AND DUP2 LT PUSH2 0x5A2 JUMPI POP SWAP3 PUSH1 0xE0 SWAP5 SWAP3 PUSH1 0x1 SWAP3 PUSH1 0x7 SWAP6 DUP4 PUSH1 0x1F NOT DUP2 AND LT PUSH2 0x58A JUMPI JUMPDEST POP POP POP DUP2 SHL ADD PUSH1 0x1 DUP3 ADD SSTORE PUSH2 0x38C JUMP JUMPDEST ADD MLOAD PUSH0 NOT PUSH1 0xF8 DUP5 PUSH1 0x3 SHL AND SHR NOT AND SWAP1 SSTORE DUP10 DUP1 DUP1 PUSH2 0x57A JUMP JUMPDEST SWAP2 SWAP3 PUSH1 0x20 PUSH1 0x1 DUP2 SWAP3 DUP7 DUP6 ADD MLOAD DUP2 SSTORE ADD SWAP5 ADD SWAP3 ADD PUSH2 0x557 JUMP JUMPDEST PUSH1 0x1 DUP5 ADD PUSH0 MSTORE PUSH1 0x20 PUSH0 KECCAK256 PUSH1 0x1F DUP5 ADD PUSH1 0x5 SHR DUP2 ADD PUSH1 0x20 DUP6 LT PUSH2 0x5F7 JUMPI JUMPDEST PUSH1 0x1F DUP4 ADD PUSH1 0x5 SHR DUP3 ADD DUP2 LT PUSH2 0x5EC JUMPI POP POP PUSH2 0x356 JUMP JUMPDEST PUSH0 DUP2 SSTORE PUSH1 0x1 ADD PUSH2 0x5D6 JUMP JUMPDEST POP DUP1 PUSH2 0x5D6 JUMP JUMPDEST PUSH1 0x40 SWAP4 SWAP2 SWAP4 MLOAD PUSH1 0x20 DUP2 DUP1 PUSH2 0x63A PUSH4 0xA85BD01 PUSH1 0xE1 SHL SWAP6 DUP7 DUP4 MSTORE CALLER PUSH1 0x4 DUP5 ADD MSTORE PUSH0 PUSH1 0x24 DUP5 ADD MSTORE DUP8 PUSH1 0x44 DUP5 ADD MSTORE PUSH1 0x80 PUSH1 0x64 DUP5 ADD MSTORE PUSH1 0x84 DUP4 ADD SWAP1 PUSH2 0x2923 JUMP JUMPDEST SUB DUP2 PUSH0 DUP10 DUP10 AND GAS CALL PUSH0 SWAP2 DUP2 PUSH2 0x6DF JUMPI JUMPDEST POP PUSH2 0x6AD JUMPI POP POP POP RETURNDATASIZE PUSH0 EQ PUSH2 0x6A5 JUMPI RETURNDATASIZE SWAP2 PUSH2 0x664 DUP4 PUSH2 0x2A1F JUMP JUMPDEST SWAP3 PUSH2 0x672 PUSH1 0x40 MLOAD SWAP5 DUP6 PUSH2 0x29FD JUMP JUMPDEST DUP4 MSTORE RETURNDATASIZE PUSH0 PUSH1 0x20 DUP6 ADD RETURNDATACOPY JUMPDEST DUP3 MLOAD SWAP3 DUP4 PUSH2 0x69E JUMPI PUSH1 0x40 MLOAD PUSH4 0x32505749 PUSH1 0xE1 SHL DUP2 MSTORE DUP3 DUP5 AND PUSH1 0x4 DUP3 ADD MSTORE PUSH1 0x24 SWAP1 REVERT JUMPDEST PUSH1 0x20 DUP5 SWAP2 ADD REVERT JUMPDEST PUSH1 0x60 SWAP2 PUSH2 0x67C JUMP JUMPDEST SWAP2 SWAP4 SWAP2 PUSH1 0x1 PUSH1 0x1 PUSH1 0xE0 SHL SUB NOT AND SUB PUSH2 0x6C5 JUMPI DUP4 PUSH2 0x2B7 JUMP JUMPDEST PUSH1 0x40 MLOAD PUSH4 0x32505749 PUSH1 0xE1 SHL DUP2 MSTORE SWAP2 AND PUSH1 0x4 DUP3 ADD MSTORE PUSH1 0x24 SWAP2 POP REVERT JUMPDEST SWAP1 SWAP2 POP PUSH1 0x20 DUP2 RETURNDATASIZE PUSH1 0x20 GT PUSH2 0x71C JUMPI JUMPDEST DUP2 PUSH2 0x6FB PUSH1 0x20 SWAP4 DUP4 PUSH2 0x29FD JUMP JUMPDEST DUP2 ADD SUB SLT PUSH2 0x1AB JUMPI MLOAD PUSH1 0x1 PUSH1 0x1 PUSH1 0xE0 SHL SUB NOT DUP2 AND DUP2 SUB PUSH2 0x1AB JUMPI SWAP1 DUP7 PUSH2 0x64A JUMP JUMPDEST RETURNDATASIZE SWAP2 POP PUSH2 0x6EE JUMP JUMPDEST PUSH4 0x39E35637 PUSH1 0xE1 SHL DUP2 MSTORE PUSH0 PUSH1 0x4 DUP3 ADD MSTORE PUSH1 0x24 SWAP1 REVERT JUMPDEST DUP4 DUP6 AND PUSH0 MSTORE PUSH1 0x3 PUSH1 0x20 MSTORE PUSH1 0x40 PUSH0 KECCAK256 PUSH1 0x1 DUP2 SLOAD ADD SWAP1 SSTORE PUSH2 0x25E JUMP JUMPDEST PUSH1 0x4 PUSH1 0x20 MSTORE PUSH1 0x40 PUSH0 KECCAK256 PUSH1 0x1 PUSH1 0x1 PUSH1 0x60 SHL SUB PUSH1 0xA0 SHL DUP2 SLOAD AND SWAP1 SSTORE DUP3 PUSH0 MSTORE PUSH1 0x3 PUSH1 0x20 MSTORE PUSH1 0x40 PUSH0 KECCAK256 PUSH0 NOT DUP2 SLOAD ADD SWAP1 SSTORE PUSH2 0x259 JUMP JUMPDEST PUSH1 0x40 MLOAD PUSH3 0x461BCD PUSH1 0xE5 SHL DUP2 MSTORE PUSH1 0x20 PUSH1 0x4 DUP3 ADD MSTORE PUSH1 0x2D PUSH1 0x24 DUP3 ADD MSTORE PUSH32 0x52657075746174696F6E4E46543A20536F756C626F756E6420E28094206E6F6E PUSH1 0x44 DUP3 ADD MSTORE PUSH13 0x2D7472616E7366657261626C65 PUSH1 0x98 SHL PUSH1 0x64 DUP3 ADD MSTORE PUSH1 0x84 SWAP1 REVERT JUMPDEST POP DUP1 PUSH2 0x23B JUMP JUMPDEST PUSH4 0x4E487B71 PUSH1 0xE0 SHL PUSH0 MSTORE PUSH1 0x11 PUSH1 0x4 MSTORE PUSH1 0x24 PUSH0 REVERT JUMPDEST PUSH1 0x40 MLOAD PUSH3 0x461BCD PUSH1 0xE5 SHL DUP2 MSTORE PUSH1 0x20 PUSH1 0x4 DUP3 ADD MSTORE PUSH1 0x25 PUSH1 0x24 DUP3 ADD MSTORE PUSH32 0x52657075746174696F6E4E46543A2077616C6C657420616C7265616479206861 PUSH1 0x44 DUP3 ADD MSTORE PUSH5 0x1CC8139195 PUSH1 0xDA SHL PUSH1 0x64 DUP3 ADD MSTORE PUSH1 0x84 SWAP1 REVERT JUMPDEST PUSH1 0x40 MLOAD PUSH3 0x461BCD PUSH1 0xE5 SHL DUP2 MSTORE PUSH1 0x20 PUSH1 0x4 DUP3 ADD MSTORE PUSH1 0x23 PUSH1 0x24 DUP3 ADD MSTORE PUSH32 0x52657075746174696F6E4E46543A206D696E7420746F207A65726F2061646472 PUSH1 0x44 DUP3 ADD MSTORE PUSH3 0x657373 PUSH1 0xE8 SHL PUSH1 0x64 DUP3 ADD MSTORE PUSH1 0x84 SWAP1 REVERT JUMPDEST CALLVALUE PUSH2 0x1AB JUMPI PUSH1 0x40 CALLDATASIZE PUSH1 0x3 NOT ADD SLT PUSH2 0x1AB JUMPI PUSH2 0x8B7 PUSH2 0x2947 JUMP JUMPDEST PUSH2 0x8BF PUSH2 0x295D JUMP JUMPDEST SWAP1 PUSH1 0x1 DUP1 PUSH1 0xA0 SHL SUB DUP1 SWAP2 AND PUSH0 MSTORE PUSH1 0x5 PUSH1 0x20 MSTORE PUSH1 0x40 PUSH0 KECCAK256 SWAP2 AND PUSH0 MSTORE PUSH1 0x20 MSTORE PUSH1 0x20 PUSH1 0xFF PUSH1 0x40 PUSH0 KECCAK256 SLOAD AND PUSH1 0x40 MLOAD SWAP1 ISZERO ISZERO DUP2 MSTORE RETURN JUMPDEST CALLVALUE PUSH2 0x1AB JUMPI PUSH0 CALLDATASIZE PUSH1 0x3 NOT ADD SLT PUSH2 0x1AB JUMPI PUSH1 0x7 SLOAD PUSH1 0x40 MLOAD PUSH1 0x1 PUSH1 0x1 PUSH1 0xA0 SHL SUB SWAP1 SWAP2 AND DUP2 MSTORE PUSH1 0x20 SWAP1 RETURN JUMPDEST CALLVALUE PUSH2 0x1AB JUMPI PUSH1 0x20 CALLDATASIZE PUSH1 0x3 NOT ADD SLT PUSH2 0x1AB JUMPI PUSH2 0x934 PUSH1 0x4 CALLDATALOAD PUSH2 0x2C58 JUMP JUMPDEST POP PUSH1 0x4 CALLDATALOAD PUSH0 MSTORE PUSH1 0xA PUSH1 0x20 MSTORE PUSH1 0x40 PUSH0 KECCAK256 PUSH1 0x40 MLOAD SWAP1 PUSH2 0x950 DUP3 PUSH2 0x29A8 JUMP JUMPDEST DUP1 SLOAD PUSH1 0xFF AND DUP3 MSTORE PUSH2 0x963 PUSH1 0x1 DUP3 ADD PUSH2 0x2A73 JUMP JUMPDEST PUSH1 0x20 DUP4 ADD MSTORE PUSH1 0x2 DUP2 ADD SLOAD PUSH1 0x40 DUP4 ADD MSTORE PUSH1 0x3 DUP2 ADD SLOAD PUSH1 0x60 DUP4 ADD MSTORE PUSH1 0x4 DUP2 ADD SLOAD PUSH1 0x80 DUP4 ADD MSTORE PUSH1 0x5 DUP2 ADD SLOAD PUSH1 0xA0 DUP4 ADD MSTORE PUSH1 0x6 DUP2 ADD SLOAD PUSH1 0xFF AND PUSH1 0xC0 DUP4 ADD MSTORE PUSH1 0x7 ADD PUSH2 0x9A9 SWAP1 PUSH2 0x2A73 JUMP JUMPDEST PUSH1 0xE0 DUP3 ADD MSTORE DUP1 MLOAD PUSH1 0xFF AND PUSH2 0x9BC SWAP1 PUSH2 0x2D97 JUMP JUMPDEST PUSH1 0xC0 DUP3 ADD MLOAD PUSH1 0xFF AND PUSH2 0x9CD SWAP1 PUSH2 0x2D97 JUMP JUMPDEST SWAP1 PUSH1 0x20 DUP4 ADD MLOAD PUSH2 0x9DC SWAP1 PUSH2 0x2EFE JUMP JUMPDEST PUSH1 0x20 DUP5 ADD MLOAD PUSH2 0x9EA SWAP1 PUSH2 0x2FD2 JUMP JUMPDEST SWAP3 PUSH1 0x40 DUP6 ADD MLOAD PUSH2 0x9F9 SWAP1 PUSH2 0x2D97 JUMP JUMPDEST SWAP1 PUSH1 0xE0 DUP7 ADD MLOAD PUSH2 0xA08 SWAP1 PUSH2 0x2FD2 JUMP JUMPDEST PUSH1 0x40 DUP1 MLOAD PUSH32 0x3C73766720786D6C6E733D22687474703A2F2F7777772E77332E6F72672F3230 PUSH1 0x20 DUP1 DUP4 ADD SWAP2 SWAP1 SWAP2 MSTORE PUSH32 0x30302F737667222076696577426F783D22302030203430302035363022207769 SWAP3 DUP3 ADD SWAP3 SWAP1 SWAP3 MSTORE PUSH32 0x6474683D2234303022206865696768743D22353630223E000000000000000000 PUSH1 0x60 DUP3 ADD MSTORE PUSH6 0x1E3232B3399F PUSH1 0xD1 SHL PUSH1 0x77 DUP3 ADD MSTORE PUSH32 0x3C72616469616C4772616469656E742069643D226267222063783D2235302522 PUSH1 0x7D DUP3 ADD MSTORE PUSH18 0x1031BC9E911A18129110391E911B9812911F PUSH1 0x71 SHL PUSH1 0x9D DUP3 ADD MSTORE PUSH32 0x3C73746F70206F66667365743D223025222073746F702D636F6C6F723D222331 PUSH1 0xAF DUP3 ADD MSTORE PUSH8 0x3098B0993291179F PUSH1 0xC1 SHL PUSH1 0xCF DUP3 ADD MSTORE PUSH32 0x3C73746F70206F66667365743D2231303025222073746F702D636F6C6F723D22 PUSH1 0xD7 DUP3 ADD MSTORE PUSH10 0x1198309830989911179F PUSH1 0xB1 SHL PUSH1 0xF7 DUP3 ADD MSTORE PUSH17 0x1E17B930B234B0B623B930B234B2B73A1F PUSH1 0x79 SHL PUSH2 0x101 DUP3 ADD MSTORE PUSH32 0x3C72616469616C4772616469656E742069643D22676C6F77222063783D223530 PUSH2 0x112 DUP3 ADD MSTORE PUSH20 0x12911031BC9E911A98129110391E911A9812911F PUSH1 0x61 SHL PUSH2 0x132 DUP3 ADD MSTORE PUSH32 0x3C73746F70206F66667365743D223025222073746F702D636F6C6F723D220000 PUSH2 0x146 DUP3 ADD MSTORE DUP6 MLOAD SWAP1 SWAP8 DUP9 SWAP8 SWAP4 SWAP6 SWAP4 SWAP1 SWAP3 SWAP1 SWAP2 SWAP1 DUP2 SWAP1 DUP9 ADD PUSH2 0x164 DUP11 ADD MCOPY DUP1 DUP9 ADD PUSH2 0x164 ADD PUSH32 0x222073746F702D6F7061636974793D22302E3335222F3E000000000000000000 SWAP1 MSTORE DUP1 DUP9 ADD PUSH2 0x17B ADD PUSH32 0x3C73746F70206F66667365743D2231303025222073746F702D636F6C6F723D22 SWAP1 MSTORE PUSH2 0x19B SWAP1 DUP8 MLOAD SWAP1 DUP2 PUSH1 0x20 DUP11 ADD DUP5 DUP4 DUP14 ADD ADD MCOPY PUSH20 0x111039BA37B816B7B830B1B4BA3C9E911811179F PUSH1 0x61 SHL SWAP1 DUP11 ADD SWAP2 SWAP1 SWAP2 ADD SWAP2 DUP3 ADD MSTORE PUSH17 0x1E17B930B234B0B623B930B234B2B73A1F PUSH1 0x79 SHL PUSH2 0x1AF DUP3 ADD MSTORE PUSH18 0x1E3334B63A32B91034B21E9131363AB9111F PUSH1 0x71 SHL PUSH2 0x1C0 DUP3 ADD MSTORE PUSH32 0x3C6665476175737369616E426C757220737464446576696174696F6E3D223138 PUSH2 0x1D2 DUP3 ADD MSTORE PUSH3 0x11179F PUSH1 0xE9 SHL PUSH2 0x1F2 DUP3 ADD DUP2 SWAP1 MSTORE PUSH9 0x1E17B334B63A32B91F PUSH1 0xB9 SHL PUSH2 0x1F5 DUP4 ADD MSTORE PUSH32 0x3C6C696E6561724772616469656E742069643D2272696E674772616422207831 PUSH2 0x1FE DUP4 ADD MSTORE PUSH32 0x3D223025222079313D223025222078323D2231303025222079323D2231303025 PUSH2 0x21E DUP4 ADD MSTORE PUSH2 0x111F PUSH1 0xF1 SHL PUSH2 0x23E DUP4 ADD MSTORE PUSH32 0x3C73746F70206F66667365743D223025222073746F702D636F6C6F723D220000 PUSH2 0x240 DUP4 ADD MSTORE DUP8 MLOAD PUSH2 0x25E SWAP3 DUP2 PUSH1 0x20 DUP12 ADD DUP6 DUP4 ADD MCOPY ADD SWAP2 DUP3 ADD MSTORE PUSH32 0x3C73746F70206F66667365743D2231303025222073746F702D636F6C6F723D22 PUSH2 0x261 DUP3 ADD MSTORE PUSH32 0x23666666666666222073746F702D6F7061636974793D22302E34222F3E000000 PUSH2 0x281 DUP3 ADD MSTORE PUSH17 0x1E17B634B732B0B923B930B234B2B73A1F PUSH1 0x79 SHL PUSH2 0x29E DUP3 ADD MSTORE PUSH7 0x1E17B232B3399F PUSH1 0xC9 SHL PUSH2 0x2AF DUP3 ADD MSTORE PUSH32 0x3C726563742077696474683D2234303022206865696768743D22353630222072 PUSH2 0x2B6 DUP3 ADD MSTORE PUSH32 0x783D223234222066696C6C3D2275726C2823626729222F3E0000000000000000 PUSH2 0x2D6 DUP3 ADD MSTORE PUSH32 0x3C636972636C652063783D22323030222063793D223231302220723D22313330 PUSH2 0x2EE DUP3 ADD MSTORE PUSH32 0x222066696C6C3D2275726C2823676C6F7729222066696C7465723D2275726C28 PUSH2 0x30E DUP3 ADD MSTORE PUSH9 0x11B1363AB91491179F PUSH1 0xB9 SHL PUSH2 0x32E DUP3 ADD MSTORE PUSH32 0x3C636972636C652063783D22323030222063793D223231302220723D22313130 PUSH2 0x337 DUP3 ADD MSTORE PUSH32 0x222066696C6C3D226E6F6E6522207374726F6B653D2275726C282372696E6747 PUSH2 0x357 DUP3 ADD MSTORE PUSH32 0x7261642922207374726F6B652D77696474683D223322206F7061636974793D22 PUSH2 0x377 DUP3 ADD MSTORE PUSH6 0x18171B11179F PUSH1 0xD1 SHL PUSH2 0x397 DUP3 ADD MSTORE PUSH32 0x3C636972636C652063783D22323030222063793D223231302220723D22393522 PUSH2 0x39D DUP3 ADD MSTORE PUSH32 0x202066696C6C3D222330663066316122207374726F6B653D2200000000000000 PUSH2 0x3BD DUP3 ADD MSTORE DUP7 MLOAD PUSH2 0x3D6 SWAP2 DUP2 PUSH1 0x20 DUP11 ADD DUP5 DUP4 ADD MCOPY PUSH32 0x22207374726F6B652D77696474683D22312E3522206F7061636974793D22302E SWAP2 ADD SWAP2 DUP3 ADD MSTORE PUSH4 0x1991179F PUSH1 0xE1 SHL PUSH2 0x3F6 DUP3 ADD MSTORE PUSH21 0x1E3A32BC3A103C1E9119181811103C9E9119199C11 PUSH1 0x59 SHL PUSH2 0x3FA DUP3 ADD MSTORE PUSH32 0x2020666F6E742D66616D696C793D2227417269616C20426C61636B272C207361 PUSH2 0x40F DUP3 ADD MSTORE PUSH9 0x373996B9B2B934B311 PUSH1 0xB9 SHL PUSH2 0x42F DUP3 ADD MSTORE PUSH32 0x2020666F6E742D73697A653D2238302220666F6E742D7765696768743D223930 PUSH2 0x438 DUP3 ADD SWAP1 DUP2 MSTORE PUSH2 0x1811 PUSH1 0xF1 SHL PUSH2 0x458 DUP4 ADD MSTORE PUSH8 0x10103334B6361E91 PUSH1 0xC1 SHL PUSH2 0x45A DUP4 ADD MSTORE DUP8 MLOAD SWAP2 DUP3 SWAP1 PUSH1 0x20 DUP11 ADD SWAP1 PUSH2 0x462 ADD MCOPY PUSH1 0x11 PUSH1 0xF9 SHL DUP3 DUP3 ADD PUSH1 0x2A DUP2 ADD SWAP2 SWAP1 SWAP2 MSTORE PUSH22 0x10103A32BC3A16B0B731B437B91E9136B4B232363291 PUSH1 0x51 SHL PUSH1 0x2B DUP3 ADD MSTORE PUSH32 0x2020646F6D696E616E742D626173656C696E653D226D6964646C65223E000000 PUSH1 0x41 DUP3 ADD MSTORE DUP4 MLOAD SWAP4 DUP5 SWAP2 PUSH1 0x20 SWAP1 SWAP2 ADD SWAP1 PUSH1 0x5E ADD MCOPY PUSH7 0x1E17BA32BC3A1F PUSH1 0xC9 SHL PUSH1 0x5E SWAP2 SWAP1 SWAP3 ADD SWAP1 SWAP3 ADD SWAP2 DUP3 ADD MSTORE PUSH21 0x1E3A32BC3A103C1E9119181811103C9E91191B9C11 PUSH1 0x59 SHL PUSH1 0x65 DUP3 ADD MSTORE PUSH2 0x1116 SWAP1 PUSH1 0x7A ADD PUSH2 0x2D64 JUMP JUMPDEST PUSH32 0x2020666F6E742D73697A653D223134222066696C6C3D22000000000000000000 DUP2 MSTORE DUP6 MLOAD SWAP1 DUP2 PUSH1 0x20 DUP9 ADD PUSH1 0x17 DUP4 ADD MCOPY PUSH16 0x111037B830B1B4BA3C9E9118171A9A91 PUSH1 0x81 SHL PUSH1 0x17 SWAP3 SWAP1 SWAP2 ADD SWAP2 DUP3 ADD MSTORE PUSH32 0x2020746578742D616E63686F723D226D6964646C65223E2F203130303C2F7465 PUSH1 0x27 DUP3 ADD MSTORE PUSH3 0x3C3A1F PUSH1 0xE9 SHL PUSH1 0x47 DUP3 ADD MSTORE PUSH32 0x3C7265637420783D223133302220793D22333335222077696474683D22313430 PUSH1 0x4A DUP3 ADD MSTORE PUSH21 0x11103432B4B3B43A1E91199C1110393C1E91189C91 PUSH1 0x59 SHL PUSH1 0x6A DUP3 ADD MSTORE PUSH22 0x10103334B6361E913737B732911039BA3937B5B29E91 PUSH1 0x51 SHL PUSH1 0x7F DUP3 ADD MSTORE DUP6 MLOAD SWAP1 DUP2 PUSH1 0x20 DUP9 ADD PUSH1 0x95 DUP4 ADD MCOPY PUSH32 0x22207374726F6B652D77696474683D22312E3522206F7061636974793D22302E PUSH1 0x95 SWAP3 SWAP1 SWAP2 ADD SWAP2 DUP3 ADD MSTORE PUSH4 0x1B91179F PUSH1 0xE1 SHL PUSH1 0xB5 DUP3 ADD MSTORE PUSH21 0x1E3A32BC3A103C1E9119181811103C9E91199A9C91 PUSH1 0x59 SHL PUSH1 0xB9 DUP3 ADD MSTORE PUSH2 0x1268 SWAP1 PUSH1 0xCE ADD PUSH2 0x2D64 JUMP JUMPDEST PUSH32 0x2020666F6E742D73697A653D2231382220666F6E742D7765696768743D223730 DUP2 MSTORE PUSH2 0x1811 PUSH1 0xF1 SHL PUSH1 0x20 DUP3 ADD MSTORE PUSH8 0x10103334B6361E91 PUSH1 0xC1 SHL PUSH1 0x22 DUP3 ADD MSTORE DUP6 MLOAD SWAP1 DUP2 PUSH1 0x20 DUP9 ADD PUSH1 0x2A DUP4 ADD MCOPY PUSH1 0x11 PUSH1 0xF9 SHL PUSH1 0x2A SWAP3 SWAP1 SWAP2 ADD SWAP2 DUP3 ADD MSTORE PUSH22 0x10103A32BC3A16B0B731B437B91E9136B4B232363291 PUSH1 0x51 SHL PUSH1 0x2B DUP3 ADD MSTORE PUSH21 0x10103632BA3A32B916B9B830B1B4B7339E9119911F PUSH1 0x59 SHL PUSH1 0x41 DUP3 ADD MSTORE DUP2 MLOAD SWAP2 DUP3 SWAP1 PUSH1 0x20 ADD PUSH1 0x56 DUP4 ADD MCOPY ADD PUSH1 0x56 DUP2 ADD PUSH7 0x1E17BA32BC3A1F PUSH1 0xC9 SHL SWAP1 MSTORE PUSH21 0x1E3A32BC3A103C1E9119181811103C9E911A189A91 PUSH1 0x59 SHL PUSH1 0x5D DUP3 ADD MSTORE PUSH1 0x72 ADD PUSH2 0x1349 SWAP1 PUSH2 0x2D64 JUMP JUMPDEST PUSH32 0x2020666F6E742D73697A653D223132222066696C6C3D22233838382220746578 DUP2 MSTORE PUSH18 0x3A16B0B731B437B91E9136B4B2323632911F PUSH1 0x71 SHL PUSH1 0x20 DUP3 ADD MSTORE PUSH32 0x4C4F414E53205245504149442026616D703B2053545245414B00000000000000 PUSH1 0x32 DUP3 ADD MSTORE PUSH7 0x1E17BA32BC3A1F PUSH1 0xC9 SHL PUSH1 0x4B DUP3 ADD MSTORE PUSH21 0x1E3A32BC3A103C1E9118999811103C9E911A1A1811 PUSH1 0x59 SHL PUSH1 0x52 DUP3 ADD MSTORE PUSH2 0x13E7 SWAP1 PUSH1 0x67 ADD PUSH2 0x2D64 JUMP JUMPDEST PUSH32 0x2020666F6E742D73697A653D2232322220666F6E742D7765696768743D223730 DUP2 MSTORE PUSH2 0x1811 PUSH1 0xF1 SHL PUSH1 0x20 DUP3 ADD MSTORE PUSH1 0x22 ADD PUSH32 0x202066696C6C3D22236666666666662220746578742D616E63686F723D226D69 DUP2 MSTORE PUSH6 0x32323632911F PUSH1 0xD1 SHL PUSH1 0x20 DUP3 ADD MSTORE DUP2 MLOAD PUSH1 0x20 DUP2 SWAP4 ADD PUSH1 0x26 DUP4 ADD MCOPY ADD PUSH1 0x26 DUP2 ADD PUSH7 0x1E17BA32BC3A1F PUSH1 0xC9 SHL SWAP1 MSTORE PUSH21 0x1E3A32BC3A103C1E91191B9811103C9E911A1A1811 PUSH1 0x59 SHL PUSH1 0x2D DUP3 ADD MSTORE PUSH1 0x42 ADD PUSH2 0x1492 SWAP1 PUSH2 0x2D64 JUMP JUMPDEST PUSH32 0x2020666F6E742D73697A653D2232322220666F6E742D7765696768743D223730 DUP2 MSTORE PUSH2 0x1811 PUSH1 0xF1 SHL PUSH1 0x20 DUP3 ADD MSTORE PUSH1 0x22 ADD PUSH8 0x10103334B6361E91 PUSH1 0xC1 SHL DUP2 MSTORE DUP4 MLOAD SWAP1 DUP2 PUSH1 0x20 DUP7 ADD PUSH1 0x8 DUP4 ADD MCOPY ADD PUSH1 0x8 DUP2 ADD PUSH32 0x2220746578742D616E63686F723D226D6964646C65223E000000000000000000 SWAP1 MSTORE DUP2 MLOAD PUSH1 0x20 DUP2 SWAP4 ADD PUSH1 0x1F DUP4 ADD MCOPY PUSH1 0xF PUSH1 0xFB SHL PUSH1 0x1F SWAP3 SWAP1 SWAP2 ADD SWAP2 DUP3 ADD MSTORE PUSH7 0x1E17BA32BC3A1F PUSH1 0xC9 SHL PUSH1 0x20 DUP3 ADD MSTORE PUSH32 0x3C7465787420783D223133302220793D223435382220666F6E742D66616D696C PUSH1 0x27 DUP3 ADD MSTORE PUSH32 0x793D22417269616C2C73616E732D73657269662220666F6E742D73697A653D22 PUSH1 0x47 DUP3 ADD DUP2 SWAP1 MSTORE PUSH32 0x3130222066696C6C3D22233535352220746578742D616E63686F723D226D6964 PUSH1 0x67 DUP4 ADD DUP2 SWAP1 MSTORE PUSH17 0x323632911F3637B0B7399E17BA32BC3A1F PUSH1 0x79 SHL PUSH1 0x87 DUP5 ADD MSTORE PUSH32 0x3C7465787420783D223237302220793D223435382220666F6E742D66616D696C PUSH1 0x98 DUP5 ADD MSTORE PUSH1 0xB8 DUP4 ADD SWAP2 SWAP1 SWAP2 MSTORE PUSH1 0xD8 DUP3 ADD MSTORE PUSH18 0x323632911F39BA3932B0B59E17BA32BC3A1F PUSH1 0x71 SHL PUSH1 0xF8 DUP3 ADD MSTORE PUSH21 0x1E3A32BC3A103C1E9119181811103C9E911A1C9C11 PUSH1 0x59 SHL PUSH2 0x10A DUP3 ADD MSTORE PUSH2 0x163B SWAP1 PUSH2 0x11F ADD PUSH2 0x2D64 JUMP JUMPDEST PUSH32 0x2020666F6E742D73697A653D223131222066696C6C3D22233636362220746578 DUP2 MSTORE PUSH1 0x20 DUP2 ADD PUSH32 0x742D616E63686F723D226D6964646C6522206C65747465722D73706163696E67 SWAP1 MSTORE PUSH5 0x1E9119111F PUSH1 0xD9 SHL PUSH1 0x40 DUP3 ADD MSTORE DUP2 MLOAD PUSH1 0x20 DUP2 SWAP4 ADD PUSH1 0x45 DUP4 ADD MCOPY PUSH7 0x1022A0A92722A9 PUSH1 0xC9 SHL PUSH1 0x45 SWAP3 SWAP1 SWAP2 ADD SWAP2 DUP3 ADD MSTORE PUSH7 0x1E17BA32BC3A1F PUSH1 0xC9 SHL PUSH1 0x4C DUP3 ADD MSTORE PUSH21 0x1E3A32BC3A103C1E9119181811103C9E911A999A91 PUSH1 0x59 SHL PUSH1 0x53 DUP3 ADD MSTORE PUSH32 0x2020666F6E742D66616D696C793D2227417269616C20426C61636B272C207361 PUSH1 0x68 DUP3 ADD MSTORE PUSH9 0x373996B9B2B934B311 PUSH1 0xB9 SHL PUSH1 0x88 DUP3 ADD MSTORE PUSH1 0x91 ADD PUSH32 0x2020666F6E742D73697A653D223133222066696C6C3D22000000000000000000 DUP2 MSTORE DUP2 MLOAD SWAP1 DUP2 PUSH1 0x20 DUP5 ADD PUSH1 0x17 DUP4 ADD MCOPY PUSH1 0x11 PUSH1 0xF9 SHL PUSH1 0x17 SWAP3 SWAP1 SWAP2 ADD SWAP2 DUP3 ADD MSTORE PUSH32 0x20206F7061636974793D22302E352220746578742D616E63686F723D226D6964 PUSH1 0x18 DUP3 ADD MSTORE PUSH32 0x646C6522206C65747465722D73706163696E673D2234223E0000000000000000 PUSH1 0x38 DUP3 ADD MSTORE PUSH9 0x15149554D513115391 PUSH1 0xBA SHL PUSH1 0x50 DUP3 ADD MSTORE PUSH7 0x1E17BA32BC3A1F PUSH1 0xC9 SHL PUSH1 0x59 DUP3 ADD MSTORE PUSH32 0x3C636972636C652063783D22333022202063793D223330222020723D22342220 PUSH1 0x60 DUP3 ADD MSTORE PUSH6 0x3334B6361E91 PUSH1 0xD1 SHL PUSH1 0x80 DUP3 ADD DUP2 SWAP1 MSTORE DUP3 MLOAD SWAP1 SWAP3 SWAP2 DUP2 PUSH1 0x20 DUP5 ADD PUSH1 0x86 DUP4 ADD MCOPY ADD SWAP1 PUSH18 0x111037B830B1B4BA3C9E911817191A91179F PUSH1 0x71 SHL SWAP2 DUP3 PUSH1 0x86 DUP3 ADD MSTORE PUSH1 0x98 DUP2 ADD PUSH32 0x3C636972636C652063783D22333730222063793D223330222020723D22342220 SWAP1 MSTORE DUP4 PUSH1 0xB8 DUP3 ADD MSTORE DUP2 MLOAD SWAP1 DUP2 PUSH1 0x20 DUP5 ADD PUSH1 0xBE DUP4 ADD MCOPY ADD DUP3 PUSH1 0xBE DUP3 ADD MSTORE PUSH1 0xD0 DUP2 ADD PUSH32 0x3C636972636C652063783D22333022202063793D223533302220723D22342220 SWAP1 MSTORE DUP4 PUSH1 0xF0 DUP3 ADD MSTORE DUP2 MLOAD SWAP1 DUP2 PUSH1 0x20 DUP5 ADD PUSH1 0xF6 DUP4 ADD MCOPY ADD SWAP3 DUP3 PUSH1 0xF6 DUP6 ADD MSTORE PUSH2 0x108 DUP5 ADD PUSH32 0x3C636972636C652063783D22333730222063793D223533302220723D22342220 SWAP1 MSTORE PUSH2 0x128 DUP5 ADD MSTORE PUSH2 0x12E SWAP3 DUP2 MLOAD PUSH1 0x20 DUP2 SWAP4 ADD DUP6 DUP4 ADD MCOPY ADD SWAP2 DUP3 ADD MSTORE PUSH2 0x140 DUP2 ADD PUSH6 0x1E17B9BB339F PUSH1 0xD1 SHL SWAP1 MSTORE SUB PUSH2 0x126 DUP2 ADD DUP3 MSTORE PUSH2 0x146 ADD PUSH2 0x191B SWAP1 DUP3 PUSH2 0x29FD JUMP JUMPDEST PUSH2 0x1924 SWAP1 PUSH2 0x308A JUMP JUMPDEST SWAP1 PUSH1 0x40 MLOAD DUP1 SWAP3 PUSH1 0x20 DUP3 ADD PUSH32 0x646174613A696D6167652F7376672B786D6C3B6261736536342C000000000000 SWAP1 MSTORE DUP1 MLOAD PUSH1 0x20 DUP2 SWAP3 ADD PUSH1 0x3A DUP5 ADD MCOPY DUP2 ADD PUSH1 0x3A DUP2 ADD PUSH0 SWAP1 MSTORE SUB PUSH1 0x1A DUP2 ADD DUP4 MSTORE PUSH1 0x3A ADD PUSH2 0x197A SWAP1 DUP4 PUSH2 0x29FD JUMP JUMPDEST PUSH2 0x1985 PUSH1 0x4 CALLDATALOAD PUSH2 0x2D97 JUMP JUMPDEST SWAP1 DUP1 MLOAD PUSH1 0xFF AND PUSH2 0x1994 SWAP1 PUSH2 0x2D97 JUMP JUMPDEST PUSH1 0x20 DUP3 ADD MLOAD PUSH1 0x40 DUP4 ADD MLOAD PUSH2 0x19A7 SWAP1 PUSH2 0x2D97 JUMP JUMPDEST SWAP3 PUSH1 0x60 DUP2 ADD MLOAD PUSH2 0x19B6 SWAP1 PUSH2 0x2D97 JUMP JUMPDEST SWAP2 PUSH1 0x80 DUP3 ADD MLOAD PUSH2 0x19C5 SWAP1 PUSH2 0x2D97 JUMP JUMPDEST SWAP5 PUSH1 0xA0 DUP4 ADD MLOAD PUSH2 0x19D4 SWAP1 PUSH2 0x2D97 JUMP JUMPDEST SWAP1 PUSH1 0xC0 DUP5 ADD MLOAD PUSH1 0xFF AND PUSH2 0x19E6 SWAP1 PUSH2 0x2D97 JUMP JUMPDEST SWAP4 PUSH1 0xE0 ADD MLOAD SWAP6 PUSH1 0x40 MLOAD SWAP10 DUP11 SWAP10 PUSH1 0x20 DUP12 ADD PUSH32 0x7B226E616D65223A2254727573744C656E642052657075746174696F6E202300 SWAP1 MSTORE DUP1 MLOAD PUSH1 0x20 DUP2 SWAP3 ADD PUSH1 0x3F DUP14 ADD MCOPY PUSH2 0x88B PUSH1 0xF2 SHL SWAP1 DUP12 ADD PUSH1 0x3F DUP2 ADD DUP3 SWAP1 MSTORE PUSH32 0x226465736372697074696F6E223A22536F756C626F756E64206F6E2D63686169 PUSH1 0x41 DUP3 ADD MSTORE PUSH32 0x6E20637265646974206964656E7469747920666F72207468652054727573744C PUSH1 0x61 DUP3 ADD MSTORE PUSH15 0x195B99081C1C9BDD1BD8DBDB0B888B PUSH1 0x8A SHL PUSH1 0x81 DUP3 ADD MSTORE PUSH9 0x1134B6B0B3B2911D11 PUSH1 0xB9 SHL PUSH1 0x90 DUP3 ADD MSTORE DUP3 MLOAD SWAP2 SWAP3 DUP3 SWAP1 PUSH1 0x20 ADD PUSH1 0x99 DUP4 ADD MCOPY ADD SWAP1 PUSH1 0x99 DUP3 ADD MSTORE PUSH14 0x2261747472696275746573223A5B PUSH1 0x90 SHL PUSH1 0x9B DUP3 ADD MSTORE PUSH1 0xA9 DUP2 ADD PUSH32 0x7B2274726169745F74797065223A2254727573742053636F7265222C2276616C SWAP1 MSTORE PUSH4 0x3AB2911D PUSH1 0xE1 SHL PUSH1 0xC9 DUP3 ADD MSTORE DUP2 MLOAD PUSH1 0x20 DUP2 SWAP4 ADD PUSH1 0xCD DUP4 ADD MCOPY ADD PUSH2 0x1F4B PUSH1 0xF2 SHL SWAP8 DUP9 DUP1 SWAP8 DUP2 SWAP7 DUP5 DUP4 PUSH1 0xCD DUP2 SWAP8 ADD MSTORE PUSH1 0xCF DUP2 ADD PUSH32 0x7B2274726169745F74797065223A2254696572222C2276616C7565223A220000 SWAP1 MSTORE DUP2 MLOAD PUSH1 0x20 DUP2 SWAP4 ADD PUSH1 0xED DUP4 ADD MCOPY ADD SWAP11 DUP12 SWAP6 PUSH3 0x89F4B PUSH1 0xEA SHL PUSH1 0xED DUP9 ADD MSTORE PUSH1 0xF0 DUP8 ADD PUSH32 0x7B2274726169745F74797065223A224C6F616E7320526570616964222C227661 SWAP1 MSTORE PUSH5 0x363AB2911D PUSH1 0xD9 SHL PUSH2 0x110 DUP2 SWAP9 ADD MSTORE PUSH2 0x115 SWAP13 DUP2 DUP15 SWAP3 MLOAD SWAP3 PUSH1 0x20 DUP5 SWAP3 ADD SWAP1 DUP4 ADD MCOPY ADD SWAP12 DUP13 ADD MSTORE PUSH32 0x7B2274726169745F74797065223A22546F74616C20426F72726F776564222C22 PUSH2 0x117 DUP13 ADD MSTORE PUSH7 0x3B30B63AB2911D PUSH1 0xC9 SHL PUSH2 0x137 DUP13 ADD MSTORE DUP1 MLOAD PUSH2 0x13E SWAP12 SWAP1 SWAP2 DUP3 SWAP1 PUSH1 0x20 ADD DUP14 DUP4 ADD MCOPY ADD SWAP10 DUP11 ADD MSTORE PUSH2 0x140 DUP10 ADD PUSH32 0x7B2274726169745F74797065223A22546F74616C20526570616964222C227661 SWAP1 MSTORE DUP3 PUSH2 0x160 DUP11 ADD MSTORE PUSH2 0x165 SWAP9 DUP2 MLOAD PUSH1 0x20 DUP2 SWAP4 ADD DUP12 DUP4 ADD MCOPY ADD SWAP8 DUP9 ADD MSTORE PUSH2 0x167 DUP8 ADD PUSH32 0x7B2274726169745F74797065223A224D656D6265722053696E6365222C227661 SWAP1 MSTORE PUSH2 0x187 DUP8 ADD MSTORE PUSH2 0x18C SWAP6 DUP2 MLOAD PUSH1 0x20 DUP2 SWAP4 ADD DUP9 DUP4 ADD MCOPY ADD SWAP5 DUP6 ADD MSTORE PUSH32 0x7B2274726169745F74797065223A2252657061796D656E742053747265616B22 PUSH2 0x18E DUP6 ADD MSTORE PUSH9 0x16113B30B63AB2911D PUSH1 0xB9 SHL PUSH2 0x1AE DUP6 ADD MSTORE DUP1 MLOAD PUSH2 0x1B7 SWAP5 SWAP1 SWAP2 DUP3 SWAP1 PUSH1 0x20 ADD DUP7 DUP4 ADD MCOPY ADD SWAP3 DUP4 ADD MSTORE PUSH32 0x7B2274726169745F74797065223A224561726E696E6720417263686574797065 PUSH2 0x1B9 DUP4 ADD MSTORE PUSH11 0x1116113B30B63AB2911D11 PUSH1 0xA9 SHL PUSH2 0x1D9 DUP4 ADD MSTORE DUP1 MLOAD PUSH2 0x1E4 SWAP3 SWAP1 SWAP2 DUP3 SWAP1 PUSH1 0x20 ADD DUP5 DUP4 ADD MCOPY ADD SWAP1 PUSH2 0x227D PUSH1 0xF0 SHL SWAP1 DUP3 ADD MSTORE PUSH2 0x1E6 DUP2 ADD PUSH2 0x5D7D PUSH1 0xF0 SHL SWAP1 MSTORE SUB PUSH2 0x1C8 DUP2 ADD DUP3 MSTORE PUSH2 0x1E8 ADD PUSH2 0x1D5C SWAP1 DUP3 PUSH2 0x29FD JUMP JUMPDEST PUSH2 0x1D65 SWAP1 PUSH2 0x308A JUMP JUMPDEST PUSH1 0x40 MLOAD DUP1 SWAP2 PUSH1 0x20 DUP3 ADD PUSH32 0x646174613A6170706C69636174696F6E2F6A736F6E3B6261736536342C000000 SWAP1 MSTORE DUP1 MLOAD PUSH1 0x20 DUP2 SWAP3 ADD PUSH1 0x3D DUP5 ADD MCOPY DUP2 ADD PUSH1 0x3D DUP2 ADD PUSH0 SWAP1 MSTORE SUB PUSH1 0x1D DUP2 ADD DUP3 MSTORE PUSH1 0x3D ADD PUSH2 0x1DBA SWAP1 DUP3 PUSH2 0x29FD JUMP JUMPDEST PUSH1 0x40 MLOAD DUP1 SWAP2 PUSH1 0x20 DUP3 MSTORE PUSH1 0x20 DUP3 ADD PUSH2 0x1DD0 SWAP2 PUSH2 0x2923 JUMP JUMPDEST SUB SWAP1 RETURN JUMPDEST CALLVALUE PUSH2 0x1AB JUMPI PUSH1 0x80 CALLDATASIZE PUSH1 0x3 NOT ADD SLT PUSH2 0x1AB JUMPI PUSH2 0x1DED PUSH2 0x2947 JUMP JUMPDEST POP PUSH2 0x1DF6 PUSH2 0x295D JUMP JUMPDEST POP PUSH1 0x64 CALLDATALOAD PUSH8 0xFFFFFFFFFFFFFFFF DUP2 GT PUSH2 0x1AB JUMPI CALLDATASIZE PUSH1 0x23 DUP3 ADD SLT ISZERO PUSH2 0x1AB JUMPI DUP1 PUSH1 0x4 ADD CALLDATALOAD SWAP1 PUSH2 0x1E23 DUP3 PUSH2 0x2A1F JUMP JUMPDEST SWAP2 PUSH2 0x1E31 PUSH1 0x40 MLOAD SWAP4 DUP5 PUSH2 0x29FD JUMP JUMPDEST DUP1 DUP4 MSTORE CALLDATASIZE PUSH1 0x24 DUP3 DUP5 ADD ADD GT PUSH2 0x1AB JUMPI PUSH0 SWAP3 DUP2 PUSH1 0x24 PUSH1 0x20 SWAP5 ADD DUP5 DUP4 ADD CALLDATACOPY ADD ADD MSTORE PUSH2 0x784 JUMP JUMPDEST CALLVALUE PUSH2 0x1AB JUMPI PUSH1 0x20 CALLDATASIZE PUSH1 0x3 NOT ADD SLT PUSH2 0x1AB JUMPI PUSH1 0x1 PUSH1 0x1 PUSH1 0xA0 SHL SUB PUSH2 0x1E76 PUSH2 0x2947 JUMP JUMPDEST AND PUSH0 MSTORE PUSH1 0x9 PUSH1 0x20 MSTORE PUSH1 0x40 PUSH0 KECCAK256 SLOAD PUSH2 0x1E8E DUP2 ISZERO ISZERO PUSH2 0x2BBE JUMP JUMPDEST PUSH0 MSTORE PUSH1 0xA PUSH1 0x20 MSTORE PUSH2 0x1DD0 PUSH2 0x1EA7 PUSH1 0x1 PUSH1 0x40 PUSH0 KECCAK256 ADD PUSH2 0x2A73 JUMP JUMPDEST PUSH1 0x40 MLOAD SWAP2 DUP3 SWAP2 PUSH1 0x20 DUP4 MSTORE PUSH1 0x20 DUP4 ADD SWAP1 PUSH2 0x2923 JUMP JUMPDEST CALLVALUE PUSH2 0x1AB JUMPI PUSH1 0x40 CALLDATASIZE PUSH1 0x3 NOT ADD SLT PUSH2 0x1AB JUMPI PUSH2 0x1ED4 PUSH2 0x2947 JUMP JUMPDEST POP PUSH1 0x24 CALLDATALOAD DUP1 ISZERO ISZERO EQ PUSH2 0x784 JUMPI PUSH0 DUP1 REVERT JUMPDEST CALLVALUE PUSH2 0x1AB JUMPI PUSH1 0x20 DUP1 PUSH1 0x3 NOT CALLDATASIZE ADD SLT PUSH2 0x1AB JUMPI PUSH1 0xFF SWAP1 PUSH2 0x1F01 PUSH2 0x2947 JUMP JUMPDEST PUSH1 0x60 PUSH1 0xE0 PUSH1 0x40 MLOAD PUSH2 0x1F11 DUP2 PUSH2 0x29A8 JUMP JUMPDEST PUSH0 DUP2 MSTORE DUP3 DUP6 DUP3 ADD MSTORE PUSH0 PUSH1 0x40 DUP3 ADD MSTORE PUSH0 DUP4 DUP3 ADD MSTORE PUSH0 PUSH1 0x80 DUP3 ADD MSTORE PUSH0 PUSH1 0xA0 DUP3 ADD MSTORE PUSH0 PUSH1 0xC0 DUP3 ADD MSTORE ADD MSTORE PUSH1 0x1 DUP1 PUSH1 0xA0 SHL SUB AND PUSH0 MSTORE PUSH1 0x9 DUP2 MSTORE PUSH1 0x40 PUSH0 KECCAK256 SLOAD PUSH2 0x1F56 DUP2 ISZERO ISZERO PUSH2 0x2BBE JUMP JUMPDEST PUSH0 MSTORE PUSH1 0xA DUP2 MSTORE PUSH2 0x1DD0 PUSH1 0x40 PUSH0 KECCAK256 PUSH1 0x40 MLOAD SWAP3 PUSH2 0x1F70 DUP5 PUSH2 0x29A8 JUMP JUMPDEST DUP5 DUP3 SLOAD AND DUP5 MSTORE PUSH2 0x1F82 PUSH1 0x1 DUP4 ADD PUSH2 0x2A73 JUMP JUMPDEST SWAP1 DUP1 DUP6 ADD SWAP2 DUP3 MSTORE DUP6 PUSH1 0x2 DUP5 ADD SLOAD SWAP4 PUSH1 0x40 DUP8 ADD SWAP5 DUP6 MSTORE PUSH1 0x3 DUP2 ADD SLOAD SWAP4 PUSH1 0x60 DUP9 ADD SWAP5 DUP6 MSTORE PUSH1 0x4 DUP3 ADD SLOAD PUSH1 0x80 DUP10 ADD SWAP1 DUP2 MSTORE PUSH1 0x5 DUP4 ADD SLOAD SWAP2 PUSH1 0xA0 DUP11 ADD SWAP3 DUP4 MSTORE PUSH2 0x1FD7 PUSH1 0x7 DUP7 PUSH1 0x6 DUP8 ADD SLOAD AND SWAP6 PUSH1 0xC0 DUP14 ADD SWAP7 DUP8 MSTORE ADD PUSH2 0x2A73 JUMP JUMPDEST SWAP6 PUSH1 0xE0 DUP12 ADD SWAP7 DUP8 MSTORE PUSH1 0x40 MLOAD SWAP12 DUP13 SWAP12 DUP3 DUP14 MSTORE MLOAD AND SWAP1 DUP12 ADD MSTORE MLOAD SWAP6 PUSH2 0x2008 PUSH2 0x100 SWAP8 DUP9 PUSH1 0x40 DUP14 ADD MSTORE PUSH2 0x120 DUP13 ADD SWAP1 PUSH2 0x2923 JUMP JUMPDEST SWAP8 MLOAD PUSH1 0x60 DUP12 ADD MSTORE MLOAD PUSH1 0x80 DUP11 ADD MSTORE MLOAD PUSH1 0xA0 DUP10 ADD MSTORE MLOAD PUSH1 0xC0 DUP9 ADD MSTORE MLOAD AND PUSH1 0xE0 DUP7 ADD MSTORE MLOAD SWAP1 PUSH1 0x1F NOT DUP6 DUP5 SUB ADD SWAP1 DUP6 ADD MSTORE PUSH2 0x2923 JUMP JUMPDEST CALLVALUE PUSH2 0x1AB JUMPI PUSH0 CALLDATASIZE PUSH1 0x3 NOT ADD SLT PUSH2 0x1AB JUMPI PUSH1 0x40 MLOAD PUSH0 PUSH1 0x1 DUP3 PUSH1 0x1 SLOAD SWAP3 PUSH2 0x205E DUP5 PUSH2 0x2A3B JUMP JUMPDEST SWAP3 DUP4 DUP4 MSTORE PUSH1 0x20 SWAP5 DUP6 PUSH1 0x1 DUP3 AND SWAP2 DUP3 PUSH0 EQ PUSH2 0x20F8 JUMPI POP POP PUSH1 0x1 EQ PUSH2 0x209D JUMPI JUMPDEST POP PUSH2 0x2089 SWAP3 POP SUB DUP4 PUSH2 0x29FD JUMP JUMPDEST PUSH2 0x1DD0 PUSH1 0x40 MLOAD SWAP3 DUP3 DUP5 SWAP4 DUP5 MSTORE DUP4 ADD SWAP1 PUSH2 0x2923 JUMP JUMPDEST DUP5 SWAP2 POP PUSH1 0x1 PUSH0 MSTORE PUSH32 0xB10E2D527612073B26EECDFD717E6A320CF44B4AFAC2B0732D9FCBE2B7FA0CF6 SWAP1 PUSH0 SWAP2 JUMPDEST DUP6 DUP4 LT PUSH2 0x20E0 JUMPI POP POP PUSH2 0x2089 SWAP4 POP DUP3 ADD ADD DUP6 PUSH2 0x207C JUMP JUMPDEST DUP1 SLOAD DUP4 DUP10 ADD DUP6 ADD MSTORE DUP8 SWAP5 POP DUP7 SWAP4 SWAP1 SWAP3 ADD SWAP2 DUP2 ADD PUSH2 0x20C9 JUMP JUMPDEST PUSH1 0xFF NOT AND DUP6 DUP3 ADD MSTORE PUSH2 0x2089 SWAP6 ISZERO ISZERO PUSH1 0x5 SHL DUP6 ADD ADD SWAP3 POP DUP8 SWAP2 POP PUSH2 0x207C SWAP1 POP JUMP JUMPDEST CALLVALUE PUSH2 0x1AB JUMPI PUSH0 CALLDATASIZE PUSH1 0x3 NOT ADD SLT PUSH2 0x1AB JUMPI PUSH1 0x6 SLOAD PUSH1 0x40 MLOAD PUSH1 0x1 PUSH1 0x1 PUSH1 0xA0 SHL SUB SWAP1 SWAP2 AND DUP2 MSTORE PUSH1 0x20 SWAP1 RETURN JUMPDEST CALLVALUE PUSH2 0x1AB JUMPI PUSH1 0x20 CALLDATASIZE PUSH1 0x3 NOT ADD SLT PUSH2 0x1AB JUMPI PUSH1 0x1 PUSH1 0x1 PUSH1 0xA0 SHL SUB PUSH2 0x2161 PUSH2 0x2947 JUMP JUMPDEST AND PUSH0 MSTORE PUSH1 0x9 PUSH1 0x20 MSTORE PUSH1 0x20 PUSH1 0x40 PUSH0 KECCAK256 SLOAD ISZERO ISZERO PUSH1 0x40 MLOAD SWAP1 DUP2 MSTORE RETURN JUMPDEST CALLVALUE PUSH2 0x1AB JUMPI PUSH1 0x20 CALLDATASIZE PUSH1 0x3 NOT ADD SLT PUSH2 0x1AB JUMPI PUSH1 0x1 PUSH1 0x1 PUSH1 0xA0 SHL SUB PUSH2 0x219B PUSH2 0x2947 JUMP JUMPDEST AND PUSH0 MSTORE PUSH1 0x9 PUSH1 0x20 MSTORE PUSH1 0x20 PUSH1 0x40 PUSH0 KECCAK256 SLOAD PUSH1 0x40 MLOAD SWAP1 DUP2 MSTORE RETURN JUMPDEST CALLVALUE PUSH2 0x1AB JUMPI PUSH0 CALLDATASIZE PUSH1 0x3 NOT ADD SLT PUSH2 0x1AB JUMPI PUSH2 0x21CA PUSH2 0x2C92 JUMP JUMPDEST PUSH1 0x6 DUP1 SLOAD PUSH1 0x1 PUSH1 0x1 PUSH1 0xA0 SHL SUB NOT DUP2 AND SWAP1 SWAP2 SSTORE PUSH0 SWAP1 PUSH1 0x1 PUSH1 0x1 PUSH1 0xA0 SHL SUB AND PUSH32 0x8BE0079C531659141344CD1FD0A4F28419497F9722A3DAAFE3B4186F6B6457E0 DUP3 DUP1 LOG3 STOP JUMPDEST CALLVALUE PUSH2 0x1AB JUMPI PUSH1 0x20 CALLDATASIZE PUSH1 0x3 NOT ADD SLT PUSH2 0x1AB JUMPI PUSH1 0x1 PUSH1 0x1 PUSH1 0xA0 SHL SUB PUSH2 0x222E PUSH2 0x2947 JUMP JUMPDEST AND DUP1 ISZERO PUSH2 0x224B JUMPI PUSH0 MSTORE PUSH1 0x3 PUSH1 0x20 MSTORE PUSH1 0x20 PUSH1 0x40 PUSH0 KECCAK256 SLOAD PUSH1 0x40 MLOAD SWAP1 DUP2 MSTORE RETURN JUMPDEST PUSH1 0x40 MLOAD PUSH4 0x22718AD9 PUSH1 0xE2 SHL DUP2 MSTORE PUSH0 PUSH1 0x4 DUP3 ADD MSTORE PUSH1 0x24 SWAP1 REVERT JUMPDEST CALLVALUE PUSH2 0x1AB JUMPI PUSH1 0x20 CALLDATASIZE PUSH1 0x3 NOT ADD SLT PUSH2 0x1AB JUMPI PUSH1 0x20 PUSH2 0x2281 PUSH1 0x4 CALLDATALOAD PUSH2 0x2C58 JUMP JUMPDEST PUSH1 0x40 MLOAD PUSH1 0x1 PUSH1 0x1 PUSH1 0xA0 SHL SUB SWAP1 SWAP2 AND DUP2 MSTORE RETURN JUMPDEST CALLVALUE PUSH2 0x1AB JUMPI PUSH2 0x22A1 CALLDATASIZE PUSH2 0x2973 JUMP JUMPDEST POP POP POP PUSH0 PUSH1 0x40 MLOAD PUSH2 0x22B1 DUP2 PUSH2 0x29E1 JUMP JUMPDEST MSTORE PUSH2 0x784 JUMP JUMPDEST CALLVALUE PUSH2 0x1AB JUMPI PUSH1 0x80 CALLDATASIZE PUSH1 0x3 NOT ADD SLT PUSH2 0x1AB JUMPI PUSH2 0x22D0 PUSH2 0x2947 JUMP JUMPDEST PUSH1 0x24 CALLDATALOAD PUSH1 0xFF DUP2 AND DUP2 SUB PUSH2 0x1AB JUMPI PUSH1 0x64 CALLDATALOAD SWAP2 DUP3 ISZERO ISZERO DUP4 SUB PUSH2 0x1AB JUMPI PUSH1 0x7 SLOAD PUSH1 0x1 PUSH1 0x1 PUSH1 0xA0 SHL SUB SWAP2 SWAP1 PUSH2 0x2304 SWAP1 DUP4 AND CALLER EQ PUSH2 0x2B61 JUMP JUMPDEST PUSH2 0x2311 DUP3 DUP3 AND ISZERO ISZERO PUSH2 0x2B15 JUMP JUMPDEST PUSH1 0x64 PUSH1 0xFF DUP5 AND GT PUSH2 0x26E8 JUMPI DUP2 DUP2 AND PUSH0 MSTORE PUSH1 0x9 PUSH1 0x20 MSTORE PUSH1 0x40 PUSH0 KECCAK256 SLOAD PUSH2 0x2336 DUP2 ISZERO ISZERO PUSH2 0x2BBE JUMP JUMPDEST PUSH0 MSTORE PUSH1 0xA PUSH1 0x20 MSTORE PUSH1 0x40 PUSH0 KECCAK256 SWAP4 DUP5 SLOAD SWAP4 PUSH2 0x234E DUP2 PUSH2 0x2D22 JUMP JUMPDEST SWAP2 ISZERO PUSH2 0x26E1 JUMPI PUSH1 0xFF PUSH1 0x6 DUP8 ADD SLOAD AND PUSH1 0xFF DUP2 LT PUSH0 EQ PUSH2 0x26D9 JUMPI PUSH1 0x1 ADD PUSH1 0xFF DUP2 GT PUSH2 0x7E6 JUMPI JUMPDEST SWAP6 JUMPDEST PUSH1 0x1E PUSH1 0xFF DUP9 AND LT PUSH2 0x269B JUMPI PUSH1 0x40 MLOAD PUSH2 0x238B DUP2 PUSH2 0x29C5 JUMP JUMPDEST PUSH1 0x8 DUP2 MSTORE PUSH8 0x14D9585CDBDB985B PUSH1 0xC2 SHL PUSH1 0x20 DUP3 ADD MSTORE SWAP1 JUMPDEST PUSH1 0xFF NOT DUP8 AND PUSH1 0xFF DUP5 AND OR DUP2 SSTORE DUP4 MLOAD PUSH8 0xFFFFFFFFFFFFFFFF DUP2 GT PUSH2 0x52A JUMPI PUSH2 0x23CC PUSH1 0x1 DUP4 ADD SLOAD PUSH2 0x2A3B JUMP JUMPDEST PUSH1 0x1F DUP2 GT PUSH2 0x2657 JUMPI JUMPDEST POP DUP1 PUSH1 0x20 PUSH1 0x1F DUP3 GT PUSH1 0x1 EQ PUSH2 0x25EE JUMPI PUSH0 SWAP2 PUSH2 0x25E3 JUMPI JUMPDEST POP DUP2 PUSH1 0x1 SHL SWAP2 PUSH0 NOT SWAP1 PUSH1 0x3 SHL SHR NOT AND OR PUSH1 0x1 DUP3 ADD SSTORE JUMPDEST PUSH1 0x2 DUP2 ADD SWAP1 DUP2 SLOAD PUSH1 0x1 DUP2 ADD DUP1 SWAP2 GT PUSH2 0x7E6 JUMPI PUSH1 0x7 SWAP3 SSTORE PUSH1 0x3 DUP2 ADD PUSH2 0x2428 PUSH1 0x44 CALLDATALOAD DUP3 SLOAD PUSH2 0x2C2A JUMP JUMPDEST SWAP1 SSTORE PUSH1 0x4 DUP2 ADD PUSH2 0x243B PUSH1 0x44 CALLDATALOAD DUP3 SLOAD PUSH2 0x2C2A JUMP JUMPDEST SWAP1 SSTORE PUSH1 0x6 DUP2 ADD DUP1 SLOAD PUSH1 0xFF NOT AND PUSH1 0xFF DUP12 AND OR SWAP1 SSTORE DUP3 MLOAD SWAP2 ADD SWAP2 PUSH8 0xFFFFFFFFFFFFFFFF DUP3 GT PUSH2 0x52A JUMPI PUSH2 0x246C DUP4 SLOAD PUSH2 0x2A3B JUMP JUMPDEST PUSH1 0x1F DUP2 GT PUSH2 0x259E JUMPI JUMPDEST POP PUSH1 0x20 SWAP1 PUSH1 0x1F DUP4 GT PUSH1 0x1 EQ PUSH2 0x250B JUMPI PUSH32 0xDF16ADA4A6CC57BAB5263110A29297549043F745603C193B60864A15E4E2B06D SWAP9 SWAP7 SWAP5 PUSH1 0xFF SWAP9 SWAP7 SWAP3 SWAP5 DUP5 PUSH2 0x24F2 SWAP6 DUP12 SWAP8 DUP9 SWAP6 PUSH0 SWAP3 PUSH2 0x2500 JUMPI JUMPDEST POP POP DUP2 PUSH1 0x1 SHL SWAP2 PUSH0 NOT SWAP1 PUSH1 0x3 SHL SHR NOT AND OR SWAP1 SSTORE JUMPDEST PUSH1 0x40 MLOAD SWAP9 DUP10 SWAP9 AND DUP9 MSTORE AND PUSH1 0x20 DUP8 ADD MSTORE PUSH1 0x80 PUSH1 0x40 DUP8 ADD MSTORE PUSH1 0x80 DUP7 ADD SWAP1 PUSH2 0x2923 JUMP JUMPDEST SWAP7 AND PUSH1 0x60 DUP5 ADD MSTORE AND SWAP4 SUB SWAP1 LOG2 STOP JUMPDEST ADD MLOAD SWAP1 POP DUP15 DUP1 PUSH2 0x24BE JUMP JUMPDEST SWAP1 PUSH1 0x1F NOT DUP4 AND SWAP2 DUP5 PUSH0 MSTORE PUSH1 0x20 PUSH0 KECCAK256 SWAP3 PUSH0 JUMPDEST DUP2 DUP2 LT PUSH2 0x2586 JUMPI POP SWAP5 PUSH1 0x1 DUP6 PUSH1 0xFF SWAP12 SWAP10 SWAP6 DUP13 SWAP9 SWAP6 PUSH32 0xDF16ADA4A6CC57BAB5263110A29297549043F745603C193B60864A15E4E2B06D SWAP15 SWAP13 SWAP11 SWAP6 PUSH2 0x24F2 SWAP10 DUP12 SWAP9 LT PUSH2 0x256E JUMPI JUMPDEST POP POP POP DUP2 SHL ADD SWAP1 SSTORE PUSH2 0x24D2 JUMP JUMPDEST ADD MLOAD PUSH0 NOT PUSH1 0xF8 DUP5 PUSH1 0x3 SHL AND SHR NOT AND SWAP1 SSTORE DUP15 DUP1 DUP1 PUSH2 0x2561 JUMP JUMPDEST SWAP3 SWAP4 PUSH1 0x20 PUSH1 0x1 DUP2 SWAP3 DUP8 DUP7 ADD MLOAD DUP2 SSTORE ADD SWAP6 ADD SWAP4 ADD PUSH2 0x251C JUMP JUMPDEST DUP4 PUSH0 MSTORE PUSH1 0x20 PUSH0 KECCAK256 PUSH1 0x1F DUP5 ADD PUSH1 0x5 SHR DUP2 ADD SWAP2 PUSH1 0x20 DUP6 LT PUSH2 0x25D9 JUMPI JUMPDEST PUSH1 0x1F ADD PUSH1 0x5 SHR ADD SWAP1 JUMPDEST DUP2 DUP2 LT PUSH2 0x25CE JUMPI POP PUSH2 0x2475 JUMP JUMPDEST PUSH0 DUP2 SSTORE PUSH1 0x1 ADD PUSH2 0x25C1 JUMP JUMPDEST SWAP1 SWAP2 POP DUP2 SWAP1 PUSH2 0x25B8 JUMP JUMPDEST SWAP1 POP DUP6 ADD MLOAD DUP11 PUSH2 0x23EB JUMP JUMPDEST SWAP2 POP PUSH1 0x1 DUP4 ADD PUSH0 MSTORE PUSH1 0x20 PUSH0 KECCAK256 PUSH0 SWAP3 JUMPDEST PUSH1 0x1F NOT DUP4 AND DUP5 LT PUSH2 0x263F JUMPI PUSH1 0x1 SWAP4 POP DUP3 PUSH1 0x1F NOT DUP2 AND LT PUSH2 0x2627 JUMPI JUMPDEST POP POP DUP2 SHL ADD PUSH1 0x1 DUP3 ADD SSTORE PUSH2 0x2401 JUMP JUMPDEST DUP8 ADD MLOAD PUSH0 NOT PUSH1 0xF8 DUP5 PUSH1 0x3 SHL AND SHR NOT AND SWAP1 SSTORE DUP11 DUP1 PUSH2 0x2618 JUMP JUMPDEST DUP8 DUP2 ADD MLOAD DUP3 SSTORE PUSH1 0x20 SWAP4 DUP5 ADD SWAP4 PUSH1 0x1 SWAP1 SWAP3 ADD SWAP2 ADD PUSH2 0x25FD JUMP JUMPDEST PUSH1 0x1 DUP4 ADD PUSH0 MSTORE PUSH1 0x20 PUSH0 KECCAK256 PUSH1 0x1F DUP4 ADD PUSH1 0x5 SHR DUP2 ADD PUSH1 0x20 DUP5 LT PUSH2 0x2694 JUMPI JUMPDEST PUSH1 0x1F DUP4 ADD PUSH1 0x5 SHR DUP3 ADD DUP2 LT PUSH2 0x2689 JUMPI POP POP PUSH2 0x23D5 JUMP JUMPDEST PUSH0 DUP2 SSTORE PUSH1 0x1 ADD PUSH2 0x2673 JUMP JUMPDEST POP DUP1 PUSH2 0x2673 JUMP JUMPDEST PUSH1 0x7 PUSH1 0xFF DUP9 AND LT PUSH2 0x26CB JUMPI PUSH1 0x40 MLOAD PUSH2 0x26B2 DUP2 PUSH2 0x29C5 JUMP JUMPDEST PUSH1 0x6 DUP2 MSTORE PUSH6 0x5765656B6C79 PUSH1 0xD0 SHL PUSH1 0x20 DUP3 ADD MSTORE SWAP1 PUSH2 0x23A2 JUMP JUMPDEST PUSH2 0x26D3 PUSH2 0x2C09 JUMP JUMPDEST SWAP1 PUSH2 0x23A2 JUMP JUMPDEST POP PUSH1 0xFF PUSH2 0x2372 JUMP JUMPDEST PUSH0 SWAP6 PUSH2 0x2374 JUMP JUMPDEST PUSH1 0x64 PUSH1 0x40 MLOAD PUSH3 0x461BCD PUSH1 0xE5 SHL DUP2 MSTORE PUSH1 0x20 PUSH1 0x4 DUP3 ADD MSTORE PUSH1 0x20 PUSH1 0x24 DUP3 ADD MSTORE PUSH32 0x52657075746174696F6E4E46543A2073636F7265206578636565647320313030 PUSH1 0x44 DUP3 ADD MSTORE REVERT JUMPDEST CALLVALUE PUSH2 0x1AB JUMPI PUSH2 0x273A CALLDATASIZE PUSH2 0x2973 JUMP JUMPDEST POP POP POP PUSH2 0x784 JUMP JUMPDEST CALLVALUE PUSH2 0x1AB JUMPI PUSH1 0x20 CALLDATASIZE PUSH1 0x3 NOT ADD SLT PUSH2 0x1AB JUMPI PUSH2 0x275B PUSH2 0x2947 JUMP JUMPDEST PUSH2 0x2763 PUSH2 0x2C92 JUMP JUMPDEST PUSH1 0x1 PUSH1 0x1 PUSH1 0xA0 SHL SUB SWAP1 DUP2 AND SWAP1 PUSH2 0x277A DUP3 ISZERO ISZERO PUSH2 0x2B15 JUMP JUMPDEST PUSH1 0x7 SLOAD DUP3 PUSH1 0x1 PUSH1 0x1 PUSH1 0x60 SHL SUB PUSH1 0xA0 SHL DUP3 AND OR PUSH1 0x7 SSTORE AND PUSH32 0xB8852E851BDABDA04C25661CFBFA7B09B3019206382F067A349AF593E883214A PUSH0 DUP1 LOG3 STOP JUMPDEST CALLVALUE PUSH2 0x1AB JUMPI PUSH1 0x40 CALLDATASIZE PUSH1 0x3 NOT ADD SLT PUSH2 0x1AB JUMPI PUSH2 0x27CF PUSH2 0x2947 JUMP JUMPDEST POP PUSH2 0x784 JUMP JUMPDEST CALLVALUE PUSH2 0x1AB JUMPI PUSH1 0x20 CALLDATASIZE PUSH1 0x3 NOT ADD SLT PUSH2 0x1AB JUMPI PUSH1 0x4 CALLDATALOAD PUSH2 0x27F2 DUP2 PUSH2 0x2C58 JUMP JUMPDEST POP PUSH0 MSTORE PUSH1 0x4 PUSH1 0x20 MSTORE PUSH1 0x20 PUSH1 0x1 DUP1 PUSH1 0xA0 SHL SUB PUSH1 0x40 PUSH0 KECCAK256 SLOAD AND PUSH1 0x40 MLOAD SWAP1 DUP2 MSTORE RETURN JUMPDEST CALLVALUE PUSH2 0x1AB JUMPI PUSH0 CALLDATASIZE PUSH1 0x3 NOT ADD SLT PUSH2 0x1AB JUMPI PUSH1 0x40 MLOAD PUSH0 DUP1 SLOAD SWAP1 DUP3 PUSH2 0x2832 DUP4 PUSH2 0x2A3B JUMP JUMPDEST SWAP2 DUP3 DUP3 MSTORE PUSH1 0x20 SWAP4 PUSH1 0x1 SWAP1 DUP6 PUSH1 0x1 DUP3 AND SWAP2 DUP3 PUSH0 EQ PUSH2 0x20F8 JUMPI POP POP PUSH1 0x1 EQ PUSH2 0x285F JUMPI POP PUSH2 0x2089 SWAP3 POP SUB DUP4 PUSH2 0x29FD JUMP JUMPDEST PUSH0 DUP1 DUP1 MSTORE DUP6 SWAP3 POP SWAP1 PUSH32 0x290DECD9548B62A8D60345A988386FC84BA6BC95484008F6362F93160EF3E563 JUMPDEST DUP6 DUP4 LT PUSH2 0x28A0 JUMPI POP POP PUSH2 0x2089 SWAP4 POP DUP3 ADD ADD DUP6 PUSH2 0x207C JUMP JUMPDEST DUP1 SLOAD DUP4 DUP10 ADD DUP6 ADD MSTORE DUP8 SWAP5 POP DUP7 SWAP4 SWAP1 SWAP3 ADD SWAP2 DUP2 ADD PUSH2 0x2889 JUMP JUMPDEST CALLVALUE PUSH2 0x1AB JUMPI PUSH1 0x20 CALLDATASIZE PUSH1 0x3 NOT ADD SLT PUSH2 0x1AB JUMPI PUSH1 0x4 CALLDATALOAD SWAP1 PUSH4 0xFFFFFFFF PUSH1 0xE0 SHL DUP3 AND DUP1 SWAP3 SUB PUSH2 0x1AB JUMPI PUSH1 0x20 SWAP2 PUSH4 0x80AC58CD PUSH1 0xE0 SHL DUP2 EQ SWAP1 DUP2 ISZERO PUSH2 0x2912 JUMPI JUMPDEST DUP2 ISZERO PUSH2 0x2901 JUMPI JUMPDEST POP ISZERO ISZERO DUP2 MSTORE RETURN JUMPDEST PUSH4 0x1FFC9A7 PUSH1 0xE0 SHL EQ SWAP1 POP DUP4 PUSH2 0x28FA JUMP JUMPDEST PUSH4 0x5B5E139F PUSH1 0xE0 SHL DUP2 EQ SWAP2 POP PUSH2 0x28F3 JUMP JUMPDEST DUP1 MLOAD DUP1 DUP4 MSTORE PUSH1 0x20 SWAP3 SWAP2 DUP2 SWAP1 DUP5 ADD DUP5 DUP5 ADD MCOPY PUSH0 DUP3 DUP3 ADD DUP5 ADD MSTORE PUSH1 0x1F ADD PUSH1 0x1F NOT AND ADD ADD SWAP1 JUMP JUMPDEST PUSH1 0x4 CALLDATALOAD SWAP1 PUSH1 0x1 PUSH1 0x1 PUSH1 0xA0 SHL SUB DUP3 AND DUP3 SUB PUSH2 0x1AB JUMPI JUMP JUMPDEST PUSH1 0x24 CALLDATALOAD SWAP1 PUSH1 0x1 PUSH1 0x1 PUSH1 0xA0 SHL SUB DUP3 AND DUP3 SUB PUSH2 0x1AB JUMPI JUMP JUMPDEST PUSH1 0x60 SWAP1 PUSH1 0x3 NOT ADD SLT PUSH2 0x1AB JUMPI PUSH1 0x1 PUSH1 0x1 PUSH1 0xA0 SHL SUB SWAP1 PUSH1 0x4 CALLDATALOAD DUP3 DUP2 AND DUP2 SUB PUSH2 0x1AB JUMPI SWAP2 PUSH1 0x24 CALLDATALOAD SWAP1 DUP2 AND DUP2 SUB PUSH2 0x1AB JUMPI SWAP1 PUSH1 0x44 CALLDATALOAD SWAP1 JUMP JUMPDEST PUSH2 0x100 DUP2 ADD SWAP1 DUP2 LT PUSH8 0xFFFFFFFFFFFFFFFF DUP3 GT OR PUSH2 0x52A JUMPI PUSH1 0x40 MSTORE JUMP JUMPDEST PUSH1 0x40 DUP2 ADD SWAP1 DUP2 LT PUSH8 0xFFFFFFFFFFFFFFFF DUP3 GT OR PUSH2 0x52A JUMPI PUSH1 0x40 MSTORE JUMP JUMPDEST PUSH1 0x20 DUP2 ADD SWAP1 DUP2 LT PUSH8 0xFFFFFFFFFFFFFFFF DUP3 GT OR PUSH2 0x52A JUMPI PUSH1 0x40 MSTORE JUMP JUMPDEST SWAP1 PUSH1 0x1F DUP1 NOT SWAP2 ADD AND DUP2 ADD SWAP1 DUP2 LT PUSH8 0xFFFFFFFFFFFFFFFF DUP3 GT OR PUSH2 0x52A JUMPI PUSH1 0x40 MSTORE JUMP JUMPDEST PUSH8 0xFFFFFFFFFFFFFFFF DUP2 GT PUSH2 0x52A JUMPI PUSH1 0x1F ADD PUSH1 0x1F NOT AND PUSH1 0x20 ADD SWAP1 JUMP JUMPDEST SWAP1 PUSH1 0x1 DUP3 DUP2 SHR SWAP3 AND DUP1 ISZERO PUSH2 0x2A69 JUMPI JUMPDEST PUSH1 0x20 DUP4 LT EQ PUSH2 0x2A55 JUMPI JUMP JUMPDEST PUSH4 0x4E487B71 PUSH1 0xE0 SHL PUSH0 MSTORE PUSH1 0x22 PUSH1 0x4 MSTORE PUSH1 0x24 PUSH0 REVERT JUMPDEST SWAP2 PUSH1 0x7F AND SWAP2 PUSH2 0x2A4A JUMP JUMPDEST SWAP1 PUSH1 0x40 MLOAD SWAP2 DUP3 PUSH0 DUP3 SLOAD PUSH2 0x2A85 DUP2 PUSH2 0x2A3B JUMP JUMPDEST SWAP1 DUP2 DUP5 MSTORE PUSH1 0x20 SWAP5 PUSH1 0x1 SWAP2 PUSH1 0x1 DUP2 AND SWAP1 DUP2 PUSH0 EQ PUSH2 0x2AF3 JUMPI POP PUSH1 0x1 EQ PUSH2 0x2AB5 JUMPI JUMPDEST POP POP POP PUSH2 0x2AB3 SWAP3 POP SUB DUP4 PUSH2 0x29FD JUMP JUMPDEST JUMP JUMPDEST PUSH0 SWAP1 DUP2 MSTORE DUP6 DUP2 KECCAK256 SWAP6 SWAP4 POP SWAP2 SWAP1 JUMPDEST DUP2 DUP4 LT PUSH2 0x2ADB JUMPI POP POP PUSH2 0x2AB3 SWAP4 POP DUP3 ADD ADD PUSH0 DUP1 DUP1 PUSH2 0x2AA4 JUMP JUMPDEST DUP6 SLOAD DUP9 DUP5 ADD DUP6 ADD MSTORE SWAP5 DUP6 ADD SWAP5 DUP8 SWAP5 POP SWAP2 DUP4 ADD SWAP2 PUSH2 0x2AC2 JUMP JUMPDEST SWAP3 POP POP POP PUSH2 0x2AB3 SWAP5 SWAP3 POP PUSH1 0xFF NOT AND DUP3 DUP5 ADD MSTORE ISZERO ISZERO PUSH1 0x5 SHL DUP3 ADD ADD PUSH0 DUP1 DUP1 PUSH2 0x2AA4 JUMP JUMPDEST ISZERO PUSH2 0x2B1C JUMPI JUMP JUMPDEST PUSH1 0x40 MLOAD PUSH3 0x461BCD PUSH1 0xE5 SHL DUP2 MSTORE PUSH1 0x20 PUSH1 0x4 DUP3 ADD MSTORE PUSH1 0x1B PUSH1 0x24 DUP3 ADD MSTORE PUSH32 0x52657075746174696F6E4E46543A207A65726F20616464726573730000000000 PUSH1 0x44 DUP3 ADD MSTORE PUSH1 0x64 SWAP1 REVERT JUMPDEST ISZERO PUSH2 0x2B68 JUMPI JUMP JUMPDEST PUSH1 0x40 MLOAD PUSH3 0x461BCD PUSH1 0xE5 SHL DUP2 MSTORE PUSH1 0x20 PUSH1 0x4 DUP3 ADD MSTORE PUSH1 0x28 PUSH1 0x24 DUP3 ADD MSTORE PUSH32 0x52657075746174696F6E4E46543A2063616C6C6572206973206E6F74204C656E PUSH1 0x44 DUP3 ADD MSTORE PUSH8 0x191A5B99D41BDBDB PUSH1 0xC2 SHL PUSH1 0x64 DUP3 ADD MSTORE PUSH1 0x84 SWAP1 REVERT JUMPDEST ISZERO PUSH2 0x2BC5 JUMPI JUMP JUMPDEST PUSH1 0x64 PUSH1 0x40 MLOAD PUSH3 0x461BCD PUSH1 0xE5 SHL DUP2 MSTORE PUSH1 0x20 PUSH1 0x4 DUP3 ADD MSTORE PUSH1 0x20 PUSH1 0x24 DUP3 ADD MSTORE PUSH32 0x52657075746174696F6E4E46543A2077616C6C657420686173206E6F204E4654 PUSH1 0x44 DUP3 ADD MSTORE REVERT JUMPDEST PUSH1 0x40 MLOAD SWAP1 PUSH2 0x2C16 DUP3 PUSH2 0x29C5 JUMP JUMPDEST PUSH1 0x5 DUP3 MSTORE PUSH5 0x4461696C79 PUSH1 0xD8 SHL PUSH1 0x20 DUP4 ADD MSTORE JUMP JUMPDEST SWAP2 SWAP1 DUP3 ADD DUP1 SWAP3 GT PUSH2 0x7E6 JUMPI JUMP JUMPDEST PUSH1 0x40 MLOAD SWAP1 PUSH2 0x2C44 DUP3 PUSH2 0x29C5 JUMP JUMPDEST PUSH1 0x5 DUP3 MSTORE PUSH5 0x456E747279 PUSH1 0xD8 SHL PUSH1 0x20 DUP4 ADD MSTORE JUMP JUMPDEST PUSH0 DUP2 DUP2 MSTORE PUSH1 0x2 PUSH1 0x20 MSTORE PUSH1 0x40 SWAP1 KECCAK256 SLOAD PUSH1 0x1 PUSH1 0x1 PUSH1 0xA0 SHL SUB AND SWAP1 DUP2 ISZERO PUSH2 0x2C7A JUMPI POP SWAP1 JUMP JUMPDEST PUSH1 0x24 SWAP1 PUSH1 0x40 MLOAD SWAP1 PUSH4 0x7E273289 PUSH1 0xE0 SHL DUP3 MSTORE PUSH1 0x4 DUP3 ADD MSTORE REVERT JUMPDEST PUSH1 0x6 SLOAD PUSH1 0x1 PUSH1 0x1 PUSH1 0xA0 SHL SUB AND CALLER SUB PUSH2 0x2CA6 JUMPI JUMP JUMPDEST PUSH1 0x40 MLOAD PUSH4 0x118CDAA7 PUSH1 0xE0 SHL DUP2 MSTORE CALLER PUSH1 0x4 DUP3 ADD MSTORE PUSH1 0x24 SWAP1 REVERT JUMPDEST PUSH1 0x40 MLOAD SWAP1 PUSH2 0x2CCB DUP3 PUSH2 0x29C5 JUMP JUMPDEST PUSH1 0x4 DUP3 MSTORE PUSH4 0x11DBDB19 PUSH1 0xE2 SHL PUSH1 0x20 DUP4 ADD MSTORE JUMP JUMPDEST PUSH1 0x40 MLOAD SWAP1 PUSH2 0x2CEB DUP3 PUSH2 0x29C5 JUMP JUMPDEST PUSH1 0x6 DUP3 MSTORE PUSH6 0x29B4B63B32B9 PUSH1 0xD1 SHL PUSH1 0x20 DUP4 ADD MSTORE JUMP JUMPDEST PUSH1 0x40 MLOAD SWAP1 PUSH2 0x2D0D DUP3 PUSH2 0x29C5 JUMP JUMPDEST PUSH1 0x6 DUP3 MSTORE PUSH6 0x42726F6E7A65 PUSH1 0xD0 SHL PUSH1 0x20 DUP4 ADD MSTORE JUMP JUMPDEST PUSH1 0xFF AND PUSH1 0x50 DUP2 LT ISZERO PUSH2 0x2D5B JUMPI PUSH1 0x3C DUP2 LT ISZERO PUSH2 0x2D52 JUMPI PUSH1 0x28 GT ISZERO PUSH2 0x2D4A JUMPI PUSH2 0x2D47 PUSH2 0x2C37 JUMP JUMPDEST SWAP1 JUMP JUMPDEST PUSH2 0x2D47 PUSH2 0x2D00 JUMP JUMPDEST POP PUSH2 0x2D47 PUSH2 0x2CDE JUMP JUMPDEST POP PUSH2 0x2D47 PUSH2 0x2CBE JUMP JUMPDEST PUSH32 0x2020666F6E742D66616D696C793D22417269616C2C2073616E732D7365726966 DUP2 MSTORE PUSH1 0x11 PUSH1 0xF9 SHL PUSH1 0x20 DUP3 ADD MSTORE PUSH1 0x21 ADD SWAP1 JUMP JUMPDEST DUP1 PUSH0 SWAP2 PUSH27 0x184F03E93FF9F4DAA797ED6E38ED64BF6A1F010000000000000000 DUP1 DUP3 LT ISZERO PUSH2 0x2EF0 JUMPI JUMPDEST POP PUSH14 0x4EE2D6D415B85ACEF8100000000 DUP1 DUP4 LT ISZERO PUSH2 0x2EE1 JUMPI JUMPDEST POP PUSH7 0x2386F26FC10000 DUP1 DUP4 LT ISZERO PUSH2 0x2ED2 JUMPI JUMPDEST POP PUSH4 0x5F5E100 DUP1 DUP4 LT ISZERO PUSH2 0x2EC3 JUMPI JUMPDEST POP PUSH2 0x2710 DUP1 DUP4 LT ISZERO PUSH2 0x2EB4 JUMPI JUMPDEST POP PUSH1 0x64 DUP3 LT ISZERO PUSH2 0x2EA4 JUMPI JUMPDEST PUSH1 0xA DUP1 SWAP3 LT ISZERO PUSH2 0x2E9A JUMPI JUMPDEST PUSH1 0x1 SWAP1 DUP2 PUSH1 0x21 PUSH1 0x1 DUP7 ADD SWAP6 PUSH2 0x2E30 DUP8 PUSH2 0x2A1F JUMP JUMPDEST SWAP7 PUSH2 0x2E3E PUSH1 0x40 MLOAD SWAP9 DUP10 PUSH2 0x29FD JUMP JUMPDEST DUP1 DUP9 MSTORE PUSH2 0x2E4D PUSH1 0x1F NOT SWAP2 PUSH2 0x2A1F JUMP JUMPDEST ADD CALLDATASIZE PUSH1 0x20 DUP10 ADD CALLDATACOPY DUP7 ADD ADD SWAP1 JUMPDEST PUSH2 0x2E65 JUMPI JUMPDEST POP POP POP POP SWAP1 JUMP JUMPDEST PUSH0 NOT ADD SWAP1 DUP4 SWAP1 PUSH16 0x181899199A1A9B1B9C1CB0B131B232B3 PUSH1 0x81 SHL DUP3 DUP3 MOD BYTE DUP4 MSTORE8 DIV SWAP2 DUP3 ISZERO PUSH2 0x2E95 JUMPI SWAP2 SWAP1 DUP3 PUSH2 0x2E59 JUMP JUMPDEST PUSH2 0x2E5E JUMP JUMPDEST SWAP2 PUSH1 0x1 ADD SWAP2 PUSH2 0x2E1C JUMP JUMPDEST SWAP2 SWAP1 PUSH1 0x64 PUSH1 0x2 SWAP2 DIV SWAP2 ADD SWAP2 PUSH2 0x2E11 JUMP JUMPDEST PUSH1 0x4 SWAP2 SWAP4 SWAP3 DIV SWAP2 ADD SWAP2 PUSH0 PUSH2 0x2E06 JUMP JUMPDEST PUSH1 0x8 SWAP2 SWAP4 SWAP3 DIV SWAP2 ADD SWAP2 PUSH0 PUSH2 0x2DF9 JUMP JUMPDEST PUSH1 0x10 SWAP2 SWAP4 SWAP3 DIV SWAP2 ADD SWAP2 PUSH0 PUSH2 0x2DEA JUMP JUMPDEST PUSH1 0x20 SWAP2 SWAP4 SWAP3 DIV SWAP2 ADD SWAP2 PUSH0 PUSH2 0x2DD8 JUMP JUMPDEST PUSH1 0x40 SWAP4 POP DUP2 DIV SWAP2 POP PUSH0 PUSH2 0x2DBF JUMP JUMPDEST DUP1 MLOAD PUSH1 0x20 DUP1 SWAP3 ADD KECCAK256 PUSH2 0x2F0E PUSH2 0x2CBE JUMP JUMPDEST DUP3 DUP2 MLOAD SWAP2 ADD KECCAK256 DUP2 EQ PUSH2 0x2F94 JUMPI PUSH2 0x2F22 PUSH2 0x2CDE JUMP JUMPDEST DUP3 DUP2 MLOAD SWAP2 ADD KECCAK256 DUP2 EQ PUSH2 0x2F7B JUMPI PUSH2 0x2F36 PUSH2 0x2D00 JUMP JUMPDEST DUP3 DUP2 MLOAD SWAP2 ADD KECCAK256 EQ PUSH2 0x2F63 JUMPI PUSH7 0x467084708C827 PUSH1 0xCB SHL PUSH1 0x40 MLOAD SWAP2 PUSH2 0x2F59 DUP4 PUSH2 0x29C5 JUMP JUMPDEST PUSH1 0x7 DUP4 MSTORE DUP3 ADD MSTORE SWAP1 JUMP JUMPDEST PUSH7 0x11A1A21BA31999 PUSH1 0xC9 SHL PUSH1 0x40 MLOAD SWAP2 PUSH2 0x2F59 DUP4 PUSH2 0x29C5 JUMP JUMPDEST POP PUSH7 0x2343304330433 PUSH1 0xCC SHL PUSH1 0x40 MLOAD SWAP2 PUSH2 0x2F59 DUP4 PUSH2 0x29C5 JUMP JUMPDEST POP PUSH7 0x2346464437303 PUSH1 0xCC SHL PUSH1 0x40 MLOAD SWAP2 PUSH2 0x2F59 DUP4 PUSH2 0x29C5 JUMP JUMPDEST SWAP1 DUP2 MLOAD DUP2 LT ISZERO PUSH2 0x2FBE JUMPI ADD PUSH1 0x20 ADD SWAP1 JUMP JUMPDEST PUSH4 0x4E487B71 PUSH1 0xE0 SHL PUSH0 MSTORE PUSH1 0x32 PUSH1 0x4 MSTORE PUSH1 0x24 PUSH0 REVERT JUMPDEST SWAP1 DUP2 MLOAD PUSH2 0x2FF7 PUSH2 0x2FE1 DUP3 PUSH2 0x2A1F JUMP JUMPDEST SWAP2 PUSH2 0x2FEF PUSH1 0x40 MLOAD SWAP4 DUP5 PUSH2 0x29FD JUMP JUMPDEST DUP1 DUP4 MSTORE PUSH2 0x2A1F JUMP JUMPDEST PUSH1 0x1F NOT SWAP4 SWAP1 DUP5 ADD CALLDATASIZE PUSH1 0x20 DUP5 ADD CALLDATACOPY PUSH0 JUMPDEST DUP2 MLOAD DUP2 LT ISZERO PUSH2 0x3083 JUMPI PUSH2 0x3019 DUP2 DUP4 PUSH2 0x2FAD JUMP JUMPDEST MLOAD SWAP1 DUP6 PUSH1 0xF8 SWAP3 DUP1 DUP5 SHR SWAP1 PUSH1 0x61 DUP3 LT ISZERO DUP1 PUSH2 0x3078 JUMPI JUMPDEST ISZERO PUSH2 0x3061 JUMPI POP ADD SWAP2 PUSH1 0xFF DUP4 GT PUSH2 0x7E6 JUMPI PUSH1 0x1 SWAP3 SWAP1 SHL PUSH1 0x1 PUSH1 0x1 PUSH1 0xF8 SHL SUB NOT AND JUMPDEST PUSH0 BYTE PUSH2 0x305A DUP3 DUP7 PUSH2 0x2FAD JUMP JUMPDEST MSTORE8 ADD PUSH2 0x3006 JUMP JUMPDEST PUSH1 0x1 SWAP5 POP PUSH1 0x1 PUSH1 0x1 PUSH1 0xF8 SHL SUB NOT AND SWAP2 POP PUSH2 0x304E SWAP1 POP JUMP JUMPDEST POP PUSH1 0x7A DUP3 GT ISZERO PUSH2 0x302E JUMP JUMPDEST POP SWAP1 SWAP3 POP POP JUMP JUMPDEST DUP1 MLOAD ISZERO PUSH2 0x31B6 JUMPI DUP1 MLOAD SWAP2 PUSH1 0x2 DUP1 DUP5 ADD DUP1 SWAP5 GT PUSH2 0x7E6 JUMPI PUSH1 0x3 SWAP4 DUP5 SWAP1 DIV PUSH1 0x2 DUP2 SWAP1 SHL SWAP2 SWAP1 PUSH1 0x1 PUSH1 0x1 PUSH1 0xFE SHL SUB DUP2 AND SUB PUSH2 0x7E6 JUMPI SWAP4 PUSH1 0x40 MLOAD SWAP4 PUSH32 0x4142434445464748494A4B4C4D4E4F505152535455565758595A616263646566 PUSH1 0x1F MSTORE PUSH1 0x3F SWAP2 PUSH32 0x6768696A6B6C6D6E6F707172737475767778797A303132333435363738392B2F PUSH1 0x3F MSTORE PUSH1 0x20 DUP7 ADD SWAP3 DUP3 SWAP2 DUP4 MLOAD DUP5 ADD SWAP2 PUSH1 0x20 DUP4 ADD SWAP10 DUP11 MLOAD SWAP5 PUSH0 DUP13 MSTORE JUMPDEST DUP5 DUP2 LT PUSH2 0x317A JUMPI POP POP POP POP POP SWAP1 PUSH1 0x3 SWAP2 PUSH1 0x20 SWAP6 SWAP7 SWAP8 MSTORE MLOAD MOD DUP1 PUSH1 0x1 EQ PUSH2 0x3165 JUMPI PUSH1 0x2 EQ PUSH2 0x3158 JUMPI JUMPDEST POP DUP1 DUP5 MSTORE DUP4 ADD ADD PUSH1 0x40 MSTORE JUMP JUMPDEST PUSH1 0x3D SWAP1 PUSH0 NOT ADD MSTORE8 PUSH0 PUSH2 0x314C JUMP JUMPDEST POP PUSH1 0x3D SWAP1 DUP2 PUSH0 NOT DUP3 ADD MSTORE8 PUSH1 0x1 NOT ADD MSTORE8 PUSH0 PUSH2 0x314C JUMP JUMPDEST DUP4 PUSH1 0x4 SWAP2 SWAP13 SWAP6 SWAP9 SWAP13 ADD SWAP12 DUP4 DUP14 MLOAD DUP2 DUP2 PUSH1 0x12 SHR AND MLOAD DUP4 MSTORE8 DUP2 DUP2 PUSH1 0xC SHR AND MLOAD PUSH1 0x1 DUP5 ADD MSTORE8 DUP2 DUP2 PUSH1 0x6 SHR AND MLOAD DUP6 DUP5 ADD MSTORE8 AND MLOAD DUP6 DUP3 ADD MSTORE8 ADD SWAP7 SWAP4 SWAP11 PUSH2 0x3124 JUMP JUMPDEST POP PUSH1 0x40 MLOAD PUSH2 0x31C3 DUP2 PUSH2 0x29E1 JUMP JUMPDEST PUSH0 DUP2 MSTORE SWAP1 JUMP INVALID LOG2 PUSH5 0x6970667358 0x22 SLT KECCAK256 PUSH1 0x70 0xCA SSTORE 0xD4 BLOBBASEFEE JUMP XOR SWAP6 PUSH0 0x2E SELFBALANCE PUSH14 0x671E916642CFCB6F7099BE10BF7C 0xCB CODECOPY TSTORE 0x2C 0x27 PUSH5 0x736F6C6343 STOP ADDMOD NOT STOP CALLER "},"methodIdentifiers":{"approve(address,uint256)":"095ea7b3","balanceOf(address)":"70a08231","getApproved(uint256)":"081812fc","getReputation(address)":"9c89a0e2","getTier(address)":"b45aae52","hasNFT(address)":"785f8ee3","isApprovedForAll(address,address)":"e985e9c5","lendingPoolAddress()":"d3ae26b3","mintReputationNFT(address)":"ea62781d","name()":"06fdde03","owner()":"8da5cb5b","ownerOf(uint256)":"6352211e","renounceOwnership()":"715018a6","safeTransferFrom(address,address,uint256)":"42842e0e","safeTransferFrom(address,address,uint256,bytes)":"b88d4fde","setApprovalForAll(address,bool)":"a22cb465","setLendingPool(address)":"113aa8b1","supportsInterface(bytes4)":"01ffc9a7","symbol()":"95d89b41","tokenIdOf(address)":"773c02d4","tokenURI(uint256)":"c87b56dd","transferFrom(address,address,uint256)":"23b872dd","transferOwnership(address)":"f2fde38b","updateReputation(address,uint8,uint256,bool)":"36eab1bd"}}}}}