{
  "_format": "hh-sol-artifact-1",
  "contractName": "LendingPool",
  "sourceName": "contracts/LendingPool.sol",
  "abi": [
    {
      "inputs": [
        {
          "internalType": "address",
          "name": "_trustToken",
          "type": "address"
        },
        {
          "internalType": "address",
          "name": "_reputationNFT",
          "type": "address"
        }
      ],
      "stateMutability": "nonpayable",
      "type": "constructor"
    },
    {
      "inputs": [],
      "name": "EnforcedPause",
      "type": "error"
    },
    {
      "inputs": [],
      "name": "ExpectedPause",
      "type": "error"
    },
    {
      "inputs": [
        {
          "internalType": "address",
          "name": "owner",
          "type": "address"
        }
      ],
      "name": "OwnableInvalidOwner",
      "type": "error"
    },
    {
      "inputs": [
        {
          "internalType": "address",
          "name": "account",
          "type": "address"
        }
      ],
      "name": "OwnableUnauthorizedAccount",
      "type": "error"
    },
    {
      "inputs": [],
      "name": "ReentrancyGuardReentrantCall",
      "type": "error"
    },
    {
      "inputs": [
        {
          "internalType": "address",
          "name": "token",
          "type": "address"
        }
      ],
      "name": "SafeERC20FailedOperation",
      "type": "error"
    },
    {
      "anonymous": false,
      "inputs": [
        {
          "indexed": true,
          "internalType": "address",
          "name": "borrower",
          "type": "address"
        },
        {
          "indexed": false,
          "internalType": "uint256",
          "name": "amount",
          "type": "uint256"
        },
        {
          "indexed": false,
          "internalType": "uint256",
          "name": "outstandingDebt",
          "type": "uint256"
        }
      ],
      "name": "LoanDefaulted",
      "type": "event"
    },
    {
      "anonymous": false,
      "inputs": [
        {
          "indexed": true,
          "internalType": "address",
          "name": "borrower",
          "type": "address"
        },
        {
          "indexed": false,
          "internalType": "uint256",
          "name": "amount",
          "type": "uint256"
        },
        {
          "indexed": false,
          "internalType": "uint256",
          "name": "dueDate",
          "type": "uint256"
        },
        {
          "indexed": false,
          "internalType": "enum LendingPool.LoanPath",
          "name": "path",
          "type": "uint8"
        }
      ],
      "name": "LoanDisbursed",
      "type": "event"
    },
    {
      "anonymous": false,
      "inputs": [
        {
          "indexed": true,
          "internalType": "address",
          "name": "previousOwner",
          "type": "address"
        },
        {
          "indexed": true,
          "internalType": "address",
          "name": "newOwner",
          "type": "address"
        }
      ],
      "name": "OwnershipTransferred",
      "type": "event"
    },
    {
      "anonymous": false,
      "inputs": [
        {
          "indexed": false,
          "internalType": "address",
          "name": "account",
          "type": "address"
        }
      ],
      "name": "Paused",
      "type": "event"
    },
    {
      "anonymous": false,
      "inputs": [
        {
          "indexed": true,
          "internalType": "address",
          "name": "lender",
          "type": "address"
        },
        {
          "indexed": false,
          "internalType": "uint256",
          "name": "amount",
          "type": "uint256"
        },
        {
          "indexed": false,
          "internalType": "uint256",
          "name": "newTotal",
          "type": "uint256"
        }
      ],
      "name": "PoolDeposit",
      "type": "event"
    },
    {
      "anonymous": false,
      "inputs": [
        {
          "indexed": true,
          "internalType": "address",
          "name": "lender",
          "type": "address"
        },
        {
          "indexed": false,
          "internalType": "uint256",
          "name": "amount",
          "type": "uint256"
        },
        {
          "indexed": false,
          "internalType": "uint256",
          "name": "yieldEarned",
          "type": "uint256"
        }
      ],
      "name": "PoolWithdrawal",
      "type": "event"
    },
    {
      "anonymous": false,
      "inputs": [
        {
          "indexed": true,
          "internalType": "address",
          "name": "borrower",
          "type": "address"
        },
        {
          "indexed": false,
          "internalType": "uint256",
          "name": "amount",
          "type": "uint256"
        },
        {
          "indexed": false,
          "internalType": "uint256",
          "name": "remaining",
          "type": "uint256"
        },
        {
          "indexed": false,
          "internalType": "uint8",
          "name": "newTrustScore",
          "type": "uint8"
        }
      ],
      "name": "RepaymentMade",
      "type": "event"
    },
    {
      "anonymous": false,
      "inputs": [
        {
          "indexed": true,
          "internalType": "address",
          "name": "borrower",
          "type": "address"
        },
        {
          "indexed": false,
          "internalType": "uint8",
          "name": "oldScore",
          "type": "uint8"
        },
        {
          "indexed": false,
          "internalType": "uint8",
          "name": "newScore",
          "type": "uint8"
        }
      ],
      "name": "TrustScoreUpdated",
      "type": "event"
    },
    {
      "anonymous": false,
      "inputs": [
        {
          "indexed": false,
          "internalType": "address",
          "name": "account",
          "type": "address"
        }
      ],
      "name": "Unpaused",
      "type": "event"
    },
    {
      "inputs": [
        {
          "internalType": "uint256",
          "name": "amount",
          "type": "uint256"
        }
      ],
      "name": "depositToPool",
      "outputs": [],
      "stateMutability": "nonpayable",
      "type": "function"
    },
    {
      "inputs": [
        {
          "internalType": "address",
          "name": "borrower",
          "type": "address"
        }
      ],
      "name": "getBorrowLimit",
      "outputs": [
        {
          "internalType": "uint256",
          "name": "",
          "type": "uint256"
        }
      ],
      "stateMutability": "view",
      "type": "function"
    },
    {
      "inputs": [
        {
          "internalType": "address",
          "name": "lender",
          "type": "address"
        }
      ],
      "name": "getLenderBalance",
      "outputs": [
        {
          "internalType": "uint256",
          "name": "",
          "type": "uint256"
        }
      ],
      "stateMutability": "view",
      "type": "function"
    },
    {
      "inputs": [
        {
          "internalType": "address",
          "name": "borrower",
          "type": "address"
        }
      ],
      "name": "getLoan",
      "outputs": [
        {
          "components": [
            {
              "internalType": "address",
              "name": "borrower",
              "type": "address"
            },
            {
              "internalType": "uint256",
              "name": "amount",
              "type": "uint256"
            },
            {
              "internalType": "uint256",
              "name": "repaidAmount",
              "type": "uint256"
            },
            {
              "internalType": "uint256",
              "name": "interestRate",
              "type": "uint256"
            },
            {
              "internalType": "uint256",
              "name": "startTime",
              "type": "uint256"
            },
            {
              "internalType": "uint256",
              "name": "dueDate",
              "type": "uint256"
            },
            {
              "internalType": "uint8",
              "name": "installmentsPaid",
              "type": "uint8"
            },
            {
              "internalType": "uint8",
              "name": "totalInstallments",
              "type": "uint8"
            },
            {
              "internalType": "enum LendingPool.LoanStatus",
              "name": "status",
              "type": "uint8"
            },
            {
              "internalType": "enum LendingPool.LoanPath",
              "name": "path",
              "type": "uint8"
            }
          ],
          "internalType": "struct LendingPool.Loan",
          "name": "",
          "type": "tuple"
        }
      ],
      "stateMutability": "view",
      "type": "function"
    },
    {
      "inputs": [],
      "name": "getPoolBalance",
      "outputs": [
        {
          "internalType": "uint256",
          "name": "",
          "type": "uint256"
        }
      ],
      "stateMutability": "view",
      "type": "function"
    },
    {
      "inputs": [],
      "name": "getPoolStats",
      "outputs": [
        {
          "internalType": "uint256",
          "name": "liquidity",
          "type": "uint256"
        },
        {
          "internalType": "uint256",
          "name": "activeLoans",
          "type": "uint256"
        },
        {
          "internalType": "uint256",
          "name": "lenderCount",
          "type": "uint256"
        },
        {
          "internalType": "uint256",
          "name": "avgInterestRate",
          "type": "uint256"
        }
      ],
      "stateMutability": "view",
      "type": "function"
    },
    {
      "inputs": [
        {
          "internalType": "address",
          "name": "borrower",
          "type": "address"
        }
      ],
      "name": "getRemainingDebt",
      "outputs": [
        {
          "internalType": "uint256",
          "name": "",
          "type": "uint256"
        }
      ],
      "stateMutability": "view",
      "type": "function"
    },
    {
      "inputs": [
        {
          "internalType": "address",
          "name": "borrower",
          "type": "address"
        }
      ],
      "name": "getTotalOwed",
      "outputs": [
        {
          "internalType": "uint256",
          "name": "",
          "type": "uint256"
        }
      ],
      "stateMutability": "view",
      "type": "function"
    },
    {
      "inputs": [
        {
          "internalType": "address",
          "name": "borrower",
          "type": "address"
        }
      ],
      "name": "getTrustScore",
      "outputs": [
        {
          "internalType": "uint8",
          "name": "",
          "type": "uint8"
        }
      ],
      "stateMutability": "view",
      "type": "function"
    },
    {
      "inputs": [],
      "name": "initializeUser",
      "outputs": [],
      "stateMutability": "nonpayable",
      "type": "function"
    },
    {
      "inputs": [
        {
          "internalType": "address",
          "name": "",
          "type": "address"
        }
      ],
      "name": "lenderDeposits",
      "outputs": [
        {
          "internalType": "uint256",
          "name": "",
          "type": "uint256"
        }
      ],
      "stateMutability": "view",
      "type": "function"
    },
    {
      "inputs": [
        {
          "internalType": "uint256",
          "name": "amount",
          "type": "uint256"
        }
      ],
      "name": "makeRepayment",
      "outputs": [],
      "stateMutability": "nonpayable",
      "type": "function"
    },
    {
      "inputs": [
        {
          "internalType": "address",
          "name": "borrower",
          "type": "address"
        }
      ],
      "name": "markDefault",
      "outputs": [],
      "stateMutability": "nonpayable",
      "type": "function"
    },
    {
      "inputs": [
        {
          "internalType": "address",
          "name": "to",
          "type": "address"
        }
      ],
      "name": "mintReputationNFT",
      "outputs": [],
      "stateMutability": "nonpayable",
      "type": "function"
    },
    {
      "inputs": [],
      "name": "owner",
      "outputs": [
        {
          "internalType": "address",
          "name": "",
          "type": "address"
        }
      ],
      "stateMutability": "view",
      "type": "function"
    },
    {
      "inputs": [],
      "name": "pause",
      "outputs": [],
      "stateMutability": "nonpayable",
      "type": "function"
    },
    {
      "inputs": [],
      "name": "paused",
      "outputs": [
        {
          "internalType": "bool",
          "name": "",
          "type": "bool"
        }
      ],
      "stateMutability": "view",
      "type": "function"
    },
    {
      "inputs": [],
      "name": "renounceOwnership",
      "outputs": [],
      "stateMutability": "nonpayable",
      "type": "function"
    },
    {
      "inputs": [],
      "name": "reputationNFT",
      "outputs": [
        {
          "internalType": "address",
          "name": "",
          "type": "address"
        }
      ],
      "stateMutability": "view",
      "type": "function"
    },
    {
      "inputs": [
        {
          "internalType": "uint256",
          "name": "amount",
          "type": "uint256"
        },
        {
          "internalType": "uint256",
          "name": "durationDays",
          "type": "uint256"
        },
        {
          "internalType": "uint8",
          "name": "path",
          "type": "uint8"
        }
      ],
      "name": "requestLoan",
      "outputs": [],
      "stateMutability": "nonpayable",
      "type": "function"
    },
    {
      "inputs": [],
      "name": "totalActiveLoans",
      "outputs": [
        {
          "internalType": "uint256",
          "name": "",
          "type": "uint256"
        }
      ],
      "stateMutability": "view",
      "type": "function"
    },
    {
      "inputs": [],
      "name": "totalLenders",
      "outputs": [
        {
          "internalType": "uint256",
          "name": "",
          "type": "uint256"
        }
      ],
      "stateMutability": "view",
      "type": "function"
    },
    {
      "inputs": [],
      "name": "totalPoolLiquidity",
      "outputs": [
        {
          "internalType": "uint256",
          "name": "",
          "type": "uint256"
        }
      ],
      "stateMutability": "view",
      "type": "function"
    },
    {
      "inputs": [
        {
          "internalType": "address",
          "name": "newOwner",
          "type": "address"
        }
      ],
      "name": "transferOwnership",
      "outputs": [],
      "stateMutability": "nonpayable",
      "type": "function"
    },
    {
      "inputs": [
        {
          "internalType": "address",
          "name": "",
          "type": "address"
        }
      ],
      "name": "trustScores",
      "outputs": [
        {
          "internalType": "uint8",
          "name": "",
          "type": "uint8"
        }
      ],
      "stateMutability": "view",
      "type": "function"
    },
    {
      "inputs": [],
      "name": "trustToken",
      "outputs": [
        {
          "internalType": "contract IERC20",
          "name": "",
          "type": "address"
        }
      ],
      "stateMutability": "view",
      "type": "function"
    },
    {
      "inputs": [],
      "name": "unpause",
      "outputs": [],
      "stateMutability": "nonpayable",
      "type": "function"
    },
    {
      "inputs": [
        {
          "internalType": "address",
          "name": "borrower",
          "type": "address"
        },
        {
          "internalType": "uint8",
          "name": "newScore",
          "type": "uint8"
        }
      ],
      "name": "updateTrustScore",
      "outputs": [],
      "stateMutability": "nonpayable",
      "type": "function"
    },
    {
      "inputs": [
        {
          "internalType": "uint256",
          "name": "amount",
          "type": "uint256"
        }
      ],
      "name": "withdrawFromPool",
      "outputs": [],
      "stateMutability": "nonpayable",
      "type": "function"
    }
  ],
  "bytecode": "0x60a0346101b957611f1390601f38839003908101601f19168201906001600160401b038211838310176101bd57808391604095869485528339810103126101b957610055602061004e836101d1565b92016101d1565b9033156101a2575f549160018060a01b03908160018060a01b03199333858716175f55865195823391167f8be0079c531659141344cd1fd0a4f28419497f9722a3daafe3b4186f6b6457e05f80a360017f9b779b17422d0df92223018b32b4d1fa46e071723d6817e2486d003becc55f00551693841561016057501691821561011c57608052600154161760015551611d2d90816101e6823960805181818161037e0152818161070901528181610a0d01528181610bee0152818161111101526115190152f35b835162461bcd60e51b815260206004820152601d60248201527f4c656e64696e67506f6f6c3a207a65726f204e465420616464726573730000006044820152606490fd5b62461bcd60e51b815260206004820152601f60248201527f4c656e64696e67506f6f6c3a207a65726f20746f6b656e2061646472657373006044820152606490fd5b8251631e4fbdf760e01b81525f6004820152602490fd5b5f80fd5b634e487b7160e01b5f52604160045260245ffd5b51906001600160a01b03821682036101b95756fe6080806040526004361015610012575f80fd5b5f905f3560e01c90816312df0fc4146118b657508063146410801461179457806323a0ac791461131f57806330fc43ed146110b257806333481fc914610f0e5780633f4ba83a14610e9f5780634b35388814610d8057806359641e5e14610d625780635c975abb14610d3d5780635e09eea114610d0057806368b0e07014610bbb578063715018a614610b625780637385107514610b3e5780637c17d23714610b1a5780638456cb5914610ab95780638da5cb5b14610a925780639939835814610958578063abd70aa2146109e0578063bbb8518814610991578063bd09085a14610958578063be81c4d414610738578063d13deb2f146106f3578063d37415fe14610303578063db15bcea146102d7578063dc63af41146102b9578063e8f003311461029b578063ea62781d14610215578063f2fde38b146101885763fa4886491461015d575f80fd5b346101855780600319360112610185576001546040516001600160a01b039091168152602090f35b80fd5b5034610185576020366003190112610185576101a26118ed565b6101aa611af7565b6001600160a01b039081169081156101fc575f54826bffffffffffffffffffffffff60a01b8216175f55167f8be0079c531659141344cd1fd0a4f28419497f9722a3daafe3b4186f6b6457e05f80a380f35b604051631e4fbdf760e01b815260048101849052602490fd5b503461018557602036600319011261018557806102306118ed565b610238611af7565b6001546001600160a01b039081169190823b15610296576024849283604051958694859363ea62781d60e01b85521660048401525af1801561028b5761027b5750f35b61028490611975565b6101855780f35b6040513d84823e3d90fd5b505050fd5b50346101855780600319360112610185576020600554604051908152f35b50346101855780600319360112610185576020600654604051908152f35b50346101855760203660031901126101855760206102fb6102f66118ed565b611aa4565b604051908152f35b5034610185576020908160031936011261018557600435610322611b22565b61032a611b51565b3382526002835260408220600681019360ff80865460101c1660048110156106df5761069a5783156106555761035f83611c82565b9060028401936103708554846119b7565b8611610610576103a28630337f0000000000000000000000000000000000000000000000000000000000000000611c18565b6103ad868654611937565b855587549782891698838a146105fc57600195969798998460ff19978892011691161781556103f46103ec856103e760018601548c611910565b6119d2565b600554611937565b6005558387541015610466575b505061041d9250338752600484526040872054169354906119b7565b9060405193845283015260408201527f6996ca40a87935f677fee47b9d253150cd7560503eb580f1d72a905cf62e7e3b60603392a260015f80516020611cd88339815191525580f35b610494916003916201000062ff000019825416179055610487600654611a98565b60065501546008546119b7565b60085533875260028452604087209260048552816040892054169060048501546005860154906104c481836119b7565b604b810290808204604b14901517156105e8578b93929160646104e8920490611937565b42116105d25750600c905b6064856105008487611ca3565b1611156105c2576064965b33845260048952604084208054878a1693168317905560018054910154906001600160a01b0316803b156105be5784928360849260088a60405198899788966336eab1bd60e01b88523360048901526024880152604487015216101560648401525af16105a6575b50506040805160ff928316815294909116602085015261041d9333915f80516020611cb883398151915291a25f80610401565b6105af90611975565b6105ba57875f610573565b8780fd5b8480fd5b6105cc8285611ca3565b9661050b565b42116105e0576008906104f3565b6003906104f3565b634e487b7160e01b8c52601160045260248cfd5b634e487b7160e01b89526011600452602489fd5b60405162461bcd60e51b815260048101859052601860248201527f4c656e64696e67506f6f6c3a206f7665727061796d656e7400000000000000006044820152606490fd5b60405162461bcd60e51b815260048101839052601b60248201527f4c656e64696e67506f6f6c3a207a65726f2072657061796d656e7400000000006044820152606490fd5b60405162461bcd60e51b815260048101839052601b60248201527f4c656e64696e67506f6f6c3a206e6f20616374697665206c6f616e00000000006044820152606490fd5b634e487b7160e01b86526021600452602486fd5b50346101855780600319360112610185576040517f00000000000000000000000000000000000000000000000000000000000000006001600160a01b03168152602090f35b503461018557602080600319360112610954576107536118ed565b61075b611af7565b6001600160a01b03908116808452600283526040842060068101805492949192601081901c60ff166004811015610940576108fb5762ff00001916620200001790556006546107a990611a98565b6006556107bc60038301546008546119b7565b60085583855260048152604085205460ff1690600f82106108f457600e19820160ff81116108e057925b85875260048252604087209460ff8516958660ff198254161790556001541690876001820192835490803b156108dc57899860848a85809460405196879586946336eab1bd60e01b86526004860152602485015260448401525f60648401525af16108bf575b50505f80516020611cb883398151915295927f1b849894a849eddede200f64b3e4aa5870adc9b6f442acb237bb07d8f100f01b9261089a836002610891604096611c82565b910154906119b7565b9054918351928352820152a26040805160ff928316815292909116602083015290a280f35b6108cb91929750611975565b6108d8578594875f61084c565b8680fd5b8280fd5b634e487b7160e01b87526011600452602487fd5b85926107e6565b60405162461bcd60e51b815260048101849052601760248201527f4c656e64696e67506f6f6c3a206e6f74206163746976650000000000000000006044820152606490fd5b634e487b7160e01b88526021600452602488fd5b5080fd5b5034610185576020366003190112610185576020906040906001600160a01b036109806118ed565b168152600383522054604051908152f35b503461018557806003193601126101855760055460065460075460809382156109da57506109c1826008546119d2565b915b604051938452602084015260408301526060820152f35b916109c3565b50346101855780600319360112610185576040516370a0823160e01b8152306004820152906020826024817f00000000000000000000000000000000000000000000000000000000000000006001600160a01b03165afa908115610a865790610a4f575b602090604051908152f35b506020813d602011610a7e575b81610a6960209383611989565b81010312610a7a5760209051610a44565b5f80fd5b3d9150610a5c565b604051903d90823e3d90fd5b5034610185578060031936011261018557546040516001600160a01b039091168152602090f35b5034610185578060031936011261018557610ad2611af7565b610ada611b51565b805460ff60a01b1916600160a01b1781556040513381527f62e78cea01bee320cd4e420270b5ea74000d11b0c9f74754ebdbfc544b05a25890602090a180f35b50346101855760203660031901126101855760206102fb610b396118ed565b611a2f565b50346101855760203660031901126101855760206102fb610b5d6118ed565b6119f0565b5034610185578060031936011261018557610b7b611af7565b5f80546001600160a01b0319811682556001600160a01b03167f8be0079c531659141344cd1fd0a4f28419497f9722a3daafe3b4186f6b6457e08280a380f35b503461018557602036600319011261018557600435610bd8611b22565b610be0611b51565b8015610cbb57610c128130337f0000000000000000000000000000000000000000000000000000000000000000611c18565b338252600360205260408220610c29828254611937565b9055610c3781600554611937565b600555338252600960205260408220805460ff811615610c9c575b505060055460405191825260208201527f7628d23baa7269cbe52d585c106809f6857f67de8489b61e6a5dc5a780748a3860403392a260015f80516020611cd88339815191525580f35b60ff19166001179055600754610cb1906119c4565b6007555f80610c52565b60405162461bcd60e51b815260206004820152601960248201527f4c656e64696e67506f6f6c3a207a65726f206465706f736974000000000000006044820152606490fd5b50346101855760203660031901126101855760209060ff906040906001600160a01b03610d2b6118ed565b16815260048452205416604051908152f35b503461018557806003193601126101855760ff6020915460a01c166040519015158152f35b50346101855780600319360112610185576020600754604051908152f35b5034610a7a575f366003190112610a7a57610d99611b22565b610da1611b51565b335f52600460205260ff60405f205416610e5b57335f908152600460205260409020805460ff1916601e1790556001546001600160a01b0316803b15610a7a575f809160246040518094819363ea62781d60e01b83523360048401525af18015610e5057610e3f575b50604051818152601e60208201525f80516020611cb883398151915260403392a260015f80516020611cd88339815191525580f35b610e499150611975565b5f80610e0a565b6040513d5f823e3d90fd5b606460405162461bcd60e51b815260206004820152602060248201527f4c656e64696e67506f6f6c3a20616c726561647920696e697469616c697a65646044820152fd5b34610a7a575f366003190112610a7a57610eb7611af7565b5f5460ff8160a01c1615610efc5760ff60a01b19165f556040513381527f5db9ee0a495bf2e6ff9c91a7834c1ba4fdd244a5e8aa4e537bd38aeae4b073aa90602090a1005b604051638dfc202b60e01b8152600490fd5b34610a7a576020366003190112610a7a57610f276118ed565b5f610120604051610f3781611944565b8281528260208201528260408201528260608201528260808201528260a08201528260c08201528260e082015282610100820152015260018060a01b03165f52600260205260405f20600660405191610f8f83611944565b60018060a01b03815416835260018101546020840152600281015460408401526003810154606084015260048101546080840152600581015460a0840152015460ff811660c083015260ff8160081c1660e0830152600460ff8260101c16101561109e5760ff81816110139360101c1661010085015260181c1661012083016119ab565b60405160018060a01b0382511681526020820151602082015260408201516040820152606082015160608201526080820151608082015260a082015160a082015260ff60c08301511660c082015260ff60e08301511660e082015261010082015191600483101561109e5761012061109c91610140946101008501520151610120830190611903565bf35b634e487b7160e01b5f52602160045260245ffd5b34610a7a57602080600319360112610a7a57600435906110d0611b22565b6110d8611b51565b81156112db57335f52600381528160405f2054106112975760055490828210611242576040516370a0823160e01b8152306004820152917f00000000000000000000000000000000000000000000000000000000000000009082846024816001600160a01b0386165afa938415610e50575f94611213575b50845f948281118061120a575b6111e4575b5050506111a290335f526003835260405f2061117f8682546119b7565b905561118d856005546119b7565b60055561119a8486611937565b903390611b9a565b6040519283528201527f89d2f6c70c648a3f7ed809acb91b7a84dbba676961241962173a83861e43c0cf60403392a260015f80516020611cd883398151915255005b6111a293955082916111fc611201946103e7936119b7565b611910565b92908486611162565b5082151561115d565b9093508281813d831161123b575b61122b8183611989565b81010312610a7a57519285611150565b503d611221565b6084906040519062461bcd60e51b82526004820152602860248201527f4c656e64696e67506f6f6c3a20696e73756666696369656e742066726565206c604482015267697175696469747960c01b6064820152fd5b6064906040519062461bcd60e51b82526004820152601c60248201527f4c656e64696e67506f6f6c3a2065786365656473206465706f736974000000006044820152fd5b6064906040519062461bcd60e51b82526004820152601c60248201527f4c656e64696e67506f6f6c3a207a65726f207769746864726177616c000000006044820152fd5b34610a7a576060366003190112610a7a5760043560249081359160449081359160ff8316809303610a7a57611352611b22565b61135a611b51565b831561175157841594851580611745575b1561170257600284116116bf57335f526020916002835260ff600660405f20015460101c1660048110156116ac571561166a576113a733611a2f565b86116116295785600554106115d6575060038410156115c3576113c984611b71565b95620151808083029283041417156115b0576113e59042611937565b91604051906113f382611944565b33825284838084019288845260ff600660408701965f8852606081018d81526080820142815260a08301918c835260c084019a5f8c5260e085019a60048c52600261010087019a5f8c5261144c61012089019d8e6119ab565b335f525260405f209560018060a01b039051166bffffffffffffffffffffffff60a01b875416178655516001860155516002850155516003840155516004830155516005820155019551169085549451925193600485101561159c57519060038210156115895750611550999a949261ff0061150f97959363ff00000062ff00009460181b169563ffffffff1916179160081b16179160101b16171790556114f6876005546119b7565b6005556115046006546119c4565b600655600854611937565b60085561153d85337f0000000000000000000000000000000000000000000000000000000000000000611b9a565b6040519485528401526040830190611903565b7f469f3b84f0a93aa13441e333540ba6cd5ccb2a9df1ccf61b5e6f372693b2331960603392a260015f80516020611cd883398151915255005b634e487b7160e01b5f9081526021600452fd5b50634e487b7160e01b5f9081526021600452fd5b82634e487b7160e01b5f5260116004525ffd5b82634e487b7160e01b5f5260216004525ffd5b7f4c656e64696e67506f6f6c3a20696e73756666696369656e7420706f6f6c206c915060286084946040519462461bcd60e51b8652600486015284015282015267697175696469747960c01b6064820152fd5b837f4c656e64696e67506f6f6c3a2065786365656473207472757374206c696d6974606492856040519362461bcd60e51b8552816004860152840152820152fd5b7f4c656e64696e67506f6f6c3a20616374697665206c6f616e20657869737473009150601f6064946040519462461bcd60e51b86526004860152840152820152fd5b84634e487b7160e01b5f5260216004525ffd5b60405162461bcd60e51b8152602060048201526019818501527f4c656e64696e67506f6f6c3a20696e76616c696420706174680000000000000081840152606490fd5b60405162461bcd60e51b815260206004820152601d818501527f4c656e64696e67506f6f6c3a20696e76616c6964206475726174696f6e00000081840152606490fd5b5061016d81111561136b565b907f4c656e64696e67506f6f6c3a207a65726f20616d6f756e74000000000000000060649260186040519362461bcd60e51b855260206004860152840152820152fd5b34610a7a576040366003190112610a7a576117ad6118ed565b6024359060ff821690818303610a7a576117c5611af7565b6001600160a01b0316918215611871576064821161182c575f80516020611cb88339815191529161182760ff92855f52600460205260405f2080549385198516179055604051938493168390929160ff60209181604085019616845216910152565b0390a2005b60405162461bcd60e51b815260206004820152601860248201527f4c656e64696e67506f6f6c3a2073636f7265203e2031303000000000000000006044820152606490fd5b60405162461bcd60e51b815260206004820152601960248201527f4c656e64696e67506f6f6c3a207a65726f2061646472657373000000000000006044820152606490fd5b34610a7a576020366003190112610a7a576020906001600160a01b036118da6118ed565b165f526004825260ff60405f2054168152f35b600435906001600160a01b0382168203610a7a57565b90600382101561109e5752565b8181029291811591840414171561192357565b634e487b7160e01b5f52601160045260245ffd5b9190820180921161192357565b610140810190811067ffffffffffffffff82111761196157604052565b634e487b7160e01b5f52604160045260245ffd5b67ffffffffffffffff811161196157604052565b90601f8019910116810190811067ffffffffffffffff82111761196157604052565b600382101561109e5752565b9190820391821161192357565b5f1981146119235760010190565b81156119dc570490565b634e487b7160e01b5f52601260045260245ffd5b6001600160a01b03165f908152600260205260409020600681015460101c60ff16600481101561109e57611a2a57611a2790611c82565b90565b505f90565b6001600160a01b03165f9081526004602052604090205460ff166050811015611a8a57603c811015611a7c5760281115611a6f57678ac7230489e8000090565b6802b5e3af16b188000090565b50680ad78ebc5ac620000090565b50681b1ae4d6e2ef50000090565b8015611923575f190190565b6001600160a01b03165f908152600260205260409020600681015460101c60ff16600481101561109e57611a2a576002611add82611c82565b91015480821115611af157611a27916119b7565b50505f90565b5f546001600160a01b03163303611b0a57565b60405163118cdaa760e01b8152336004820152602490fd5b5f80516020611cd88339815191526002815414611b3f5760029055565b604051633ee5aeb560e01b8152600490fd5b60ff5f5460a01c16611b5f57565b60405163d93c066560e01b8152600490fd5b600381101561109e578015611b9357600114611b8d576102c690565b61011890565b506101a490565b60405163a9059cbb60e01b5f9081526001600160a01b039384166004526024949094529260209060448180855af160015f5114811615611bf9575b8360405215611be357505050565b635274afe760e01b835216600482015260249150fd5b6001811516611c0f57813b15153d151616611bd5565b833d5f823e3d90fd5b6040516323b872dd60e01b5f9081526001600160a01b03938416600452938316602452604494909452909160209060648180855af160015f5114811615611c6c575b836040525f60605215611be357505050565b6001811516611c0f57813b15153d151616611c5a565b611a2790612710611c9c6003600184015493015483611910565b0490611937565b9060ff8091169116019060ff82116119235756fed19906ee1ad48a098b7775e103ec4cb4ffaefc35799b1914b4a390f9cd27facc9b779b17422d0df92223018b32b4d1fa46e071723d6817e2486d003becc55f00a26469706673582212209c997d1aad6162263ab3b574ebe7fc553da2c8066a4aa06b505a6935de32d2ec64736f6c63430008190033",
  "linkReferences": {},
  "deployedLinkReferences": {}
}