{
  "_format": "hh-sol-artifact-1",
  "contractName": "LendingPool",
  "sourceName": "contracts/LendingPool.sol",
  "abi": [
    {
      "inputs": [
        {
          "internalType": "address",
          "name": "_trustToken",
          "type": "address"
        },
        {
          "internalType": "address",
          "name": "_reputationNFT",
          "type": "address"
        }
      ],
      "stateMutability": "nonpayable",
      "type": "constructor"
    },
    {
      "inputs": [],
      "name": "EnforcedPause",
      "type": "error"
    },
    {
      "inputs": [],
      "name": "ExpectedPause",
      "type": "error"
    },
    {
      "inputs": [
        {
          "internalType": "address",
          "name": "owner",
          "type": "address"
        }
      ],
      "name": "OwnableInvalidOwner",
      "type": "error"
    },
    {
      "inputs": [
        {
          "internalType": "address",
          "name": "account",
          "type": "address"
        }
      ],
      "name": "OwnableUnauthorizedAccount",
      "type": "error"
    },
    {
      "inputs": [],
      "name": "ReentrancyGuardReentrantCall",
      "type": "error"
    },
    {
      "inputs": [
        {
          "internalType": "address",
          "name": "token",
          "type": "address"
        }
      ],
      "name": "SafeERC20FailedOperation",
      "type": "error"
    },
    {
      "anonymous": false,
      "inputs": [
        {
          "indexed": true,
          "internalType": "address",
          "name": "borrower",
          "type": "address"
        },
        {
          "indexed": false,
          "internalType": "uint256",
          "name": "amount",
          "type": "uint256"
        },
        {
          "indexed": false,
          "internalType": "uint256",
          "name": "outstandingDebt",
          "type": "uint256"
        }
      ],
      "name": "LoanDefaulted",
      "type": "event"
    },
    {
      "anonymous": false,
      "inputs": [
        {
          "indexed": true,
          "internalType": "uint256",
          "name": "requestId",
          "type": "uint256"
        },
        {
          "indexed": true,
          "internalType": "address",
          "name": "lender",
          "type": "address"
        },
        {
          "indexed": true,
          "internalType": "address",
          "name": "borrower",
          "type": "address"
        },
        {
          "indexed": false,
          "internalType": "uint256",
          "name": "amount",
          "type": "uint256"
        },
        {
          "indexed": false,
          "internalType": "uint256",
          "name": "timestamp",
          "type": "uint256"
        }
      ],
      "name": "LoanFunded",
      "type": "event"
    },
    {
      "anonymous": false,
      "inputs": [
        {
          "indexed": true,
          "internalType": "uint256",
          "name": "requestId",
          "type": "uint256"
        },
        {
          "indexed": true,
          "internalType": "address",
          "name": "borrower",
          "type": "address"
        }
      ],
      "name": "LoanRequestCancelled",
      "type": "event"
    },
    {
      "anonymous": false,
      "inputs": [
        {
          "indexed": true,
          "internalType": "uint256",
          "name": "requestId",
          "type": "uint256"
        },
        {
          "indexed": true,
          "internalType": "address",
          "name": "borrower",
          "type": "address"
        },
        {
          "indexed": false,
          "internalType": "uint256",
          "name": "amount",
          "type": "uint256"
        },
        {
          "indexed": false,
          "internalType": "uint256",
          "name": "interestRate",
          "type": "uint256"
        },
        {
          "indexed": false,
          "internalType": "enum LendingPool.LoanPath",
          "name": "path",
          "type": "uint8"
        },
        {
          "indexed": false,
          "internalType": "uint256",
          "name": "expiresAt",
          "type": "uint256"
        }
      ],
      "name": "LoanRequested",
      "type": "event"
    },
    {
      "anonymous": false,
      "inputs": [
        {
          "indexed": true,
          "internalType": "address",
          "name": "previousOwner",
          "type": "address"
        },
        {
          "indexed": true,
          "internalType": "address",
          "name": "newOwner",
          "type": "address"
        }
      ],
      "name": "OwnershipTransferred",
      "type": "event"
    },
    {
      "anonymous": false,
      "inputs": [
        {
          "indexed": false,
          "internalType": "address",
          "name": "account",
          "type": "address"
        }
      ],
      "name": "Paused",
      "type": "event"
    },
    {
      "anonymous": false,
      "inputs": [
        {
          "indexed": true,
          "internalType": "address",
          "name": "borrower",
          "type": "address"
        },
        {
          "indexed": true,
          "internalType": "address",
          "name": "lender",
          "type": "address"
        },
        {
          "indexed": false,
          "internalType": "uint256",
          "name": "amount",
          "type": "uint256"
        },
        {
          "indexed": false,
          "internalType": "uint256",
          "name": "remaining",
          "type": "uint256"
        },
        {
          "indexed": false,
          "internalType": "uint8",
          "name": "newTrustScore",
          "type": "uint8"
        }
      ],
      "name": "RepaymentMade",
      "type": "event"
    },
    {
      "anonymous": false,
      "inputs": [
        {
          "indexed": true,
          "internalType": "address",
          "name": "borrower",
          "type": "address"
        },
        {
          "indexed": false,
          "internalType": "uint8",
          "name": "oldScore",
          "type": "uint8"
        },
        {
          "indexed": false,
          "internalType": "uint8",
          "name": "newScore",
          "type": "uint8"
        }
      ],
      "name": "TrustScoreUpdated",
      "type": "event"
    },
    {
      "anonymous": false,
      "inputs": [
        {
          "indexed": false,
          "internalType": "address",
          "name": "account",
          "type": "address"
        }
      ],
      "name": "Unpaused",
      "type": "event"
    },
    {
      "inputs": [
        {
          "internalType": "address",
          "name": "",
          "type": "address"
        }
      ],
      "name": "borrowerCollateral",
      "outputs": [
        {
          "internalType": "uint256",
          "name": "",
          "type": "uint256"
        }
      ],
      "stateMutability": "view",
      "type": "function"
    },
    {
      "inputs": [
        {
          "internalType": "address",
          "name": "",
          "type": "address"
        }
      ],
      "name": "borrowerPendingRequestId",
      "outputs": [
        {
          "internalType": "uint256",
          "name": "",
          "type": "uint256"
        }
      ],
      "stateMutability": "view",
      "type": "function"
    },
    {
      "inputs": [
        {
          "internalType": "uint256",
          "name": "requestId",
          "type": "uint256"
        }
      ],
      "name": "cancelLoanRequest",
      "outputs": [],
      "stateMutability": "nonpayable",
      "type": "function"
    },
    {
      "inputs": [
        {
          "internalType": "uint256",
          "name": "",
          "type": "uint256"
        }
      ],
      "name": "collateralEscrow",
      "outputs": [
        {
          "internalType": "uint256",
          "name": "",
          "type": "uint256"
        }
      ],
      "stateMutability": "view",
      "type": "function"
    },
    {
      "inputs": [
        {
          "internalType": "uint256",
          "name": "requestId",
          "type": "uint256"
        }
      ],
      "name": "fundLoanRequest",
      "outputs": [],
      "stateMutability": "nonpayable",
      "type": "function"
    },
    {
      "inputs": [
        {
          "internalType": "address",
          "name": "borrower",
          "type": "address"
        }
      ],
      "name": "getBorrowLimit",
      "outputs": [
        {
          "internalType": "uint256",
          "name": "",
          "type": "uint256"
        }
      ],
      "stateMutability": "view",
      "type": "function"
    },
    {
      "inputs": [
        {
          "internalType": "address",
          "name": "borrower",
          "type": "address"
        }
      ],
      "name": "getBorrowerRequest",
      "outputs": [
        {
          "components": [
            {
              "internalType": "uint256",
              "name": "requestId",
              "type": "uint256"
            },
            {
              "internalType": "address",
              "name": "borrower",
              "type": "address"
            },
            {
              "internalType": "uint256",
              "name": "amount",
              "type": "uint256"
            },
            {
              "internalType": "uint256",
              "name": "durationDays",
              "type": "uint256"
            },
            {
              "internalType": "uint256",
              "name": "interestRate",
              "type": "uint256"
            },
            {
              "internalType": "enum LendingPool.LoanPath",
              "name": "path",
              "type": "uint8"
            },
            {
              "internalType": "enum LendingPool.LoanRequestStatus",
              "name": "status",
              "type": "uint8"
            },
            {
              "internalType": "uint256",
              "name": "createdAt",
              "type": "uint256"
            },
            {
              "internalType": "uint256",
              "name": "expiresAt",
              "type": "uint256"
            },
            {
              "internalType": "address",
              "name": "funder",
              "type": "address"
            }
          ],
          "internalType": "struct LendingPool.LoanRequest",
          "name": "",
          "type": "tuple"
        }
      ],
      "stateMutability": "view",
      "type": "function"
    },
    {
      "inputs": [
        {
          "internalType": "address",
          "name": "borrower",
          "type": "address"
        }
      ],
      "name": "getLoan",
      "outputs": [
        {
          "components": [
            {
              "internalType": "address",
              "name": "borrower",
              "type": "address"
            },
            {
              "internalType": "address",
              "name": "lender",
              "type": "address"
            },
            {
              "internalType": "uint256",
              "name": "amount",
              "type": "uint256"
            },
            {
              "internalType": "uint256",
              "name": "repaidAmount",
              "type": "uint256"
            },
            {
              "internalType": "uint256",
              "name": "interestRate",
              "type": "uint256"
            },
            {
              "internalType": "uint256",
              "name": "startTime",
              "type": "uint256"
            },
            {
              "internalType": "uint256",
              "name": "dueDate",
              "type": "uint256"
            },
            {
              "internalType": "uint8",
              "name": "installmentsPaid",
              "type": "uint8"
            },
            {
              "internalType": "uint8",
              "name": "totalInstallments",
              "type": "uint8"
            },
            {
              "internalType": "enum LendingPool.LoanStatus",
              "name": "status",
              "type": "uint8"
            },
            {
              "internalType": "enum LendingPool.LoanPath",
              "name": "path",
              "type": "uint8"
            }
          ],
          "internalType": "struct LendingPool.Loan",
          "name": "",
          "type": "tuple"
        }
      ],
      "stateMutability": "view",
      "type": "function"
    },
    {
      "inputs": [],
      "name": "getOpenRequests",
      "outputs": [
        {
          "components": [
            {
              "internalType": "uint256",
              "name": "requestId",
              "type": "uint256"
            },
            {
              "internalType": "address",
              "name": "borrower",
              "type": "address"
            },
            {
              "internalType": "uint256",
              "name": "amount",
              "type": "uint256"
            },
            {
              "internalType": "uint256",
              "name": "durationDays",
              "type": "uint256"
            },
            {
              "internalType": "uint256",
              "name": "interestRate",
              "type": "uint256"
            },
            {
              "internalType": "enum LendingPool.LoanPath",
              "name": "path",
              "type": "uint8"
            },
            {
              "internalType": "enum LendingPool.LoanRequestStatus",
              "name": "status",
              "type": "uint8"
            },
            {
              "internalType": "uint256",
              "name": "createdAt",
              "type": "uint256"
            },
            {
              "internalType": "uint256",
              "name": "expiresAt",
              "type": "uint256"
            },
            {
              "internalType": "address",
              "name": "funder",
              "type": "address"
            }
          ],
          "internalType": "struct LendingPool.LoanRequest[]",
          "name": "",
          "type": "tuple[]"
        }
      ],
      "stateMutability": "view",
      "type": "function"
    },
    {
      "inputs": [],
      "name": "getPoolStats",
      "outputs": [
        {
          "internalType": "uint256",
          "name": "funded",
          "type": "uint256"
        },
        {
          "internalType": "uint256",
          "name": "active",
          "type": "uint256"
        },
        {
          "internalType": "uint256",
          "name": "requests",
          "type": "uint256"
        },
        {
          "internalType": "uint256",
          "name": "avgRate",
          "type": "uint256"
        }
      ],
      "stateMutability": "view",
      "type": "function"
    },
    {
      "inputs": [
        {
          "internalType": "address",
          "name": "borrower",
          "type": "address"
        }
      ],
      "name": "getTotalOwed",
      "outputs": [
        {
          "internalType": "uint256",
          "name": "",
          "type": "uint256"
        }
      ],
      "stateMutability": "view",
      "type": "function"
    },
    {
      "inputs": [
        {
          "internalType": "address",
          "name": "borrower",
          "type": "address"
        }
      ],
      "name": "getTrustScore",
      "outputs": [
        {
          "internalType": "uint8",
          "name": "",
          "type": "uint8"
        }
      ],
      "stateMutability": "view",
      "type": "function"
    },
    {
      "inputs": [],
      "name": "initializeUser",
      "outputs": [],
      "stateMutability": "nonpayable",
      "type": "function"
    },
    {
      "inputs": [
        {
          "internalType": "uint256",
          "name": "",
          "type": "uint256"
        }
      ],
      "name": "loanRequests",
      "outputs": [
        {
          "internalType": "uint256",
          "name": "requestId",
          "type": "uint256"
        },
        {
          "internalType": "address",
          "name": "borrower",
          "type": "address"
        },
        {
          "internalType": "uint256",
          "name": "amount",
          "type": "uint256"
        },
        {
          "internalType": "uint256",
          "name": "durationDays",
          "type": "uint256"
        },
        {
          "internalType": "uint256",
          "name": "interestRate",
          "type": "uint256"
        },
        {
          "internalType": "enum LendingPool.LoanPath",
          "name": "path",
          "type": "uint8"
        },
        {
          "internalType": "enum LendingPool.LoanRequestStatus",
          "name": "status",
          "type": "uint8"
        },
        {
          "internalType": "uint256",
          "name": "createdAt",
          "type": "uint256"
        },
        {
          "internalType": "uint256",
          "name": "expiresAt",
          "type": "uint256"
        },
        {
          "internalType": "address",
          "name": "funder",
          "type": "address"
        }
      ],
      "stateMutability": "view",
      "type": "function"
    },
    {
      "inputs": [
        {
          "internalType": "uint256",
          "name": "amount",
          "type": "uint256"
        }
      ],
      "name": "makeRepayment",
      "outputs": [],
      "stateMutability": "nonpayable",
      "type": "function"
    },
    {
      "inputs": [
        {
          "internalType": "address",
          "name": "borrower",
          "type": "address"
        }
      ],
      "name": "markDefault",
      "outputs": [],
      "stateMutability": "nonpayable",
      "type": "function"
    },
    {
      "inputs": [],
      "name": "owner",
      "outputs": [
        {
          "internalType": "address",
          "name": "",
          "type": "address"
        }
      ],
      "stateMutability": "view",
      "type": "function"
    },
    {
      "inputs": [],
      "name": "pause",
      "outputs": [],
      "stateMutability": "nonpayable",
      "type": "function"
    },
    {
      "inputs": [],
      "name": "paused",
      "outputs": [
        {
          "internalType": "bool",
          "name": "",
          "type": "bool"
        }
      ],
      "stateMutability": "view",
      "type": "function"
    },
    {
      "inputs": [],
      "name": "renounceOwnership",
      "outputs": [],
      "stateMutability": "nonpayable",
      "type": "function"
    },
    {
      "inputs": [],
      "name": "reputationNFT",
      "outputs": [
        {
          "internalType": "address",
          "name": "",
          "type": "address"
        }
      ],
      "stateMutability": "view",
      "type": "function"
    },
    {
      "inputs": [],
      "name": "requestCount",
      "outputs": [
        {
          "internalType": "uint256",
          "name": "",
          "type": "uint256"
        }
      ],
      "stateMutability": "view",
      "type": "function"
    },
    {
      "inputs": [
        {
          "internalType": "uint256",
          "name": "loanAmount",
          "type": "uint256"
        },
        {
          "internalType": "uint256",
          "name": "collateralAmount",
          "type": "uint256"
        },
        {
          "internalType": "uint256",
          "name": "durationDays",
          "type": "uint256"
        }
      ],
      "name": "submitCollateralRequest",
      "outputs": [],
      "stateMutability": "nonpayable",
      "type": "function"
    },
    {
      "inputs": [
        {
          "internalType": "uint256",
          "name": "amount",
          "type": "uint256"
        },
        {
          "internalType": "uint256",
          "name": "durationDays",
          "type": "uint256"
        },
        {
          "internalType": "uint8",
          "name": "path",
          "type": "uint8"
        }
      ],
      "name": "submitLoanRequest",
      "outputs": [],
      "stateMutability": "nonpayable",
      "type": "function"
    },
    {
      "inputs": [],
      "name": "totalActiveLoans",
      "outputs": [
        {
          "internalType": "uint256",
          "name": "",
          "type": "uint256"
        }
      ],
      "stateMutability": "view",
      "type": "function"
    },
    {
      "inputs": [],
      "name": "totalFundedAmount",
      "outputs": [
        {
          "internalType": "uint256",
          "name": "",
          "type": "uint256"
        }
      ],
      "stateMutability": "view",
      "type": "function"
    },
    {
      "inputs": [
        {
          "internalType": "address",
          "name": "newOwner",
          "type": "address"
        }
      ],
      "name": "transferOwnership",
      "outputs": [],
      "stateMutability": "nonpayable",
      "type": "function"
    },
    {
      "inputs": [
        {
          "internalType": "address",
          "name": "",
          "type": "address"
        }
      ],
      "name": "trustScores",
      "outputs": [
        {
          "internalType": "uint8",
          "name": "",
          "type": "uint8"
        }
      ],
      "stateMutability": "view",
      "type": "function"
    },
    {
      "inputs": [],
      "name": "trustToken",
      "outputs": [
        {
          "internalType": "contract IERC20",
          "name": "",
          "type": "address"
        }
      ],
      "stateMutability": "view",
      "type": "function"
    },
    {
      "inputs": [],
      "name": "unpause",
      "outputs": [],
      "stateMutability": "nonpayable",
      "type": "function"
    },
    {
      "inputs": [
        {
          "internalType": "address",
          "name": "borrower",
          "type": "address"
        },
        {
          "internalType": "uint8",
          "name": "newScore",
          "type": "uint8"
        }
      ],
      "name": "updateTrustScore",
      "outputs": [],
      "stateMutability": "nonpayable",
      "type": "function"
    }
  ],
  "bytecode": "0x60a03461012a57601f61296738819003918201601f19168301916001600160401b0383118484101761012e57808492604094855283398101031261012a57610052602061004b83610142565b9201610142565b903315610112575f549160018060a01b03908160018060a01b03199333858716175f5560405195823391167f8be0079c531659141344cd1fd0a4f28419497f9722a3daafe3b4186f6b6457e05f80a360017f9b779b17422d0df92223018b32b4d1fa46e071723d6817e2486d003becc55f005516608052169060015416176001556128109081610157823960805181818161024f015281816105ea0152818161086f01528181610abc01528181610cff01528181611123015261199c0152f35b604051631e4fbdf760e01b81525f6004820152602490fd5b5f80fd5b634e487b7160e01b5f52604160045260245ffd5b51906001600160a01b038216820361012a5756fe6080806040526004361015610012575f80fd5b5f905f3560e01c90816312df0fc41461209a575080631439aef21461207d5780631464108014611f9d57806315b651ee14611f6c57806333481fc914611dae5780633f4ba83a14611d3f5780634a5c0ffd146119175780634b353888146117f05780635a680367146116fe5780635badbe4c146116e05780635c975abb146116bb5780635e09eea11461167e5780636fb8594b14611654578063715018a6146115fb57806373851075146115d7578063771568fd1461159e5780637c17d237146115725780638456cb59146115115780638da5cb5b146114ea5780639d20aaea1461125c578063a7dbb9b014610e48578063bbb8518814610d88578063be81c4d414610b24578063cdfb63ba14610aeb578063d13deb2f14610aa6578063d1b332f4146109f8578063d37415fe14610560578063dc63af4114610542578063f2fde38b146104ba578063f88aa9531461019e5763fa48864914610173575f80fd5b3461019b578060031936011261019b576001546040516001600160a01b039091168152602090f35b80fd5b503461019b57606036600319011261019b576101b861261d565b6101c061264c565b600435156101ce81156124a9565b606a60043502906004358204606a14171561042457606490046024351061045a5760443515158061044c575b610203906124f5565b338152600260205260ff600760408320015460101c16600581101561043857600161022f911415612541565b338152600560205261024560408220541561258d565b61027360243530337f000000000000000000000000000000000000000000000000000000000000000061266c565b61027e600854612396565b806008556202a300420142116104245760405161029a816121ae565b818152336020820152600435604082015260443560608201526101186080820152600160a08201528260c08201524260e08201526202a30042016101008201528261012082015281835260046020526040832081518155600181019060018060a01b039081602085015116926001600160601b0360a01b93848254161790556040840151600282015560608401516003820155608084015160048201556005810160a085015160038110156104105760ff8019835416911617815560c085015190600482101561041057916103746008926101209461236a565b60e0860151600682015561010086015160078201550193015116908254161790553382526005602052806040832055808252600660205260243560408320556040519060043582526101186020830152600160408301526202a300420160608301527f15b11484ea34e6e4ce83661caceda107c8f6e1c21df6dad0e8b66c5145167bc660803393a360015f805160206127bb8339815191525580f35b634e487b7160e01b88526021600452602488fd5b634e487b7160e01b82526011600452602482fd5b634e487b7160e01b82526021600452602482fd5b5061016d60443511156101fa565b60405162461bcd60e51b815260206004820152603260248201527f4c656e64696e67506f6f6c3a20696e7375666669656e7420636f6c6c61746572604482015271616c2028313036252072657175697265642960701b6064820152608490fd5b503461019b57602036600319011261019b576104d46120d1565b6104dc6125f2565b6001600160a01b03908116908115610529575f54826001600160601b0360a01b8216175f55167f8be0079c531659141344cd1fd0a4f28419497f9722a3daafe3b4186f6b6457e05f80a380f35b604051631e4fbdf760e01b815260048101849052602490fd5b503461019b578060031936011261019b576020600954604051908152f35b503461019b57602036600319011261019b5761057a61261d565b61058261264c565b33815260026020526040812060ff600782015460101c1660058110156109e45760010361099f576004351561095a576105ba816126f5565b906105c96003820154836125e5565b6004351161091557600181015461060e90600435906001600160a01b0316337f000000000000000000000000000000000000000000000000000000000000000061266c565b61061e6004356003830154612389565b80600383015560078201549060ff80831614610901578360ff60018185160116918260ff19851617600786015510156106ce575b5050338352600360205261067360ff604085205416926003830154906125e5565b906001808060a01b039101541691604051916004358352602083015260408201527f74c31489440409cb33a956d3ae745847887e631c79cc55bff367db06013338f160603392a360015f805160206127bb8339815191525580f35b620200009162ff00ff1916171760078201556106eb600954612475565b6009556106fe6004820154600b546125e5565b600b55338352600260205260408320600581015460068201549061072281836125e5565b80604b810204604b14811517156108ed57906064604b61074493020490612389565b42116108d75750600c905b33855260036020528460ff60408220541692606460ff61076f83876127a6565b1611156108c7576064925b338352600360205260408320805460ff191660ff861690811790915560015460029092015490916001600160a01b0316803b156108c357849283608492600860ff60405198899788966336eab1bd60e01b88523360048901526024880152604487015216101560648401525af16108af575b50506040805160ff938416815291909216602082015233917fd19906ee1ad48a098b7775e103ec4cb4ffaefc35799b1914b4a390f9cd27facc91a260ff600782015460181c16600381101561089b5760011461084a575b5f80610652565b33835260076020526040832080548481610867575b505050610843565b6108939255337f0000000000000000000000000000000000000000000000000000000000000000612747565b5f808461085f565b634e487b7160e01b84526021600452602484fd5b6108b89061219a565b6108c357845f6107ec565b8480fd5b6108d181856127a6565b9261077a565b42116108e55760089061074f565b60039061074f565b634e487b7160e01b87526011600452602487fd5b634e487b7160e01b85526011600452602485fd5b60405162461bcd60e51b815260206004820152601860248201527f4c656e64696e67506f6f6c3a206f7665727061796d656e7400000000000000006044820152606490fd5b60405162461bcd60e51b815260206004820152601b60248201527f4c656e64696e67506f6f6c3a207a65726f2072657061796d656e7400000000006044820152606490fd5b60405162461bcd60e51b815260206004820152601b60248201527f4c656e64696e67506f6f6c3a206e6f20616374697665206c6f616e00000000006044820152606490fd5b634e487b7160e01b83526021600452602483fd5b503461019b57602036600319011261019b57604061014091600435815260046020522080549060018060a01b03908160018201541691610a9360028301546003840154600485015490600586015492600687015495600860078901549801541697604051998a5260208a0152604089015260608801526080870152610a8360a0870160ff83166120e7565b60ff60c087019160081c166120f4565b60e0840152610100830152610120820152f35b503461019b578060031936011261019b576040517f00000000000000000000000000000000000000000000000000000000000000006001600160a01b03168152602090f35b503461019b57602036600319011261019b576020906040906001600160a01b03610b136120d1565b168152600583522054604051908152f35b503461019b57602080600319360112610d8457610b3f6120d1565b90610b486125f2565b6001600160a01b03918216808452600282526040842060078101805492949192601081901c60ff16600581101561041057600103610d3f57906203000060ff9262ff00001916178155610b9c600954612475565b600955610baf6004850154600b546125e5565b600b555460181c166003811015610d2b57600114610cd5575b83855260038352604085205460ff16600f8110610ccc57600e190160ff8111610cb8578590915b8582526003855260ff604083209316928360ff198254161790556001541660028401928354823b15610cb457608484928360405195869485936336eab1bd60e01b85528d6004860152602485015260448401525f60648401525af1610c9c575b5050547f1b849894a849eddede200f64b3e4aa5870adc9b6f442acb237bb07d8f100f01b92604092610c8f906003610c86826126f5565b910154906125e5565b908351928352820152a280f35b610ca89093929361219a565b6108c35790845f610c4f565b8380fd5b634e487b7160e01b86526011600452602486fd5b50848091610bef565b838552600783526040852080548681610cf1575b505050610bc8565b610d239255826001850154167f0000000000000000000000000000000000000000000000000000000000000000612747565b5f8086610ce9565b634e487b7160e01b86526021600452602486fd5b60405162461bcd60e51b815260048101869052601760248201527f4c656e64696e67506f6f6c3a206e6f74206163746976650000000000000000006044820152606490fd5b5080fd5b503461019b578060031936011261019b57600a5460095482600160088054915b82811115610e01575050821594905084610df75750600b5493610de3578160809404915b604051938452602084015260408301526060820152f35b634e487b7160e01b5f52601260045260245ffd5b6080945091610dcc565b808752600460205260ff6005604089200154831c1660048110156104105715610e33575b610e2e90612396565b610da8565b92610e40610e2e91612396565b939050610e25565b503461019b57606036600319011261019b576044359060ff8216820361125857610e7061261d565b610e7861264c565b60043515610e8681156124a9565b60243515158061124a575b610e9a906124f5565b600260ff84161161120557338252600260205260ff600760408420015460101c1660058110156109e4576001610ed1911415612541565b3382526005602052610ee760408320541561258d565b610ef0336123e6565b600360ff851610156109e45760ff84166002036111b857678ac7230489e800008082116111b0575b506004351161115a575b610f2d600854612396565b9081600855600160ff851614611102575b50610f4b60ff841661271e565b906202a300420142116110ee5760405193610f65856121ae565b81855233602086015260043560408601526024356060860152826080860152610f9460ff821660a08701612215565b8360c08601524260e08601526202a30042016101008601528361012086015281845260046020526040842094805186556001860160018060a01b0380602084015116916001600160601b0360a01b92838254161790556040830151600289015560608301516003890155608083015160048901556005880160a084015160038110156110da5760ff8019835416911617815560c08401519060048210156110da576110959697989961104b6101209360089361236a565b60e0860151600682015561010086015160078201550193015116908254161790553385526005602052826040862055604051936004358552602085015260ff6040850191166120e7565b6202a300420160608301527f15b11484ea34e6e4ce83661caceda107c8f6e1c21df6dad0e8b66c5145167bc660803393a360015f805160206127bb8339815191525580f35b634e487b7160e01b89526021600452602489fd5b634e487b7160e01b83526011600452602483fd5b606a60043502906004358204606a1417156110ee57606490046111478130337f000000000000000000000000000000000000000000000000000000000000000061266c565b818352600660205260408320555f610f3e565b60405162461bcd60e51b815260206004820152602860248201527f4c656e64696e67506f6f6c3a20657863656564732074727573742d6f6e6c7920604482015267636170202831302960c01b6064820152608490fd5b90505f610f18565b6004351115610f2257606460405162461bcd60e51b815260206004820152602060248201527f4c656e64696e67506f6f6c3a2065786365656473207472757374206c696d69746044820152fd5b60405162461bcd60e51b815260206004820152601960248201527f4c656e64696e67506f6f6c3a20696e76616c69642070617468000000000000006044820152606490fd5b5061016d6024351115610e91565b5f80fd5b503461019b578060031936011261019b5780600160088054915b82811115611481575090601f929161128d8561245d565b94604051958519958691011686019086821067ffffffffffffffff83111761146d576112c19160409795975280855261245d565b60209401855b81811061145157505084915b6001811015611329575050506040519180830190808452825180925280604085019301945b8281106113055784840385f35b909192826101408261131a6001948a51612101565b019601910194929190946112f8565b80869496526004855260ff60058181604088200154851c16600481101561143d571580611425575b611369575b505061136190612475565b9492946112d3565b9361141d9183956113619488526004895285604089206113e46040519461138f866121ae565b8254865260018301546001600160a01b039081168e880152600284015460408801526003840154606088015260048401546080880152948301546113d882821660a08901612215565b841c1660c08601612221565b600681015460e0850152600781015461010085015201541661012082015261140c828a612481565b526114178189612481565b50612396565b92905f611356565b50828652600487526007604087200154421115611351565b634e487b7160e01b87526021600452602487fd5b859061145e9795976121cb565b82828a010152019593956112c7565b634e487b7160e01b5f52604160045260245ffd5b80845260206004815260ff6005604087200154841c166004811015610d2b571590816114d1575b506114bc575b6114b790612396565b611276565b936114c96114b791612396565b9490506114ae565b600491508286525260076040852001544211155f6114a8565b503461019b578060031936011261019b57546040516001600160a01b039091168152602090f35b503461019b578060031936011261019b5761152a6125f2565b61153261264c565b805460ff60a01b1916600160a01b1781556040513381527f62e78cea01bee320cd4e420270b5ea74000d11b0c9f74754ebdbfc544b05a25890602090a180f35b503461019b57602036600319011261019b5760206115966115916120d1565b6123e6565b604051908152f35b503461019b57602036600319011261019b576020906040906001600160a01b036115c66120d1565b168152600783522054604051908152f35b503461019b57602036600319011261019b5760206115966115f66120d1565b6123a4565b503461019b578060031936011261019b576116146125f2565b5f80546001600160a01b0319811682556001600160a01b03167f8be0079c531659141344cd1fd0a4f28419497f9722a3daafe3b4186f6b6457e08280a380f35b503461019b57602036600319011261019b5760406020916004358152600683522054604051908152f35b503461019b57602036600319011261019b5760209060ff906040906001600160a01b036116a96120d1565b16815260038452205416604051908152f35b503461019b578060031936011261019b5760ff6020915460a01c166040519015158152f35b503461019b578060031936011261019b576020600854604051908152f35b503461019b57602036600319011261019b57600480358083526020919091526040822060018101546001600160a01b031633036117ab57600501805460ff8160081c1660048110156117975790611758610200921561231e565b61ff001916179055338252600560205281604081205533907fa3052c24e977f99a03cf30c20f274f2e2f732c8916f7fd1f49263eb6844dcd4e8380a380f35b634e487b7160e01b85526021600452602485fd5b60405162461bcd60e51b815260206004820152601d60248201527f4c656e64696e67506f6f6c3a206e6f7420796f757220726571756573740000006044820152606490fd5b503461019b578060031936011261019b5761180961261d565b61181161264c565b338152600360205260ff6040822054166118d357338152600360205260408120805460ff1916601e17905560015481906001600160a01b0316803b156118d05781809160246040518094819363ea62781d60e01b83523360048401525af16118bc575b50604051818152601e60208201527fd19906ee1ad48a098b7775e103ec4cb4ffaefc35799b1914b4a390f9cd27facc60403392a260015f805160206127bb8339815191525580f35b6118c59061219a565b61019b57805f611874565b50fd5b606460405162461bcd60e51b815260206004820152602060248201527f4c656e64696e67506f6f6c3a20616c726561647920696e697469616c697a65646044820152fd5b50346112585760203660031901126112585760043561193461261d565b61193c61264c565b805f52600460205260405f2090600582019160ff835460081c166004811015611c4b57611969901561231e565b60078101544211611cfa576001810180546001600160a01b031693909190338514611ca9576119c06002830195865490337f000000000000000000000000000000000000000000000000000000000000000061266c565b805461ff0019166101001781556008820180546001600160a01b0319163317905582546001600160a01b03165f90815260056020526040812055805460ff166003811015611c4b57600114611c73575b60038201546201518090818102918183041490151715611c5f57611a349042612389565b90611aa360018060a01b03855416916004885495019360ff85549254169160405196611a5f8861217d565b85885233602089015260408801525f606088015260808701524260a087015260c08601525f60e0860152600461010086015260016101208601526101408501612215565b5f526002602052600760405f2060018060a01b038451166001600160601b0360a01b8254161781556001810160018060a01b036020860151166001600160601b0360a01b82541617905560408401516002820155606084015160038201556080840151600482015560a0840151600582015560c084015160068201550160ff60e0840151169281549061ff0061010082015160081b16610120820151916005831015611c4b576101400151906003821015611c4b57611ba49663ff00000062ff00009360181b169463ffffffff191617179160101b1617179055611b88600954612396565b600955611b988554600a54612389565b600a5554600b54612389565b600b5560015481546001600160a01b039182169116813b15611258575f9160248392604051948593849263ea62781d60e01b845260048401525af1611c38575b5060018060a01b039054169154906040519182524260208301527f165e2cd73251fb132ee02500587d3ecca9c366474f70646e06c89646c57bd82460403393a460015f805160206127bb8339815191525580f35b611c4391945061219a565b5f925f611be4565b634e487b7160e01b5f52602160045260245ffd5b634e487b7160e01b5f52601160045260245ffd5b835f52600660205260405f205460018060a01b038454165f52600760205260405f2055835f5260066020525f6040812055611a10565b60405162461bcd60e51b8152602060048201526024808201527f4c656e64696e67506f6f6c3a2063616e6e6f742066756e64206f776e207265716044820152631d595cdd60e21b6064820152608490fd5b60405162461bcd60e51b815260206004820152601c60248201527f4c656e64696e67506f6f6c3a20726571756573742065787069726564000000006044820152606490fd5b34611258575f36600319011261125857611d576125f2565b5f5460ff8160a01c1615611d9c5760ff60a01b19165f556040513381527f5db9ee0a495bf2e6ff9c91a7834c1ba4fdd244a5e8aa4e537bd38aeae4b073aa90602090a1005b604051638dfc202b60e01b8152600490fd5b3461125857602036600319011261125857611dc76120d1565b5f610140604051611dd78161217d565b8281528260208201528260408201528260608201528260808201528260a08201528260c08201528260e08201528261010082015282610120820152015260018060a01b03165f52600260205260405f20600760405191611e368361217d565b60018060a01b03815416835260018060a01b036001820154166020840152600281015460408401526003810154606084015260048101546080840152600581015460a0840152600681015460c0840152015460ff811660e083015260ff8160081c16610100830152600560ff8260101c161015611c4b5760ff8181611ecd9360101c1661012085015260181c166101408301612215565b60405160018060a01b03825116815260018060a01b03602083015116602082015260408201516040820152606082015160608201526080820151608082015260a082015160a082015260c082015160c082015260ff60e08301511660e082015260ff61010083015116610100820152610120820151916005831015611c4b57610140611f6a916101609461012085015201516101408301906120e7565bf35b3461125857602036600319011261125857610140611f90611f8b6120d1565b61222d565b611f6a6040518092612101565b3461125857604036600319011261125857611fb66120d1565b6024359060ff82169081830361125857611fce6125f2565b60648211612038576001600160a01b03165f81815260036020908152604091829020805460ff198116959095179055815160ff94851681529490931692840192909252917fd19906ee1ad48a098b7775e103ec4cb4ffaefc35799b1914b4a390f9cd27facc9190a2005b60405162461bcd60e51b815260206004820152601860248201527f4c656e64696e67506f6f6c3a2073636f7265203e2031303000000000000000006044820152606490fd5b34611258575f366003190112611258576020600a54604051908152f35b34611258576020366003190112611258576020906001600160a01b036120be6120d1565b165f526003825260ff60405f2054168152f35b600435906001600160a01b038216820361125857565b906003821015611c4b5752565b906004821015611c4b5752565b80518252602081015160018060a01b03809116602084015260408201516040840152606082015160608401526080820151608084015261214960a083015160a08501906120e7565b61215b60c083015160c08501906120f4565b60e082015160e084015261010080830151908401526101208092015116910152565b610160810190811067ffffffffffffffff82111761146d57604052565b67ffffffffffffffff811161146d57604052565b610140810190811067ffffffffffffffff82111761146d57604052565b604051906121d8826121ae565b5f610120838281528260208201528260408201528260608201528260808201528260a08201528260c08201528260e0820152826101008201520152565b6003821015611c4b5752565b6004821015611c4b5752565b6122356121cb565b5060018060a01b038091165f526005602052604090815f205480156122d3575f5260046020526008825f2083519361226c856121ae565b8154855283600183015416602086015260028201549085015260038101546060850152600481015460808501526122b260ff60058301546113d882821660a08901612215565b600681015460e0850152600781015461010085015201541661012082015290565b50505f8151916122e2836121ae565b8183528160208401528201525f60608201525f60808201525f60a0820152600260c08201525f60e08201525f6101008201525f61012082015290565b1561232557565b60405162461bcd60e51b815260206004820152601860248201527f4c656e64696e67506f6f6c3a206e6f742070656e64696e6700000000000000006044820152606490fd5b906004811015611c4b5761ff0082549160081b169061ff001916179055565b91908201809211611c5f57565b5f198114611c5f5760010190565b6001600160a01b03165f908152600260205260409020600781015460101c60ff166005811015611c4b576001036123e1576123de906126f5565b90565b505f90565b6001600160a01b03165f9081526003602052604090205460ff16605a81101561244f57604681101561244157603281101561243357601e1115612427575f90565b678ac7230489e8000090565b50680ad78ebc5ac620000090565b50681b1ae4d6e2ef50000090565b50683635c9adc5dea0000090565b67ffffffffffffffff811161146d5760051b60200190565b8015611c5f575f190190565b80518210156124955760209160051b010190565b634e487b7160e01b5f52603260045260245ffd5b156124b057565b60405162461bcd60e51b815260206004820152601860248201527f4c656e64696e67506f6f6c3a207a65726f20616d6f756e7400000000000000006044820152606490fd5b156124fc57565b60405162461bcd60e51b815260206004820152601d60248201527f4c656e64696e67506f6f6c3a20696e76616c6964206475726174696f6e0000006044820152606490fd5b1561254857565b60405162461bcd60e51b815260206004820152601f60248201527f4c656e64696e67506f6f6c3a20616374697665206c6f616e20657869737473006044820152606490fd5b1561259457565b60405162461bcd60e51b815260206004820152602360248201527f4c656e64696e67506f6f6c3a2070656e64696e6720726571756573742065786960448201526273747360e81b6064820152608490fd5b91908203918211611c5f57565b5f546001600160a01b0316330361260557565b60405163118cdaa760e01b8152336004820152602490fd5b5f805160206127bb833981519152600281541461263a5760029055565b604051633ee5aeb560e01b8152600490fd5b60ff5f5460a01c1661265a57565b60405163d93c066560e01b8152600490fd5b6040516323b872dd60e01b5f9081526001600160a01b03938416600452938316602452604494909452909160209060648180855af160015f51148116156126d6575b836040525f606052156126c057505050565b635274afe760e01b835216600482015260249150fd5b60018115166126ec57813b15153d1516166126ae565b833d5f823e3d90fd5b6004600282015491015490818102918183041481151715611c5f576127106123de920490612389565b6003811015611c4b5780156127405760011461273a576102c690565b61011890565b506101a490565b60405163a9059cbb60e01b5f9081526001600160a01b039384166004526024949094529260209060448180855af160015f5114811615612790575b83604052156126c057505050565b60018115166126ec57813b15153d151616612782565b9060ff8091169116019060ff8211611c5f5756fe9b779b17422d0df92223018b32b4d1fa46e071723d6817e2486d003becc55f00a264697066735822122040ea0c17ee72a9caf21982e8c67c7431dd0eb1e8f8e0489a28daeaef8d79a71164736f6c63430008190033",
  "linkReferences": {},
  "deployedLinkReferences": {}
}