{
  "_format": "hh-sol-artifact-1",
  "contractName": "LendingPool",
  "sourceName": "contracts/LendingPool.sol",
  "abi": [
    {
      "inputs": [
        {
          "internalType": "address",
          "name": "_trustToken",
          "type": "address"
        },
        {
          "internalType": "address",
          "name": "_reputationNFT",
          "type": "address"
        }
      ],
      "stateMutability": "nonpayable",
      "type": "constructor"
    },
    {
      "inputs": [],
      "name": "EnforcedPause",
      "type": "error"
    },
    {
      "inputs": [],
      "name": "ExpectedPause",
      "type": "error"
    },
    {
      "inputs": [
        {
          "internalType": "address",
          "name": "owner",
          "type": "address"
        }
      ],
      "name": "OwnableInvalidOwner",
      "type": "error"
    },
    {
      "inputs": [
        {
          "internalType": "address",
          "name": "account",
          "type": "address"
        }
      ],
      "name": "OwnableUnauthorizedAccount",
      "type": "error"
    },
    {
      "inputs": [],
      "name": "ReentrancyGuardReentrantCall",
      "type": "error"
    },
    {
      "inputs": [
        {
          "internalType": "address",
          "name": "token",
          "type": "address"
        }
      ],
      "name": "SafeERC20FailedOperation",
      "type": "error"
    },
    {
      "anonymous": false,
      "inputs": [
        {
          "indexed": true,
          "internalType": "address",
          "name": "borrower",
          "type": "address"
        },
        {
          "indexed": false,
          "internalType": "uint256",
          "name": "amount",
          "type": "uint256"
        },
        {
          "indexed": false,
          "internalType": "uint256",
          "name": "outstandingDebt",
          "type": "uint256"
        }
      ],
      "name": "LoanDefaulted",
      "type": "event"
    },
    {
      "anonymous": false,
      "inputs": [
        {
          "indexed": true,
          "internalType": "address",
          "name": "borrower",
          "type": "address"
        },
        {
          "indexed": false,
          "internalType": "uint256",
          "name": "amount",
          "type": "uint256"
        },
        {
          "indexed": false,
          "internalType": "uint256",
          "name": "dueDate",
          "type": "uint256"
        },
        {
          "indexed": false,
          "internalType": "enum LendingPool.LoanPath",
          "name": "path",
          "type": "uint8"
        }
      ],
      "name": "LoanDisbursed",
      "type": "event"
    },
    {
      "anonymous": false,
      "inputs": [
        {
          "indexed": true,
          "internalType": "address",
          "name": "previousOwner",
          "type": "address"
        },
        {
          "indexed": true,
          "internalType": "address",
          "name": "newOwner",
          "type": "address"
        }
      ],
      "name": "OwnershipTransferred",
      "type": "event"
    },
    {
      "anonymous": false,
      "inputs": [
        {
          "indexed": false,
          "internalType": "address",
          "name": "account",
          "type": "address"
        }
      ],
      "name": "Paused",
      "type": "event"
    },
    {
      "anonymous": false,
      "inputs": [
        {
          "indexed": true,
          "internalType": "address",
          "name": "lender",
          "type": "address"
        },
        {
          "indexed": false,
          "internalType": "uint256",
          "name": "amount",
          "type": "uint256"
        },
        {
          "indexed": false,
          "internalType": "uint256",
          "name": "newTotal",
          "type": "uint256"
        }
      ],
      "name": "PoolDeposit",
      "type": "event"
    },
    {
      "anonymous": false,
      "inputs": [
        {
          "indexed": true,
          "internalType": "address",
          "name": "lender",
          "type": "address"
        },
        {
          "indexed": false,
          "internalType": "uint256",
          "name": "amount",
          "type": "uint256"
        },
        {
          "indexed": false,
          "internalType": "uint256",
          "name": "yieldEarned",
          "type": "uint256"
        }
      ],
      "name": "PoolWithdrawal",
      "type": "event"
    },
    {
      "anonymous": false,
      "inputs": [
        {
          "indexed": true,
          "internalType": "address",
          "name": "borrower",
          "type": "address"
        },
        {
          "indexed": false,
          "internalType": "uint256",
          "name": "amount",
          "type": "uint256"
        },
        {
          "indexed": false,
          "internalType": "uint256",
          "name": "remaining",
          "type": "uint256"
        },
        {
          "indexed": false,
          "internalType": "uint8",
          "name": "newTrustScore",
          "type": "uint8"
        }
      ],
      "name": "RepaymentMade",
      "type": "event"
    },
    {
      "anonymous": false,
      "inputs": [
        {
          "indexed": true,
          "internalType": "address",
          "name": "borrower",
          "type": "address"
        },
        {
          "indexed": false,
          "internalType": "uint8",
          "name": "oldScore",
          "type": "uint8"
        },
        {
          "indexed": false,
          "internalType": "uint8",
          "name": "newScore",
          "type": "uint8"
        }
      ],
      "name": "TrustScoreUpdated",
      "type": "event"
    },
    {
      "anonymous": false,
      "inputs": [
        {
          "indexed": false,
          "internalType": "address",
          "name": "account",
          "type": "address"
        }
      ],
      "name": "Unpaused",
      "type": "event"
    },
    {
      "inputs": [
        {
          "internalType": "uint256",
          "name": "amount",
          "type": "uint256"
        }
      ],
      "name": "depositToPool",
      "outputs": [],
      "stateMutability": "nonpayable",
      "type": "function"
    },
    {
      "inputs": [
        {
          "internalType": "address",
          "name": "borrower",
          "type": "address"
        }
      ],
      "name": "getBorrowLimit",
      "outputs": [
        {
          "internalType": "uint256",
          "name": "",
          "type": "uint256"
        }
      ],
      "stateMutability": "view",
      "type": "function"
    },
    {
      "inputs": [
        {
          "internalType": "address",
          "name": "lender",
          "type": "address"
        }
      ],
      "name": "getLenderBalance",
      "outputs": [
        {
          "internalType": "uint256",
          "name": "",
          "type": "uint256"
        }
      ],
      "stateMutability": "view",
      "type": "function"
    },
    {
      "inputs": [
        {
          "internalType": "address",
          "name": "borrower",
          "type": "address"
        }
      ],
      "name": "getLoan",
      "outputs": [
        {
          "components": [
            {
              "internalType": "address",
              "name": "borrower",
              "type": "address"
            },
            {
              "internalType": "uint256",
              "name": "amount",
              "type": "uint256"
            },
            {
              "internalType": "uint256",
              "name": "repaidAmount",
              "type": "uint256"
            },
            {
              "internalType": "uint256",
              "name": "interestRate",
              "type": "uint256"
            },
            {
              "internalType": "uint256",
              "name": "startTime",
              "type": "uint256"
            },
            {
              "internalType": "uint256",
              "name": "dueDate",
              "type": "uint256"
            },
            {
              "internalType": "uint8",
              "name": "installmentsPaid",
              "type": "uint8"
            },
            {
              "internalType": "uint8",
              "name": "totalInstallments",
              "type": "uint8"
            },
            {
              "internalType": "enum LendingPool.LoanStatus",
              "name": "status",
              "type": "uint8"
            },
            {
              "internalType": "enum LendingPool.LoanPath",
              "name": "path",
              "type": "uint8"
            }
          ],
          "internalType": "struct LendingPool.Loan",
          "name": "",
          "type": "tuple"
        }
      ],
      "stateMutability": "view",
      "type": "function"
    },
    {
      "inputs": [],
      "name": "getPoolBalance",
      "outputs": [
        {
          "internalType": "uint256",
          "name": "",
          "type": "uint256"
        }
      ],
      "stateMutability": "view",
      "type": "function"
    },
    {
      "inputs": [],
      "name": "getPoolStats",
      "outputs": [
        {
          "internalType": "uint256",
          "name": "liquidity",
          "type": "uint256"
        },
        {
          "internalType": "uint256",
          "name": "activeLoans",
          "type": "uint256"
        },
        {
          "internalType": "uint256",
          "name": "lenderCount",
          "type": "uint256"
        },
        {
          "internalType": "uint256",
          "name": "avgInterestRate",
          "type": "uint256"
        }
      ],
      "stateMutability": "view",
      "type": "function"
    },
    {
      "inputs": [
        {
          "internalType": "address",
          "name": "borrower",
          "type": "address"
        }
      ],
      "name": "getRemainingDebt",
      "outputs": [
        {
          "internalType": "uint256",
          "name": "",
          "type": "uint256"
        }
      ],
      "stateMutability": "view",
      "type": "function"
    },
    {
      "inputs": [
        {
          "internalType": "address",
          "name": "borrower",
          "type": "address"
        }
      ],
      "name": "getTotalOwed",
      "outputs": [
        {
          "internalType": "uint256",
          "name": "",
          "type": "uint256"
        }
      ],
      "stateMutability": "view",
      "type": "function"
    },
    {
      "inputs": [
        {
          "internalType": "address",
          "name": "borrower",
          "type": "address"
        }
      ],
      "name": "getTrustScore",
      "outputs": [
        {
          "internalType": "uint8",
          "name": "",
          "type": "uint8"
        }
      ],
      "stateMutability": "view",
      "type": "function"
    },
    {
      "inputs": [],
      "name": "initializeUser",
      "outputs": [],
      "stateMutability": "nonpayable",
      "type": "function"
    },
    {
      "inputs": [
        {
          "internalType": "address",
          "name": "",
          "type": "address"
        }
      ],
      "name": "lenderDeposits",
      "outputs": [
        {
          "internalType": "uint256",
          "name": "",
          "type": "uint256"
        }
      ],
      "stateMutability": "view",
      "type": "function"
    },
    {
      "inputs": [
        {
          "internalType": "uint256",
          "name": "amount",
          "type": "uint256"
        }
      ],
      "name": "makeRepayment",
      "outputs": [],
      "stateMutability": "nonpayable",
      "type": "function"
    },
    {
      "inputs": [
        {
          "internalType": "address",
          "name": "borrower",
          "type": "address"
        }
      ],
      "name": "markDefault",
      "outputs": [],
      "stateMutability": "nonpayable",
      "type": "function"
    },
    {
      "inputs": [
        {
          "internalType": "address",
          "name": "to",
          "type": "address"
        }
      ],
      "name": "mintReputationNFT",
      "outputs": [],
      "stateMutability": "nonpayable",
      "type": "function"
    },
    {
      "inputs": [],
      "name": "owner",
      "outputs": [
        {
          "internalType": "address",
          "name": "",
          "type": "address"
        }
      ],
      "stateMutability": "view",
      "type": "function"
    },
    {
      "inputs": [],
      "name": "pause",
      "outputs": [],
      "stateMutability": "nonpayable",
      "type": "function"
    },
    {
      "inputs": [],
      "name": "paused",
      "outputs": [
        {
          "internalType": "bool",
          "name": "",
          "type": "bool"
        }
      ],
      "stateMutability": "view",
      "type": "function"
    },
    {
      "inputs": [],
      "name": "renounceOwnership",
      "outputs": [],
      "stateMutability": "nonpayable",
      "type": "function"
    },
    {
      "inputs": [],
      "name": "reputationNFT",
      "outputs": [
        {
          "internalType": "address",
          "name": "",
          "type": "address"
        }
      ],
      "stateMutability": "view",
      "type": "function"
    },
    {
      "inputs": [
        {
          "internalType": "uint256",
          "name": "amount",
          "type": "uint256"
        },
        {
          "internalType": "uint256",
          "name": "durationDays",
          "type": "uint256"
        },
        {
          "internalType": "uint8",
          "name": "path",
          "type": "uint8"
        }
      ],
      "name": "requestLoan",
      "outputs": [],
      "stateMutability": "nonpayable",
      "type": "function"
    },
    {
      "inputs": [],
      "name": "totalActiveLoans",
      "outputs": [
        {
          "internalType": "uint256",
          "name": "",
          "type": "uint256"
        }
      ],
      "stateMutability": "view",
      "type": "function"
    },
    {
      "inputs": [],
      "name": "totalLenders",
      "outputs": [
        {
          "internalType": "uint256",
          "name": "",
          "type": "uint256"
        }
      ],
      "stateMutability": "view",
      "type": "function"
    },
    {
      "inputs": [],
      "name": "totalPoolLiquidity",
      "outputs": [
        {
          "internalType": "uint256",
          "name": "",
          "type": "uint256"
        }
      ],
      "stateMutability": "view",
      "type": "function"
    },
    {
      "inputs": [
        {
          "internalType": "address",
          "name": "newOwner",
          "type": "address"
        }
      ],
      "name": "transferOwnership",
      "outputs": [],
      "stateMutability": "nonpayable",
      "type": "function"
    },
    {
      "inputs": [
        {
          "internalType": "address",
          "name": "",
          "type": "address"
        }
      ],
      "name": "trustScores",
      "outputs": [
        {
          "internalType": "uint8",
          "name": "",
          "type": "uint8"
        }
      ],
      "stateMutability": "view",
      "type": "function"
    },
    {
      "inputs": [],
      "name": "trustToken",
      "outputs": [
        {
          "internalType": "contract IERC20",
          "name": "",
          "type": "address"
        }
      ],
      "stateMutability": "view",
      "type": "function"
    },
    {
      "inputs": [],
      "name": "unpause",
      "outputs": [],
      "stateMutability": "nonpayable",
      "type": "function"
    },
    {
      "inputs": [
        {
          "internalType": "address",
          "name": "borrower",
          "type": "address"
        },
        {
          "internalType": "uint8",
          "name": "newScore",
          "type": "uint8"
        }
      ],
      "name": "updateTrustScore",
      "outputs": [],
      "stateMutability": "nonpayable",
      "type": "function"
    },
    {
      "inputs": [
        {
          "internalType": "uint256",
          "name": "amount",
          "type": "uint256"
        }
      ],
      "name": "withdrawFromPool",
      "outputs": [],
      "stateMutability": "nonpayable",
      "type": "function"
    }
  ],
  "bytecode": "0x60a0346101b957611f2d90601f38839003908101601f19168201906001600160401b038211838310176101bd57808391604095869485528339810103126101b957610055602061004e836101d1565b92016101d1565b9033156101a2575f549160018060a01b03908160018060a01b03199333858716175f55865195823391167f8be0079c531659141344cd1fd0a4f28419497f9722a3daafe3b4186f6b6457e05f80a360017f9b779b17422d0df92223018b32b4d1fa46e071723d6817e2486d003becc55f00551693841561016057501691821561011c57608052600154161760015551611d4790816101e682396080518181816103850152818161070e01528181610a1101528181610bf201528181611115015261151f0152f35b835162461bcd60e51b815260206004820152601d60248201527f4c656e64696e67506f6f6c3a207a65726f204e465420616464726573730000006044820152606490fd5b62461bcd60e51b815260206004820152601f60248201527f4c656e64696e67506f6f6c3a207a65726f20746f6b656e2061646472657373006044820152606490fd5b8251631e4fbdf760e01b81525f6004820152602490fd5b5f80fd5b634e487b7160e01b5f52604160045260245ffd5b51906001600160a01b03821682036101b95756fe6080806040526004361015610012575f80fd5b5f905f3560e01c90816312df0fc4146118bc57508063146410801461179a57806323a0ac791461132357806330fc43ed146110b657806333481fc914610f125780633f4ba83a14610ea35780634b35388814610d8457806359641e5e14610d665780635c975abb14610d415780635e09eea114610d0457806368b0e07014610bbf578063715018a614610b665780637385107514610b425780637c17d23714610b1e5780638456cb5914610abd5780638da5cb5b14610a96578063993983581461095c578063abd70aa2146109e4578063bbb8518814610995578063bd09085a1461095c578063be81c4d41461073d578063d13deb2f146106f8578063d37415fe14610303578063db15bcea146102d7578063dc63af41146102b9578063e8f003311461029b578063ea62781d14610215578063f2fde38b146101885763fa4886491461015d575f80fd5b346101855780600319360112610185576001546040516001600160a01b039091168152602090f35b80fd5b5034610185576020366003190112610185576101a26118f3565b6101aa611b11565b6001600160a01b039081169081156101fc575f54826bffffffffffffffffffffffff60a01b8216175f55167f8be0079c531659141344cd1fd0a4f28419497f9722a3daafe3b4186f6b6457e05f80a380f35b604051631e4fbdf760e01b815260048101849052602490fd5b503461018557602036600319011261018557806102306118f3565b610238611b11565b6001546001600160a01b039081169190823b15610296576024849283604051958694859363ea62781d60e01b85521660048401525af1801561028b5761027b5750f35b6102849061197b565b6101855780f35b6040513d84823e3d90fd5b505050fd5b50346101855780600319360112610185576020600554604051908152f35b50346101855780600319360112610185576020600654604051908152f35b50346101855760203660031901126101855760206102fb6102f66118f3565b611abb565b604051908152f35b5034610185576020806003193601126106f457600435610321611b3c565b610329611b6b565b338352600282526040832091600683019060ff9384835460101c169460058610156106e057600180960361069b5784156106565761036682611c9c565b9160028101946103778654856119bd565b8711610611576103a98730337f0000000000000000000000000000000000000000000000000000000000000000611c32565b6103b487875461193d565b865580548381168481146105fd5790849392918a969560ff19978892011691161781556103f86103f0856103eb8c8601548c611916565b6119d8565b60055461193d565b6005558387541015610468575b50506104219250338852600484526040882054169354906119bd565b9060405193845283015260408201527f6996ca40a87935f677fee47b9d253150cd7560503eb580f1d72a905cf62e7e3b60603392a25f80516020611cf28339815191525580f35b610496916003916202000062ff000019825416179055610489600654611aaf565b60065501546008546119bd565b600855338852600284526040882092600485528160408a2054169060048501546005860154906104c681836119bd565b604b810290808204604b14901517156105e9578c93929160646104ea92049061193d565b42116105d35750600c905b6064856105028487611cbd565b1611156105c3576064965b33845260048952604084208054878a169316831790558b54908c0154906001600160a01b0316803b156105bf5784928360849260088a60405198899788966336eab1bd60e01b88523360048901526024880152604487015216101560648401525af16105a7575b50506040805160ff92831681529490911660208501526104219333915f80516020611cd283398151915291a25f80610405565b6105b09061197b565b6105bb57885f610574565b8880fd5b8480fd5b6105cd8285611cbd565b9661050d565b42116105e1576008906104f5565b6003906104f5565b634e487b7160e01b8d52601160045260248dfd5b634e487b7160e01b8b52601160045260248bfd5b60405162461bcd60e51b815260048101869052601860248201527f4c656e64696e67506f6f6c3a206f7665727061796d656e7400000000000000006044820152606490fd5b60405162461bcd60e51b815260048101849052601b60248201527f4c656e64696e67506f6f6c3a207a65726f2072657061796d656e7400000000006044820152606490fd5b60405162461bcd60e51b815260048101849052601b60248201527f4c656e64696e67506f6f6c3a206e6f20616374697665206c6f616e00000000006044820152606490fd5b634e487b7160e01b87526021600452602487fd5b5080fd5b50346101855780600319360112610185576040517f00000000000000000000000000000000000000000000000000000000000000006001600160a01b03168152602090f35b5034610185576020806003193601126106f4576107586118f3565b610760611b11565b6001600160a01b03908116808452600283526040842060068101805492949192601081901c60ff166005811015610948576001036109035762ff00001916620300001790556006546107b190611aaf565b6006556107c460038301546008546119bd565b60085583855260048152604085205460ff1690600f82106108fc57600e19820160ff81116108e857925b85875260048252604087209460ff8516958660ff198254161790556001541690876001820192835490803b156108e457899860848a85809460405196879586946336eab1bd60e01b86526004860152602485015260448401525f60648401525af16108c7575b50505f80516020611cd283398151915295927f1b849894a849eddede200f64b3e4aa5870adc9b6f442acb237bb07d8f100f01b926108a2836002610899604096611c9c565b910154906119bd565b9054918351928352820152a26040805160ff928316815292909116602083015290a280f35b6108d39192975061197b565b6108e0578594875f610854565b8680fd5b8280fd5b634e487b7160e01b87526011600452602487fd5b85926107ee565b60405162461bcd60e51b815260048101849052601760248201527f4c656e64696e67506f6f6c3a206e6f74206163746976650000000000000000006044820152606490fd5b634e487b7160e01b88526021600452602488fd5b5034610185576020366003190112610185576020906040906001600160a01b036109846118f3565b168152600383522054604051908152f35b503461018557806003193601126101855760055460065460075460809382156109de57506109c5826008546119d8565b915b604051938452602084015260408301526060820152f35b916109c7565b50346101855780600319360112610185576040516370a0823160e01b8152306004820152906020826024817f00000000000000000000000000000000000000000000000000000000000000006001600160a01b03165afa908115610a8a5790610a53575b602090604051908152f35b506020813d602011610a82575b81610a6d6020938361198f565b81010312610a7e5760209051610a48565b5f80fd5b3d9150610a60565b604051903d90823e3d90fd5b5034610185578060031936011261018557546040516001600160a01b039091168152602090f35b5034610185578060031936011261018557610ad6611b11565b610ade611b6b565b805460ff60a01b1916600160a01b1781556040513381527f62e78cea01bee320cd4e420270b5ea74000d11b0c9f74754ebdbfc544b05a25890602090a180f35b50346101855760203660031901126101855760206102fb610b3d6118f3565b611a38565b50346101855760203660031901126101855760206102fb610b616118f3565b6119f6565b5034610185578060031936011261018557610b7f611b11565b5f80546001600160a01b0319811682556001600160a01b03167f8be0079c531659141344cd1fd0a4f28419497f9722a3daafe3b4186f6b6457e08280a380f35b503461018557602036600319011261018557600435610bdc611b3c565b610be4611b6b565b8015610cbf57610c168130337f0000000000000000000000000000000000000000000000000000000000000000611c32565b338252600360205260408220610c2d82825461193d565b9055610c3b8160055461193d565b600555338252600960205260408220805460ff811615610ca0575b505060055460405191825260208201527f7628d23baa7269cbe52d585c106809f6857f67de8489b61e6a5dc5a780748a3860403392a260015f80516020611cf28339815191525580f35b60ff19166001179055600754610cb5906119ca565b6007555f80610c56565b60405162461bcd60e51b815260206004820152601960248201527f4c656e64696e67506f6f6c3a207a65726f206465706f736974000000000000006044820152606490fd5b50346101855760203660031901126101855760209060ff906040906001600160a01b03610d2f6118f3565b16815260048452205416604051908152f35b503461018557806003193601126101855760ff6020915460a01c166040519015158152f35b50346101855780600319360112610185576020600754604051908152f35b5034610a7e575f366003190112610a7e57610d9d611b3c565b610da5611b6b565b335f52600460205260ff60405f205416610e5f57335f908152600460205260409020805460ff1916601e1790556001546001600160a01b0316803b15610a7e575f809160246040518094819363ea62781d60e01b83523360048401525af18015610e5457610e43575b50604051818152601e60208201525f80516020611cd283398151915260403392a260015f80516020611cf28339815191525580f35b610e4d915061197b565b5f80610e0e565b6040513d5f823e3d90fd5b606460405162461bcd60e51b815260206004820152602060248201527f4c656e64696e67506f6f6c3a20616c726561647920696e697469616c697a65646044820152fd5b34610a7e575f366003190112610a7e57610ebb611b11565b5f5460ff8160a01c1615610f005760ff60a01b19165f556040513381527f5db9ee0a495bf2e6ff9c91a7834c1ba4fdd244a5e8aa4e537bd38aeae4b073aa90602090a1005b604051638dfc202b60e01b8152600490fd5b34610a7e576020366003190112610a7e57610f2b6118f3565b5f610120604051610f3b8161194a565b8281528260208201528260408201528260608201528260808201528260a08201528260c08201528260e082015282610100820152015260018060a01b03165f52600260205260405f20600660405191610f938361194a565b60018060a01b03815416835260018101546020840152600281015460408401526003810154606084015260048101546080840152600581015460a0840152015460ff811660c083015260ff8160081c1660e0830152600560ff8260101c1610156110a25760ff81816110179360101c1661010085015260181c1661012083016119b1565b60405160018060a01b0382511681526020820151602082015260408201516040820152606082015160608201526080820151608082015260a082015160a082015260ff60c08301511660c082015260ff60e08301511660e08201526101008201519160058310156110a2576101206110a091610140946101008501520151610120830190611909565bf35b634e487b7160e01b5f52602160045260245ffd5b34610a7e57602080600319360112610a7e57600435906110d4611b3c565b6110dc611b6b565b81156112df57335f52600381528160405f20541061129b5760055490828210611246576040516370a0823160e01b8152306004820152917f00000000000000000000000000000000000000000000000000000000000000009082846024816001600160a01b0386165afa938415610e54575f94611217575b50845f948281118061120e575b6111e8575b5050506111a690335f526003835260405f206111838682546119bd565b9055611191856005546119bd565b60055561119e848661193d565b903390611bb4565b6040519283528201527f89d2f6c70c648a3f7ed809acb91b7a84dbba676961241962173a83861e43c0cf60403392a260015f80516020611cf283398151915255005b6111a69395508291611200611205946103eb936119bd565b611916565b92908486611166565b50821515611161565b9093508281813d831161123f575b61122f818361198f565b81010312610a7e57519285611154565b503d611225565b6084906040519062461bcd60e51b82526004820152602860248201527f4c656e64696e67506f6f6c3a20696e73756666696369656e742066726565206c604482015267697175696469747960c01b6064820152fd5b6064906040519062461bcd60e51b82526004820152601c60248201527f4c656e64696e67506f6f6c3a2065786365656473206465706f736974000000006044820152fd5b6064906040519062461bcd60e51b82526004820152601c60248201527f4c656e64696e67506f6f6c3a207a65726f207769746864726177616c000000006044820152fd5b34610a7e576060366003190112610a7e57600435602490813560449283359160ff8316809303610a7e57611355611b3c565b61135d611b6b565b83156117575780159485158061174b575b1561170857600284116116c557335f526020916002835260ff600660405f20015460101c1691600592838110156116b257600114611670576113af33611a38565b871161162f57868354106115dc575060038510156115c9576113d085611b8b565b96620151808083029283041417156115b6576113ec904261193d565b92604051906113fa8261194a565b33825285848084019289845260ff600660408701965f88528d606082019081526080820142815260a08301918d835260c084019a5f8c5260e085019a60048c52600261010087019a60018c5261145561012089019d8e6119b1565b335f525260405f209560018060a01b039051166bffffffffffffffffffffffff60a01b8754161786555160018601555160028501555160038401555160048301555189820155019551169085549451925193878510156115a2575190600382101561158f575061151596949261ff006115569c9d97959363ff00000062ff00009460181b169563ffffffff1916179160081b16179160101b16171790556114fd8882546119bd565b905561150a6006546119ca565b60065560085461193d565b60085561154385337f0000000000000000000000000000000000000000000000000000000000000000611bb4565b6040519485528401526040830190611909565b7f469f3b84f0a93aa13441e333540ba6cd5ccb2a9df1ccf61b5e6f372693b2331960603392a260015f80516020611cf283398151915255005b634e487b7160e01b5f9081526021600452fd5b50634e487b7160e01b5f9081526021600452fd5b83634e487b7160e01b5f5260116004525ffd5b83634e487b7160e01b5f5260216004525ffd5b837f4c656e64696e67506f6f6c3a20696e73756666696369656e7420706f6f6c206c6084926028886040519462461bcd60e51b8652600486015284015282015267697175696469747960c01b6064820152fd5b847f4c656e64696e67506f6f6c3a2065786365656473207472757374206c696d6974606492866040519362461bcd60e51b8552816004860152840152820152fd5b837f4c656e64696e67506f6f6c3a20616374697665206c6f616e2065786973747300606492601f886040519462461bcd60e51b86526004860152840152820152fd5b85634e487b7160e01b5f5260216004525ffd5b827f4c656e64696e67506f6f6c3a20696e76616c696420706174680000000000000060649260196040519362461bcd60e51b855260206004860152840152820152fd5b827f4c656e64696e67506f6f6c3a20696e76616c6964206475726174696f6e000000606492601d6040519362461bcd60e51b855260206004860152840152820152fd5b5061016d82111561136e565b60405162461bcd60e51b8152602060048201526018818401527f4c656e64696e67506f6f6c3a207a65726f20616d6f756e74000000000000000081870152606490fd5b34610a7e576040366003190112610a7e576117b36118f3565b6024359060ff821690818303610a7e576117cb611b11565b6001600160a01b03169182156118775760648211611832575f80516020611cd28339815191529161182d60ff92855f52600460205260405f2080549385198516179055604051938493168390929160ff60209181604085019616845216910152565b0390a2005b60405162461bcd60e51b815260206004820152601860248201527f4c656e64696e67506f6f6c3a2073636f7265203e2031303000000000000000006044820152606490fd5b60405162461bcd60e51b815260206004820152601960248201527f4c656e64696e67506f6f6c3a207a65726f2061646472657373000000000000006044820152606490fd5b34610a7e576020366003190112610a7e576020906001600160a01b036118e06118f3565b165f526004825260ff60405f2054168152f35b600435906001600160a01b0382168203610a7e57565b9060038210156110a25752565b8181029291811591840414171561192957565b634e487b7160e01b5f52601160045260245ffd5b9190820180921161192957565b610140810190811067ffffffffffffffff82111761196757604052565b634e487b7160e01b5f52604160045260245ffd5b67ffffffffffffffff811161196757604052565b90601f8019910116810190811067ffffffffffffffff82111761196757604052565b60038210156110a25752565b9190820391821161192957565b5f1981146119295760010190565b81156119e2570490565b634e487b7160e01b5f52601260045260245ffd5b6001600160a01b03165f908152600260205260409020600681015460101c60ff1660058110156110a257600103611a3357611a3090611c9c565b90565b505f90565b6001600160a01b03165f9081526004602052604090205460ff16605a811015611aa1576046811015611a93576032811015611a8557601e1115611a79575f90565b678ac7230489e8000090565b50680ad78ebc5ac620000090565b50681b1ae4d6e2ef50000090565b50683635c9adc5dea0000090565b8015611929575f190190565b6001600160a01b03165f908152600260205260409020600681015460101c60ff1660058110156110a257600103611a33576002611af782611c9c565b91015480821115611b0b57611a30916119bd565b50505f90565b5f546001600160a01b03163303611b2457565b60405163118cdaa760e01b8152336004820152602490fd5b5f80516020611cf28339815191526002815414611b595760029055565b604051633ee5aeb560e01b8152600490fd5b60ff5f5460a01c16611b7957565b60405163d93c066560e01b8152600490fd5b60038110156110a2578015611bad57600114611ba7576102c690565b61011890565b506101a490565b60405163a9059cbb60e01b5f9081526001600160a01b039384166004526024949094529260209060448180855af160015f5114811615611c13575b8360405215611bfd57505050565b635274afe760e01b835216600482015260249150fd5b6001811516611c2957813b15153d151616611bef565b833d5f823e3d90fd5b6040516323b872dd60e01b5f9081526001600160a01b03938416600452938316602452604494909452909160209060648180855af160015f5114811615611c86575b836040525f60605215611bfd57505050565b6001811516611c2957813b15153d151616611c74565b611a3090612710611cb66003600184015493015483611916565b049061193d565b9060ff8091169116019060ff82116119295756fed19906ee1ad48a098b7775e103ec4cb4ffaefc35799b1914b4a390f9cd27facc9b779b17422d0df92223018b32b4d1fa46e071723d6817e2486d003becc55f00a26469706673582212208f9746fb3c190a9a4e311536660c915cfa52d53e0b8ca79a3d5a84e3c50c904d64736f6c63430008190033",
  "linkReferences": {},
  "deployedLinkReferences": {}
}