{
  "_format": "hh-sol-artifact-1",
  "contractName": "ReputationNFT",
  "sourceName": "contracts/ReputationNFT.sol",
  "abi": [
    {
      "inputs": [
        {
          "internalType": "address",
          "name": "_lendingPool",
          "type": "address"
        }
      ],
      "stateMutability": "nonpayable",
      "type": "constructor"
    },
    {
      "inputs": [
        {
          "internalType": "address",
          "name": "sender",
          "type": "address"
        },
        {
          "internalType": "uint256",
          "name": "tokenId",
          "type": "uint256"
        },
        {
          "internalType": "address",
          "name": "owner",
          "type": "address"
        }
      ],
      "name": "ERC721IncorrectOwner",
      "type": "error"
    },
    {
      "inputs": [
        {
          "internalType": "address",
          "name": "operator",
          "type": "address"
        },
        {
          "internalType": "uint256",
          "name": "tokenId",
          "type": "uint256"
        }
      ],
      "name": "ERC721InsufficientApproval",
      "type": "error"
    },
    {
      "inputs": [
        {
          "internalType": "address",
          "name": "approver",
          "type": "address"
        }
      ],
      "name": "ERC721InvalidApprover",
      "type": "error"
    },
    {
      "inputs": [
        {
          "internalType": "address",
          "name": "operator",
          "type": "address"
        }
      ],
      "name": "ERC721InvalidOperator",
      "type": "error"
    },
    {
      "inputs": [
        {
          "internalType": "address",
          "name": "owner",
          "type": "address"
        }
      ],
      "name": "ERC721InvalidOwner",
      "type": "error"
    },
    {
      "inputs": [
        {
          "internalType": "address",
          "name": "receiver",
          "type": "address"
        }
      ],
      "name": "ERC721InvalidReceiver",
      "type": "error"
    },
    {
      "inputs": [
        {
          "internalType": "address",
          "name": "sender",
          "type": "address"
        }
      ],
      "name": "ERC721InvalidSender",
      "type": "error"
    },
    {
      "inputs": [
        {
          "internalType": "uint256",
          "name": "tokenId",
          "type": "uint256"
        }
      ],
      "name": "ERC721NonexistentToken",
      "type": "error"
    },
    {
      "inputs": [
        {
          "internalType": "address",
          "name": "owner",
          "type": "address"
        }
      ],
      "name": "OwnableInvalidOwner",
      "type": "error"
    },
    {
      "inputs": [
        {
          "internalType": "address",
          "name": "account",
          "type": "address"
        }
      ],
      "name": "OwnableUnauthorizedAccount",
      "type": "error"
    },
    {
      "anonymous": false,
      "inputs": [
        {
          "indexed": true,
          "internalType": "address",
          "name": "owner",
          "type": "address"
        },
        {
          "indexed": true,
          "internalType": "address",
          "name": "approved",
          "type": "address"
        },
        {
          "indexed": true,
          "internalType": "uint256",
          "name": "tokenId",
          "type": "uint256"
        }
      ],
      "name": "Approval",
      "type": "event"
    },
    {
      "anonymous": false,
      "inputs": [
        {
          "indexed": true,
          "internalType": "address",
          "name": "owner",
          "type": "address"
        },
        {
          "indexed": true,
          "internalType": "address",
          "name": "operator",
          "type": "address"
        },
        {
          "indexed": false,
          "internalType": "bool",
          "name": "approved",
          "type": "bool"
        }
      ],
      "name": "ApprovalForAll",
      "type": "event"
    },
    {
      "anonymous": false,
      "inputs": [
        {
          "indexed": true,
          "internalType": "address",
          "name": "oldPool",
          "type": "address"
        },
        {
          "indexed": true,
          "internalType": "address",
          "name": "newPool",
          "type": "address"
        }
      ],
      "name": "LendingPoolUpdated",
      "type": "event"
    },
    {
      "anonymous": false,
      "inputs": [
        {
          "indexed": true,
          "internalType": "address",
          "name": "previousOwner",
          "type": "address"
        },
        {
          "indexed": true,
          "internalType": "address",
          "name": "newOwner",
          "type": "address"
        }
      ],
      "name": "OwnershipTransferred",
      "type": "event"
    },
    {
      "anonymous": false,
      "inputs": [
        {
          "indexed": true,
          "internalType": "address",
          "name": "wallet",
          "type": "address"
        },
        {
          "indexed": true,
          "internalType": "uint256",
          "name": "tokenId",
          "type": "uint256"
        },
        {
          "indexed": false,
          "internalType": "uint256",
          "name": "timestamp",
          "type": "uint256"
        }
      ],
      "name": "ReputationNFTMinted",
      "type": "event"
    },
    {
      "anonymous": false,
      "inputs": [
        {
          "indexed": true,
          "internalType": "address",
          "name": "wallet",
          "type": "address"
        },
        {
          "indexed": false,
          "internalType": "uint8",
          "name": "oldScore",
          "type": "uint8"
        },
        {
          "indexed": false,
          "internalType": "uint8",
          "name": "newScore",
          "type": "uint8"
        },
        {
          "indexed": false,
          "internalType": "string",
          "name": "newTier",
          "type": "string"
        },
        {
          "indexed": false,
          "internalType": "uint8",
          "name": "newStreak",
          "type": "uint8"
        }
      ],
      "name": "ReputationUpdated",
      "type": "event"
    },
    {
      "anonymous": false,
      "inputs": [
        {
          "indexed": true,
          "internalType": "address",
          "name": "from",
          "type": "address"
        },
        {
          "indexed": true,
          "internalType": "address",
          "name": "to",
          "type": "address"
        },
        {
          "indexed": true,
          "internalType": "uint256",
          "name": "tokenId",
          "type": "uint256"
        }
      ],
      "name": "Transfer",
      "type": "event"
    },
    {
      "inputs": [
        {
          "internalType": "address",
          "name": "",
          "type": "address"
        },
        {
          "internalType": "uint256",
          "name": "",
          "type": "uint256"
        }
      ],
      "name": "approve",
      "outputs": [],
      "stateMutability": "pure",
      "type": "function"
    },
    {
      "inputs": [
        {
          "internalType": "address",
          "name": "owner",
          "type": "address"
        }
      ],
      "name": "balanceOf",
      "outputs": [
        {
          "internalType": "uint256",
          "name": "",
          "type": "uint256"
        }
      ],
      "stateMutability": "view",
      "type": "function"
    },
    {
      "inputs": [
        {
          "internalType": "uint256",
          "name": "tokenId",
          "type": "uint256"
        }
      ],
      "name": "getApproved",
      "outputs": [
        {
          "internalType": "address",
          "name": "",
          "type": "address"
        }
      ],
      "stateMutability": "view",
      "type": "function"
    },
    {
      "inputs": [
        {
          "internalType": "address",
          "name": "wallet",
          "type": "address"
        }
      ],
      "name": "getReputation",
      "outputs": [
        {
          "components": [
            {
              "internalType": "uint8",
              "name": "trustScore",
              "type": "uint8"
            },
            {
              "internalType": "string",
              "name": "tier",
              "type": "string"
            },
            {
              "internalType": "uint256",
              "name": "loansRepaid",
              "type": "uint256"
            },
            {
              "internalType": "uint256",
              "name": "totalBorrowed",
              "type": "uint256"
            },
            {
              "internalType": "uint256",
              "name": "totalRepaid",
              "type": "uint256"
            },
            {
              "internalType": "uint256",
              "name": "memberSince",
              "type": "uint256"
            },
            {
              "internalType": "uint8",
              "name": "repaymentStreak",
              "type": "uint8"
            },
            {
              "internalType": "string",
              "name": "earningArchetype",
              "type": "string"
            }
          ],
          "internalType": "struct ReputationNFT.ReputationData",
          "name": "",
          "type": "tuple"
        }
      ],
      "stateMutability": "view",
      "type": "function"
    },
    {
      "inputs": [
        {
          "internalType": "address",
          "name": "wallet",
          "type": "address"
        }
      ],
      "name": "getTier",
      "outputs": [
        {
          "internalType": "string",
          "name": "",
          "type": "string"
        }
      ],
      "stateMutability": "view",
      "type": "function"
    },
    {
      "inputs": [
        {
          "internalType": "address",
          "name": "wallet",
          "type": "address"
        }
      ],
      "name": "hasNFT",
      "outputs": [
        {
          "internalType": "bool",
          "name": "",
          "type": "bool"
        }
      ],
      "stateMutability": "view",
      "type": "function"
    },
    {
      "inputs": [
        {
          "internalType": "address",
          "name": "owner",
          "type": "address"
        },
        {
          "internalType": "address",
          "name": "operator",
          "type": "address"
        }
      ],
      "name": "isApprovedForAll",
      "outputs": [
        {
          "internalType": "bool",
          "name": "",
          "type": "bool"
        }
      ],
      "stateMutability": "view",
      "type": "function"
    },
    {
      "inputs": [],
      "name": "lendingPoolAddress",
      "outputs": [
        {
          "internalType": "address",
          "name": "",
          "type": "address"
        }
      ],
      "stateMutability": "view",
      "type": "function"
    },
    {
      "inputs": [
        {
          "internalType": "address",
          "name": "to",
          "type": "address"
        }
      ],
      "name": "mintReputationNFT",
      "outputs": [],
      "stateMutability": "nonpayable",
      "type": "function"
    },
    {
      "inputs": [],
      "name": "name",
      "outputs": [
        {
          "internalType": "string",
          "name": "",
          "type": "string"
        }
      ],
      "stateMutability": "view",
      "type": "function"
    },
    {
      "inputs": [],
      "name": "owner",
      "outputs": [
        {
          "internalType": "address",
          "name": "",
          "type": "address"
        }
      ],
      "stateMutability": "view",
      "type": "function"
    },
    {
      "inputs": [
        {
          "internalType": "uint256",
          "name": "tokenId",
          "type": "uint256"
        }
      ],
      "name": "ownerOf",
      "outputs": [
        {
          "internalType": "address",
          "name": "",
          "type": "address"
        }
      ],
      "stateMutability": "view",
      "type": "function"
    },
    {
      "inputs": [],
      "name": "renounceOwnership",
      "outputs": [],
      "stateMutability": "nonpayable",
      "type": "function"
    },
    {
      "inputs": [
        {
          "internalType": "address",
          "name": "from",
          "type": "address"
        },
        {
          "internalType": "address",
          "name": "to",
          "type": "address"
        },
        {
          "internalType": "uint256",
          "name": "tokenId",
          "type": "uint256"
        }
      ],
      "name": "safeTransferFrom",
      "outputs": [],
      "stateMutability": "nonpayable",
      "type": "function"
    },
    {
      "inputs": [
        {
          "internalType": "address",
          "name": "",
          "type": "address"
        },
        {
          "internalType": "address",
          "name": "",
          "type": "address"
        },
        {
          "internalType": "uint256",
          "name": "",
          "type": "uint256"
        },
        {
          "internalType": "bytes",
          "name": "",
          "type": "bytes"
        }
      ],
      "name": "safeTransferFrom",
      "outputs": [],
      "stateMutability": "pure",
      "type": "function"
    },
    {
      "inputs": [
        {
          "internalType": "address",
          "name": "",
          "type": "address"
        },
        {
          "internalType": "bool",
          "name": "",
          "type": "bool"
        }
      ],
      "name": "setApprovalForAll",
      "outputs": [],
      "stateMutability": "pure",
      "type": "function"
    },
    {
      "inputs": [
        {
          "internalType": "address",
          "name": "newPool",
          "type": "address"
        }
      ],
      "name": "setLendingPool",
      "outputs": [],
      "stateMutability": "nonpayable",
      "type": "function"
    },
    {
      "inputs": [
        {
          "internalType": "bytes4",
          "name": "interfaceId",
          "type": "bytes4"
        }
      ],
      "name": "supportsInterface",
      "outputs": [
        {
          "internalType": "bool",
          "name": "",
          "type": "bool"
        }
      ],
      "stateMutability": "view",
      "type": "function"
    },
    {
      "inputs": [],
      "name": "symbol",
      "outputs": [
        {
          "internalType": "string",
          "name": "",
          "type": "string"
        }
      ],
      "stateMutability": "view",
      "type": "function"
    },
    {
      "inputs": [
        {
          "internalType": "address",
          "name": "wallet",
          "type": "address"
        }
      ],
      "name": "tokenIdOf",
      "outputs": [
        {
          "internalType": "uint256",
          "name": "",
          "type": "uint256"
        }
      ],
      "stateMutability": "view",
      "type": "function"
    },
    {
      "inputs": [
        {
          "internalType": "uint256",
          "name": "tokenId",
          "type": "uint256"
        }
      ],
      "name": "tokenURI",
      "outputs": [
        {
          "internalType": "string",
          "name": "",
          "type": "string"
        }
      ],
      "stateMutability": "view",
      "type": "function"
    },
    {
      "inputs": [
        {
          "internalType": "address",
          "name": "",
          "type": "address"
        },
        {
          "internalType": "address",
          "name": "",
          "type": "address"
        },
        {
          "internalType": "uint256",
          "name": "",
          "type": "uint256"
        }
      ],
      "name": "transferFrom",
      "outputs": [],
      "stateMutability": "pure",
      "type": "function"
    },
    {
      "inputs": [
        {
          "internalType": "address",
          "name": "newOwner",
          "type": "address"
        }
      ],
      "name": "transferOwnership",
      "outputs": [],
      "stateMutability": "nonpayable",
      "type": "function"
    },
    {
      "inputs": [
        {
          "internalType": "address",
          "name": "wallet",
          "type": "address"
        },
        {
          "internalType": "uint8",
          "name": "newScore",
          "type": "uint8"
        },
        {
          "internalType": "uint256",
          "name": "loanAmount",
          "type": "uint256"
        },
        {
          "internalType": "bool",
          "name": "repaidOnTime",
          "type": "bool"
        }
      ],
      "name": "updateReputation",
      "outputs": [],
      "stateMutability": "nonpayable",
      "type": "function"
    }
  ],
  "bytecode": "0x60803461039a57601f906001600160401b03601f196135d138819003858101831685018481118682101761039e5785928291604052833960209485918101031261039a57516001600160a01b0394858216939184900361039a576100616103b2565b94601486527f54727573744c656e642052657075746174696f6e000000000000000000000000818701526100936103b2565b90600494858352630545245560e41b828401528751858111610387575f54986001998a81811c9116801561037d575b8582101461036a5790818784931161031c575b5084908783116001146102c1575f926102b6575b50505f19600383901b1c191690891b175f555b82519485116102a35787548881811c91168015610299575b8382101461028657908185879695949311610232575b50819385116001146101d35750505f926101c8575b50505f19600383901b1c191690841b1783555b33156101b1575060068054336001600160a01b03198083168217909355604051959091167f8be0079c531659141344cd1fd0a4f28419497f9722a3daafe3b4186f6b6457e05f80a360075416176007556008556131ff90816103d28239f35b6024905f60405191631e4fbdf760e01b8352820152fd5b015190505f8061013f565b88959392919316855f52835f20935f905b8282106102195750508411610201575b505050811b018355610152565b01515f1960f88460031b161c191690555f80806101f4565b8484015186558a979095019493840193908101906101e4565b909192939450885f52825f208580880160051c82019285891061027d575b9188978c9297969594930160051c01915b82811061026f57505061012a565b5f81558897508b9101610261565b92508192610250565b602287634e487b7160e01b5f525260245ffd5b90607f1690610114565b604186634e487b7160e01b5f525260245ffd5b015190505f806100e9565b90848c9416915f8052865f20925f5b8882821061030657505084116102ee575b505050811b015f556100fc565b01515f1960f88460031b161c191690555f80806102e1565b8385015186558f979095019493840193016102d0565b9091505f8052845f208780850160051c820192878610610361575b918d91869594930160051c01915b8281106103535750506100d5565b5f81558594508d9101610345565b92508192610337565b602289634e487b7160e01b5f525260245ffd5b90607f16906100c2565b604187634e487b7160e01b5f525260245ffd5b5f80fd5b634e487b7160e01b5f52604160045260245ffd5b60408051919082016001600160401b0381118382101761039e5760405256fe6080806040526004361015610012575f80fd5b5f3560e01c90816301ffc9a7146128b85750806306fdde0314612811578063081812fc146127d5578063095ea7b3146127b6578063113aa8b11461274257806323b872dd1461272c57806336eab1bd146122b757806342842e0e146122935780636352211e1461226357806370a082311461220d578063715018a6146121b2578063773c02d41461217a578063785f8ee3146121405780638da5cb5b1461211857806395d89b411461203a5780639c89a0e214611ee4578063a22cb46514611ebb578063b45aae5214611e55578063b88d4fde14611dd4578063c87b56dd14610918578063d3ae26b3146108f0578063e985e9c51461089e578063ea62781d146101af5763f2fde38b14610124575f80fd5b346101ab5760203660031901126101ab5761013d612947565b610145612c92565b6001600160a01b0390811690811561019357600654826001600160601b0360a01b821617600655167f8be0079c531659141344cd1fd0a4f28419497f9722a3daafe3b4186f6b6457e05f80a3005b604051631e4fbdf760e01b81525f6004820152602490fd5b5f80fd5b346101ab5760203660031901126101ab576101c8612947565b6007546001600160a01b0391906101e29083163314612b61565b818116159182159261084d578082165f52600960205260405f20546107fa57600854925f1984146107e6576001840160085560405190610221826129e1565b5f8252845f5260026020528260405f2054161515806107df575b61078457845f5260026020528260405f205416908115159081610753575b610739575b855f52600260205260405f208486166001600160601b0360a01b8254161790558560405192858716907fddf252ad1be2c89b69c2b068fc378daa952ba7f163c4a11628f55a4df523b3ef5f80a46107245750823b6105fe575b508082165f5260096020528260405f20556040516102d4816129a8565b601e81526102e0612c37565b602082019081525f60408301525f60608301525f60808301524260a08301525f60c083015261030d612c09565b60e0830152845f52600a60205260405f209060ff83511660ff198354161782555180519067ffffffffffffffff821161052a5761034d6001840154612a3b565b601f81116105ba575b50602090601f831160011461054957918060e094926007945f9261053e575b50508160011b915f199060031b1c19161760018201555b60408401516002820155606084015160038201556080840151600482015560a084015160058201556006810160ff60c08601511660ff198254161790550191015180519067ffffffffffffffff821161052a576103e98354612a3b565b601f81116104e5575b50602090601f831160011461045c579180602094927ff58aa36ab68485f12c69fbe7d41735a10bf107ec77d8e1b5ccaf244e9a08086896945f92610451575b50508160011b915f199060031b1c19161790555b604051934285521692a3005b015190508880610431565b90601f19831691845f5260205f20925f5b8181106104cd57509260019285927ff58aa36ab68485f12c69fbe7d41735a10bf107ec77d8e1b5ccaf244e9a080868989660209896106104b5575b505050811b019055610445565b01515f1960f88460031b161c191690558880806104a8565b9293602060018192878601518155019501930161046d565b835f5260205f20601f840160051c81019160208510610520575b601f0160051c01905b81811061051557506103f2565b5f8155600101610508565b90915081906104ff565b634e487b7160e01b5f52604160045260245ffd5b015190508980610375565b90600184015f5260205f20915f5b601f19851681106105a257509260e0949260019260079583601f1981161061058a575b505050811b01600182015561038c565b01515f1960f88460031b161c1916905589808061057a565b91926020600181928685015181550194019201610557565b600184015f5260205f20601f840160051c8101602085106105f7575b601f830160051c820181106105ec575050610356565b5f81556001016105d6565b50806105d6565b6040939193516020818061063a630a85bd0160e11b958683523360048401525f6024840152876044840152608060648401526084830190612923565b03815f8989165af15f91816106df575b506106ad575050503d5f146106a5573d9161066483612a1f565b9261067260405194856129fd565b83523d5f602085013e5b8251928361069e57604051633250574960e11b81528284166004820152602490fd5b6020849101fd5b60609161067c565b9193916001600160e01b031916036106c557836102b7565b604051633250574960e11b81529116600482015260249150fd5b9091506020813d60201161071c575b816106fb602093836129fd565b810103126101ab57516001600160e01b0319811681036101ab57908661064a565b3d91506106ee565b6339e3563760e11b81525f6004820152602490fd5b8385165f52600360205260405f206001815401905561025e565b600460205260405f206001600160601b0360a01b8154169055825f52600360205260405f205f198154019055610259565b60405162461bcd60e51b815260206004820152602d60248201527f52657075746174696f6e4e46543a20536f756c626f756e6420e28094206e6f6e60448201526c2d7472616e7366657261626c6560981b6064820152608490fd5b508061023b565b634e487b7160e01b5f52601160045260245ffd5b60405162461bcd60e51b815260206004820152602560248201527f52657075746174696f6e4e46543a2077616c6c657420616c72656164792068616044820152641cc813919560da1b6064820152608490fd5b60405162461bcd60e51b815260206004820152602360248201527f52657075746174696f6e4e46543a206d696e7420746f207a65726f206164647260448201526265737360e81b6064820152608490fd5b346101ab5760403660031901126101ab576108b7612947565b6108bf61295d565b9060018060a01b038091165f52600560205260405f2091165f52602052602060ff60405f2054166040519015158152f35b346101ab575f3660031901126101ab576007546040516001600160a01b039091168152602090f35b346101ab5760203660031901126101ab57610934600435612c58565b506004355f52600a60205260405f2060405190610950826129a8565b805460ff16825261096360018201612a73565b6020830152600281015460408301526003810154606083015260048101546080830152600581015460a0830152600681015460ff1660c08301526007016109a990612a73565b60e0820152805160ff166109bc90612d97565b60c082015160ff166109cd90612d97565b9060208301516109dc90612efe565b60208401516109ea90612fd2565b9260408501516109f990612d97565b9060e0860151610a0890612fd2565b604080517f3c73766720786d6c6e733d22687474703a2f2f7777772e77332e6f72672f32306020808301919091527f30302f737667222076696577426f783d22302030203430302035363022207769928201929092527f6474683d2234303022206865696768743d22353630223e0000000000000000006060820152651e3232b3399f60d11b60778201527f3c72616469616c4772616469656e742069643d226267222063783d2235302522607d820152711031bc9e911a18129110391e911b9812911f60711b609d8201527f3c73746f70206f66667365743d223025222073746f702d636f6c6f723d22233160af820152673098b0993291179f60c11b60cf8201527f3c73746f70206f66667365743d2231303025222073746f702d636f6c6f723d2260d7820152691198309830989911179f60b11b60f7820152701e17b930b234b0b623b930b234b2b73a1f60791b6101018201527f3c72616469616c4772616469656e742069643d22676c6f77222063783d2235306101128201527312911031bc9e911a98129110391e911a9812911f60611b6101328201527f3c73746f70206f66667365743d223025222073746f702d636f6c6f723d2200006101468201528551909788979395939092909190819088016101648a015e808801610164017f222073746f702d6f7061636974793d22302e3335222f3e000000000000000000905280880161017b017f3c73746f70206f66667365743d2231303025222073746f702d636f6c6f723d22905261019b908751908160208a0184838d01015e73111039ba37b816b7b830b1b4ba3c9e911811179f60611b908a019190910191820152701e17b930b234b0b623b930b234b2b73a1f60791b6101af820152711e3334b63a32b91034b21e9131363ab9111f60711b6101c08201527f3c6665476175737369616e426c757220737464446576696174696f6e3d2231386101d28201526211179f60e91b6101f28201819052681e17b334b63a32b91f60b91b6101f58301527f3c6c696e6561724772616469656e742069643d2272696e6747726164222078316101fe8301527f3d223025222079313d223025222078323d2231303025222079323d223130302561021e83015261111f60f11b61023e8301527f3c73746f70206f66667365743d223025222073746f702d636f6c6f723d220000610240830152875161025e928160208b018583015e01918201527f3c73746f70206f66667365743d2231303025222073746f702d636f6c6f723d226102618201527f23666666666666222073746f702d6f7061636974793d22302e34222f3e000000610281820152701e17b634b732b0b923b930b234b2b73a1f60791b61029e820152661e17b232b3399f60c91b6102af8201527f3c726563742077696474683d2234303022206865696768743d223536302220726102b68201527f783d223234222066696c6c3d2275726c2823626729222f3e00000000000000006102d68201527f3c636972636c652063783d22323030222063793d223231302220723d223133306102ee8201527f222066696c6c3d2275726c2823676c6f7729222066696c7465723d2275726c2861030e8201526811b1363ab91491179f60b91b61032e8201527f3c636972636c652063783d22323030222063793d223231302220723d223131306103378201527f222066696c6c3d226e6f6e6522207374726f6b653d2275726c282372696e67476103578201527f7261642922207374726f6b652d77696474683d223322206f7061636974793d226103778201526518171b11179f60d11b6103978201527f3c636972636c652063783d22323030222063793d223231302220723d2239352261039d8201527f202066696c6c3d222330663066316122207374726f6b653d22000000000000006103bd82015286516103d6918160208a018483015e7f22207374726f6b652d77696474683d22312e3522206f7061636974793d22302e910191820152631991179f60e11b6103f6820152741e3a32bc3a103c1e9119181811103c9e9119199c1160591b6103fa8201527f2020666f6e742d66616d696c793d2227417269616c20426c61636b272c20736161040f82015268373996b9b2b934b31160b91b61042f8201527f2020666f6e742d73697a653d2238302220666f6e742d7765696768743d223930610438820190815261181160f11b6104588301526710103334b6361e9160c11b61045a830152875191829060208a0190610462015e601160f91b828201602a8101919091527510103a32bc3a16b0b731b437b91e9136b4b23236329160511b602b8201527f2020646f6d696e616e742d626173656c696e653d226d6964646c65223e00000060418201528351938491602090910190605e015e661e17ba32bc3a1f60c91b605e9190920190920191820152741e3a32bc3a103c1e9119181811103c9e91191b9c1160591b606582015261111690607a01612d64565b7f2020666f6e742d73697a653d223134222066696c6c3d2200000000000000000081528551908160208801601783015e6f111037b830b1b4ba3c9e9118171a9a9160811b601792909101918201527f2020746578742d616e63686f723d226d6964646c65223e2f203130303c2f74656027820152623c3a1f60e91b60478201527f3c7265637420783d223133302220793d22333335222077696474683d22313430604a8201527411103432b4b3b43a1e91199c1110393c1e91189c9160591b606a8201527510103334b6361e913737b732911039ba3937b5b29e9160511b607f8201528551908160208801609583015e7f22207374726f6b652d77696474683d22312e3522206f7061636974793d22302e60959290910191820152631b91179f60e11b60b5820152741e3a32bc3a103c1e9119181811103c9e91199a9c9160591b60b98201526112689060ce01612d64565b7f2020666f6e742d73697a653d2231382220666f6e742d7765696768743d223730815261181160f11b60208201526710103334b6361e9160c11b60228201528551908160208801602a83015e601160f91b602a92909101918201527510103a32bc3a16b0b731b437b91e9136b4b23236329160511b602b8201527410103632ba3a32b916b9b830b1b4b7339e9119911f60591b60418201528151918290602001605683015e0160568101661e17ba32bc3a1f60c91b9052741e3a32bc3a103c1e9119181811103c9e911a189a9160591b605d82015260720161134990612d64565b7f2020666f6e742d73697a653d223132222066696c6c3d222338383822207465788152713a16b0b731b437b91e9136b4b2323632911f60711b60208201527f4c4f414e53205245504149442026616d703b2053545245414b000000000000006032820152661e17ba32bc3a1f60c91b604b820152741e3a32bc3a103c1e9118999811103c9e911a1a181160591b60528201526113e790606701612d64565b7f2020666f6e742d73697a653d2232322220666f6e742d7765696768743d223730815261181160f11b60208201526022017f202066696c6c3d22236666666666662220746578742d616e63686f723d226d6981526532323632911f60d11b602082015281516020819301602683015e0160268101661e17ba32bc3a1f60c91b9052741e3a32bc3a103c1e91191b9811103c9e911a1a181160591b602d82015260420161149290612d64565b7f2020666f6e742d73697a653d2232322220666f6e742d7765696768743d223730815261181160f11b60208201526022016710103334b6361e9160c11b81528351908160208601600883015e01600881017f2220746578742d616e63686f723d226d6964646c65223e000000000000000000905281516020819301601f83015e600f60fb1b601f9290910191820152661e17ba32bc3a1f60c91b60208201527f3c7465787420783d223133302220793d223435382220666f6e742d66616d696c60278201527f793d22417269616c2c73616e732d73657269662220666f6e742d73697a653d22604782018190527f3130222066696c6c3d22233535352220746578742d616e63686f723d226d69646067830181905270323632911f3637b0b7399e17ba32bc3a1f60791b60878401527f3c7465787420783d223237302220793d223435382220666f6e742d66616d696c609884015260b883019190915260d882015271323632911f39ba3932b0b59e17ba32bc3a1f60711b60f8820152741e3a32bc3a103c1e9119181811103c9e911a1c9c1160591b61010a82015261163b9061011f01612d64565b7f2020666f6e742d73697a653d223131222066696c6c3d222336363622207465788152602081017f742d616e63686f723d226d6964646c6522206c65747465722d73706163696e679052641e9119111f60d91b604082015281516020819301604583015e661022a0a92722a960c91b60459290910191820152661e17ba32bc3a1f60c91b604c820152741e3a32bc3a103c1e9119181811103c9e911a999a9160591b60538201527f2020666f6e742d66616d696c793d2227417269616c20426c61636b272c207361606882015268373996b9b2b934b31160b91b60888201526091017f2020666f6e742d73697a653d223133222066696c6c3d2200000000000000000081528151908160208401601783015e601160f91b601792909101918201527f20206f7061636974793d22302e352220746578742d616e63686f723d226d696460188201527f646c6522206c65747465722d73706163696e673d2234223e000000000000000060388201526815149554d51311539160ba1b6050820152661e17ba32bc3a1f60c91b60598201527f3c636972636c652063783d22333022202063793d223330222020723d223422206060820152653334b6361e9160d11b6080820181905282519092918160208401608683015e019071111037b830b1b4ba3c9e911817191a91179f60711b91826086820152609881017f3c636972636c652063783d22333730222063793d223330222020723d2234222090528360b8820152815190816020840160be83015e018260be82015260d081017f3c636972636c652063783d22333022202063793d223533302220723d2234222090528360f0820152815190816020840160f683015e01928260f685015261010884017f3c636972636c652063783d22333730222063793d223533302220723d22342220905261012884015261012e92815160208193018583015e01918201526101408101651e17b9bb339f60d11b905203610126810182526101460161191b90826129fd565b6119249061308a565b906040518092602082017f646174613a696d6167652f7376672b786d6c3b6261736536342c000000000000905280516020819201603a84015e8101603a81015f905203601a81018352603a0161197a90836129fd565b611985600435612d97565b90805160ff1661199490612d97565b602082015160408301516119a790612d97565b9260608101516119b690612d97565b9160808201516119c590612d97565b9460a08301516119d490612d97565b9060c084015160ff166119e690612d97565b9360e0015195604051998a9960208b017f7b226e616d65223a2254727573744c656e642052657075746174696f6e202300905280516020819201603f8d015e61088b60f21b908b01603f81018290527f226465736372697074696f6e223a22536f756c626f756e64206f6e2d6368616960418201527f6e20637265646974206964656e7469747920666f72207468652054727573744c60618201526e195b99081c1c9bdd1bd8dbdb0b888b608a1b6081820152681134b6b0b3b2911d1160b91b6090820152825191928290602001609983015e019060998201526d2261747472696275746573223a5b60901b609b82015260a981017f7b2274726169745f74797065223a2254727573742053636f7265222c2276616c9052633ab2911d60e11b60c98201528151602081930160cd83015e01611f4b60f21b978880978196848360cd8197015260cf81017f7b2274726169745f74797065223a2254696572222c2276616c7565223a22000090528151602081930160ed83015e019a8b9562089f4b60ea1b60ed88015260f087017f7b2274726169745f74797065223a224c6f616e7320526570616964222c227661905264363ab2911d60d91b610110819801526101159c818e92519260208492019083015e019b8c01527f7b2274726169745f74797065223a22546f74616c20426f72726f776564222c226101178c0152663b30b63ab2911d60c91b6101378c0152805161013e9b909182906020018d83015e01998a015261014089017f7b2274726169745f74797065223a22546f74616c20526570616964222c2276619052826101608a015261016598815160208193018b83015e019788015261016787017f7b2274726169745f74797065223a224d656d6265722053696e6365222c227661905261018787015261018c95815160208193018883015e01948501527f7b2274726169745f74797065223a2252657061796d656e742053747265616b2261018e8501526816113b30b63ab2911d60b91b6101ae85015280516101b794909182906020018683015e01928301527f7b2274726169745f74797065223a224561726e696e67204172636865747970656101b98301526a1116113b30b63ab2911d1160a91b6101d983015280516101e492909182906020018483015e019061227d60f01b908201526101e68101615d7d60f01b9052036101c8810182526101e801611d5c90826129fd565b611d659061308a565b6040518091602082017f646174613a6170706c69636174696f6e2f6a736f6e3b6261736536342c000000905280516020819201603d84015e8101603d81015f905203601d81018252603d01611dba90826129fd565b60405180916020825260208201611dd091612923565b0390f35b346101ab5760803660031901126101ab57611ded612947565b50611df661295d565b5060643567ffffffffffffffff81116101ab57366023820112156101ab57806004013590611e2382612a1f565b91611e3160405193846129fd565b80835236602482840101116101ab575f928160246020940184830137010152610784565b346101ab5760203660031901126101ab576001600160a01b03611e76612947565b165f52600960205260405f2054611e8e811515612bbe565b5f52600a602052611dd0611ea7600160405f2001612a73565b604051918291602083526020830190612923565b346101ab5760403660031901126101ab57611ed4612947565b5060243580151514610784575f80fd5b346101ab576020806003193601126101ab5760ff90611f01612947565b606060e0604051611f11816129a8565b5f815282858201525f60408201525f838201525f60808201525f60a08201525f60c0820152015260018060a01b03165f526009815260405f2054611f56811515612bbe565b5f52600a8152611dd060405f2060405192611f70846129a8565b848254168452611f8260018301612a73565b9080850191825285600284015493604087019485526003810154936060880194855260048201546080890190815260058301549160a08a01928352611fd76007866006870154169560c08d0196875201612a73565b9560e08b019687526040519b8c9b828d525116908b01525195612008610100978860408d01526101208c0190612923565b975160608b01525160808a01525160a08901525160c0880152511660e08601525190601f198584030190850152612923565b346101ab575f3660031901126101ab576040515f6001826001549261205e84612a3b565b92838352602094856001821691825f146120f857505060011461209d575b50612089925003836129fd565b611dd0604051928284938452830190612923565b84915060015f527fb10e2d527612073b26eecdfd717e6a320cf44b4afac2b0732d9fcbe2b7fa0cf6905f915b8583106120e057505061208993508201018561207c565b805483890185015287945086939092019181016120c9565b60ff19168582015261208995151560051b850101925087915061207c9050565b346101ab575f3660031901126101ab576006546040516001600160a01b039091168152602090f35b346101ab5760203660031901126101ab576001600160a01b03612161612947565b165f526009602052602060405f20541515604051908152f35b346101ab5760203660031901126101ab576001600160a01b0361219b612947565b165f526009602052602060405f2054604051908152f35b346101ab575f3660031901126101ab576121ca612c92565b600680546001600160a01b031981169091555f906001600160a01b03167f8be0079c531659141344cd1fd0a4f28419497f9722a3daafe3b4186f6b6457e08280a3005b346101ab5760203660031901126101ab576001600160a01b0361222e612947565b16801561224b575f526003602052602060405f2054604051908152f35b6040516322718ad960e21b81525f6004820152602490fd5b346101ab5760203660031901126101ab576020612281600435612c58565b6040516001600160a01b039091168152f35b346101ab576122a136612973565b5050505f6040516122b1816129e1565b52610784565b346101ab5760803660031901126101ab576122d0612947565b60243560ff811681036101ab576064359182151583036101ab576007546001600160a01b0391906123049083163314612b61565b6123118282161515612b15565b606460ff8416116126e8578181165f52600960205260405f2054612336811515612bbe565b5f52600a60205260405f209384549361234e81612d22565b91156126e15760ff60068701541660ff81105f146126d95760010160ff81116107e6575b955b601e60ff88161061269b5760405161238b816129c5565b600881526714d9585cdbdb985b60c21b6020820152905b60ff19871660ff8416178155835167ffffffffffffffff811161052a576123cc6001830154612a3b565b601f8111612657575b50806020601f82116001146125ee575f916125e3575b508160011b915f199060031b1c19161760018201555b60028101908154600181018091116107e65760079255600381016124286044358254612c2a565b90556004810161243b6044358254612c2a565b905560068101805460ff191660ff8b16179055825191019167ffffffffffffffff821161052a5761246c8354612a3b565b601f811161259e575b50602090601f831160011461250b577fdf16ada4a6cc57bab5263110a29297549043f745603c193b60864a15e4e2b06d98969460ff98969294846124f2958b9788955f92612500575b50508160011b915f199060031b1c19161790555b604051988998168852166020870152608060408701526080860190612923565b9616606084015216930390a2005b015190508e806124be565b90601f19831691845f5260205f20925f5b81811061258657509460018560ff9b99958c98957fdf16ada4a6cc57bab5263110a29297549043f745603c193b60864a15e4e2b06d9e9c9a956124f2998b981061256e575b505050811b0190556124d2565b01515f1960f88460031b161c191690558e8080612561565b9293602060018192878601518155019501930161251c565b835f5260205f20601f840160051c810191602085106125d9575b601f0160051c01905b8181106125ce5750612475565b5f81556001016125c1565b90915081906125b8565b90508501518a6123eb565b9150600183015f5260205f205f925b601f198316841061263f576001935082601f19811610612627575b5050811b016001820155612401565b8701515f1960f88460031b161c191690558a80612618565b878101518255602093840193600190920191016125fd565b600183015f5260205f20601f830160051c810160208410612694575b601f830160051c820181106126895750506123d5565b5f8155600101612673565b5080612673565b600760ff8816106126cb576040516126b2816129c5565b60068152655765656b6c7960d01b6020820152906123a2565b6126d3612c09565b906123a2565b5060ff612372565b5f95612374565b606460405162461bcd60e51b815260206004820152602060248201527f52657075746174696f6e4e46543a2073636f72652065786365656473203130306044820152fd5b346101ab5761273a36612973565b505050610784565b346101ab5760203660031901126101ab5761275b612947565b612763612c92565b6001600160a01b039081169061277a821515612b15565b600754826001600160601b0360a01b821617600755167fb8852e851bdabda04c25661cfbfa7b09b3019206382f067a349af593e883214a5f80a3005b346101ab5760403660031901126101ab576127cf612947565b50610784565b346101ab5760203660031901126101ab576004356127f281612c58565b505f526004602052602060018060a01b0360405f205416604051908152f35b346101ab575f3660031901126101ab576040515f8054908261283283612a3b565b91828252602093600190856001821691825f146120f857505060011461285f5750612089925003836129fd565b5f808052859250907f290decd9548b62a8d60345a988386fc84ba6bc95484008f6362f93160ef3e5635b8583106128a057505061208993508201018561207c565b80548389018501528794508693909201918101612889565b346101ab5760203660031901126101ab576004359063ffffffff60e01b82168092036101ab576020916380ac58cd60e01b8114908115612912575b8115612901575b5015158152f35b6301ffc9a760e01b149050836128fa565b635b5e139f60e01b811491506128f3565b805180835260209291819084018484015e5f828201840152601f01601f1916010190565b600435906001600160a01b03821682036101ab57565b602435906001600160a01b03821682036101ab57565b60609060031901126101ab576001600160a01b039060043582811681036101ab579160243590811681036101ab579060443590565b610100810190811067ffffffffffffffff82111761052a57604052565b6040810190811067ffffffffffffffff82111761052a57604052565b6020810190811067ffffffffffffffff82111761052a57604052565b90601f8019910116810190811067ffffffffffffffff82111761052a57604052565b67ffffffffffffffff811161052a57601f01601f191660200190565b90600182811c92168015612a69575b6020831014612a5557565b634e487b7160e01b5f52602260045260245ffd5b91607f1691612a4a565b9060405191825f8254612a8581612a3b565b908184526020946001916001811690815f14612af35750600114612ab5575b505050612ab3925003836129fd565b565b5f90815285812095935091905b818310612adb575050612ab393508201015f8080612aa4565b85548884018501529485019487945091830191612ac2565b92505050612ab394925060ff191682840152151560051b8201015f8080612aa4565b15612b1c57565b60405162461bcd60e51b815260206004820152601b60248201527f52657075746174696f6e4e46543a207a65726f206164647265737300000000006044820152606490fd5b15612b6857565b60405162461bcd60e51b815260206004820152602860248201527f52657075746174696f6e4e46543a2063616c6c6572206973206e6f74204c656e604482015267191a5b99d41bdbdb60c21b6064820152608490fd5b15612bc557565b606460405162461bcd60e51b815260206004820152602060248201527f52657075746174696f6e4e46543a2077616c6c657420686173206e6f204e46546044820152fd5b60405190612c16826129c5565b60058252644461696c7960d81b6020830152565b919082018092116107e657565b60405190612c44826129c5565b6005825264456e74727960d81b6020830152565b5f818152600260205260409020546001600160a01b0316908115612c7a575090565b60249060405190637e27328960e01b82526004820152fd5b6006546001600160a01b03163303612ca657565b60405163118cdaa760e01b8152336004820152602490fd5b60405190612ccb826129c5565b600482526311dbdb1960e21b6020830152565b60405190612ceb826129c5565b600682526529b4b63b32b960d11b6020830152565b60405190612d0d826129c5565b600682526542726f6e7a6560d01b6020830152565b60ff166050811015612d5b57603c811015612d525760281115612d4a57612d47612c37565b90565b612d47612d00565b50612d47612cde565b50612d47612cbe565b7f2020666f6e742d66616d696c793d22417269616c2c2073616e732d73657269668152601160f91b602082015260210190565b805f917a184f03e93ff9f4daa797ed6e38ed64bf6a1f01000000000000000080821015612ef0575b506d04ee2d6d415b85acef810000000080831015612ee1575b50662386f26fc1000080831015612ed2575b506305f5e10080831015612ec3575b5061271080831015612eb4575b506064821015612ea4575b600a80921015612e9a575b6001908160216001860195612e3087612a1f565b96612e3e60405198896129fd565b808852612e4d601f1991612a1f565b01366020890137860101905b612e65575b5050505090565b5f19019083906f181899199a1a9b1b9c1cb0b131b232b360811b8282061a835304918215612e9557919082612e59565b612e5e565b9160010191612e1c565b9190606460029104910191612e11565b6004919392049101915f612e06565b6008919392049101915f612df9565b6010919392049101915f612dea565b6020919392049101915f612dd8565b60409350810491505f612dbf565b8051602080920120612f0e612cbe565b8281519101208114612f9457612f22612cde565b8281519101208114612f7b57612f36612d00565b82815191012014612f6357660467084708c82760cb1b60405191612f59836129c5565b6007835282015290565b6611a1a21ba3199960c91b60405191612f59836129c5565b50660234330433043360cc1b60405191612f59836129c5565b50660234646443730360cc1b60405191612f59836129c5565b908151811015612fbe570160200190565b634e487b7160e01b5f52603260045260245ffd5b908151612ff7612fe182612a1f565b91612fef60405193846129fd565b808352612a1f565b601f19939084013660208401375f5b8151811015613083576130198183612fad565b51908560f89280841c90606182101580613078575b156130615750019160ff83116107e657600192901b6001600160f81b0319165b5f1a61305a8286612fad565b5301613006565b600194506001600160f81b031916915061304e9050565b50607a82111561302e565b5090925050565b8051156131b65780519160028084018094116107e657600393849004600281901b91906001600160fe1b038116036107e65793604051937f4142434445464748494a4b4c4d4e4f505152535455565758595a616263646566601f52603f917f6768696a6b6c6d6e6f707172737475767778797a303132333435363738392b2f603f5260208601928291835184019160208301998a51945f8c525b84811061317a5750505050509060039160209596975251068060011461316557600214613158575b50808452830101604052565b603d905f1901535f61314c565b50603d90815f1982015360011901535f61314c565b836004919c95989c019b838d51818160121c165183538181600c1c16516001840153818160061c1651858401531651858201530196939a613124565b506040516131c3816129e1565b5f81529056fea26469706673582212206070ca55d44a5618955f2e476d671e916642cfcb6f7099be10bf7ccb395d2c2764736f6c63430008190033",
  "linkReferences": {},
  "deployedLinkReferences": {}
}