{
  "_format": "hh-sol-artifact-1",
  "contractName": "TrustToken",
  "sourceName": "contracts/TrustToken.sol",
  "abi": [
    {
      "inputs": [],
      "stateMutability": "nonpayable",
      "type": "constructor"
    },
    {
      "inputs": [
        {
          "internalType": "address",
          "name": "spender",
          "type": "address"
        },
        {
          "internalType": "uint256",
          "name": "allowance",
          "type": "uint256"
        },
        {
          "internalType": "uint256",
          "name": "needed",
          "type": "uint256"
        }
      ],
      "name": "ERC20InsufficientAllowance",
      "type": "error"
    },
    {
      "inputs": [
        {
          "internalType": "address",
          "name": "sender",
          "type": "address"
        },
        {
          "internalType": "uint256",
          "name": "balance",
          "type": "uint256"
        },
        {
          "internalType": "uint256",
          "name": "needed",
          "type": "uint256"
        }
      ],
      "name": "ERC20InsufficientBalance",
      "type": "error"
    },
    {
      "inputs": [
        {
          "internalType": "address",
          "name": "approver",
          "type": "address"
        }
      ],
      "name": "ERC20InvalidApprover",
      "type": "error"
    },
    {
      "inputs": [
        {
          "internalType": "address",
          "name": "receiver",
          "type": "address"
        }
      ],
      "name": "ERC20InvalidReceiver",
      "type": "error"
    },
    {
      "inputs": [
        {
          "internalType": "address",
          "name": "sender",
          "type": "address"
        }
      ],
      "name": "ERC20InvalidSender",
      "type": "error"
    },
    {
      "inputs": [
        {
          "internalType": "address",
          "name": "spender",
          "type": "address"
        }
      ],
      "name": "ERC20InvalidSpender",
      "type": "error"
    },
    {
      "inputs": [
        {
          "internalType": "address",
          "name": "owner",
          "type": "address"
        }
      ],
      "name": "OwnableInvalidOwner",
      "type": "error"
    },
    {
      "inputs": [
        {
          "internalType": "address",
          "name": "account",
          "type": "address"
        }
      ],
      "name": "OwnableUnauthorizedAccount",
      "type": "error"
    },
    {
      "anonymous": false,
      "inputs": [
        {
          "indexed": true,
          "internalType": "address",
          "name": "owner",
          "type": "address"
        },
        {
          "indexed": true,
          "internalType": "address",
          "name": "spender",
          "type": "address"
        },
        {
          "indexed": false,
          "internalType": "uint256",
          "name": "value",
          "type": "uint256"
        }
      ],
      "name": "Approval",
      "type": "event"
    },
    {
      "anonymous": false,
      "inputs": [
        {
          "indexed": true,
          "internalType": "address",
          "name": "previousOwner",
          "type": "address"
        },
        {
          "indexed": true,
          "internalType": "address",
          "name": "newOwner",
          "type": "address"
        }
      ],
      "name": "OwnershipTransferred",
      "type": "event"
    },
    {
      "anonymous": false,
      "inputs": [
        {
          "indexed": true,
          "internalType": "address",
          "name": "claimer",
          "type": "address"
        },
        {
          "indexed": false,
          "internalType": "uint256",
          "name": "amount",
          "type": "uint256"
        },
        {
          "indexed": false,
          "internalType": "uint256",
          "name": "timestamp",
          "type": "uint256"
        }
      ],
      "name": "TokensClaimed",
      "type": "event"
    },
    {
      "anonymous": false,
      "inputs": [
        {
          "indexed": true,
          "internalType": "address",
          "name": "from",
          "type": "address"
        },
        {
          "indexed": true,
          "internalType": "address",
          "name": "to",
          "type": "address"
        },
        {
          "indexed": false,
          "internalType": "uint256",
          "name": "value",
          "type": "uint256"
        }
      ],
      "name": "Transfer",
      "type": "event"
    },
    {
      "inputs": [],
      "name": "FAUCET_AMOUNT",
      "outputs": [
        {
          "internalType": "uint256",
          "name": "",
          "type": "uint256"
        }
      ],
      "stateMutability": "view",
      "type": "function"
    },
    {
      "inputs": [],
      "name": "FAUCET_COOLDOWN",
      "outputs": [
        {
          "internalType": "uint256",
          "name": "",
          "type": "uint256"
        }
      ],
      "stateMutability": "view",
      "type": "function"
    },
    {
      "inputs": [
        {
          "internalType": "address",
          "name": "owner",
          "type": "address"
        },
        {
          "internalType": "address",
          "name": "spender",
          "type": "address"
        }
      ],
      "name": "allowance",
      "outputs": [
        {
          "internalType": "uint256",
          "name": "",
          "type": "uint256"
        }
      ],
      "stateMutability": "view",
      "type": "function"
    },
    {
      "inputs": [
        {
          "internalType": "address",
          "name": "spender",
          "type": "address"
        },
        {
          "internalType": "uint256",
          "name": "value",
          "type": "uint256"
        }
      ],
      "name": "approve",
      "outputs": [
        {
          "internalType": "bool",
          "name": "",
          "type": "bool"
        }
      ],
      "stateMutability": "nonpayable",
      "type": "function"
    },
    {
      "inputs": [
        {
          "internalType": "address",
          "name": "account",
          "type": "address"
        }
      ],
      "name": "balanceOf",
      "outputs": [
        {
          "internalType": "uint256",
          "name": "",
          "type": "uint256"
        }
      ],
      "stateMutability": "view",
      "type": "function"
    },
    {
      "inputs": [],
      "name": "claimTestTokens",
      "outputs": [],
      "stateMutability": "nonpayable",
      "type": "function"
    },
    {
      "inputs": [],
      "name": "decimals",
      "outputs": [
        {
          "internalType": "uint8",
          "name": "",
          "type": "uint8"
        }
      ],
      "stateMutability": "view",
      "type": "function"
    },
    {
      "inputs": [
        {
          "internalType": "address",
          "name": "",
          "type": "address"
        }
      ],
      "name": "lastClaimed",
      "outputs": [
        {
          "internalType": "uint256",
          "name": "",
          "type": "uint256"
        }
      ],
      "stateMutability": "view",
      "type": "function"
    },
    {
      "inputs": [
        {
          "internalType": "address",
          "name": "to",
          "type": "address"
        },
        {
          "internalType": "uint256",
          "name": "amount",
          "type": "uint256"
        }
      ],
      "name": "mint",
      "outputs": [],
      "stateMutability": "nonpayable",
      "type": "function"
    },
    {
      "inputs": [],
      "name": "name",
      "outputs": [
        {
          "internalType": "string",
          "name": "",
          "type": "string"
        }
      ],
      "stateMutability": "view",
      "type": "function"
    },
    {
      "inputs": [],
      "name": "owner",
      "outputs": [
        {
          "internalType": "address",
          "name": "",
          "type": "address"
        }
      ],
      "stateMutability": "view",
      "type": "function"
    },
    {
      "inputs": [],
      "name": "renounceOwnership",
      "outputs": [],
      "stateMutability": "nonpayable",
      "type": "function"
    },
    {
      "inputs": [],
      "name": "symbol",
      "outputs": [
        {
          "internalType": "string",
          "name": "",
          "type": "string"
        }
      ],
      "stateMutability": "view",
      "type": "function"
    },
    {
      "inputs": [
        {
          "internalType": "address",
          "name": "account",
          "type": "address"
        }
      ],
      "name": "timeUntilNextClaim",
      "outputs": [
        {
          "internalType": "uint256",
          "name": "",
          "type": "uint256"
        }
      ],
      "stateMutability": "view",
      "type": "function"
    },
    {
      "inputs": [],
      "name": "totalSupply",
      "outputs": [
        {
          "internalType": "uint256",
          "name": "",
          "type": "uint256"
        }
      ],
      "stateMutability": "view",
      "type": "function"
    },
    {
      "inputs": [
        {
          "internalType": "address",
          "name": "to",
          "type": "address"
        },
        {
          "internalType": "uint256",
          "name": "value",
          "type": "uint256"
        }
      ],
      "name": "transfer",
      "outputs": [
        {
          "internalType": "bool",
          "name": "",
          "type": "bool"
        }
      ],
      "stateMutability": "nonpayable",
      "type": "function"
    },
    {
      "inputs": [
        {
          "internalType": "address",
          "name": "from",
          "type": "address"
        },
        {
          "internalType": "address",
          "name": "to",
          "type": "address"
        },
        {
          "internalType": "uint256",
          "name": "value",
          "type": "uint256"
        }
      ],
      "name": "transferFrom",
      "outputs": [
        {
          "internalType": "bool",
          "name": "",
          "type": "bool"
        }
      ],
      "stateMutability": "nonpayable",
      "type": "function"
    },
    {
      "inputs": [
        {
          "internalType": "address",
          "name": "newOwner",
          "type": "address"
        }
      ],
      "name": "transferOwnership",
      "outputs": [],
      "stateMutability": "nonpayable",
      "type": "function"
    }
  ],
  "bytecode": "0x608034610397576040906001600160401b03818301818111838210176102b0578352600f82526020906e2a393ab9ba2632b732102a37b5b2b760891b82840152835192848401848110838211176102b05785526005918285526415149554d560da1b8486015281518181116102b0576003908154906001948583811c9316801561038d575b88841014610379578190601f9384811161032d575b5088908483116001146102cf575f926102c4575b50505f1982851b1c191690851b1782555b86519283116102b05760049687548581811c911680156102a6575b8882101461029357828111610252575b50869184116001146101f0579383949184925f956101e5575b50501b925f19911b1c19161783555b33156101cf578054336001600160a01b0319821681179092556001600160a01b03167f8be0079c531659141344cd1fd0a4f28419497f9722a3daafe3b4186f6b6457e05f80a360025469d3c21bcecceda1000000928382018092116101bc57505f917fddf252ad1be2c89b69c2b068fc378daa952ba7f163c4a11628f55a4df523b3ef9160025533835282815284832084815401905584519384523393a351610b04908161039c8239f35b601190634e487b7160e01b5f525260245ffd5b8351631e4fbdf760e01b81525f81850152602490fd5b015193505f80610102565b9190601f19841692885f5284885f20945f5b8a8983831061023b5750505010610222575b50505050811b018355610111565b01519060f8845f19921b161c191690555f808080610214565b868601518955909701969485019488935001610202565b885f52875f2083808701891c8201928a881061028a575b01881c019086905b82811061027f5750506100e9565b5f8155018690610271565b92508192610269565b602289634e487b7160e01b5f525260245ffd5b90607f16906100d9565b634e487b7160e01b5f52604160045260245ffd5b015190505f806100ad565b90879350601f19831691865f528a5f20925f5b8c8282106103175750508411610300575b505050811b0182556100be565b01515f1983871b60f8161c191690555f80806102f3565b8385015186558b979095019493840193016102e2565b909150845f52885f20848085018a1c8201928b8610610370575b91899186959493018b1c01915b828110610362575050610099565b5f8155859450899101610354565b92508192610347565b634e487b7160e01b5f52602260045260245ffd5b92607f1692610084565b5f80fdfe608060409080825260049081361015610016575f80fd5b5f3560e01c908163013eba92146108e75750806306fdde031461080b578063095ea7b31461076257806310f00ae11461060d57806318160ddd146105ef57806323b872dd146104fe578063313ce567146104e357806340c10f191461043557806370a08231146103ff578063715018a6146103a457806376697640146103815780637d1d5d19146103645780638da5cb5b1461033c57806392d82dbe1461031057806395d89b41146101f0578063a9059cbb146101c0578063dd62ed3e146101775763f2fde38b146100e6575f80fd5b34610173576020366003190112610173576100ff61091b565b90610108610aa2565b6001600160a01b0391821692831561015d575050600554826bffffffffffffffffffffffff60a01b821617600555167f8be0079c531659141344cd1fd0a4f28419497f9722a3daafe3b4186f6b6457e05f80a3005b905f6024925191631e4fbdf760e01b8352820152fd5b5f80fd5b823461017357806003193601126101735760209061019361091b565b61019b610931565b9060018060a01b038091165f5260018452825f2091165f528252805f20549051908152f35b82346101735780600319360112610173576020906101e96101df61091b565b60243590336109c8565b5160018152f35b509034610173575f366003190112610173578051905f835460018160011c9060018316928315610306575b60209384841081146102f3578388529081156102d75750600114610283575b505050829003601f01601f191682019267ffffffffffffffff841183851017610270575082918261026c925282610947565b0390f35b604190634e487b7160e01b5f525260245ffd5b5f878152929350837f8a35acfbc15ff81a39ae7d344fd709f28e8600b4aa8c65c6b64bfe7fe36bd19b5b8385106102c357505050508301015f808061023a565b8054888601830152930192849082016102ad565b60ff1916878501525050151560051b84010190505f808061023a565b602289634e487b7160e01b5f525260245ffd5b91607f169161021b565b82346101735760203660031901126101735760209061033561033061091b565b610971565b9051908152f35b8234610173575f3660031901126101735760055490516001600160a01b039091168152602090f35b8234610173575f3660031901126101735760209051620151808152f35b8234610173575f3660031901126101735760209051683635c9adc5dea000008152f35b34610173575f366003190112610173576103bc610aa2565b600580546001600160a01b031981169091555f906001600160a01b03167f8be0079c531659141344cd1fd0a4f28419497f9722a3daafe3b4186f6b6457e08280a3005b8234610173576020366003190112610173576020906001600160a01b0361042461091b565b165f525f8252805f20549051908152f35b50903461017357806003193601126101735761044f61091b565b906024359161045c610aa2565b6001600160a01b03169283156104ce57600254908382018092116104bb57505f927fddf252ad1be2c89b69c2b068fc378daa952ba7f163c4a11628f55a4df523b3ef9260209260025585855284835280852082815401905551908152a3005b601190634e487b7160e01b5f525260245ffd5b5f602492519163ec442f0560e01b8352820152fd5b8234610173575f366003190112610173576020905160128152f35b50346101735760603660031901126101735761051861091b565b610520610931565b906044359260018060a01b038216805f526001602052855f20335f52602052855f2054915f19831061055b575b6020876101e98888886109c8565b8583106105c35781156105ad57331561059757505f908152600160209081528682203383528152908690209185900390915582906101e961054d565b6024905f885191634a1406b160e11b8352820152fd5b6024905f88519163e602df0560e01b8352820152fd5b8651637dc7a0d960e11b8152339181019182526020820193909352604081018690528291506060010390fd5b8234610173575f366003190112610173576020906002549051908152f35b509034610173575f36600319011261017357335f5260209060068252805f205462015180810180911161074f57421061070357335f526006825242815f205533156106ee5760025491683635c9adc5dea00000928381018091116106db577f9923b4306c6c030f2bdfbf156517d5983b87e15b96176da122cd4f2effa4ba7b939450600255335f525f8152815f2084815401905581518481525f7fddf252ad1be2c89b69c2b068fc378daa952ba7f163c4a11628f55a4df523b3ef833393a3815193845242908401523392a2005b601185634e487b7160e01b5f525260245ffd5b5163ec442f0560e01b81525f81840152602490fd5b5162461bcd60e51b815291820152602360248201527f5472757374546f6b656e3a207761697420323468206265747765656e20636c61604482015262696d7360e81b6064820152608490fd5b601184634e487b7160e01b5f525260245ffd5b50903461017357806003193601126101735761077c61091b565b6024359033156107f5576001600160a01b03169081156107df5760209350335f5260018452825f20825f52845280835f205582519081527f8c5be1e5ebec7d5bd14f71427d1e84f3dd0314c0f7b2291e5b200ac8c7c3b925843392a35160018152f35b8251634a1406b160e11b81525f81860152602490fd5b825163e602df0560e01b81525f81860152602490fd5b509034610173575f366003190112610173578051905f60035460018160011c90600183169283156108dd575b60209384841081146102f3578388529081156102d7575060011461088757505050829003601f01601f191682019267ffffffffffffffff841183851017610270575082918261026c925282610947565b60035f908152929350837fc2575a0e9e593c00f959f8c92f12db2869c3395a3b0502d05e2516446f71f85b5b8385106108c957505050508301015f808061023a565b8054888601830152930192849082016108b3565b91607f1691610837565b839034610173576020366003190112610173576020916001600160a01b0361090d61091b565b165f52600683525f20548152f35b600435906001600160a01b038216820361017357565b602435906001600160a01b038216820361017357565b602060409281835280519182918282860152018484015e5f828201840152601f01601f1916010190565b6001600160a01b03165f9081526006602052604090205462015180808201918281116109ad57824210156109c157429003019081116109ad5790565b634e487b7160e01b5f52601160045260245ffd5b5050505f90565b916001600160a01b03808416928315610a8a5716928315610a7257825f525f60205260405f205490828210610a405750817fddf252ad1be2c89b69c2b068fc378daa952ba7f163c4a11628f55a4df523b3ef92602092855f525f84520360405f2055845f5260405f20818154019055604051908152a3565b60405163391434e360e21b81526001600160a01b03919091166004820152602481019190915260448101829052606490fd5b60405163ec442f0560e01b81525f6004820152602490fd5b604051634b637e8f60e11b81525f6004820152602490fd5b6005546001600160a01b03163303610ab657565b60405163118cdaa760e01b8152336004820152602490fdfea264697066735822122088d85c28a051da9e6dc96bf92f0446da008f39de2d5dacccc4c54f9cc5f9f63164736f6c63430008190033",
  "linkReferences": {},
  "deployedLinkReferences": {}
}